:020000040800F2
:10000000F08F002089020008910200089302000886
:1000100095020008970200089902000800000000FD
:10002000000000000000000000000000C101000806
:100030009D0200080000000015020008D5440008D9
:10004000A3020008A3020008A3020008A3020008FC
:10005000A3020008A3020008A3020008A3020008EC
:10006000A3020008A3020008A3020008A3020008DC
:10007000A3020008A3020008A3020008A3020008CC
:10008000A3020008A3020008A3020008A3020008BC
:10009000F1050008A3020008A3020008410F0008B0
:1000A000A3020008A3020008A3020008A30200089C
:1000B000F1450008A3020008A3020008A3020008FB
:1000C000A3020008A3020008A3020008A30200087C
:1000D000A30200083D4D00084D4D00085D4D00088D
:1000E000310F0008A3020008A3020008A3020008C1
:1000F000A3020008A3020008A3020008A30200084C
:10010000A3020008A3020008A3020008A30200083B
:100110009D480008AD480008014600081546000843
:10012000A3020008A3020008A3020008A30200081B
:10013000A3020008A3020008A3020008A30200080B
:10014000A3020008A3020008A3020008A3020008FB
:10015000A3020008A3020008A30200086D4D0008D6
:10016000A3020008A3020008A3020008A3020008DB
:10017000A3020008A3020008A30200080000000078
:10018000A3020008A3020008A3020008A3020008BB
:10019000A3020008A3020008A3020008A3020008AB
:1001A000A3020008A3020008A3020008DFF80CD095
:1001B00000F0AEF800480047415C0008F08F0020D6
:1001C000294B19680868B0E8F04F80F30988BFF33D
:1001D0006F8F4FF0000080F311887047000000001F
:1001E00006480068006880F3088862B661B6BFF30D
:1001F0004F8FBFF36F8F00DF00BF00BF08ED00E03F
:10020000DFF80C00016841F470010160704700BF25
:1002100088ED00E0EFF30980BFF36F8F124B1A688F
:100220001EF0100F08BF20ED108A20E9F04F10607B
:1002300008B44FF0500080F3118806F097FF4FF09C
:10024000000080F3118808BC19680868B0E8F04F16
:100250001EF0100F08BFB0EC108A80F30988BFF3BE
:100260006F8F704700BF00BFF0010020EFF31180D7
:100270004FF0500181F31188704780F31188704767
:10028000EFF30580704700000648804706480047A6
:10029000FEE7FEE7FEE7FEE7FEE7FEE7FEE7FEE736
:1002A000FEE7FEE78D450008AD01000840EA0103C6
:1002B0009B0703D009E008C9121F08C0042AFAD21C
:1002C00003E011F8013B00F8013B521EF9D27047E0
:1002D000D2B201E000F8012B491EFBD27047002288
:1002E000F6E710B513460A4604461946FFF7F0FF35
:1002F000204610BD30B504460020034600E05B1CDC
:10030000934203D2E05CCD5C401BF8D030BD0000CE
:10031000064C074D06E0E06840F0010394E8070052
:1003200098471034AC42F6D3FFF744FF1886000814
:100330003886000870B58C1810F8015B15F00703BB
:1003400001D110F8013B2A1106D110F8012B03E06E
:1003500010F8016B01F8016B5B1EF9D12B0705D476
:100360000023521E0DD401F8013BFAE710F8013BBF
:10037000CB1A921C03E013F8015B01F8015B521EDB
:10038000F9D5A142D8D3002070BD00005A490968B0
:1003900021F44031594AC2F804131146D1F804132C
:1003A00042681143544A11600168496821F4807120
:1003B0000268516001684A68016942EA01210268E5
:1003C00051600168496821F040710268516001681C
:1003D000496882681143026851600168896821F4A4
:1003E00000610268916001688968C268114302680F
:1003F0009160434AC16A914218D00168896821F02E
:1004000070610268916001688968C26A114302687C
:1004100091600168896821F040510268916001682B
:100420008968026B1143026891600BE0016889687A
:1004300021F07061026891600168896821F0405183
:10044000026891600168896821F002010268916088
:1004500001688A68816942EA410102689160416AE3
:10046000D1B10168496841F40061026851600168D6
:10047000496821F460410268516001684A68816AF4
:10048000491E4FF4604393FAA3F3B3FA83F3994000
:100490000A4301684A6005E00168496821F4006187
:1004A000026851600168C96A21F470010268D16272
:1004B0000168CA6A018C491E42EA01510268D16290
:1004C0000168896821F400710268916001688A6896
:1004D000C16942EA4121026891600168896821F49A
:1004E00080610268916001688A68416942EA8121FD
:1004F0000268916070470000042301400020014021
:100500000100000F30B54368C3F30F2100224FF6FE
:10051000E9640B1BA14220D00CDCA1F57043A3F1D0
:100520000303B3B1012B22D0A3F6BD63A3B3252BE4
:1005300043D132E0012B20D0082B04D0092B37D037
:10054000132B3AD10EE0B0F815301D4CA4F81B3037
:1005500034E0847D1A4B5C7730E0194B8469C3F832
:100560001E402BE0447D164B83F8224026E0B0F875
:100570001740134BA3F8234020E0037D002B0ADD36
:10058000037D082B07DCB0F81540057D0C4B2533A7
:1005900003EB45031C8011E004E0094B4469C3F8F8
:1005A00035400BE0B0F81540054BA3F8394005E0A5
:1005B000848A034BA3F83B4000E000BF00BF30BD7E
:1005C000840600208AB00FE002E001A8FFF79AFF3E
:1005D00000235A1E01A90548006807F050F90128B8
:1005E000F3D0642006F01EFCEEE700008801002036
:1005F00010B5024800F05AFF10BD000004060020AC
:1006000088B007F003FC07901F49C1F830D040F2D2
:10061000213000904FF4807001900020039004205E
:100620000290012004903A208DF81400FF218DF8EB
:100630001510AA218DF81610FF218DF81710AA2188
:100640008DF81810FF218DF81910AA218DF81A10B5
:10065000FF218DF81B1015E00C4801900A210A4873
:1006600001F0F4F94FF4C87107A806F013FC08482C
:1006700001900A21044801F0E9F94FF4C87107A874
:1006800006F008FCE8E70000440600201000FA1815
:100690001000FB1800B58FB040F2F77005904FF4D2
:1006A0000840069040F2FF7007904FF478400890A1
:1006B000002009900A900B9001200C900D900E20C4
:1006C0000E9005A97E4800F053FE4FF4F0600590AF
:1006D0004FF4C050069040F2FF7007904FF47840FE
:1006E00008900020099001200A9000200B90012022
:1006F0000C900D900F200E9005A9714800F038FE67
:1007000040F2F77005904FF49040069040F2FF7071
:1007100007904FF4784008900020099002200A903A
:1007200000200B9001200C900D9010200E9005A938
:10073000634800F01DFE40F2F77005904FF46040F2
:10074000069040F2FF7007904FF478400890002028
:10075000099003200A9000200B9001200C900D902E
:1007600011200E9005A9564800F002FE4FF4F060EB
:1007700005904FF40050069040F2FF7007904FF440
:10078000784008900020099004200A9000200B90E7
:1007900001200C900D9012200E9005A9484800F001
:1007A000E7FD40F2F77005904FF4A040069040F24C
:1007B000FF7007904FF478400890002009900520C2
:1007C0000A9000200B9001200C900D9013200E90A9
:1007D00005A93B4800F0CCFD40F2F77005904FF4BE
:1007E0002050069040F2FF7007904FF47840089038
:1007F0000020099006200A9000200B9001200C9008
:100800000D9014200E9005A92D4800F0B1FD40F286
:10081000F67005900020069040F2FF7007904FF4AC
:10082000784008900020099008200A9000200B9042
:1008300001200C900D9016200E9005A9204800F084
:1008400097FD40F2F77005904FF41040069040F28B
:10085000FF7007904FF4784008900020099007201F
:100860000A9000200B9001200C900D9015200E9006
:1008700005A9134800F07CFD124811494863002285
:100880002421202006F0C3FF0F4908600020012327
:10089000CDE900300290034680220CA103900F485E
:1008A00007F008FA00200523CDE900300290034646
:1008B00080220BA103900E4807F0FCF90FB000BD99
:1008C000040600204C0700208801002043414E31DF
:1008D000204C697374656E696E670000C505000879
:1008E00043414E322053656E64696E67000000001C
:1008F0000106000870B504460D46206800F5D87062
:1009000000EB0510006800F00400616B8860606B0C
:10091000806860B9206800F5D87000EB05100068A9
:1009200040F2FF7101EA5050616B08600BE02068F3
:1009300000F5D87000EB051000686FF0604101EA27
:10094000D000616B4860206800F5D87000EB05109E
:10095000006800F00200616BC860206800F5D87084
:1009600000EB0510406800F00F00616B0861206823
:1009700000F5D87000EB05104068C0F30720616BEC
:10098000C861206800F5D87000EB05108068616BC5
:100990000875206800F5D87000EB05108068010A22
:1009A000606B4175206800F5D87000EB0510806819
:1009B000010C606B8175206800F5D87000EB0510A4
:1009C0008068000E616BC875206800F5D87000EB78
:1009D0000510C068C1B2606B0176206800F5D87060
:1009E00000EB0510C068010A606B4176206800F5D5
:1009F000D87000EB0510C068010C606B8176206830
:100A000000F5D87000EB0510C068000E616BC87669
:100A100065B92068C06840F020002168C86020687F
:100A2000406920F00200216848610BE020680069FD
:100A300040F02000216808612068406920F0100023
:100A40002168486194F8380022281DD12068406947
:100A500020F48070216848612068406920F40070AB
:100A6000216848612068406920F4806021684861FD
:100A70002068406920F4006021684861206840696E
:100A800020F400402168486194F83800322803D1EE
:100A9000122084F8380002E0012084F83800204653
:100AA00000F0B0FF002070BD10B50446206840691A
:100AB00020F001002168486194F8380012281DD107
:100AC0002068406920F4807021684861206840698E
:100AD00020F40070216848612068406920F480603B
:100AE000216848612068406920F4006021684861FD
:100AF0002068406920F400402168486194F838007B
:100B0000322803D1222084F8380002E0012084F842
:100B10003800204601F0CAF8002010BD70470000E0
:100B200015E00B48407A90B1012006F07BF90948A6
:100B3000D0F8A100401C0749C1F8A10000200449D9
:100B40004872172001F0E8FA172001F001FBE8E7EE
:100B5000B00800208406002015E00B48407D90B1CD
:100B6000012006F05FF90948D0F8A500401C0749AC
:100B7000C1F8A500002104484175282001F0CCFAF5
:100B8000282001F0E5FAE8E7B008002084060020FC
:100B900010B5012002494872172001F0CBFA10BDB0
:100BA000B008002010B5012102484175282001F04D
:100BB000C1FA10BDB00800201FB5144814490860E0
:100BC000401548600020087248721048C860C1147F
:100BD0000F48016100210175417500200123CDE915
:100BE00000300290034680220AA103900E4807F0CD
:100BF00061F800200123CDE90030029003468022F5
:100C00000AA103900E4807F055F81FBD00100240DE
:100C1000B0080020436E743020696E7075742070C7
:100C20006F6C6C696E670000210B0008436E7432B4
:100C300020696E70757420706F6C6C696E6700004F
:100C4000590B000810B586B0044604F0030058B9EB
:100C50004FF400700190184802900020039001A901
:100C6000164801F03BF80AE04FF400700190144878
:100C700002900020039001A9104801F02FF8C4F35E
:100C8000810058B94FF4006001900B480290002099
:100C9000039001A9094801F021F80AE04FF400602F
:100CA0000190074802900020039001A9034801F039
:100CB00015F806B010BD0000000011100010024031
:100CC00000002110C0EBC00101EB401000BF011E6D
:100CD000A0F10100FBD1704710B5044623480088FD
:100CE000844242D004F001024FF40061204801F038
:100CF00009F904F002024FF480511D4801F002F995
:100D000004F0040280211B4801F0FCF804F0080202
:100D10004FF48071174801F0F5F804F010024FF419
:100D20008051144801F0EEF804F020024FF4005115
:100D3000104801F0E7F804F040024FF480410D48FC
:100D400001F0E0F804F080024FF40041094801F09E
:100D5000D9F800220121084801F0D4F8002204212A
:100D6000064801F0CFF80148048010BDA40100201E
:100D7000001402400010024000040240001802402B
:100D80001FB500200123CDE90030029003468022E8
:100D900002A10390064806F08DFF1FBD44697363EE
:100DA0007220696E70757420706F6C6C696E67006C
:100DB000B50D0008B3E0642006F034F80821584867
:100DC00001F098F80446012006F02CF80821544858
:100DD00001F090F8A0420DD15248B0F89F0020F0E9
:100DE00001005049A1F89F000846B0F89F00204339
:100DF000A1F89F0040214C4801F07CF804460120F6
:100E000006F010F84021484801F074F8A0420ED1D5
:100E10004448B0F89F0020F002004249A1F89F002A
:100E20000846B0F89F0040EA4400A1F89F004FF444
:100E300080413B4801F05EF80446012005F0F2FFD6
:100E40004FF48041364801F055F8A0420ED13548A4
:100E5000B0F89F0020F004003249A1F89F00084636
:100E6000B0F89F0040EA8400A1F89F0002212F48BB
:100E700001F040F80446012005F0D4FF02212B4880
:100E800001F038F8A0420ED12648B0F89F0020F0BB
:100E900008002449A1F89F000846B0F89F0040EAE6
:100EA000C400A1F89F004FF400511D4801F022F842
:100EB0000446012005F0B6FF4FF40051184801F038
:100EC00019F8A0420ED11748B0F89F0020F010008A
:100ED0001449A1F89F000846B0F89F0040EA0410AA
:100EE000A1F89F000121114801F004F804460120F7
:100EF00005F098FF01210D4800F0FCFFA0420ED143
:100F00000848B0F89F0020F020000649A1F89F0093
:100F10000846B0F89F0040EA4410A1F89F004AE755
:100F20000014024084060020001002400018024015
:100F300010B54FF4006000F0C3FEFFF733FE10BDA4
:100F400010B54FF4007000F0BBFEFFF721FE10BD9E
:100F500018B502460020009000BF92F83C0001281E
:100F600001D1022018BD012082F83C0000BF0868B2
:100F7000092816D91068C0680B780A3B03EB4304B4
:100F80000723A34098431368D8600B780A3B03EB10
:100F90004303886898401368DB6818431368D86077
:100FA00013E0106800690B7803EB43040723A340A8
:100FB0009843136818610B7803EB430388689840E3
:100FC00013681B691843136818614868072817D20B
:100FD0001068406B0B795B1E03EB83041F23A34057
:100FE000984313685863088880B20B795B1E03EB43
:100FF0008303984013685B6B18431368586331E0B0
:1010000048680D2817D21068006B0B79DB1F03EBC3
:1010100083041F23A340984313681863088880B291
:101020000B79DB1F03EB8303984013681B6B18439A
:101030001368186316E01068C06A0B790D3B03EB68
:1010400083041F23A34098431368D862088880B2A2
:101050000B790D3B03EB830398401368DB6A18435D
:101060001368D8621C4B1068984208D1086812288F
:1010700005D11A48006840F48000C3F80403164BF9
:101080001068984220D1164B0868984202D0086830
:10109000112819D11148006840F400000F4B186066
:1010A0000F4B086898420FD10E4800680E4BB0FBFA
:1010B000F3F000EB80004000009002E00098401E3A
:1010C000009000980028F9D100BF002082F83C0071
:1010D00000BF00BF46E7000000200140042301409C
:1010E00012000010B801002040420F00014691F8A4
:1010F0003D00704701460868C06C704710B5044653
:101100000CB9012010BD1049E06A884200D000BF30
:1011100094F83D0028B9002084F83C00204600F0F7
:1011200015F8022084F83D002046FFF72FF9002033
:101130002064012084F83D0000BF002084F83C00BA
:1011400000BF00BFDEE700000100000F10B586B051
:10115000044628492068884218D100BF2648006804
:1011600040F40070244908600846006800F40070EC
:10117000009000BF00BFF0200190032002900020EB
:10118000039001A91D4800F0A9FD30E01C4920682A
:1011900088422CD100BF1848006840F4806016498E
:1011A00008600846006800F48060009000BF00BF3F
:1011B0004FF47C700190032002900020039001A95D
:1011C000104800F08BFD0C200190032002900020BD
:1011D000039001A90C4800F081FD0F20019003202D
:1011E00002900020039001A9044800F077FD06B0AA
:1011F00010BD0000002101404438024000000240C0
:1012000000220140001402400008024070B504466C
:101210000D4600262068806800F4806070B1206868
:10122000806800F4807048B1042084F83D0000BF5D
:10123000002084F83C0000BF012070BD00F068FE73
:10124000064611E0681C78B125B100F061FE801BF4
:10125000A84209D9032084F83D0000BF002084F88B
:101260003C0000BF0320E8E72068006800F00200AF
:101270000228E7D194F83D00252803D1352084F8D1
:101280003D0002E0152084F83D000020D5E7000075
:1012900008B501460020009000BF91F83C000128ED
:1012A00001D1022008BD012081F83C0000BF91F867
:1012B0003D00222803D1322081F83D0002E01220B7
:1012C00081F83D000868806800F00100A0B9086856
:1012D000806840F001000A6890601B4800681B4A63
:1012E000B0FBF2F000EB4000009002E00098401EDE
:1012F000009000980028F9D100BF002081F83C0040
:1013000000BF1348006800F01F0058B908688068E3
:1013100000F04050A8B90868806840F080400A6832
:1013200090600EE00B4A086890420AD10868806815
:1013300000F0405028B90868806840F080400A6892
:1013400090600020AEE70000B801002040420F008E
:10135000042301400020014001460868806820F015
:1013600001000A689060012081F83D00002070476C
:1013700030B5034600220C7D012000FA04F24648F5
:10138000006840F00100444C20602046006820F4D2
:101390007C502060204600684C6A40EA04203E4CA5
:1013A00020603D481C30006890433B4C1C3420605A
:1013B000C869D8B938480C3000689043364C0C34B2
:1013C0002060888880B28C8940EA044432484030EA
:1013D0004D6940F83540088880B20C8940EA0444E1
:1013E0002D4840304D6900EBC5004460C8690128B4
:1013F0001BD129480C3000681043274C0C34206066
:10140000888880B20C8840EA0444234840304D6903
:1014100040F83540888980B20C8940EA04441E486F
:1014200040304D6900EBC5004460886938B91A48FE
:10143000001D00689043184C241D206006E01648EB
:10144000001D00681043144C241D2060086930B949
:1014500011481430006890430F4C14342060086920
:10146000012806D10C481430006810430A4C14348B
:101470002060086A012806D107481C300068104324
:10148000054C1C3420600448006820F00100024C28
:101490002060002030BD000000660040024909685D
:1014A000491C014A116070479C0100202DE9F04160
:1014B00004460025002600272068406900F001004E
:1014C00018B3206880686D490840884201D1012026
:1014D00000E000200546206880686949084088428D
:1014E00001D1012000E0002006462068806865499F
:1014F0000840884201D1012000E0002007460DB9D4
:1015000006B917B12046FFF7CFFA2068C06800F08F
:10151000030520684069C0F3400625B11EB10021D3
:101520002046FFF7E7F92068006900F0030520680E
:101530004069C0F3001625B11EB101212046FFF716
:10154000D9F92068806900F0010520684069C0F37E
:10155000002620684069C0F3C0374DB146B13FB1A5
:10156000E06B40F00100E0636FF0010021688861EA
:1015700020688069C0F3400520684069C0F34026B8
:1015800020684069C0F3C0374DB146B13FB1E06B50
:1015900040F00200E0636FF002002168886120687B
:1015A0008069C0F3800520684069C0F38026206808
:1015B0004069C0F3C0374DB146B13FB1E06B40F078
:1015C0000400E0636FF0040021688861206880698E
:1015D00000F0700008B9012000E0002005462068F6
:1015E0004069C0F3C02620684069C0F3C03795BB8E
:1015F0008EB387B32068806900F07005402D1BD042
:1016000006DC102D09D0202D0CD0302D24D10EE079
:10161000502D16D0602D1FD118E0E06B40F008006F
:10162000E0631AE0E06B40F01000E06315E0E06B6F
:1016300040F02000E06310E0E06B40F04000E06329
:101640000BE0E06B40F08000E06306E0E06B40F40C
:101650008070E06301E007E000BF00BF20688069A0
:1016600020F0700021688861E06B28B1012084F8C7
:1016700038002046FFF712FFBDE8F08103000004A8
:10168000000300080000031070B50446032600257F
:101690000CB9012070BD94F8380028B9002084F8F6
:1016A0003900204600F0D0F8022084F83800206885
:1016B000006820F00200216808602068006840F09F
:1016C00001002168086000F023FC05460EE000F0F0
:1016D0001FFC401B0A2809D9032084F8380000BFEA
:1016E000002084F8390000BF0320D3E72068406859
:1016F00000F001000028EAD02068406800F00100F6
:1017000008B9002692E0A069012806D12068006887
:1017100040F080002168086005E02068006820F043
:10172000800021680860E069012806D1206800680F
:1017300040F040002168086005E02068006820F063
:10174000400021680860206A012806D120680068EE
:1017500040F020002168086005E02068006820F063
:10176000200021680860606A012806D120680068AE
:1017700040F010002168086005E02068006820F053
:10178000100021680860A06A012806D1206800685E
:1017900040F008002168086005E02068006820F03B
:1017A000080021680860E06A012806D12068006806
:1017B00040F004002168086005E02068006820F01F
:1017C000040021680860D4E9020108432169084344
:1017D000616908436168491E08432168C86120683F
:1017E000006820F001002168086000F091FB0546C8
:1017F0000EE000F08DFB401B0A2809D9032084F875
:10180000380000BF002084F8390000BF032041E702
:101810002068406800F001000028EAD12068406894
:1018200000F0010008B1002600E00126012E06D1DB
:101830000020E063012084F8380000202AE704201B
:1018400084F83800012025E710B586B004463A49EF
:101850002068884235D139480068401C3749086003
:101860000846006801280DD100BF3548006840F0E7
:101870000070334908600846006800F0007000906E
:1018800000BF00BF032001900220029000200390BF
:10189000032004900920059001A92A4800F01EFAAF
:1018A00000220A21142000F060FC142000F050FCFB
:1018B00025480068406940F00200234909684861F2
:1018C00037E022492068884233D100BF1C480068B5
:1018D00040F080601A4908600846006800F08060A7
:1018E000009000BF00BF15480068401C1349086005
:1018F0000846006801280DD100BF1148006840F07B
:1019000000700F4908600846006800F00070009001
:1019100000BF00BF42F22000019002200290002090
:101920000390032004900920059001A9084800F0C5
:10193000D5F906B010BD0000006400400000002092
:1019400040380240000C02400406002000680040BD
:101950000004024010B50246002392F83830012BF3
:1019600001D0122B49D100BF92F83900012801D1D2
:10197000022010BD012082F8390000BF92F8380023
:10198000122803D1322082F8380002E0222082F8A7
:1019900038000020D0631068406940F480701468FB
:1019A00060611068406940F40070146860611068FC
:1019B000406940F48060146860611068406940F4D8
:1019C0000060146860611068406940F40040146869
:1019D000606100BF002082F8390000BF31B9106893
:1019E000406940F002001468606108E010684069D6
:1019F00040F010001468606101E00220B9E70020A7
:101A0000B7E7000010B50446606B007D0B49087015
:101A100000200B4908600023094A0A48616B0068EE
:101A200006F0B7F806480068012801D105F0BAF9B8
:101A300000210548FFF78EFF10BD00009401002033
:101A40009801002088010020040600202DE9F041C3
:101A500004460E460525002700BF94F839000128EA
:101A600002D10220BDE8F081012084F8390000BFD6
:101A700094F83800222803D1322084F8380002E09C
:101A8000122084F838002068806800F08060B0F18F
:101A9000806F01D1002512E02068806800F00060AE
:101AA000B0F1006F01D1012509E02068806800F0E5
:101AB0008050B0F1805F01D1022500E00425042DA3
:101AC0007ED0206800F5C07000EB0510006800F0C3
:101AD0000101206800F5C07000EB05100160206B6B
:101AE000806898B9206800F5C07000EB05100068A8
:101AF000216BC968226B128841EA42510843216870
:101B000001F5C07101EB0511086015E0206800F5D2
:101B1000C07000EB05100068216B8968226B526869
:101B200041EAC201226BD26811430843216801F5E2
:101B3000C07101EB05110860206B007C00F00F0004
:101B4000216B0861206800F5C07000EB051040684B
:101B500020F00F01206800F5C07000EB0510416017
:101B6000206800F5C07000EB05104068216B096922
:101B70000843216801F5C07101EB05114860206B35
:101B8000C07D0106206B807D41EA0041206B407DD5
:101B900041EA0021206B007D0143206800F5C07000
:101BA00000EB05108160206BC07E0106206B807EFB
:101BB00041EA0041206B407E41EA0020216B00E0B9
:101BC00063E0097E0843216801F5C07101EB05114E
:101BD000C860206800F5C07000EB0510006840F098
:101BE0000101206800F5C07000EB0510016000F0F5
:101BF0008FF9074611E0701C78B126B100F088F922
:101C0000C01BB04209D9032084F8380000BF00206F
:101C100084F8390000BF032024E74DB920688068AC
:101C20001F490840884201D1012016E0002014E03D
:101C3000012D09D1206880681A490840884201D1E5
:101C400001200AE0002008E020688068164908406A
:101C5000884201D1012000E000200028CBD094F878
:101C60003800322807D1222084F8380000BF002035
:101C700084F8390007E0012084F8380000BF002014
:101C800084F8390000BF0020ECE6042084F8380016
:101C900000BF002084F8390000BF0120E2E6000008
:101CA0000300000400030008000003100249096853
:101CB000491C014A116070479001002070470000E4
:101CC00010B5044604480068204020B10248046072
:101CD0002046FFF7F3FF10BD143C0140F8B5024663
:101CE0000B460025002400200021E4E0012606FA2E
:101CF00001F51E6806EA0504AC4271D15E68022E49
:101D000002D05E68122E13D1CF0802F1200656F8D9
:101D100027004E07F70E0F26BE40B0434F07FF0EB9
:101D20001E69BE403043CF0802F1200646F8270066
:101D300010684F000326BE40B0431E7906F003062C
:101D40004F00BE40304310605E68012E08D05E68D0
:101D5000022E05D05E68112E02D05E68122E13D1BD
:101D600090684F000326BE40B0434F00DE68BE407F
:101D700030439060506801268E40B0431E79C6F310
:101D800000168E4030435060D0684F000326BE409E
:101D9000B0434F009E68BE403043D0605E6806F09E
:101DA0008056B6F1805FA8D100BF454E366846F434
:101DB0008046434F3E603E46366806F480460096B5
:101DC00000BF00BF3F4E8F0856F827008E07370F21
:101DD0000F26BE40B0433C4EB24202D100262EE058
:101DE00068E03A4EB24201D1012628E0384EB242B4
:101DF00001D1022623E0374EB24201D103261EE074
:101E0000354EB24201D1042619E0344EB24201D11E
:101E1000052614E0324EB24201D106260FE0314EC3
:101E2000B24201D107260AE02F4EB24201D1082664
:101E300005E02E4EB24201D1092600E00A268F07A6
:101E40003F0FBE4030431F4E8F0846F82700284EF4
:101E50003068A0435E6806F48036B6F5803F00D156
:101E60002043234E3060361D3068A0435E6806F480
:101E70000036B6F5003F00D120431D4E361D3060C0
:101E8000361D3068A0435E6806F48016B6F5801FE4
:101E900000D12043164E08363060361D3068A0430E
:101EA0005E6806F40016B6F5001F00D12043104E00
:101EB0000C363060491C1029FFF418AFF8BD000043
:101EC000443802400838014000000240000402404B
:101ED00000080240000C02400010024000140240C2
:101EE00000180240001C0240002002400024024072
:101EF000003C0140024613690B400BB1012000E099
:101F0000002070470AB1816101E00B0483617047D2
:101F10000148006870470000B401002070B5044615
:101F2000002600250CB9012070BD94F8350028B9B1
:101F3000002084F83400204600F080F8022084F865
:101F400035002068006820F001002168086000F07A
:101F5000D3FA05463748B5FBF0F6206846603649A7
:101F60006068884201D8701C07E04FF49670704397
:101F70004FF47A71B0FBF1F0401C216808622E49E1
:101F8000606888420ED860684000B5FBF0F0C0F38E
:101F90000B00042801D204202DE060684000B5FB4E
:101FA000F0F028E0A06828B9606800EB4000B5FBBD
:101FB000F0F008E0606800EBC00101EB0010B5FB39
:101FC000F0F040F48040C0F30B0008B9012012E0AB
:101FD000A06828B9606800EB4000B5FBF0F008E0AD
:101FE000606800EBC00101EB0010B5FBF0F040F4BD
:101FF000804040F400402168C861D4E907010843EB
:1020000021680860D4E90310084321688860D4E996
:10201000050108432168C8602068006840F001009D
:10202000216808600020A063012084F835000020AA
:102030007AE7000040420F00A086010010B586B08C
:1020400004461149206888421BD1032001901220C8
:10205000029001200390032004900420059001A920
:102060000A48FFF73BFE00BF0948006840F48000C3
:10207000074908600846006800F48000009000BF2F
:1020800000BF06B010BD0000005800400014024020
:102090004038024002480068401C0149086070470F
:1020A000B401002010B50D48006840F400700B49E1
:1020B00008600846006840F48060086008460068D0
:1020C00040F480700860032000F08EF8002000F0DB
:1020D00007F800F017F8002010BD0000003C024097
:1020E00070B5044600F0ECF94FF47A71B0FBF1F5ED
:1020F000284600F09DFC00222146501E00F035F8D5
:10210000002070BD10B5032000F06EF800221146CB
:10211000501E00F02AF810BD00BF00F01F02012180
:102120009140034A430942F8231000BF7047000062
:1021300080E200E000BF00F01F0201219140034A4D
:10214000430942F8231000BF7047000080E100E01F
:1021500000BF00F01F02012191404209920002F1EC
:10216000E022C2F8001100BF70472DE9F05F804601
:102170000D461646002701F087FF074639462A46D6
:10218000334601F00700C0F1070ABAF1040F02D983
:102190004FF0040A01E0C0F1070AD14600F1040A39
:1021A000BAF1070F02D24FF0000A01E0A0F1030AD2
:1021B000D4464FF0010A0AFA09FAAAF1010A0AEA1A
:1021C000020A0AFA0CFA4FF0010B0BFA0CFBABF106
:1021D000010B0BEA030B4AEA0B042146404601F0CF
:1021E0005BFFBDE8F09F000000BF00F00702064B58
:1021F00019684FF6FF031940044B0B4343EA0221D1
:10220000014B196000BF70470CED00E00000FA05BB
:1022100070B504460E460025A748006800F00F0080
:10222000B0426FD2A4490E700846006800F00F005B
:10223000B04201D0012070BD207800F002000228D9
:1022400007D19E48006820F0F000A16808439B4930
:102250000860207800F0010000283ED06068012866
:1022600007D1964808380068C0F34040B8B901204B
:10227000E1E76068022802D06068032807D18F4830
:1022800008380068C0F3406048B90120D3E78B48A4
:1022900008380068C0F3400008B90120CBE7874840
:1022A000006820F003006168084384490860FFF774
:1022B0002FFE05466068012810D108E0FFF728FED0
:1022C000401B41F28831884201D90320B3E77B48A3
:1022D000006800F00C000428F0D1CDE0606802280E
:1022E00011D108E0FFF714FE401B41F2883188420B
:1022F00001D903209FE77148006800F00C0008280E
:10230000F0D1B9E024E06068032810D108E0FFF7BD
:10231000FFFD401B41F28831884201D903208AE742
:102320006648006800F00C000328F0D1A4E008E043
:10233000FFF7EEFD401B41F28831884201D90320AE
:1023400079E75E48006800F00C000028F0D193E0C7
:10235000207800F00200022807D15848006820F0D9
:10236000F000A168084355490860207800F001009A
:10237000002877D06068012807D1504808380068E5
:10238000C0F34040B8B9012055E76068022802D088
:102390006068032807D1494808380068C0F34060E6
:1023A00048B9012047E7454808380068C0F34000B5
:1023B00008B901203FE74148006820F00300616848
:1023C00008433E490860FFF7A3FD05466068012801
:1023D00010D108E0FFF79CFD401B41F28831884294
:1023E00001D9032027E73548006800F00C000428D5
:1023F000F0D137E06068022810D108E0FFF788FDCF
:10240000401B41F28831884201D9032013E72B4851
:10241000006800F00C000828F0D123E06068032871
:1024200010D108E0FFF774FD401B41F2883188426B
:1024300001D90320FFE62148006800F00C000328C2
:10244000F0D10FE008E0FFF763FD401B41F2883157
:10245000884201D90320EEE61848006800F00C001D
:102460000028F0D114490E700846006800F00F00F3
:10247000B04201D00120DEE6207800F004000428FC
:1024800007D10E48006820F4E050E16808430B498A
:102490000860207800F00800082808D10748006884
:1024A00020F46040216940EAC1000449086000202E
:1024B000FFF716FE0020BEE6003C0240083802404E
:1024C00010B500F045F80949096801F0F001F02263
:1024D00092FAA2F2B2FA82F2D140054A515CC840A7
:1024E000044908600846006810BD00000838024032
:1024F00088830008B801002010B5FFF7E1FF074905
:10250000096801F4E0514FF4E05292FAA2F2B2FAF3
:1025100082F2D140024A515CC84010BD08380240E6
:102520008883000810B5FFF7CBFF0749096801F45D
:1025300060414FF4604292FAA2F2B2FA82F2D140C4
:10254000024A515CC84010BD083802408883000828
:1025500070B50021002200230020274C246804F0DD
:102560000C0424B1042C04D0082C41D103E02348EE
:1025700040E023483EE0204C241F246804F03F0143
:102580001D4C241F246804F4800484B11C4CB4FB4B
:10259000F1F5194C241F246847F6C076344096FAAA
:1025A000A6F6B6FA86F6F44005FB04F20FE0134CEB
:1025B000B4FBF1F5104C241F246847F6C076344074
:1025C00096FAA6F6B6FA86F6F44005FB04F20A4C33
:1025D000241F246804F440344FF4403595FAA5F5DF
:1025E000B5FA85F5EC40641C6300B2FBF3F001E042
:1025F000024800BF00BF70BD083802400024F4004C
:10260000001BB70038B504460025207800F0010013
:10261000002866D0F648006800F00C0004280DD0B1
:10262000F348006800F00C00082813D1F048001FA0
:10263000006800F48000B0F5800F0BD1EC4808383A
:102640000068C0F3404000284BD06068002848D1A3
:10265000012038BD0020E649891F0870FFF758FCAB
:10266000054608E0FFF754FC401B41F288318842E0
:1026700001D90320EDE7DE4808380068C0F3404088
:102680000028EFD12079DA49891F08706068A0B16D
:10269000FFF73EFC054608E0FFF73AFC401B41F21D
:1026A0008831884201D90320D3E7D148083800682F
:1026B000C0F340400028EFD013E0FFF729FC0546A7
:1026C00008E0FFF725FC401B41F28831884201D920
:1026D0000320BEE7C64808380068C0F34040002821
:1026E000EFD1207800F00200022869D1C0480068CC
:1026F00000F00C0058B1BE48006800F00C0008283B
:1027000021D1BB48001F006800F48000D8B9B84848
:1027100008380068C0F3400020B1E068012801D00B
:10272000012096E7B2480838006820F0F800F82247
:1027300092FAA2F2B2FA82F2216991400843AC49BE
:10274000083908603CE0E06828B30120A949086026
:10275000FFF7DEFB054606E0FFF7DAFB401B6428C7
:1027600001D9032075E7A24808380068C0F340008B
:102770000028F1D09E480838006820F0F800F822C0
:1027800092FAA2F2B2FA82F2216991400843984982
:102790000839086014E0002096490860FFF7B8FB8C
:1027A000054606E0FFF7B4FB401B642801D903206F
:1027B0004FE78F4808380068C0F340000028F1D187
:1027C000207800F0080008282CD16069A8B1012009
:1027D00089490860FFF79CFB054606E0FFF798FB78
:1027E000401B642801D9032033E781486C3000681E
:1027F000C0F340000028F1D014E000207E490860BA
:10280000FFF786FB054606E0FFF782FB401B6428C6
:1028100001D903201DE776486C300068C0F3400002
:102820000028F1D1207800F0040004286DD100BF09
:102830006F483830006840F080506D49383108608A
:102840000846006800F08050009000BF00BF6B4851
:10285000006840F4807069490860FFF759FB05463D
:1028600006E0FFF755FB401B642801D90320F0E682
:102870006248006800F480700028F2D000205C49B3
:1028800068310870FFF744FB054608E0FFF740FB9E
:10289000401B41F28831884201D90320D9E65448CF
:1028A00068300068C0F340000028EFD1207A50491A
:1028B00068310870A068A0B1FFF72AFB054608E060
:1028C000FFF726FB401B41F28831884201D90320E3
:1028D000BFE6474868300068C0F340000028EFD0EA
:1028E00013E0FFF715FB054608E0FFF711FB401B5F
:1028F00041F28831884201D90320AAE63C48683079
:102900000068C0F340000028EFD1A069F0B3384858
:10291000006800F00C00082872D0A069022850D18D
:10292000002034490866FFF7F3FA054606E0FFF792
:10293000EFFA401B642801D903208AE62C480838A6
:102940000068C0F340600028F1D1D4E907010843D2
:1029500047F6C07292FAA2F2B2FA82F2616A91402C
:1029600008430122A16AC2EB51014FF4403292FAAE
:10297000A2F2B2FA82F2914008434FF0706292FAEA
:10298000A2F2B2FA82F2E16A914000E03AE0084332
:102990001749091F0860012016490866FFF7B8FAB1
:1029A000054606E0FFF7B4FA401B642801D903206E
:1029B0004FE60F4808380068C0F340600028F1D0A7
:1029C00020E000200B490866FFF7A2FA054606E062
:1029D000FFF79EFA401B642801D9032039E604481A
:1029E00008380068C0F340600028F1D10AE007E031
:1029F0000838024000004742800E47420070004005
:102A0000012026E6002024E6042808D14FF0E0212A
:102A1000096941F004014FF0E022116107E04FF035
:102A2000E021096921F004014FF0E02211617047B3
:102A300070B504462546681EB0F1807F01D30120A1
:102A40000FE0681E4FF0E02148610F214FF0FF308A
:102A500001F022FB00204FF0E0218861072008618F
:102A6000002070BD70477047024600BF92F83800E2
:102A7000012801D102207047012082F8380000BFF0
:102A8000022082F839001068406820F07000136856
:102A90005860106840680B681843136858601068E5
:102AA000806820F0800013689860106880684B6828
:102AB000184313689860012082F8390000BF002095
:102AC00082F8380000BF00BFD5E710B504460CB946
:102AD000012010BD94F8390028B9002084F838008E
:102AE000204600F00DF8022084F83900211D2068EE
:102AF00001F020FE012084F839000020E9E7000001
:102B000038B504462068B0F1804F16D100BF264882
:102B1000006840F00100244908600846006800F0A1
:102B20000100009000BF00BF002207211C20FFF71A
:102B30001CFB1C20FFF70CFB34E01C49206888427A
:102B400016D100BF1848006840F010001649086010
:102B50000846006800F01000009000BF00BF00228F
:102B60000A213620FFF701FB3620FFF7F1FA19E0C2
:102B70000F492068884215D100BF0B48006840F01B
:102B80002000094908600846006800F02000009015
:102B900000BF00BF002205213720FFF7E6FA3720EB
:102BA000FFF7D6FA38BD0000403802400010004060
:102BB0000014004001460868C06840F001000A683F
:102BC000D0600868006840F001000A6810600020CA
:102BD00070470146022081F8390000BF0868006A8A
:102BE00041F21112104050B90868006A921010406A
:102BF00028B90868006820F001000A68106000BF6A
:102C0000012081F839000020704701460868C0683B
:102C100020F001000A68D06000BF0868006A41F235
:102C20001112104050B90868006A9210104028B97B
:102C30000868006820F001000A68106000BF0020EA
:102C400070472DE9F04104460D46002600BF94F878
:102C50003800012802D10220BDE8F081012084F86B
:102C6000380000BF022084F839002068866826F00A
:102C7000770626F47F4620688660286850283BD077
:102C80000CDC202860D004DC002853D0102865D14B
:102C900055E030285DD0402860D141E0602835D033
:102CA00070280DD0B0F5805F03D0B0F5005F55D12E
:102CB00015E02068806820F00700216888604EE0F9
:102CC000D5E902136A68206801F0A6FD20688668CD
:102CD00026F0770646F07706206886603FE0D5E963
:102CE00002136A68206801F097FD2068806840F44C
:102CF00080402168886032E0EA686968206801F0F5
:102D0000A1FD5021206801F093FD28E0EA68696880
:102D1000206801F0ACFD6021206801F089FD1EE013
:102D2000EA686968206801F08DFD4021206801F0A3
:102D30007FFD14E00021206801F07AFD0FE01021F2
:102D4000206801F075FD0AE02021206801F070FD87
:102D500005E03021206801F06BFD00E000BF00BFFE
:102D6000012084F8390000BF002084F8380000BF3B
:102D700000BF71E7704710B5044620680069C0F3D2
:102D80004000D8B12068C068C0F34000B0B16FF017
:102D9000020021680861012020762068806900F027
:102DA000030018B12046FFF7E5FF05E0204600F0DC
:102DB000ADF8204600F0ABF80020207620680069CE
:102DC000C0F38000D8B12068C068C0F38000B0B103
:102DD0006FF0040021680861022020762068806975
:102DE00000F4407018B12046FFF7C4FF05E020460C
:102DF00000F08CF8204600F08AF800202076206849
:102E00000069C0F3C000D8B12068C068C0F3C0003A
:102E1000B0B16FF0080021680861042020762068B6
:102E2000C06900F0030018B12046FFF7A3FF05E0DA
:102E3000204600F06BF8204600F069F8002020766C
:102E400020680069C0F30010D8B12068C068C0F3E2
:102E50000010B0B16FF010002168086108202076E2
:102E60002068C06900F4407018B12046FFF782FF67
:102E700005E0204600F04AF8204600F048F800201F
:102E800020762068006900F0010058B12068C06811
:102E900000F0010030B16FF00100216808612046A8
:102EA00000F036F820680069C0F3C01058B12068FF
:102EB000C068C0F3C01030B16FF0800021680861B5
:102EC0002046FFF7CFFD20680069C0F3801058B19D
:102ED0002068C068C0F3801030B16FF040002168F6
:102EE0000861204600F01FF820680069C0F3401018
:102EF00058B12068C068C0F3401030B16FF02000B6
:102F0000216808612046FFF7AEFD10BD704770478D
:102F100010B504462068B0F1804F02D103F06EFB7B
:102F200000BF00BF10BD704710B50446204603F037
:102F30006DFC10BDF8B50446002500262068006829
:102F400000F001052068C06800F480766DB166B1BC
:102F500000BF20680068009020684068009000BFB3
:102F600000BFE06B40F00100E06320680068C0F340
:102F700040052068406900F001066DB166B100BFF0
:102F800020680068009020684068009000BF00BF83
:102F9000E06B40F00400E06320680068C0F3800547
:102FA0002068406900F001066DB166B100BF20687D
:102FB0000068009020684068009000BF00BFE06B90
:102FC00040F00200E06320680068C0F3C00520689C
:102FD000406900F001066DB166B100BF206800686D
:102FE000009020684068009000BF00BFE06B40F098
:102FF0000800E06320680068C0F340152068C068DE
:1030000000F020061DB116B1204601F07BFC2068BF
:103010000068C0F3C0152068C06800F080061DB1CC
:1030200016B1204601F0D4FD20680068C0F3801579
:103030002068C06800F040061DB116B1204601F0BE
:103040003DFCE06B28B1012084F839002046FFF7F1
:103050006BFFF8BD10B504460CB9012010BDA06986
:1030600000B100E000BF94F8390010B9204600F02C
:1030700025F8022084F839002068C06820F4005048
:103080002168C860204601F091FC2068006920F4A6
:103090009040216808612068406920F02A0021687A
:1030A00048612068C06840F400502168C860002072
:1030B000E063012084F839000020CFE710B586B026
:1030C00004468D492068884225D100BF8B4800689E
:1030D00040F40020894908600846006800F4002098
:1030E000009000BF00BF4FF44060019002200290AA
:1030F00001200390032004900820059001A9804836
:10310000FEF7ECFD00220A213420FFF72EF83420D0
:10311000FFF71EF8EEE07B492068884232D100BFFD
:103120007648006840F480107449086008460068DA
:1031300000F48010009000BF00BF881401900220AE
:10314000029001200390032004900820059001A91B
:103150006B48FEF7C3FD042001900220029001207D
:103160000390032004900820059001A96648FEF70B
:10317000B5FD00220A213520FEF7F7FF3520FEF7C6
:10318000E7FFB7E061492068884227D100BF5B486C
:10319000001D006840F010005849091D08600846ED
:1031A000006800F01000009000BF00BF4FF4C06046
:1031B0000190022002900120039003200490072038
:1031C000059001A95248FEF789FD00220A21252019
:1031D000FEF7CBFF2520FEF7BBFF8BE04D492068B3
:1031E000884232D100BF4548006840F4003043496E
:1031F00008600846006800F40030009000BF00BF7F
:10320000602001900220029001200390032004908E
:103210000720059001A93C48FEF760FD8020019041
:1032200002200290002003900320049007200590C4
:1032300001A93548FEF752FD00220A212620FEF79B
:1032400094FF2620FEF784FF54E03349206888422B
:1032500025D100BF2948006840F480202749086034
:103260000846006800F48020009000BF00BF4FF4C3
:1032700040700190022002900120039003200490EE
:103280000720059001A92048FEF728FD00220A2109
:103290002720FEF76AFF2720FEF75AFF2AE01F4982
:1032A0002068884226D100BF1448001D006840F005
:1032B00020001249091D08600846006800F020003F
:1032C000009000BF00BF4FF48440019002200290A4
:1032D00001200390032004900820059001A91048C4
:1032E000FEF7FCFC00220A214720FEF73EFF4720A4
:1032F000FEF72EFF06B010BD004C004040380240E3
:103300000008024000500040000C02400010014044
:10331000000002400044004000480040001401400A
:103320000018024030B50346002493F83940012CC0
:1033300001D0122C37D101B10AB9012030BD00BF34
:1033400093F83800012801D10220F7E7012083F823
:10335000380000BF99629A85DA850020D86393F817
:103360003900122803D1322083F8390002E02220EC
:1033700083F839001868C06840F480701D68E86000
:103380001868406940F001001D68686100BF0020B6
:1033900083F8380000BF1868C06840F020001D683E
:1033A000E8600020CAE70220C8E7000010B5044624
:1033B000214A2068811A90422CD009DC1F49084418
:1033C00080B1B0F5806F15D0B0F5006F32D119E043
:1033D000B1F5404F03D0B1F5444F2BD122E003F0BB
:1033E00027F927E000231A461548A16A006804F06F
:1033F000D0FB1FE000231A461248A16A006804F0BF
:10340000C8FB17E000231A460F48A16A006804F0C1
:10341000C0FB0FE000231A460C48A16A006804F0C4
:10342000B8FB07E000231A460948A16A006804F0C7
:10343000B0FB00BF00BF10BD0050004000BCFFBF8C
:10344000280000203000002038000020400000202C
:10345000480000202DE9F04704460D4616469946DF
:103460004FF0000894F83980B8F1010F02D0B8F19C
:10347000220F65D105B116B90120BDE8F08700BF64
:1034800094F83800012801D10220F6E7012084F8E1
:10349000380000BF0020E06394F83900222803D1EF
:1034A000322084F8390002E0122084F83900A68422
:1034B000E68428E0E08C401EE084A068B0F5805FE0
:1034C00014D14B4600228021204601F0B9FB08B1FF
:1034D0000320D2E72F463888C0F3080021684860EF
:1034E000206908B9AD1C0EE06D1C0CE04B460022B3
:1034F0008021204601F0A4FB08B10320BDE715F8A8
:10350000010B21684860E08C0028D3DC4B46002288
:103510004021204601F094FB08B10320ADE794F868
:103520003900322803D1222084F8390002E001203A
:1035300084F8390000BF002084F8380000BF9CE701
:1035400002209AE730B50346002493F83940012C55
:1035500001D0222C37D101B10AB9012030BD00BF02
:1035600093F83800012801D10220F7E7012083F801
:10357000380000BF19629A84DA840020D86393F877
:103580003900222803D1322083F8390002E01220CA
:1035900083F839001868C06840F480701D68E860DE
:1035A0001868406940F001001D68686100BF002094
:1035B00083F8380000BF1868C06840F080001D68BC
:1035C000E8600020CAE70220C8E7000010B5044602
:1035D00004492068084410B903F044F800BF00BF54
:1035E00010BD000000F0FEBF00B585B04FF4807044
:1035F000009069460F48FEF771FB4FF400600090A1
:1036000069460D48FEF76AFB1020009069460A489B
:10361000FEF764FB0820009069460748FEF75EFB52
:103620004FF48060009069460448FEF757FB05B0F0
:1036300000BD000000000240000C024000180240E3
:103640001FB51048104908604FF440304860002111
:103650000D4881600161816141620163C1600121A6
:1036600001620021C16101214161FDF747FD042094
:103670000090012001900720029069460248FDF762
:1036800067FC1FBD00210140480300201FB5104802
:10369000104908604FF44030486000210D488160B7
:1036A0000161816141620163C16001210162002108
:1036B000C16101214161FDF721FD0420009001203D
:1036C00001900720029069460248FDF741FC1FBDAA
:1036D000002201408C03002010B50C480C49086002
:1036E0000C20486000210A488160C1604FF420210D
:1036F00001614FF48011416100218161C16101626A
:1037000041628162C162FDF7BFFF10BD00640040ED
:103710000406002010B50D480D4908600C204860D3
:1037200000210B488160C1604FF4202101614FF4FA
:103730008011416100218161C16101620121416209
:1037400000218162C162FDF79FFF10BD006800404B
:103750004406002010B503F0B5F810BD00B587B0E1
:1037600000BF8A48006840F0100088490860084699
:10377000006800F01000019000BF00BF00BF0846C5
:10378000006840F0040008600846006800F004008B
:10379000019000BF00BF00BF0846006840F0200055
:1037A00008600846006800F02000019000BF00BFDC
:1037B00000BF0846006840F08000086008460068C6
:1037C00000F08000019000BF00BF00BF0846006805
:1037D00040F0010008600846006800F00100019018
:1037E00000BF00BF00BF0846006840F0020008604C
:1037F0000846006800F00200019000BF00BF00BF53
:103800000846006840F0400008600846006800F084
:103810004000019000BF00BF00BF0846006840F0B4
:10382000080008600846006800F00800019000BF2A
:1038300000BF4FF28C1002900120039000200490F2
:10384000059002A95248FEF749FA40200290002054
:103850000390049002A94E48FEF740FA46F2080091
:10386000029000200390049002A94A48FEF736FA1D
:103870000120029000200390049002A94648FEF720
:103880002DFA022002900120039000200490059060
:1038900002A94148FEF722FA41F2010002900120FC
:1038A000039000200490059002A93C48FEF716FA08
:1038B0004FF4C05002900120039000200490059026
:1038C00002A93448FEF70AFA032002900020039070
:1038D000049002A93248FEF701FA4FF420600290EA
:1038E000304803900020049002A92948FEF7F6F919
:1038F0004FF4806002900220039000200490032087
:1039000005900520069002A92448FEF7E7F940F249
:10391000044002900120039000200490059002A929
:103920001F48FEF7DBF94FF48070029001200390EE
:1039300000200490059002A91B48FEF7CFF918203B
:1039400002900120039000200490059002A91748DE
:10395000FEF7C4F9002205211720FEF706FC172008
:10396000FEF7F6FB002205212820FEF7FEFB2820AB
:10397000FEF7EEFB002204210548FEF7C3FA002201
:1039800008210348FEF7BEFA07B000BD30380240F8
:1039900000100240001402400008024000040240EF
:1039A000001802400000111000000240000C02400C
:1039B00010B50A480A4908600A48486000210848CA
:1039C0008160C1604FF480410161002141618161EA
:1039D000C1610162FEF7A2FA10BD0000005800406C
:1039E0000C030020A086010000B587B04FF0804096
:1039F0000E4908600020486000210C4881604FF4A7
:103A00006161C16000210161FFF75FF84FF48050F0
:103A1000039003A90548FFF714F9002001900290D4
:103A200001A90248FFF720F807B000BDD00300202D
:103A30001CB50A480A49086054204860002108481B
:103A4000816042F21071C160FFF73FF800200090E2
:103A5000019069460248FFF707F81CBD00100040BE
:103A60000C0400201CB50A480A490860542048602C
:103A70000021084881600F21C160FFF726F800206F
:103A80000090019069460348FEF7EEFF1CBD000060
:103A9000001400404804002010B509480949086096
:103AA0004FF496404860002106488160C160016182
:103AB0000C21416100218161C161FFF7CBFA10BD8A
:103AC000004C00408404002010B5094809490860F2
:103AD0004FF496404860002106488160C160016152
:103AE0000C21416100218161C161FFF7B3FA10BD72
:103AF00000500040C404002010B50948094908607E
:103B00004FF4E1304860002106488160C1600161E6
:103B10000C21416100218161C161FFF79BFA10BD59
:103B2000001001400405002010B50948094908604B
:103B30004FF496404860002106488160C1600161F1
:103B40000C21416100218161C161FFF783FA10BD41
:103B5000004400404405002010B5094809490860A8
:103B60004FF496404860002106488160C1600161C1
:103B70000C21416100218161C161FFF76BFA10BD29
:103B8000004800408405002010B509480949086034
:103B90004FF496404860002106488160C160016191
:103BA0000C21416100218161C161FFF753FA10BD11
:103BB00000140140C40500201FB5834883490860F4
:103BC00040204860824888600420C8600020087453
:103BD0007D48486180217D4881617D49C161052121
:103BE0000162002180F824107748784988628115A5
:103BF0007648C1627649016306214163002180F85D
:103C0000381071487149C8634115704801647049A2
:103C1000416407218164002180F84C106D486B4994
:103C200008650121694841656B4981650021C165CD
:103C300080F86010674865494866022163488166DC
:103C40006549C16601210167002180F8741061484F
:103C50005E49886704215D48C1675F49C0F88010EC
:103C60000221C0F88410002180F888105948574973
:103C7000C1F88C0008215548C0F890105649C0F88A
:103C800094100321C0F89810002180F89C1051482E
:103C90004E49C1F8A00010214C48C0F8A4104E496C
:103CA000C0F8A8100421C0F8AC10002180F8B010B2
:103CB00048484649C1F8B40020214448C0F8B8102B
:103CC0004549C0F8BC100521C0F8C010002180F89B
:103CD000C41040483D49C1F8C80040213B48C0F8E5
:103CE000CC103D49C0F8D0100621C0F8D4100021F6
:103CF00080F8D81037483549C1F8DC0080213348B6
:103D0000C0F8E0103449C0F8E4100721C0F8E8100A
:103D1000002180F8EC1031482C49C1F8F000042152
:103D20002A48C0F8F4102A49C0F8F8100C21C0F84D
:103D3000FC10002180F8001128482449C1F8040132
:103D400008212248C0F808112149C0F80C110D21A2
:103D5000C0F81011002180F814111B481B49C1F84C
:103D6000180110211948C0F81C111949C0F8201178
:103D70000E21C0F82411002180F82811124813499F
:103D8000C1F82C0120211148C0F830111049C0F8A9
:103D900034110F21C0F83811002180F83C114FF088
:103DA000406000F029F80E48FEF704FF00200123D0
:103DB000CDE900300290034680220AA103900D480D
:103DC00003F078FF1FBD00000014024070070020C0
:103DD0008C0300200000024048030020000802403D
:103DE0000C0400204D66756E6320706F6C6C696EFC
:103DF00067000000953E000830B585B005460024F8
:103E000042E004EB8400224901EB8000007C05F0D5
:103E10000301884235D005F0030004EB84011C4AFD
:103E200002EB8101087404EB8400114601EB800071
:103E3000007C88B904EB840001EB800040680090AE
:103E4000032001900020029004EB840152F821002D
:103E50006946FDF743FF14E004EB84000C4901EBD5
:103E60008000406800900020019001200290032013
:103E7000039004EB8401064A52F821006946FDF7DD
:103E80002DFFAD08601CC4B2102CBADB05B030BDEC
:103E90007007002086B000240120029007200390C4
:103EA00001A92E48FDF754F803F0B0FF059053E048
:103EB00000244AE004EB8400294901EB8000007CE7
:103EC000F0BB04EB840001EB8000C068019004EBC0
:103ED0008401234A02EB8101886801A9FDF738F8C3
:103EE00004EB84011E4A02EB81018868FDF7D0F9DA
:103EF00004EB84011A4A02EB810188680A21FDF76C
:103F000085F9B0B904EB8401154A02EB8101886898
:103F1000FDF7ECF815280CD104EB8401104A02EBF4
:103F200081018868FDF7E6F881B20E4800EB440095
:103F3000018004EB84010A4A02EB8101886800E0F9
:103F400001E0FDF709FA601CC4B2102CB2DB4FF49B
:103F50007A7105A802F09EFFAAE700008C030020FA
:103F600070070020C306002010B5002483E004EB96
:103F70008400434901EB8000007C002879D004EBE9
:103F8000840001EB8000407C04EB84013C4A02EB9E
:103F90008101887404EB8402394B03EB820292881E
:103FA00091B204EB840253F82200FDF7A3FF04EB67
:103FB0008401334A02EB8101487404EB840011460A
:103FC00001EB8000407C50B12E48B0F83D0001214B
:103FD000A14089B208432B49A1F83D0008E02948D7
:103FE000B0F83D100120A04081432648A0F83D10C4
:103FF00004EB8400224901EB8000007C022818D1E8
:1040000004EB840001EB8000407C012831D104EBFB
:10401000840001EB8000807C50B91A485F3000EBCF
:1040200084000168491C17485F3000EB8400016080
:104030001FE004EB8400124901EB8000007C0328A0
:1040400017D104EB840001EB8000407C88B904EBBD
:10405000840001EB8000807C01280AD109485F3090
:1040600000EB84000068401C06495F3101EB8401CD
:104070000860601CC4B2102CFFF679AF10BD0000C0
:10408000700700208406002002480068C0F3022068
:10409000704700000CED00E010B5002807DA0A07B1
:1040A000140E054A00F00F031B1FD45403E00A0747
:1040B000130E024A135410BD18ED00E000E400E0B6
:1040C000F0B502460D46002010E012F8011B08234F
:1040D0000AE080EA010606F0010440100CB180F00D
:1040E0008C0049105E1EF3B2002BF2D12E1EA5F1FA
:1040F0000107FDB2E9D1F0BD1FB500220221084839
:10410000FDF700FF00200123CDE9003002900346B7
:10411000802204A10390074803F0CCFD1FBD0000DE
:10412000000802404F6E6557697265205461736BD9
:1041300000000000B142000800B585B001200090E9
:1041400000200190029069460248FDF7C7FD05B0C6
:1041500000BD00000008024000B585B001200090BD
:10416000112001900020029069460248FDF7B6FD3B
:1041700005B000BD0008024010B504460020094902
:104180000870022008490870012008490870084892
:10419000FEF710FD00BF054800780028FBD101485C
:1041A000007810BDA8010020A7010020A601002072
:1041B0004804002070B505460826002406E0641077
:1041C0002846FFF7D9FF44EAC010C4B2301EA6F15A
:1041D0000101CEB2F3D1204670BD2DE9F041064673
:1041E0000C4600250027304600F02AF818BB00F0E6
:1041F00051F80A2002F016FE00F042F83321304652
:1042000000F09AF800BF05E03046FFF7D3FF605595
:10421000681CC5B2082DF7DB207850B10721204675
:10422000FFF74EFFE179884201D1002704E0012722
:1042300002E0012700E001273846BDE8F0810000D8
:1042400070B50546002201210C48FDF75BFEFFF723
:1042500083FF4FF41670FCF735FDFFF76DFF462026
:10426000FCF730FD01210548FDF744FE04464FF4FC
:10427000CD70FCF727FD204670BD0000000802400D
:1042800010B5002202210248FDF73CFE10BD0000DF
:104290000008024010B5012211460448FDF732FE25
:1042A000012202210148FDF72DFE10BD0008024049
:1042B000002400251DE00F490F48FFF78EFF05463B
:1042C00055B9002405E00B48015D0C480155601C00
:1042D000C4B2082CF7DB08E0002404E00021074802
:1042E0000155601CC4B2082CF8DB4FF4FA7002F0E0
:1042F00099FDE0E7AC010020C80800202F0700204E
:1043000070B505460C46084804700120074908703E
:10431000074908700748FEF74DFC00BF04480078C5
:104320000028FBD170BD0000A8010020A7010020DB
:10433000A60100204804002070B505460C4608265A
:1043400005E004F001012846FFF7DAFF6410301E93
:10435000A6F10101CEB2F4D170BD00001CB511A0D0
:104360000068019000BF00204FF4612301220A2160
:10437000009001F03FF988B9032301AA01213420FC
:1043800001F0B2FB30B900F01BFE18B900BF01F01C
:10439000D3F9FCE700F0FAFD00F0E4FD322002F072
:1043A00041FDE0E7AABBCC0000BF4FF47A7001F0FA
:1043B000A0FCFAE708B500BF00235A1E6946024870
:1043C000006803F05CFAF7E72800002008B500BF9A
:1043D00000235A1E69460748006803F050FA4FF65A
:1043E000FF73012269460448FFF734F802F0DAFC53
:1043F000EEE700002C0000204405002008B500BFB7
:1044000000235A1E69460C48006803F038FA01225E
:1044100010210A48FDF776FD4FF6FF730122694629
:104420000748FFF717F8002210210448FDF76AFD3E
:1044300002F0B8FCE4E700003C000020000C024061
:104440008404002008B500BF00235A1E69460C48AA
:10445000006803F014FA012208210A48FDF752FD12
:104460004FF6FF73012269460748FEF7F3FF00226B
:1044700008210448FDF746FD02F094FCE4E7000043
:1044800044000020000C0240C404002008B500BF16
:1044900000235A1E69460C48006803F0F0F9012217
:1044A00091020A48FDF72EFD4FF6FF73012269467F
:1044B0000748FEF7CFFF00224FF480610348FDF765
:1044C00021FD02F06FFCE3E74C00002000180240E1
:1044D000C405002010B5FDF7DDFD01F024FC10BD82
:1044E00010B592B000BF2748006840F080502549C1
:1044F00008600846006800F08050009000BF00BFD0
:1045000000BF2148006840F440401F490860084649
:10451000006800F44040009000BF00BF01200690FA
:10452000079002200C9041050D9106210E91A821C3
:104530000F91022110910421119106A8FEF762F853
:104540000D20019002200290002003904FF4A05013
:1045500004900590052101A8FDF75AFEFDF7B0FF74
:104560004FF47A71B0FBF1F42046FEF761FA0420B3
:10457000FEF74AFA00221146501EFDF7F6FD12B072
:1045800010BD000040380240007000401448006830
:1045900040F47000124908601248006840F00100C1
:1045A0001049086000200F49083108600D48006874
:1045B0000D4908400B4908600C48091D0860081F98
:1045C000006820F48020091F0860002005490C3194
:1045D00008604FF0006002498039086070470000B1
:1045E00088ED00E000380240FFFFF6FE10300024A6
:1045F00010B50248FEF7BFFB10BD0000D00300203D
:1046000010B50348FEF7B7FBFFF7AEFC10BD000086
:104610000C04002010B54148FEF7F7FA6FF00100D6
:104620003E490968086100203D4908603D4800781E
:10463000062870D2DFE800F003042C3C4C646AE0EA
:10464000FFF78AFD002201213748FDF75BFC0F20B0
:104650003349083108603148FEF7ACFA3348007836
:1046600020B1012803D0022810D10BE00EE0304821
:10467000007818B103202B49087002E00220294974
:10468000087003E004202749087000BF00BF42E023
:10469000002201212448FDF735FC2D202049083156
:1046A00008601E48FEF786FA05201E49087032E0B1
:1046B000012211461C48FDF725FC2D201849083120
:1046C00008601648FEF776FA05201649087022E0C1
:1046D000FFF732FD012211461348FDF713FC0121BB
:1046E0001148FDF707FC124908702D200C490831CC
:1046F00008600A48FEF75EFA05200A4908700AE0D9
:10470000FFF72AFD012211460748FDF7FBFB0020B9
:104710000449087000BF00BF10BD0000480400201D
:1047200024140040A601002000080240A701002038
:10473000A8010020002202682C4B98420ED0B0F154
:10474000804F0BD02A4B984208D02A4B984205D074
:10475000294B984202D0294B984201D1012300E015
:1047600000231BB122F070024B681A431F4B984282
:1047700020D0B0F1804F1DD01D4B98421AD01D4B58
:10478000984217D01C4B984214D01C4B984211D021
:104790001B4B98420ED01B4B98420BD01A4B9842A1
:1047A00008D01A4B984205D0194B984202D0194BA9
:1047B000984201D1012300E000231BB122F4407292
:1047C000CB681A4302608B68C3620B688362074B35
:1047D000984202D0094B984201D1012300E0002306
:1047E0000BB10B6903630123436170470000014073
:1047F0000004004000080040000C0040000401409C
:1048000000400140004401400048014000180040C1
:10481000001C00400020004030B50C46002181689B
:1048200021F47F4142EA032525432943816030BDBD
:104830000A460021816821F0700142F00703194304
:104840008160704730B50B46144600210022026A91
:10485000056A25F001050562816921F0F00141EA50
:10486000041122F00A021A438161026230BD30B5A0
:104870000B46144600210022056A25F0100505624A
:104880008169026A21F4704141EA043122F0A002F8
:1048900042EA03128161026230BD000010B5024895
:1048A000FEF748FB10BD00008404002010B502484C
:1048B000FEF740FB10BD0000C404002010B5044604
:1048C0002068C06820F040002168C86094F8390072
:1048D000322803D1222084F839000EE02068C06815
:1048E00020F480702168C8602068406920F00100D1
:1048F00021684861012084F839002046FEF766FEF1
:10490000002010BD70B50446002694F83960222EB0
:1049100001D0322E47D1A068B0F5805F0DD1A56AD5
:10492000206928B920684068C0F30800288011E099
:1049300020684068C0B228800CE0206920B9206857
:104940004068A16A087005E02068406800F07F00B8
:10495000A16A0870E08D08BB2068C06820F02000C4
:104960002168C86094F83900322803D1122084F8F5
:1049700039000EE02068C06820F480702168C860AB
:104980002068406920F0010021684861012084F816
:1049900039002046FEF70AFD002070BD2046FEF7D4
:1049A00005FD0020F9E70220F7E700002DE9F041BE
:1049B000044600252068056925F44055E068054354
:1049C000206805612068C56849F20C60854321694B
:1049D000A068084361690843E1690843054320680A
:1049E000C5602068456925F44075A06905432068C5
:1049F0004561E069B0F5004F72D173492068884283
:104A000003D072492068884234D1FDF78BFD00EB5A
:104A1000C00101EB001061684900B0FBF1F06421B6
:104A2000B0FBF1F6FDF77EFD00EBC00101EB0010DD
:104A300061684900B0FBF1F7FDF774FD00EBC001C0
:104A400001EB001061684900B0FBF1F06421B0FB9C
:104A5000F1F000EBC00101EB0010A7EB8000322168
:104A600001EB00106421B0FBF1F066F31F10216828
:104A70008860A6E0FDF740FD00EBC00101EB0010EF
:104A800061684900B0FBF1F06421B0FBF1F6FDF77D
:104A900033FD00EBC00101EB001061684900B0FB81
:104AA000F1F7FDF729FD00EBC00101EB0010616893
:104AB0004900B0FBF1F06421B0FBF1F000EBC00164
:104AC00001EB0010A7EB8000322101EB0010642104
:104AD000B0FBF1F066F31F102168886071E0FFE71A
:104AE00039492068884203D038492068884234D147
:104AF000FDF718FD00EBC00101EB001061688900B3
:104B0000B0FBF1F06421B0FBF1F6FDF70BFD00EB1B
:104B1000C00101EB001061688900B0FBF1F7FDF7FF
:104B200001FD00EBC00101EB001061688900B0FBE2
:104B3000F1F06421B0FBF1F000EBC00101EB0010DB
:104B4000A7EB8000322101EB00106421B0FBF1F0F3
:104B500066F31F102168886033E0FDF7CDFC00EBA1
:104B6000C00101EB001061688900B0FBF1F0642125
:104B7000B0FBF1F6FDF7C0FC00EBC00101EB00104B
:104B800061688900B0FBF1F7FDF7B6FC00EBC001EE
:104B900001EB001061688900B0FBF1F06421B0FB0B
:104BA000F1F000EBC00101EB0010A7EB8000322117
:104BB00001EB00106421B0FBF1F066F31F102168D7
:104BC0008860BDE8F0810000001001400014014041
:104BD00010B50146002391F83930122B01D0322B49
:104BE0002CD18868B0F5805F0FD10A6A1088C0F3B5
:104BF00008000C686060086918B9086A801C0862BF
:104C000009E0086A401C086205E00C6A601C086242
:104C100020780C686060C88C401E80B2C88458B987
:104C20000868C06820F080000C68E0600868C06810
:104C300040F040000C68E060002010BD0220FCE75E
:104C40002DE9F04104460E4617461D464FF0000878
:104C5000FDF75EF980469FBB2BE0681C48B32DB181
:104C6000FDF756F9A0EB0800A84222D92068C068D9
:104C700020F080002168C8602068C06820F0200013
:104C80002168C8602068C06820F480702168C8600E
:104C90002068406920F0010021684861012084F803
:104CA000390000BF002084F8380000BF0320BDE8B1
:104CB000F081206800683040B04202D1012001E05C
:104CC00003E000200028C8D035E02AE0681C40B38B
:104CD0002DB1FDF71DF9A0EB0800A84221D92068ED
:104CE000C06820F080002168C8602068C06820F09B
:104CF00020002168C8602068C06820F480702168A6
:104D0000C8602068406920F00100216848610120E6
:104D100084F8390000BF002084F8380000BF032069
:104D2000C5E7206800683040B04201D1012000E0B2
:104D300000200028CAD10020B9E7000010B50248C1
:104D4000FEF7F8F810BD00000405002010B5024879
:104D5000FEF7F0F810BD00004405002010B5024831
:104D6000FEF7E8F810BD00008405002010B50248E9
:104D7000FEF7E0F810BD0000C405002070B5054640
:104D8000002400BF25E0144850F82400406855F87E
:104D90002410884215D055F82400B0F5966F10D332
:104DA00055F82400B0F5E13F0BD855F824000A4926
:104DB00051F824104860084951F82400FEF74AF9D8
:104DC00005E0054850F82400406845F82400601CC0
:104DD000C4B2052CD7DB70BD6000002002E008C81B
:104DE000121F08C1002AFAD170477047002001E065
:104DF00001C1121F002AFBD1704700000148007852
:104E000070470000090300202DE9F04180460C4660
:104E100015461E46002701F0DCFE0A200B490870EB
:104E2000334607222946204602F062FB012801D0C2
:104E3000032706E044F6206002F08EFB012800D034
:104E4000032701F0CAFE3846BDE8F08103030020C5
:104E50002DE9F04104460D461646002701F0B9FE43
:104E60000E480088032813DB0C4801880C480068B2
:104E700001F0B4FB60B90A48006800782070074868
:104E80000088801E308006480068401C286000E0D2
:104E9000052701F0A2FE3846BDE8F081F8020020A7
:104EA000F40200202DE9F04104460D4616464FF06D
:104EB000000801F08EFE1748007818BB681E1649DE
:104EC00008600120154908801348006804700846EE
:104ED000008830440880084601880F48006801F0C7
:104EE0007DFB07460D490888411C0C4A11800C497E
:104EF00009680F5401200B4908700121002001F0BE
:104F000071FE01E04FF0050801F067FE4046BDE884
:104F1000F0810000F1020020FC02002000030020CC
:104F2000F4020020F002002010B501F052FE002132
:104F3000012001F057FE00200349087001F04DFEEA
:104F4000002002F0B5FA10BDF102002010B501F00A
:104F500040FE0021084601F045FE01F059FE01F037
:104F60003CFE10BD10B5002406480078012806D18B
:104F70000548006820B104480068804700E0062426
:104F8000204610BD2A0200203C02002010B50A482D
:104F9000007838B909480068804701200649087040
:104FA000002406E004480078012801D1002400E034
:104FB0000624204610BD00002A02002034020020F2
:104FC00010B5002406480078012806D1054800687D
:104FD000804700200249087000E00624204610BDEA
:104FE0002A020020300200202DE9F05F06460D461F
:104FF0004FF0000B2888052848D170784FEA002927
:10500000B07840EA090909F101001FFA80F9F07847
:10501000040230790443012C35DBB4F5FA6F32DA3F
:10502000374600202880012007F8010B2888401C03
:10503000288004F0070040B12046E11704EB5171CD
:10504000C910491C01F0FF0805E02046E11704EBF8
:105050005171C1F3C70807F8018B2888401C2880CC
:10506000002322464946384600F0BEFC8246BAF18B
:10507000000F04D0504601F07BFA834608E02888F0
:105080004044288004E04FF0030B01E04FF0030B95
:105090005846BDE8F09F2DE9F05F06460D464FF0FB
:1050A000000B2888052847D170784FEA0029B0788E
:1050B00040EA090909F101001FFA80F9F0780402B9
:1050C00030790443012C34DBB4F5FA6F31DA37461A
:1050D00000202880022007F8010B2888401C288027
:1050E00004F0070040B12046E11704EB5171C910EC
:1050F000491C01F0FF0805E02046E11704EB51715F
:10510000C1F3C70807F8018B2888401C2880224675
:105110004946384600F06CFC8246BAF1000F04D0D4
:10512000504601F025FA834608E02888404428804C
:1051300004E04FF0030B01E04FF0030B5846BDE8CD
:10514000F09F2DE9F04705460C464FF0000A2088F5
:10515000052837D168784FEA0028A87840EA08087F
:1051600008F101001FFA80F8E87806022E79012E76
:1051700025DB7D2E23DC2F4600202080032007F82E
:10518000010B2088401C20807006000E07F8010BE0
:105190002088401C2080002332464146384600F0DB
:1051A0002BFC8146B9F1000F04D0484601F0E0F92C
:1051B000824609E0208800EB4600208004E04FF0A2
:1051C000030A01E04FF0030A5046BDE8F0872DE9DD
:1051D000F04705460C464FF0000A2088052837D1D5
:1051E00068784FEA0028A87840EA080808F101002A
:1051F0001FFA80F8E878060228790643012E24DB9E
:105200007D2E22DA2F4600202080042007F8010B93
:105210002088401C20807006000E07F8010B2088B3
:10522000401C208032464146384600F043FC81460F
:10523000B9F1000F04D0484601F09AF9824609E01E
:10524000208800EB4600208004E04FF0030A01E0D4
:105250004FF0030A5046BDE8F0872DE9FC5F044695
:105260000D460020009028880A285DDB60784FEA10
:10527000002AA07840EA0A0A0AF101001FFA80FA1F
:10528000E07806022079064360794FEA002BA07986
:1052900040EA0B0B0BF101001FFA80FBE0790702DB
:1052A000207A0743607A0190012E3BDB7D2E39DCAA
:1052B000012F37DB792F35DC79000198814231D11C
:1052C00001233A46594604F10A0000F095FB814655
:1052D000B9F1000F1ED1A04600202880172008F841
:1052E000010B2888401C28807006000E08F8010B6E
:1052F0002888401C2880002332465146404600F052
:105300007BFB8146B9F1000F04D12888022101FB03
:1053100006002880B9F1000F06D0484601F028F9B0
:10532000009001E0032000900098BDE8FC9F000081
:1053300070B505460C46064802880649681CFAF70F
:10534000B5FF03480088401C2080002070BD00008D
:10535000EC020020CC8B00202DE9FC5F05460C46BA
:105360004FF0000B002000902088022866DB022707
:105370002078C01B00F0FF08002001901EE0E85DCF
:1053800000F01F09781CC7B2A8F1010000F0FF0867
:105390009DF80400401CC0B20190C14502DD4FF0F1
:1053A000010B11E007EB0900C7B29DF80400484467
:1053B000C0B20190A8EB090000F0FF08B8F1000F9F
:1053C00002D0BBF1000FDAD000BFBBF1000F04D058
:1053D000032000900098BDE8FC9F012201A9A81CB1
:1053E00000F0BEFB8246BAF1000F1FD12E4600200E
:1053F0002080642006F8010B2088401C20800020BB
:1054000006F8010B2088401C2080002201A93046AC
:1054100000F0A6FB8246BAF1000F07D120889DF864
:105420000410084420809DF804006870BAF1000F51
:1054300006D0504601F09CF8009001E00320009057
:105440000098C8E72DE9F84304460F464FF00008DE
:105450003888052829D160780502A0780543681CA2
:1054600085B22079F0B9E078FF2801D0E078C8B99A
:1054700000208DF80100E078FF2803D101208DF88D
:10548000000002E000208DF8000001231A462946A2
:10549000684600F0A9FA06464EB1304601F068F8B9
:1054A000804604E04FF0030801E04FF00308404657
:1054B000BDE8F8832DE9F04104460F464FF000089F
:1054C0003888052812D160780502A0780543681C49
:1054D00085B201231A462946E01C00F08DFA0646E3
:1054E00036B1304601F044F8804601E04FF0030841
:1054F0004046BDE8F0812DE9F05F05460E464FF0CD
:10550000000B3088052839DD68780702A878074342
:10551000781C87B2E87804022879044395F805A03E
:1055200004F0070040B12046E11704EB5171C910A7
:10553000491C01F0FF0805E02046E11704EB51711A
:10554000C1F3C708012C16DBB4F5F66F13DCD045A8
:1055500011D1012322463946A81D00F045FA8146A3
:10556000B9F1000F04D0484601F002F8834607E085
:105570000520308004E04FF0030B01E04FF0030BF7
:105580005846BDE8F09F2DE9F04704460E464FF01F
:10559000000A3088062828DB60780702A0780743D5
:1055A000781C87B2E07805022079054394F80590CD
:1055B000012D17DB782D15DC6806000E484511D14A
:1055C00001232A463946A01D00F016FA8046B8F19C
:1055D000000F04D0404600F0CBFF824607E00520D4
:1055E000308004E04FF0030A01E04FF0030A504618
:1055F000BDE8F0872DE9F04705460C4616461F46E4
:10560000DDF820904FF000081CB1012C01DBF72CD5
:1056100002DD4FF0020859E02E48047015B1012D4B
:1056200042D120E02C482D4908602D482D490860C2
:105630002D482E4908602E482E49086000202E492A
:1056400008602E482E4908602E482F4908602F48D0
:105650002F4908604B463A4631461E48007800F014
:1056600007F9804623E02B481C4908602A481D4959
:1056700008602A481D49086029481E490860002022
:105680001D49086027481E49086027481E490860D0
:1056900026481F4908604B463A4631460D48007877
:1056A000FFF7B2FB804602E04FF0020800BF00BFE8
:1056B000B8F1000F0AD101F0EBFE10B94FF003086A
:1056C00004E01B48057001201A4908704046BDE8F7
:1056D000F087000028020020AD59000830020020A9
:1056E000D1590008340200201D5900082C02002066
:1056F000C5580008380200203C020020B17500089F
:105700004002002079760008440200203976000823
:1057100048020020294F00084D4F0008A54E000800
:10572000514E0008297200087D730008517300086B
:10573000290200202A02002038B5002541480078BF
:1057400008B1062038BD684601F090FE012877D1E7
:105750009DF8000030B1012805D0022818D0032898
:105760006DD16BE06BE0384A38493948394B1B68DA
:10577000984705465DB93648007837490978884228
:1057800002D03348007810B9022001F091FE56E0B3
:105790002E480068007831490870012030490870AF
:1057A000002417E02F4810F8340000B914E02D4809
:1057B00010F834002949097888420AD1294800EBB9
:1057C000C400214942682148006890472449087074
:1057D00002E0641C102CE5DB00BF1D48007858B3C4
:1057E0001F480078C8B10020174908801B4800787E
:1057F00040F08001144802880088401C124B188039
:1058000012480068815416480278184601880088BA
:10581000401C18800D480068425413480078012845
:1058200000D100BF08480288084801680A4800788B
:105830000E4B1B689847054601E001E000BF00BF22
:1058400000207FE72A020020DA020020D402002094
:10585000D80200203802002028020020D9020020AF
:10586000DC02002054020020290200202C0200202B
:105870002DE9F04781460E4614461F464FF00008BA
:1058800001F0A7F93B4608222146304601F030FEE0
:10589000012802D04FF003080CE060000849B1FB7A
:1058A000F0F505B90125A8B201F056FE012801D096
:1058B0004FF0030801F091F94046BDE8F087000081
:1058C000A07F17002DE9F04104460D4616464FF023
:1058D0000008002701F07DF90E480088042812DB3B
:1058E0000C4801880C4801F00BF960B90A480078AF
:1058F000207008480088C01E30800748401C28607F
:105900004FF0010800E0052701F067F93846BDE8CF
:10591000F0810000EA020020CC8A00202DE9F0414D
:1059200005460E4617464FF0000801F052F91A4896
:105930000078012829D1701E1849086001201849F3
:1059400008801648006805700846008838440880BA
:10595000084601881148006801F0D2F80446104951
:105960000888411C0E4B19800E490C54221219460E
:105970000888411C19800B490A5401200A49087003
:105980000121002001F02EF901E04FF0050801F09F
:1059900024F94046BDE8F081E1020020E402002045
:1059A000E8020020CC8A0020E002002010B501F0BF
:1059B00010F90020054908700021012001F012F9BA
:1059C00001F032F901F009F910BD0000E1020020F8
:1059D00010B501F0FEF80021084601F003F901F0CE
:1059E00017F901F0FAF810BD10B50446012010BDFA
:1059F00003460120704700002DE9F04704460F469A
:105A0000164698464FF00009012F49DBB819652862
:105A100046DC264800883D1AB8F1000F03D0B8F1E3
:105A2000010F3CD112E00EE0214800EB4500008858
:105A3000001204F8010B1E4810F8150004F8010BC1
:105A40006D1C701E86B2002EEEDC28E014E014F807
:105A5000011B0802164901EB4501088014F8010BEF
:105A6000134901EB450109880843114901EB450140
:105A700008806D1C701E86B2002EE8DC0C48FFF713
:105A80007DF90B49888AFBF727F90949D1F81600F7
:105A9000FEF7B2F90649887EFBF7D4F800BF01E0B3
:105AA0004FF001094846BDE8F0870000760000206D
:105AB0008406002070B504460020B1F57A7F0EDB25
:105AC0008D1840F26546B54209DC064D2D884B1B0A
:105AD00002E05B1C551EAAB2002AFADC00E001209D
