:020000040800F2
:10000000388D002089020008910200089302000840
:1000100095020008970200089902000800000000FD
:10002000000000000000000000000000C101000806
:100030009D02000800000000150200083D22000893
:10004000A3020008A3020008A3020008A3020008FC
:10005000A3020008A3020008A3020008A3020008EC
:10006000A3020008A3020008A3020008A3020008DC
:10007000A3020008A3020008A3020008A3020008CC
:10008000A3020008A3020008A3020008A3020008BC
:10009000A3020008A3020008A3020008A3020008AC
:1000A000A3020008A3020008A3020008A30200089C
:1000B0000D230008A3020008A3020008A302000801
:1000C000A3020008A3020008A3020008A30200087C
:1000D000A3020008512700085D27000869270008CF
:1000E000A3020008A3020008A3020008A30200085C
:1000F000A3020008A3020008A3020008A30200084C
:10010000A3020008A3020008A3020008A30200083B
:100110004524000851240008A3020008A302000897
:10012000A3020008A3020008A3020008A30200081B
:10013000A3020008A3020008A3020008A30200080B
:10014000A3020008A3020008A3020008A3020008FB
:10015000A3020008A3020008A302000875270008F4
:10016000A3020008A3020008A3020008A3020008DB
:10017000A3020008A3020008A30200080000000078
:10018000A3020008A3020008A3020008A3020008BB
:10019000A3020008A3020008A3020008A3020008AB
:1001A000A3020008A3020008A3020008DFF80CD095
:1001B00000F0AEF800480047E5320008388D002016
:1001C000294B19680868B0E8F04F80F30988BFF33D
:1001D0006F8F4FF0000080F311887047000000001F
:1001E00006480068006880F3088862B661B6BFF30D
:1001F0004F8FBFF36F8F00DF00BF00BF08ED00E03F
:10020000DFF80C00016841F470010160704700BF25
:1002100088ED00E0EFF30980BFF36F8F124B1A688F
:100220001EF0100F08BF20ED108A20E9F04F10607B
:1002300008B44FF0500080F3118803F0B7FF4FF07F
:10024000000080F3118808BC19680868B0E8F04F16
:100250001EF0100F08BFB0EC108A80F30988BFF3BE
:100260006F8F704700BF00BF6C010020EFF311805B
:100270004FF0500181F31188704780F31188704767
:10028000EFF30580704700000648804706480047A6
:10029000FEE7FEE7FEE7FEE7FEE7FEE7FEE7FEE736
:1002A000FEE7FEE7B9220008AD01000840EA0103BD
:1002B0009B0703D009E008C9121F08C0042AFAD21C
:1002C00003E011F8013B00F8013B521EF9D27047E0
:1002D000D2B201E000F8012B491EFBD27047002288
:1002E000F6E710B513460A4604461946FFF7F0FF35
:1002F000204610BD30B504460020034600E05B1CDC
:10030000934203D2E05CCD5C401BF8D030BD0000CE
:10031000064C074D06E0E06840F0010394E8070052
:1003200098471034AC42F6D3FFF744FFFC52000864
:100330001C53000870B58C1810F8015B15F007030A
:1003400001D110F8013B2A1106D110F8012B03E06E
:1003500010F8016B01F8016B5B1EF9D12B0705D476
:100360000023521E0DD401F8013BFAE710F8013BBF
:10037000CB1A921C03E013F8015B01F8015B521EDB
:10038000F9D5A142D8D3002070BD0000434910B573
:10039000D1F8042322F44032C1F80423D1F8042315
:1003A00043681A43C1F8042301684A6822F4807242
:1003B0004A6001684A68036942EA03224A600168A8
:1003C0004A6822F040724A6001684A6883681A43AA
:1003D0004A6001688A6822F400628A6001688A685B
:1003E000C3681A438A6001688A6822F070628A6072
:1003F00001688A68036B1A438A6001688A6822F080
:1004000040528A6001688A68C36A1A438A60016838
:100410008A6822F002028A6001688A68836942EA77
:1004200043028A60416A002901684A680FD042F499
:1004300000624A6001684A6822F460424A600168CA
:100440004A68174C836A04EB43331A4301E022F4F1
:1004500000624A600168CA6A22F47002CA620168D6
:10046000CA6A038C0F4C04EB03531A43CA62016837
:100470008A6822F400728A6001688A68C36942EA65
:1004800043228A6001688A6822F480628A60016877
:100490008A68406942EA8020886010BD00200140DF
:1004A00000E0FFFF0000F0FF7047000030B590F85B
:1004B0003C20012A19D0012280F83C200A68072339
:1004C0000468092A13D9E5680A3A02EB420293400C
:1004D0009D43E5600B788A680A3B03EB43039A402F
:1004E0000368DC682243DA6010E0022030BD256931
:1004F00002EB420293409D4325610B788A6803EB2F
:1005000043039A4003681C6922431A614A681F2307
:10051000072A13D20468656B521E02EB82029340D5
:100520009D4365630B790A885B1E92B203EB8303DC
:100530009A4003685C6B22435A6327E004680D2AE3
:1005400012D2256BD21F02EB820293409D4325639A
:100550000B790A88DB1F92B203EB83039A4003688E
:100560001C6B22431A6311E0E56A0D3A02EB82022A
:1005700093409D43E5620B790A880D3B92B203EBF1
:1005800083039A400368DC6A2243DA620F4A0368F5
:10059000934208D10B68122B05D1D2F8043343F4EF
:1005A0008003C2F80433036893420AD10968102912
:1005B00001D0112905D1D2F8041341F40001C2F889
:1005C0000413002180F83C10084630BD0020014093
:1005D00010B5040003D094F83D0010B104E00120F0
:1005E00010BD204600F00EF8022084F83D002046A1
:1005F000FFF7CCFE00202064012184F83D1084F830
:100600003C0010BD00B500680A4985B088420FD192
:100610000948016841F4806101604FF486600090F0
:1006200003200190002002906946044800F0E4F89D
:1006300005B000BD002201404438024000140240D1
:100640002DE9F041040003D094F8380018B105E01A
:100650000120BDE8F081204600F094F8022084F8E3
:1006600038002068016821F00201016020680168FB
:1006700041F00101016000F0A5F9002507460326BD
:1006800005E000BF00F09EF9C01B0A2863D820686F
:100690004068C007F6D020684168C90768D0A169E2
:1006A000012901683FD021F080010160E069012843
:1006B000206801683AD021F040010160206A0128D9
:1006C0002068016835D021F020010160606A0128AE
:1006D0002068016830D021F010010160A06A012873
:1006E000206801682BD021F008010160E06A012830
:1006F0002068016826D021F004010160D4E90201DC
:100700000843D4E90412114308436168491E0843B1
:100710002168C8612068016821F00101016000F0D2
:1007200051F907461CE041F08001BEE741F040016D
:10073000C3E741F02001C8E741F01001CDE741F0E7
:100740000801D2E741F00401D7E700BF00F03AF911
:10075000C01B0A2804D904F8386F0320657078E7B5
:1007600020684068C007F1D120684068C00703D006
:10077000042084F838006BE7E563012084F8380032
:10078000002066E730B5174D0468002116480223A3
:10079000092285B0AC420CD1046844F000740460B6
:1007A00003200090CDE90131CDE9031269460F48DD
:1007B00013E00F4DAC4212D1046844F08064046031
:1007C000046844F00074046042F220000090CDE917
:1007D0000131CDE903126946064800F00DF805B075
:1007E00030BD00000064004040380240000C024070
:1007F00000680040000402402DE9F04FDFF880B1AE
:1008000000224FF001084FF0030A4FF00F090BF1DF
:10081000040E00BF0B6808FA02F42340A3426FD114
:100820004D68022D01D0122D0ED1D50800EB850C9C
:10083000DCF820505607F70E09FA07F6B5430E69A3
:10084000BE402E43CCF82060066855000F790AFAA6
:1008500005FC07F0030726EA0C06AF4037430760A4
:100860004E68012E05D0022E03D0112E01D0122E7B
:100870000ED18668CF6826EA0C06AF403743876002
:100880004668A6430C79C4F3001494403443446092
:10089000C6688C6826EA0C06AC403443C4604C68D9
:1008A000E40066D5374C256845F480452560364C14
:1008B00022F003052E19D6F8084895072F0F09FADC
:1008C00007F5AC43314DA84201D1002529E0304D58
:1008D000A84201D1012524E02E4DA84201D10225D4
:1008E0001FE02D4DA84201D103251AE02B4DA8424F
:1008F00001D1042515E02A4DA84202D1052510E0BA
:1009000037E0284DA84201D106250AE0264DA8422D
:1009100001D1072505E0254DA84201D1082500E0B9
:100920000925BD402543C6F80858DBF800405D4660
:100930004E689C43F60300D51C432C60DEF8004053
:1009400075464E689C43B60300D51C432C600C4D85
:1009500008352C684E689C43F60200D51C432C6079
:10096000074D0C352C684E689C43B60200D51C43DD
:100970002C60521C102AFFF44DAFBDE8F08F000030
:10098000003C014044380240003001400000024079
:100990000004024000080240000C02400010024027
:1009A0000014024000180240001C024000200240D7
:1009B00042694A40426170470AB181617047090447
:1009C000FBE700000148006870470000200100209C
:1009D00010B5040003D094F8350010B104E00120F4
:1009E00010BD204600F074F8022084F8350020681D
:1009F000016821F00101016000F0FEF9324922682E
:100A0000B0FBF1F15160314A6368934206D94FF46B
:100A1000967359434FF47A73B1FBF3F12368491C81
:100A20001962616891420BD84900B0FBF1F2C2F340
:100A30000B02042A01D204201AE0B0FBF1F017E007
:100A4000A36893B301EBC10202EB0112B0FBF2F217
:100A500042F4804212052FD043B301EBC10202EBF6
:100A60000111B0FBF1F040F4804000BF40F40040C1
:100A70002168C861D4E90701084321680860D4E906
:100A80000310084321688860D4E905010843216800
:100A9000C8602068016841F0010101600020A06386
:100AA000012084F83500002010BD00E006E001EBD5
:100AB0004102B0FBF2F2CDE70120D9E701EB4101A1
:100AC000B0FBF1F0D2E7000040420F00A086010029
:100AD00000B500680C4985B0884212D10B48016806
:100AE00041F4800101600320009012200190012058
:100AF0000290002003900420049069460448FFF708
:100B00007BFE05B000BD00000058004040380240A8
:100B10000014024002480168491C0160704700004F
:100B2000200100200B4810B5016841F400710160FC
:100B3000016841F480610160016841F480710160E5
:100B4000032000F051F8002000F006F800F015F83E
:100B5000002010BD003C024010B5044600F032F900
:100B60004FF47A71B0FBF1F000F0DCFB002221467B
:100B7000501E00F019F8002010BD10B5032000F041
:100B800033F80022BDE810401146501E00F00CB8AA
:100B900000F01F02012191404009800000F1E02097
:100BA000C0F8001170470000F0B40E4B1B680C46F3
:100BB000C3F30223C3F10705042D00D90425191D31
:100BC000072901D2002300E0DB1E012606FA05F109
:100BD000491E214099409E40761E16403143F0BC8C
:100BE00001F058BA0CED00E0064900F00702086871
:100BF0004FF6FF03184040EA0220034A1043086002
:100C0000704700000CED00E00000FA052DE9F04708
:100C1000DFF8A8A105460E46DAF80000684C00F09F
:100C20000F016748083406F0FF0941F28838B142E5
:100C300054D28AF80090DAF8001001F00F01B142A6
:100C40006FD12978890705D52168AA6821F0F001BC
:100C5000114321602978C90728D06968012914D077
:100C60000068022914D0800700285ADA206820F092
:100C7000030008432060FFF7A5FE064668680128C8
:100C80000ED00228474618D023E000688003EBE727
:100C90008001E9E7FFF796FE801BB84201D964E0C6
:100CA00047462068C0F381000128F3D16EE000BF01
:100CB000FFF788FE801BB84257D82068C0F3810038
:100CC0000228F5D162E000BFFFF77CFE801BB8422E
:100CD0004BD8206810F00C0FF6D157E0297889071F
:100CE00005D52168AA6821F0F00111432160297817
:100CF000C90741D06968012914D00068022914D0BD
:100D00008007002840DA206820F0030008432060B4
:100D1000FFF758FE0746686801280ED0022818D051
:100D200026E031E000688003EBE78001E9E700BFDF
:100D3000FFF748FEC11B414517D82068C0F381006A
:100D40000128F5D118E000BFFFF73CFEC11B41456B
:100D50000BD82068C0F381000228F5D10CE000BF59
:100D6000FFF730FEC11B414502D90320BDE8F087E3
:100D7000206810F00C0FF3D18AF80090DAF8000028
:100D800000F00F00B04201D00120EFE728784007C3
:100D900005D52068E96820F4E050084320602878F1
:100DA000000706D52068296920F4604040EAC100A8
:100DB00020600020FFF7D0FE0020D7E7003C024073
:100DC0000038024000B500F043F808490968F022F5
:100DD00092FAA2F201F0F001B2FA82F2D140044A92
:100DE000515CC8400349086000BD0000083802405B
:100DF000705000082401002000B5FFF7E3FF074909
:100E000009684FF4E05292FAA2F201F4E051B2FA0A
:100E100082F2D140024A515CC84000BD083802400D
:100E20007050000800B5FFF7CDFF074909684FF47F
:100E3000604292FAA2F201F46041B2FA82F2D14029
:100E4000024A515CC84000BD08380240705000089A
:100E500030B51948006810F00C01184812D0184C31
:100E600004290ED008290DD11349091F0A6802F080
:100E70003F030A68550247F6C07204D5B4FBF3F08D
:100E800003E0204630BDB0FBF3F00B680968134067
:100E900092FAA2F2B2FA82F2D34058434FF44032AF
:100EA00092FAA2F201F44031B2FA82F2D140491C26
:100EB0004900B0FBF1F030BD083802400024F400D6
:100EC000001BB7002DE9F84F04460078DFF814A3A3
:100ED000C54DC0074FF000064BD0DAF80010504661
:100EE000C1F38101012908D00068C0F38100022804
:100EF0000AD1281D0068400206D52868800338D52D
:100F00006068002871D034E0DFF8DC9209F1020952
:100F100089F80060FFF756FD804641F2883705E00A
:100F2000FFF750FDA0EB0800B8427DD82868800389
:100F3000F6D4207989F80000606868B1FFF742FDB7
:100F4000804605E0FFF73EFDA0EB0800B842ECD874
:100F500028688003F6D50CE0FFF734FD804605E0F5
:100F6000FFF730FDA0EB0800B842DED82868800308
:100F7000F6D420789D4F80074FF0010B45D5DAF865
:100F80000010504611F00C0F4FF0F80909D000681E
:100F9000C0F3810002280BD19248001F0068400274
:100FA00006D42868800714D5E06801281DD110E018
:100FB000E068D8B1C7F800B0FFF704FD804605E04F
:100FC000FFF700FDA0EB08006428AED82868800772
:100FD000F6D5286899FAA9F22169B2FA82F220F0CE
:100FE000F8009140084328600FE0F8E03E60FFF70A
:100FF000E9FC804606E000BFFFF7E4FCA0EB080038
:10100000642811D828688007F6D42078000729D5ED
:10101000DFF8D0917648616909F16C0999B1C0F89F
:1010200000B0FFF7CFFC00E085E0804606E000BF9F
:10103000FFF7C8FCA0EB080064287CD8D9F80000B2
:101040008007F5D50EE00660FFF7BCFC804605E0A2
:10105000FFF7B8FCA0EB080064286CD8D9F80000B2
:101060008007F5D42078400756D55E4838300168AF
:1010700041F080510160DFF87C91D9F8001041F413
:101080008071C9F80010FFF79DFC804606E000BFA4
:10109000FFF798FCA0EB080064284CD8D9F80000B2
:1010A000C005F5D5DFF83C8108F1680888F80060D4
:1010B000FFF788FC41F28839009005E0FFF782FCD9
:1010C0000099411A494536D8D8F800008007F5D470
:1010D000207A88F80000A068012803D0FFF772FC8E
:1010E000009015E0FFF76EFC009005E0FFF76AFC4A
:1010F0000099411A49456AD8D8F800008007F5D50B
:101100000AE000BFFFF75EFC0099411A49455ED82E
:10111000D8F800008007F5D4A069E0B3DAF8001031
:10112000C1F3810102295AD002283E6604D0FFF79C
:1011300049FC04464EE04AE0FFF744FC064604E062
:10114000FFF740FC801B642841D828688001F7D451
:10115000D4E90710084347F6C07292FAA2F2616A16
:10116000B2FA82F29140A26A4FF0FF3303EB5202CF
:101170004FF4403393FAA3F3B3FA83F39A40114345
:1011800008434FF0706292FAA2F2E16AB2FA82F278
:101190009140084300E020E040F000511148001F5A
:1011A0000160C7F860B0FFF70DFC044605E000BF22
:1011B000FFF708FC001B642809D828688001F7D5D0
:1011C0000BE000BFFFF7FEFB001B642802D90320E1
:1011D000BDE8F88F28688001F4D40020F8E70120EA
:1011E000F6E700000838024000380240000047429D
:1011F000800E47420070004010B5040003D094F800
:10120000510010B104E0012010BD204600F034F878
:10121000022084F851002068016821F0400101603B
:10122000D4E901010843D4E9031211430843616979
:101230000843218B01F400710843E1690843216AE6
:101240000843A16A084321680860A069042101EAF3
:101250001040616A0843216848602168E06A0861BB
:101260002068C16921F40061C1610020606501202E
:1012700084F85100002010BD70B502682248002497
:101280000225052686B082420BD12048016841F430
:1012900080510160E0200090CDE9015469461C486E
:1012A00019E01A491B4B091F1B489A421AD10A68B8
:1012B00042F480420A600C210091CDE90154CDE94D
:1012C00003466946FFF798FA4FF480600090CDE935
:1012D000015412486946CDE9034600BFFFF78CFA76
:1012E00006B070BD0E4B9A42FAD10A6842F4004231
:1012F0000A604FF440610091CDE901540621CDE927
:1013000003416946EAE700000030014044380240EA
:101310000000024000380040000802400004024083
:10132000003C004010B5401EB0F1807F01D3012089
:1013300010BD4FF0E02460610F21601700F0AAFE9D
:101340000020A06107202061002010BD7047704779
:1013500030B590F83820012A20D0012280F83820BA
:10136000022380F8393003685C6824F070045C6004
:1013700003685C680D682C435C6003689C6824F01B
:1013800080049C6003689C6849680C439C6080F8FA
:101390003920002180F83810084630BD022030BDC9
:1013A00010B5040003D094F8390010B104E0012016
:1013B00010BD204600F00CF8022084F83900211DF1
:1013C000206800F0A9FF012084F83900002010BD3A
:1013D00010B50068B0F1804F0ED10848016841F0A7
:1013E00001010160002205211C20FFF7DDFBBDE8A3
:1013F00010401C20FFF7CCBB10BD0000403802405D
:101400000168CA6842F00102CA600068016841F0E0
:101410000101016000207047022180F83910016845
:101420000A6A41F211131A4207D10A6A9B101A4242
:1014300003D10A6822F001020A60012180F8391004
:101440000020704770B5044690F83800012817D086
:10145000012584F83850022084F839002068826819
:1014600022F0770222F47F4282600868502837D049
:101470000DDC202859D005DC88B3102841D151E07B
:10148000022070BD302853D040283AD13FE0602878
:101490002ED070280BD0B0F5805F03D0B0F5005F80
:1014A0002FD110E02068816821F0070115E0CB689A
:1014B000D1E90121206800F08FFF2168886840F0A1
:1014C000770088601DE0CB68D1E90121206800F039
:1014D00083FF2068816841F48041816011E01EE053
:1014E000CA684968206800F089FF5021206806E03A
:1014F000CA684968206800F092FF6021206800F007
:1015000075FF84F83950002084F8380070BDCA682F
:101510004968206800F072FF40212068EFE7002151
:101520002068ECE710212068E9E720212068E6E741
:1015300030212068E3E7704770B504460068016910
:101540004FF00005C943890715D4C168C94389070D
:1015500011D4E91E0161012020762068806980078E
:10156000204602D0FFF7E7FF04E000F098F820469D
:1015700000F096F8257620680169C943490717D419
:10158000C168C943490713D46FF004010161022007
:1015900020762068806910F4407F204602D0FFF753
:1015A000CAFF04E000F07BF8204600F079F82576C9
:1015B00020680169C943090716D4C168C9430907EE
:1015C00012D46FF008010161042020762068C06900
:1015D0008007204602D0FFF7AEFF04E000F05FF87E
:1015E000204600F05DF8257620680169C943C906E8
:1015F00017D4C168C943C90613D46FF01001016143
:10160000082020762068C06910F4407F204602D070
:10161000FFF791FF04E000F042F8204600F040F8A8
:10162000257620680169C943C90708D1C168C94343
:10163000C90704D1891E0161204600F033F82068F3
:101640000169C943090609D4C168C943090605D41B
:101650006FF0800101612046FFF778FE2068016984
:10166000C943490609D4C168C943490605D46FF086
:1016700040010161204600F037F820680169C94344
:1016800089060BD4C168C943890607D46FF02001CD
:1016900001612046BDE87040FFF759BE70BD70473C
:1016A0007047000010B50068B0F1804F15D10120DF
:1016B00002F0A6FB0948006880470446002002F0BB
:1016C0009FFB1CB106494FF080500860BDE81040F8
:1016D0004FF400710348FFF76BB910BDCC01002037
:1016E00004ED00E000100240704702F0CFB90000A6
:1016F00038B501680446086810F0010FC86800F4A6
:10170000807007D030B1086848680090E06B40F006
:101710000100E06308684A69C0F3400002F001027A
:1017200038B132B1086848680090E06B40F00400BE
:10173000E0630868C0F38002486900F001003AB134
:1017400030B1086848680090E06B40F00200E06348
:101750000868C0F3C002486900F001003AB130B136
:10176000086848680090E06B40F00800E063086893
:10177000C968C0F3401001F0200118B111B1204632
:1017800000F06CFE21680868C968C0F3C01001F061
:10179000800118B111B1204600F05EFF2168086891
:1017A000CA68C0F3801002F040020125C0B1BAB18E
:1017B000CA68204622F04002CA6094F839103229E3
:1017C00017D00168CA6822F48072CA6001684A6949
:1017D00022F001024A6180F8395000BF00F018FA87
:1017E000E06B002804D084F839502046FFF77DFFD5
:1017F00038BD222180F83910F0E710B5040003D07D
:1018000094F8390010B104E0012010BD204600F02A
:1018100021F8022084F839002068C16821F40051C1
:10182000C160204600F05CFE2068016921F490410F
:1018300001612068416921F02A0141612068C16885
:1018400041F40051C1600020E063012084F83900B8
:10185000002010BD2DE9F043584B02680024584980
:10186000022501260827574885B09A4212D10A68F6
:1018700042F400220A6003218DE86200CDE90347AB
:101880006946FEF7B9FF002205213420FFF78CF9E5
:10189000342020E04C4BDFF834919A4220D1086884
:1018A00040F48010086090148DE86100CDE9034792
:1018B00069464748FEF7A0FF04208DE86100CDE9A6
:1018C000034769464846FEF797FF00220521352069
:1018D000FFF76AF93520FFF75BF905B0BDE8F08343
:1018E000374BDFF8F0C01B1D4FF00708624513D1DE
:1018F000196841F0100119604FF4C0618DE8620071
:10190000CDE903486946FEF777FF0022052125202F
:10191000FFF74AF92520DEE72F4882421ED10868EA
:1019200040F40030086060208DE86100CDE9034894
:1019300069464E464846FEF75FFF80200090CDE99D
:101940000154CDE9034869463046FEF755FF0022B1
:1019500005212620FFF728F92620BCE71F488242F0
:1019600014D1086840F4802008604FF440708DE87E
:101970006100CDE9034869464846FEF73DFF002275
:1019800005212720FFF710F92720A4E714488242F9
:10199000A3D1186840F0200018604FF484408DE80F
:1019A0006100CDE9034769460E48FEF725FF002296
:1019B00005214720FFF7F8F847208CE7004C00404E
:1019C000403802400000024000500040000C02403D
:1019D0000008024000100140004400400048004060
:1019E000001401400018024090F83930012B01D05A
:1019F000122B2CD139B332B390F83830012B26D0CA
:101A0000012380F8383081628285C2850021C1635C
:101A100090F83920122A18D05FF0220280F839207D
:101A20000268D36843F48073D3600268536943F05B
:101A30000103536180F838100068C16841F020014B
:101A4000C16000207047012070473222E6E7022083
:101A500070470000194B0168CA1A994227D00DDC63
:101A6000174A891819D0B1F5806F1BD0B1F5006FF6
:101A700022D10023816A1A46124809E0B2F5404F8C
:101A800009D0B2F5444F17D1816A00230E481A4697
:101A9000006802F08FBF01F043BF0023816A1A463D
:101AA0000A48F5E70023816A1A460948F0E700234F
:101AB000816A1A460748EBE7704700000050004073
:101AC00000BCFFBF38000020480000202800002094
:101AD00030000020400000202DE9F047044690F837
:101AE000390099460D46012801D0222858D12DB33E
:101AF00022B394F83800012852D0012684F83860C7
:101B00000027E76394F8390022281AD05FF012000A
:101B100084F83900A284E2844FF48058E08C4B466C
:101B2000401EE084A0684FF0000240454FF0800165
:101B3000204613D100F0C3FD08BB04E00120BDE83E
:101B4000F0873220E4E728882168C0F30800486065
:101B5000206908B16D1C08E0AD1C06E000F0AFFD87
:101B600068B9216815F8010B4860E08C0028D5D1D0
:101B70004B4600224021204600F0A1FD08B1032081
:101B8000DDE794F83900322806D084F8396000BFC8
:101B900084F838700020D2E7222084F83900F7E773
:101BA0000220CCE790F83930012B01D0222B2CD128
:101BB00039B332B390F83830012B26D0012380F8A6
:101BC000383001628284C2840021C16390F83920D8
:101BD000222A18D05FF0120280F839200268D368F8
:101BE00043F48073D3600268536943F00103536187
:101BF00080F838100068C16841F08001C1600020A1
:101C00007047012070473222E6E70220704700004B
:101C100000680349C84201D101F098BE7047000036
:101C200000F0FEBF30B51E4885B0016841F01001DC
:101C30000160016841F01001016084150120CDE9C7
:101C400000400020174D0290039069462846FEF799
:101C5000D3FD6000009069462846FEF7CDFD694639
:101C600011480094FEF7C8FDE000104C0090694652
:101C70002046FEF7C1FD1020009069462046FEF781
:101C8000BBFD0820009069462046FEF7B5FD2015F3
:101C9000009069460648FEF7AFFD05B030BD000074
:101CA000303802400010024000000240000C0240A8
:101CB000001802407FB50E480C490024C0E900140A
:101CC0008460046184614462C4620125C460C0E927
:101CD00007454561FEF77CFC0820CDE90005694613
:101CE00002940348FEF7E2FB7FBD000000220140A2
:101CF000B802002009480849016010214160002114
:101D00008160C160016141618161C16101624162C3
:101D10008162C162FEF794BC00640040C0050020EF
:101D20000948084901601021416000218160C160BB
:101D3000016141618161C161016241628162C1628F
:101D4000FEF77EBC006800400006002000B585B0AC
:101D5000142207496846FEF7A9FA0021684601F0F7
:101D600020FB0449086001F0D7FE05B000BD00006B
:101D7000804F00080000002070B5414886B001681F
:101D800041F010010160016841F004010160016847
:101D900041F020010160016841F0800101600168AB
:101DA00041F001010160016841F002010160016838
:101DB00041F008010160016841F0400101600C2020
:101DC000009001250024CDE901542E4E694630468D
:101DD0000394FEF711FD6020CDE90004694630460A
:101DE0000294FEF709FD46F20800CDE90004264EF4
:101DF000694630460294FEF7FFFC4FF47070009085
:101E0000CDE90154694630460394FEF7F5FCCDE96F
:101E100000541E4E694630460294FEF7EDFC022047
:101E20000090CDE90154694630460394FEF7E4FC86
:101E30004FF484700090CDE901546946144803942E
:101E4000FEF7DAFC28030090CDE9015469461148F9
:101E50000394FEF7D1FC18200090CDE901546946A7
:101E60000D480394FEF7C8FCA8020090CDE9015488
:101E700069460A480394FEF7BFFC06B070BD000037
:101E800030380240001002400014024000080240B6
:101E90000000024000040240000C02400018024012
:101EA000094808494FF48042016008494160002117
:101EB0008160C0E9031241618161C1610162FEF785
:101EC00087BD0000005800407C020020A086010071
:101ED0000A4809494FF4007201604FF48271416071
:101EE00000218160C1600161C0E90512C161016228
:101EF00041628162FFF780B900300140FC0200209E
:101F00000A4809494FF4007201604FF48271416040
:101F100000218160C1600161C0E90512C1610162F7
:101F200041628162FFF768B9003800405403002025
:101F30000B480A494FF4007201604FF4827141600E
:101F40004FF4806181600021C1600161C0E9051228
:101F5000C161016241628162FFF74EB9003C0040FD
:101F6000AC03002010B50E4886B04FF0804100242D
:101F7000C0E900144FF46161C0E902410461FFF758
:101F80000FFA4FF48050009069460548FFF75AFA5F
:101F9000049404A902480594FFF7DAF906B010BDCD
:101FA000040400200848074901604FF4964141604D
:101FB000002181600C22C160C0E904128161C1610D
:101FC000FFF71BBC004C00404004002008480749B4
:101FD00001604FF496414160002181600C22C16094
:101FE000C0E904128161C161FFF707BC00500040E5
:101FF000800400200848074901604FF4E131416046
:10200000002181600C22C160C0E904128161C161BC
:10201000FFF7F3BB00100140C00400200848074947
:1020200001604FF496414160002181600C22C16043
:10203000C0E904128161C161FFF7DFBB00440040C9
:10204000000500200848074901604FF496414160AF
:10205000002181600C22C160C0E904128161C1616C
:10206000FFF7CBBB00480040400500200848074967
:1020700001604FF496414160002181600C22C160F3
:10208000C0E904128161C161FFF7B7BB00140140D0
:10209000800500200907090E002806DA00F00F006D
:1020A00000F1E02080F8141D704700F1E02080F876
:1020B0000014704707A000F063FB0E4D4FF48074CE
:1020C0004FF4FA7621462846FEF772FC304601F0BE
:1020D00057F9F7E7474C4F5341565F4D6F6E6974A0
:1020E0006F72696E67205374617274696E672E2E09
:1020F0002E0A0000001002401CB517A000680190D5
:1021000000BF00204FF4612301220A21009000F05B
:102110007BFEE0B9032301AA0121342001F03CF841
:1021200088B900F015FC70B901200C49088000BF87
:1021300000F0CEFE0A480088401C09490880074884
:1021400000880028F4D100F0F3FB00F0E1FB32201E
:1021500001F02EFFD5E70000AABBCC0060000020F4
:102160004006002000BF4FF47A7001F009F9FAE749
:1021700008B500BF00235A1E69460248006802F0F5
:10218000C3FAF7E72800002008B500BF00235A1E55
:1021900069460648006802F0B7FA4FF6FF7301225D
:1021A00069460348FFF798FCF0E700002C00002088
:1021B0000005002008B500BF00235A1E69460B48E1
:1021C000006802F0A1FA012208210948FEF7F4FB99
:1021D0004FF6FF73012269460648FFF77DFC002297
:1021E00008210348FEF7E8FBE6E700004400002072
:1021F000000C02408004002008B500BF00235A1ED6
:1022000069460B48006802F07FFA012291020948F2
:10221000FEF7D2FB4FF6FF73012269460648FFF72F
:102220005BFC00224FF480610248FEF7C5FBE5E746
:1022300034000020001802408005002010B502F094
:10224000F1FC012801D002F029FABDE81040FEF7A8
:1022500061BC0000164810B5016892B041F0805191
:1022600001601448016821F4404141F4804101605B
:1022700001200090019002248005CDE906400C2049
:1022800008904FF49070099004200A900B906846D3
:10229000FEF718FE0D20CDE90C0400200E90E002A0
:1022A0000F90109002210CA8FEF7B0FC12B010BDE8
:1022B00040380240007000401048016841F470014D
:1022C00001600F48016841F0010101600C4A0021E2
:1022D0000832116002680B4B1A400260031D0A4A63
:1022E0001A60026822F48022026005480C30016006
:1022F00002495806803908607047000088ED00E008
:1023000000380240FFFFF6FE103000240148FFF7BE
:1023100013B9000004040020F0B50268234B244DDB
:10232000244E254F254C4FF0804C984209D06045F3
:1023300007D0A84205D0B04203D0B84201D0A04295
:1023400004D122F0700E4A6842EA0E0298421BD075
:10235000604519D0A84217D0B04215D0B84213D06A
:10236000A04211D0164DA8420ED0164DA8420BD057
:10237000154DA84208D0154DA84205D0144DA842CD
:1023800002D0144DA84203D122F44075CA682A43F2
:1023900002608A68C2620A688262984201D0A042E2
:1023A00001D10969016301214161F0BD00000140D3
:1023B0000004004000080040000C00400004014000
:1023C0000040014000440140004801400018004026
:1023D000001C00400020004010B5846842EA03223F
:1023E00024F47F440A432243826010BD826822F0B5
:1023F00070020A4342F007018160704710B5036A1A
:10240000046A24F001040462846924F0F00444EABC
:10241000021423F00A020A438461026210BD10B55F
:10242000036A23F0100303628369046A23F4704390
:1024300043EA023224F0A00343EA011182610162FF
:1024400010BD00000148FFF753B900004004002010
:102450000148FFF74DB900008004002010B590F846
:102460003910222903D0322901D0022010BD816801
:10247000B1F5805F0BD0016900290168496801D07E
:1024800001F07F01826A1170C18D61B122E00269A1
:10249000816A002A0268526802D0D2B20A80F3E749
:1024A000C2F30802FAE70168CA6822F02002CA6093
:1024B00090F83910322911D00168CA6822F480726C
:1024C000CA6001684A6922F001024A615FF00101B5
:1024D00080F83910FFF7BEFA002010BD1221F7E78F
:1024E0002DE9F04101680446086920F44052E06893
:1024F000104308612268D06849F20C61884323695F
:10250000A168E569194363692B4319430143D1600D
:102510002168486920F44072A06910434861E2696B
:1025200064263225B2F5004F49494A4822681DD039
:10253000824201D08A426AD1FEF774FC00EBC001EE
:1025400001EB00106168B0468900B0FBF1F1B1FB0E
:10255000F8F6FEF767FC00EBC00101EB00106168C4
:102560008900B0FBF1F7FEF75DFC69E0824201D023
:102570008A4219D1FEF756FC00EBC00101EB0010B6
:102580006168B0464900B0FBF1F1B1FBF8F6FEF727
:1025900049FC00EBC00101EB001061684900B0FB91
:1025A000F1F7FEF73FFC18E0FEF726FC00EBC00158
:1025B00001EB00106168B0464900B0FBF1F1B1FBDE
:1025C000F8F6FEF719FC00EBC00101EB00106168A2
:1025D0004900B0FBF1F7FEF70FFC00EBC00101EB87
:1025E000001061685FEA4101B0FBF1F1B1FBF8F066
:1025F0006FF01801484307EB800005EB0011B1FBB9
:10260000F8F0216866F31F108860BDE8F081FEF7DE
:10261000F3FB00EBC00101EB00106168B0468900DC
:10262000B0FBF1F1B1FBF8F6FEF7E6FB00EBC00101
:1026300001EB001061688900B0FBF1F7FEF7DCFBED
:1026400000EBC00101EB001061688900CCE70000DD
:10265000001401400010014090F83910122903D0F5
:10266000322901D0022070478168B1F5805F016A8C
:102670000BD04A1C0262026809785160C18C491E65
:102680000904090CC1840ED017E009880268C1F35F
:102690000801516001690029016A02D0491C0162E8
:1026A000ECE7891CFBE70168CA6822F08002CA6077
:1026B0000068C16841F04001C160002070472DE909
:1026C000F0471D4690460E460446FEF77BF9074646
:1026D0005FEA08004FF000094FF0010808D030E031
:1026E000681C05D095B1FEF76DF9C01BA8420DD846
:1026F0002068006836EA0000F2D127E0681C20D08C
:1027000025B1FEF75FF9C01BA8421AD92068C1683D
:1027100021F08001C1602068C16821F02001C16002
:102720002068C16821F48071C1602068416921F08E
:102730000101416184F8398084F838900320BDE8B4
:10274000F0872068006836EA0000D7D00020F6E75E
:102750000148FEF7CDBF0000C00400200148FEF78D
:10276000C7BF0000000500200148FEF7C1BF000000
:10277000400500200148FEF7BBBF00008005002097
:10278000014A024900F013B8C13200087802002063
:1027900002E008C8121F08C1002AFAD1704770472A
:1027A000002001E001C1121F002AFBD170472DE972
:1027B000F04116460F460446002503E03946B0476F
:1027C000641C6D1C20780028F8D12846BDE8F081F3
:1027D0000148007870470000750200202DE9F041A3
:1027E0001E4617460D46002401F0F3FA0B490A2055
:1027F000C870334607223946284601F037FE0128C3
:1028000005D144F6206001F05DFE012800D00324CC
:1028100001F0E1FA2046BDE8F081000060020020EE
:102820002DE9F041164688460746002501F0D1FA09
:102830000F4CA088FF2801D9AFF30080A08803289F
:1028400004D3A188A06801F05FF830B15FF00505FE
:1028500001F0C1FA2846BDE8F081A06810F8011B1C
:102860003970A188891E3180C8F80000F0E70000A7
:10287000600200202DE9F04190460E4607460025F3
:1028800001F0A7FA104C607828B1052501F0A3FAF1
:102890002846BDE8F081701E0126E060E6800770E2
:1028A000E28802EB0801E180E18801F02DF80146A1
:1028B000E088A2680244401CE0801170267001216B
:1028C000002001F08BFAE1E76002002010B501F072
:1028D00080FA0021012001F081FA054900204870AA
:1028E00001F079FABDE81040002001F0A1BD000020
:1028F0006002002010B501F06CFA0021084601F0DA
:102900006DFA01F083FABDE8104001F064BA0000EE
:10291000064810B501780024012902D0062420467B
:1029200010BDC0690028FAD08047F8E7A401002054
:1029300010B5064C207818B1012805D0062010BD2E
:102940006069804701202070002010BDA401002094
:1029500070B5064D00242878012802D006242046B0
:1029600070BD2869804700202870F8E7A401002086
:1029700070B50C460988002505292FD1417840F211
:10298000CF760A0281781143C278491C130202797A
:1029900089B21A43531EB34220D20023238001235D
:1029A00000F8013B2688761C2680560703D003EBEF
:1029B000D203DEB201E0C2F3C70600F8016B238840
:1029C0005B1C2380002300F07CFB18B100F082FF29
:1029D000054604E020883044208000E00325284696
:1029E00070BD70B50C460988002505292FD14178A6
:1029F00040F2CF760A0281781143C278491C130253
:102A0000027989B21A43531EB34220D20023238095
:102A1000022300F8013B23885B1C2380530704D06A
:102A2000012303EBD203DEB201E0C2F3C70600F8D4
:102A3000016B23885B1C238000F047FB18B100F07A
:102A400049FF054604E020883044208000E003254B
:102A5000284670BD70B50C4609880026052925D189
:102A6000417805790A0281781143491C6A1E89B2AE
:102A70007C2A1BD800222280032200F8012B228806
:102A80000023521C22806A0000F8012B2288521C6D
:102A900022802A4600F01CFB18B100F01BFF0646FE
:102AA00005E0208800EB4500208000E0032630464A
:102AB00070BD70B50C4609880026052927D14178DC
:102AC00005790A0281781143C278491C45EA02253A
:102AD0006A1E89B27C2A1AD200222280042200F8BF
:102AE000012B2288521C22806A0000F8012B2288C8
:102AF000521C22802A4600F029FB18B100F0EAFEA1
:102B0000064605E0208800EB4500208000E0032613
:102B1000304670BD2DE9F0410446088800270D4677
:102B20000A2842D3607826790102A078227A0843E5
:102B3000401C1FFA80F8E07846EA00266079731E90
:102B40000102A0790843401C81B2E0797C2B42EA63
:102B50000022607A28D83AB3792A25D8B0EB420F00
:102B600022D1012304F10A0000F0B2FA98B9002141
:102B70002980172121702988601C491C2980710037
:102B800000F8011B29880023491C29803246414650
:102B900000F09EFA18B100F09DFE074605E0288877
:102BA00000EB4600288000E003273846BDE8F081AE
:102BB00070B5064C0D4606492288401CFDF776FB91
:102BC0002088401C2880002070BD00005C0200208E
:102BD000188900202DE9FC5F05460C464FF0000BDC
:102BE00000200090208802286CDB6878012836D10C
:102BF00002272078C01B00F0FF08002001901EE093
:102C0000E85D00F00F09781CC7B2A8F1010000F0E0
:102C1000FF089DF80400401CC0B20190C14502DDD0
:102C20004FF0010B11E007EB0900C7B29DF804005B
:102C30004844C0B20190A8EB090000F0FF08B8F1C9
:102C4000000F02D0BBF1000FDAD000BFBBF1000FC4
:102C500004D0032000900098BDE8FC9F03E003200F
:102C600000900098F8E700BF012201A9A81C00F01D
:102C7000B7FA8246BAF1000F1CD12E460020208000
:102C8000642006F8010B2088401C2080012006F8F3
:102C9000010B2088401C2080002201A9304600F052
:102CA0009FFA8246BAF1000F04D120889DF80410E3
:102CB00008442080BAF1000F06D0504600F00AFE0A
:102CC000009001E0032000900098C5E738B509881E
:102CD000002405290BD141780A0281781143491C4F
:102CE000027989B21AB9C278FF2A03D012B103243B
:102CF000204638BD00228DF80120C078FF280CD076
:102D00008DF8002001231A46684600F0DAF9002801
:102D1000EED000F0DFFD0446EAE701208DF8000068
:102D2000F0E710B509880024052902D003242046C5
:102D300010BD417801230A028178C01C1143491C4F
:102D400089B21A4600F0C4F90028F0D000F0C2FDA4
:102D50000446ECE72DE9F0410D46098800240529D9
:102D600026D9417843790A0281781143491C8EB2F1
:102D7000C178027942EA0122510704D0012101EB16
:102D8000D201C9B201E0C2F3C701571EB7F5F66F11
:102D90000ED299420CD101233146801D00F091F9E9
:102DA00018B100F097FD044603E00520288000E0FC
:102DB00003242046BDE8F08170B50D460988002443
:102DC00006291DD341780A0281781143C278491C33
:102DD0001302027989B21A434379561E772E0FD80F
:102DE0005606360E9E420BD10123801D00F070F96D
:102DF00018B100F06FFD044603E00520288000E0D4
:102E00000324204670BD00002DE9F0411D46069BBD
:102E10001746064641B1F72906D81E4C08462171CF
:102E200000211EB1012E15D002252EE01A4A226182
:102E30001A4A62611A4AE2601A4AC4E906211A492A
:102E400021621A4961621A49A1622A46394600F094
:102E500099F812E0174A2261174A6261174AE26044
:102E6000174AC4E9062117492162174961621749C7
:102E7000A1622A463946FFF7B1FC050005D101F0F1
:102E8000C7FA28B16671012020702846BDE8F0819C
:102E90000325FAE7A401002085300008A9300008C6
:102EA00019300008CD2F000815450008BD45000861
:102EB0007D450008CD280008F52800087528000881
:102EC0002128000831420008454300081543000846
:102ED00038B52B4C207808B1062038BD684601F083
:102EE00087FA01284AD19DF80000E8B3012802D0F2
:102EF000022843D10FE0224AA369921D911CC81FEA
:102F0000984788BB60782179884200D060BB022056
:102F100001F08EFA32E0A0680121194B0278A2700C
:102F2000E170002113F12C0313F8315065B1954283
:102F300007D103EBC1014A681149891D9047E07030
:102F400002E0491C1029EFDB607868B1E07880B1BD
:102F50000021E180A17841F08002A1680A70E28836
:102F6000521C92B2E28000E008E08854E088401CE5
:102F7000E080D4E90213E28820799847002038BD28
:102F8000A40100202DE9F0411F4615460E460024FD
:102F900000F01FFF3B4608222946304601F066FA42
:102FA00001280AD108496800B1FBF0F000B90120FE
:102FB00080B201F087FA012800D0032400F00BFF53
:102FC0002046BDE8F0810000A07F17002DE9F04108
:102FD00015460E460746002400F0FBFE0C4881888B
:102FE000FF2901D9AFF300808188042909D3094959
:102FF000097839708088C01E28800648401C3060DF
:1030000000E0052400F0E7FE2046BDE8F081000066
:1030100050020020188800202DE9F04190460E460D
:103020000746002500F0D5FE144C6078012806D034
:103030005FF0050500F0CFFE2846BDE8F081701E68
:103040000126A06066800770628802EB080161803B
:10305000618800F061FE6188094A5318491C61804B
:103060001870010A60880244401C6080117026704C
:103070000121002000F0B2FEDCE700005002002039
:103080001888002010B500F0A4FE06490020487002
:103090000146012000F0A2FE00F0C4FEBDE8104091
:1030A00000F099BE5002002010B500F092FE002101
:1030B000084600F093FE00F0A9FEBDE8104000F0C5
:1030C0008ABE10B50446012010BD0346012070479A
:1030D000F0B504460D460020012D30DBAE18212E40
:1030E0002DDC184E3688A91B13B1012B26D111E017
:1030F0000DE0154E36F81160361204F8016B124ED1
:1031000016F8116004F8016B491C561EB2B2002A71
:10311000EFDC13E010E014F8017B3E020A4F27F8C1
:10312000116014F8016B37F811703E43064F27F811
:103130001160491C561EB2B2002AECDC00E00120EE
:10314000F0BD00005E0000206000002030B50346A6
:103150000020B1F57A7F18DB8D18B5F5856F14DC8A
:103160000B4D2D884C1B0DE00A4D35F814502D12D7
:1031700003F8015B074D15F8145003F8015B641C5C
:10318000551EAAB2002AEFDC00E0012030BD00008D
:103190005C0000204006002070B51D461346024624
:1031A0000026A81C202813D20C480B4C02700122C8
:1031B000228001B1FF214170022121804DB12A46B8
:1031C0001946801CFDF772F820882844208000E012
:1031D0000426304670BD00005C02002018890020E3
:1031E0002DE9F74F84B006468A46002003900698E2
:1031F00010B101285AD12FE00024002527E02E48E5
:1032000050F825700FB301944FF0000908E0601CDE
:10321000C4B209F1010000F0FF099DF80800305523
:10322000B9F10F0F07DA00231A4602A9386801F036
:103230006BFA0128EBD0B9F1000F06D049EA05106E
:10324000C1B201983154601CC4B2681CC5B2102DC3
:10325000D5DB8AF8004029E000249AF8008022E0BB
:10326000305D0511154850F82570305D00F00F0BEA
:10327000601CC4B2A8F101000FFA80F810E02FB171
:10328000311900231A46386801F00AFB601CC4B2E9
:10329000A8F101000FFA80F8ABF1010000F0FF0B7C
:1032A000BBF1000FEBD1B8F1000FD9DC00BF0398E0
:1032B00007B0BDE8F08F0000A0000020E000002073
:1032C00013B506488068814206D0054800235A1E7F
:1032D0006946006801F0E4FA00981CBD5000002027
:1032E0002C000020FDF71EFCFEF7B4FFFEF744FDA6
:1032F000FEF7E0FCFEF7FEFCFEF712FDFEF7D0FD48
:10330000FEF7E6FDFEF7FCFDFEF712FEFEF72AFED5
:10331000FEF748FEFEF75AFEFEF76CFEFEF77EFE55
:10332000FEF790FEFEF7A2FEFEF77CFC0B4800F0D5
:10333000ADFB0B4800F0AAFB0A4800F0A7FB0A48C7
:1033400000F0A4FB094800F0A1FB094800F09EFB37
:10335000FEF7FCFC00F01BF8FEE70000C0040020B4
:1033600000050020400500204004002080040020CB
:103370008005002001460020842900D0C81C704729
:1033800010B500B9012000F013FE002010BD10B5EB
:1033900000F0DAFE002010BD00220068042101F0D8
:1033A0008FB930B5044685B00D46B0F90800FFF777
:1033B000E1FF002104AA0090CDE901210391208AB8
:1033C0002B4682B2D4E9001001F06AFB012802D03A
:1033D000002005B030BD0498FBE7000008B5006888
:1033E0000090012907D0002013460246012103A0C6
:1033F00001F060FD08BD0120F6E7000000000000BC
:1034000070B50B4C054620684560E0682168854230
:1034100005D2606BBDE87040091D00F0B6BC206BA2
:10342000091D00F0B2FCA06A854200D2A56270BD01
:103430006C01002010B500F0FFFC0F4C2068A0B913
:103440000E4800F094FC0D48143000F090FC0B483E
:10345000A0601430E06000220C210A2001F030F955
:10346000206030B106A100F073FDBDE8104000F00F
:10347000FDBCFCF7FBFEFEE738010020C006002083
:10348000546D72510000000070B5124E124C1AE0DB
:1034900000F084FE3068D0B101F0B6FC00F0CCFC46
:1034A000F068C568281D00F04DFCA068401EA060B3
:1034B0006068401E606000F0D9FC286B00F0E8FCFA
:1034C000284600F0E5FC60680028E1D170BD01F0FD
:1034D0009BFCF8E7F08700206C01002030B4026C00
:1034E0000B46002A0BD0C1681144C1604468A14258
:1034F00001D30168C16030BC1846FCF7D7BE30BCB0
:10350000704770B51646026C0446002582B1C6B1FC
:10351000E068FCF7CBFEE168206C091AE1602268E4
:10352000914202D26168081AE060022E16D01AE0B9
:103530002068C0B9606801F0F5FB054600206060B6
:1035400011E0A068FCF7B2FE216CA0680844A060FE
:103550006168884207D32068A06004E0A06B10B1C6
:10356000A06B401EA063A06B401CA063284670BDEA
:1035700010484FF40041420706D0C01D0D4920F00D
:103580000700411AC1F500410B4A00230144C2E97A
:1035900000030839103A21F0070111604B600B60FD
:1035A0000B1AC0E9001393604FF000405360D060E5
:1035B00070470000E806002058010020044C00BFBE
:1035C000FFF762FF20680128FAD900F0B5FCF7E7A1
:1035D0002887002030B5114900E011460A68824270
:1035E000FBD34B685C18844203D1406818444860A0
:1035F000084643681C18944209D1084C103C2468C2
:10360000A24209D052681A4442600A6812680260F5
:10361000814200D0086030BD0460F9E75801002005
:1036200070B5002441600B4D0061914206D8D11A5B
:103630008269914206D2011DE86807E09A4203D2EE
:10364000994201D3012403E0011DA86800F09DFB0D
:10365000204670BD3801002030B587B0274D42E0CC
:10366000049800283FDB069C606910B1201D00F023
:1036700069FB02A800F09AF8024604980A2832D2A0
:10368000DFE800F005050531222E050531220598F9
:10369000A169034601442046FFF7C2FF012822D159
:1036A000616A20468847E06901281CD1002000900B
:1036B0000598A169002342181946204601F03CFCF8
:1036C00088B9FCF7D3FDFEE70598A06128B1811801
:1036D00013462046FFF7A4FF05E0FCF7C7FDFEE711
:1036E000204600F0D5FB00231A4604A9286801F003
:1036F0000BF80028B4D107B030BD0000380100201D
:103700002DE9FC410F46054600F048FD01A800F0F8
:103710004DF80446019818B101F076FBBDE8FC8134
:10372000194E37BBA54224D801F06EFBB06827467E
:10373000C068C468201D00F005FBE069012811D1B4
:10374000A0692B4641193A462046FFF769FF012838
:1037500008D100200346014600902A46204601F089
:10376000EBFB18B1616A20468847D7E7FCF77EFD7E
:10377000FEE7291B306800F0FFFB01F045FB002845
:10378000CCD100F0D9FBC9E7380100200648016B15
:10379000096829B1016BC968C968496881627047C5
:1037A0004FF0FF31FAE700006C01002070B50546CC
:1037B00001F046FA064E04467068844203D200F0D7
:1037C00009F8012000E0002028602046746070BDE8
:1037D00038010020F8B5164D1FE0C068C4680668BF
:1037E000201D00F0AFFA616A20468847E069012891
:1037F00013D1A0693044B04206D924616060211D14
:10380000A86800F0C2FA08E00020034601460090D4
:103810003246204601F090FB38B1A86801680029C3
:10382000DBD1E968C5E90210F8BDFCF71FFDFEE732
:103830003801002004484068401C02D0FCF716FD07
:10384000FEE7FCF713FDFEE760010020074CA068CF
:10385000016841B1C0680021D0F80000FFF750FFB7
:10386000FFF7FAFEF3E701210020F7E73801002017
:1038700070B5044600F0E0FA04F124050AE0606A3D
:1038800058B1284601F08AFA08B100F0B9FBA06CE3
:10389000401EA064A06C0028F1DC4FF0FF36A66447
:1038A00000F0E4FA00F0C8FA04F110050AE020691B
:1038B00058B1284601F072FA08B100F0A1FB606C23
:1038C000401E6064606C0028F1DC6664BDE87040F6
:1038D00000F0CCBA002804D0012803D0072803D078
:1038E00004207047022070470620704710B5092851
:1038F00001D8303004E0A0F10A01052902D83730A0
:10390000C0B210BDAFF30080002203E010F8013B0D
:103910001A44D2B2491E89B2F8D25042C0B270479E
:1039200010B5012000F06CFA064800688047044694
:10393000002000F065FA002C03D003494FF08050BE
:10394000086010BDC401002004ED00E010B50022A5
:103950004FF480710948FDF72FF8012000F050FA6C
:103960000748006880470446002000F049FA002C10
:1039700003D004494FF08050086010BD00000240A1
:10398000C801002004ED00E02DE9F04105460027C4
:1039900000F004FC2C4E306808B9FFF7E9FDF06830
:1039A000054211D185B10835680709D005F0070037
:1039B000C0F108000544680702D0FCF757FCFEE799
:1039C00015B17068854202D901F01EFA31E01E4837
:1039D000103001460C6801E020460C466168A9429F
:1039E00002D221680029F7D131688C42ECD00768F7
:1039F0002168016060680837411B102909D96019E6
:103A0000420702D0FCF732FCFEE741606560FFF739
:103A1000E1FD61687068401A7060B268904200D23F
:103A2000B060F06801430020C4E9000101F0ECF946
:103A30000FB900F099F9780702D0FCF717FCFEE700
:103A40003846BDE8F08100004801002004490868BC
:103A500018B10868026D521C0265086870470000C2
:103A60006C01002010B5031F4FF080741C601B1FF9
:103A70001960191F044B0B6014390A60091F6FF09D
:103A8000020244380A6010BD353800080068194A3F
:103A9000811A904228D00CDC174940181AD0B0F592
:103AA000806F1CD0B0F5006F23D101221349144858
:103AB00009E0B1F5404F08D0B1F5444F19D10F4995
:103AC0000122891C0F48FDF78FBF0C490122891E76
:103AD0000D48F8E709490122491E0C48F3E7074958
:103AE0000122C91E0A48EEE704490122491C09487F
:103AF000E9E770470050004000BCFFBF53000020C2
:103B00004004002080050020C004002000050020A3
:103B1000400500208004002000B5B7B06B48006865
:103B200036900022012136A8FFF758FC684908604A
:103B300014226649091D31A8FCF7B8FB002131A801
:103B4000FFF72FFC634908601422604918312CA844
:103B5000FCF7ACFB00212CA8FFF723FC5E490860B2
:103B600014225A492C3127A8FCF7A0FB002127A8D2
:103B7000FFF717FC5949086014225449403122A824
:103B8000FCF794FB002122A8FFF70BFC54490860C6
:103B900014224E4954311DA8FCF788FB00211DA8B2
:103BA000FFF7FFFB4F49086014224849683118A805
:103BB000FCF77CFB002118A8FFF7F3FB4A490860DB
:103BC00042497C3103C9CDE91601002116A8FFF74F
:103BD000E3FB464908603D49843103C9CDE914013E
:103BE000002114A8FFF7D8FB4149086037498C3100
:103BF00003C9CDE91201002112A8FFF7CDFB3D4911
:103C000008603249943103C9CDE91001002110A8A0
:103C1000FFF7C2FB384908602C499C3103C9CDE944
:103C20000E0100210EA8FFF7B7FB344908602749B1
:103C3000A43103C9CDE90C0100210CA8FFF7ACFBAE
:103C40002F4908602149AC3103C9CDE90A0100219F
:103C50000AA8FFF7A1FB2B4908601C49B43103C92E
:103C6000CDE90801002108A8FFF796FB2649086066
:103C70001649BC3103C9CDE90601002106A8FFF7AA
:103C80008BFB224908601149C43103C9CDE9040105
:103C9000002104A8FFF780FB1D4908600B49CC31C7
:103CA00003C9CDE90201002102A8FFF775FB1949FC
:103CB00008600649D43103C9CDE9000100216846F6
:103CC000FFF76AFB0E49086037B000BD944F00084B
:103CD0004C000020040000200C00002014000020F4
:103CE0001C00002008000020100000202000002000
:103CF00024000020280000202C000020300000209C
:103D000034000020380000203C000020400000204B
:103D1000440000204800002070B5094DFF231A46DA
:103D200005F5807606E000BF10F8014B54402A5D8F
:103D30005A40335D491E89B2F6D242EA032070BD73
:103D400094500008D0E9013201699A60D0E901235A
:103D50005A604A68824201D182684A600022026148
:103D60000868401E0860704770477047704700F150
:103D700008014FF0FF32C0E90112C160016100216A
:103D80000160704700210161704730B50B685A1C13
:103D900002D000F1080202E0026904E02246546801
:103DA00025689D42FAD953684B6099608A605160DA
:103DB00008610168491C016030BD42684A6093682F
:103DC0008B6093685960916008610168491C0160CB
:103DD000704700F031B800F049B8000010B50C464B
:103DE00010B10548FFF752FE002C04D003480068CC
:103DF000BDE81040004710BDC0040020C8010020ED
:103E000001490870704700007502002010B5044891
:103E1000FDF702FB024900200968486210BD00005E
:103E20000404002003490020096848620148FDF7A6
:103E3000E7BA00000404002010B5FCF717FA09489F
:103E40004168491C4160BFF34F8FBFF36F8F4068DB
:103E5000012806D104480068C00602D0FCF706FA23
:103E6000FEE710BD6001002004ED00E0074910B539
:103E7000486830B1401E486006D1BDE81040FCF7EC
:103E8000FCB9FCF7F3F9FEE710BD0000600100206B
:103E900070B500281DD00F4DA0F108046068E968D6
:103EA000084202D1FCF7E2F9FEE7226812B1FCF702
:103EB000DDF9FEE78843606000F070F960686968CA
:103EC000084468602046FFF785FBBDE8704000F0BD
:103ED0009BBF70BD4801002006484FF47A7100680E
:103EE000B0FBF1F14FF0E020491E41610721016173
:103EF000704700002401002010B5FCF7C1F90C49FF
:103F0000102809D300F1E02090F8F0030A789042DD
:103F100002D2FCF7ABF9FEE706480068896800F4B6
:103F2000E060884202D9FCF7A1F9FEE710BD00006D
:103F3000600100200CED00E004494FF08050086063
:103F4000BFF34F8FBFF36F8F7047000004ED00E0A9
:103F500010B5084B002200BF53F832401CB1521C70
:103F6000082AF9D310BD43F8321003EBC2014860B0
:103F700010BD0000E886002070B50D460446FFF72E
:103F80005BFF616C0020491C00D16064A16C491C7E
:103F900000D1A064FFF76AFFA06B20B9294604F1A5
:103FA000240000F05FF82046BDE87040FFF760BCD9
:103FB00070B502001DD0114CE06A10B1FCF756F943
:103FC000FEE700F0EBF8E06885182068001DFFF7B9
:103FD000B9FE38B9206890F82C100120884021697A
:103FE000814321612846FFF70BFA00F00DFF0028FE
:103FF00003D1BDE87040FFF79FBF70BD6C0100208A
:1040000001490120C86170476C01002070B50D4660
:1040100050B1124C21681831FFF7B7FE2068001D1F
:10402000FFF790FE18B10AE0FCF720F9FEE72068E0
:1040300090F82C1001208840216981432161681C7F
:1040400005D0E0682844BDE87040FFF7D9B9216881
:10405000BDE870400248091DFFF7AFBE6C010020AB
:104060000488002070B50D4650B10E4C21681831FF
:10407000FFF7A3FE2068001DFFF764FE18B10AE0F9
:10408000FCF7F4F8FEE7206890F82C100120884037
:10409000216981432161E0682844BDE87040FFF751
:1040A000AFB900006C01002070B5040039D01D4D7F
:1040B000E06A2968C96A884233D2A069002804DB13
:1040C0002868C06AC0F10700A061E16A164E01EBE2
:1040D0008101606906EB810188421FD1201DFFF735
:1040E00031FE012150B9E06A00EB800256F822202F
:1040F00022B92A6901FA00F082432A612868C06A5D
:10410000E0622A6981401143296100EB800006EBDF
:104110008000211DBDE87040FFF74FBE2868C06ACF
:10412000E06270BD6C0100202887002010B528B126
:1041300004490A6A0260C968416010BDFCF796F83C
:10414000FEE700006C0100201FB5002400940194DC
:104150000294234680220DA10E48039400F0A0FC97
:10416000012803D100F0C6FE012804D000280CD19C
:10417000FCF77CF8FEE7FCF779F80748012141617C
:10418000C460BDE81F4000F047BA1FBD49444C451C
:1041900000000000BD3500086C0100200248C16A23
:1041A000491CC162704700006C01002010B51D4C15
:1041B000E06A10B10120E06110BD0020E0612068DC
:1041C00021680068096B884204D82168206834316E
:1041D000FFF7CBFD206814221349006BFCF78AF827
:1041E00020B1216820683431FFF7BFFD20690F49F5
:1041F000B0FA80F0C0F11F0000EB800051F82020E1
:104200006AB101EB800000F1080241684968416031
:10421000914201D149684160C868206010BDFCF737
:1042200025F8FEE76C010020805000082887002058
:10423000F8B5374C0027207808B1AFF30080684606
:1042400000F00CF960780025012670B3012802D037
:1042500002285AD139E0FFF7E5FD9DF800003A2821
:1042600007D00D2808D0A0F13001092907D8C8B21D
:104270000DE0A570A58048E00220607045E0A0F147
:104280004101052902D83738C0B200E0FF20A178EB
:1042900011B1012939D10DE0A188FF2906D8A288E2
:1042A000A16800018854A6702FE025E06570FFF733
:1042B000ADFD2AE0A288A16811440A7802430A7081
:1042C000A088401CA080A5701FE09DF80000E17848
:1042D000884207D1FFF79AFD6570012000F0A8F829
:1042E000074612E03A2801D065700EE0A570A5805F
:1042F0006670FFF797FD08E09DF800003A2804D1AA
:10430000FFF790FDA580A57066703846F8BD0000E7
:10431000600200200A4810B54178012909D002291D
:1043200007D04178012906D04078022803D0AFF3A6
:10433000008000214170FFF769FD002010BD0000E2
:104340006002002070B5294C0026607808B1AFF3F8
:10435000008020780025052846D2DFE800F04103E0
:104360000A3136003A2000F097F802202070A5703C
:104370003AE0E088F0B1A1781C48C06811B1012989
:1043800032D108E000780009FFF7B0FA00F084F8B5
:104390000120A07028E0007800F00F00FFF7A6FAD7
:1043A00000F07AF8E068401CE060A570E088401EEC
:1043B000E08019E00D2000F06FF80320207013E07A
:1043C000E07800F069F80420F8E72570032000F099
:1043D0002FF8064600210120FFF700FD257003E0BD
:1043E00000210120FFF7FAFC304670BD600200207A
:1043F00010B501460548002423463222006800F02B
:1044000083F9012800D10124204610BD700200204C
:1044100010B5002401212246084600F051F9034955
:10442000086000B10124204610BD00007002002089
:1044300031B50124FEF7CCF9010007484FF0000325
:104440001A460068694602D000F0B4FA01E000F0B4
:1044500027FA204638BD0000700200200249097882
:10446000017001207047000051000020094810B57C
:10447000074AC0E9002100218160C0E903130C2232
:10448000C0E90521C161FDF7B8F9012010BD0000A8
:1044900000100140C004002010B5044601221102A2
:1044A0000548FCF789FA05480122014604700448D2
:1044B000FDF778FB012010BD0000024074020020CF
:1044C000C004002030B5054687B01148FCF7A4FFB2
:1044D0000F494FF080400024C1E900044FF46160AF
:1044E0004543C1E9024508460C61FCF759FF4FF40A
:1044F0008050009069460648FCF7A4FF049404A984
:1045000003480594FCF724FF07B0012030BD0000EC
:104510000404002038B5174C0025207808B1AFF30B
:1045200000806846FFF79AFF607830B1124A012890
:1045300007D0022810D0032801D1FFF773FC2846CA
:1045400038BD0020A0809DF80000A1880A44491CC5
:10455000A180107002200BE0A088FF2807D89DF8EA
:104560000010A0880244401CA0801170E5E70320E1
:104570006070E2E7500200201888002070B50E4DF0
:104580000024687870B102280BD003280DD0687819
:1045900058B16878022808D06878032805D0AFF3AE
:1045A00000800120FFF744FF0446FFF72FFC0120A5
:1045B0006870204670BD00005002002070B5154C98
:1045C00000256078012801D0AFF30080207810B179
:1045D00001281CD104E000210120FFF7FFFB16E0B9
:1045E000608850B1A0680078FFF756FFA068401CB3
:1045F000A0606088401E608009E00320FFF718FF7C
:10460000054600210120FFF7E9FB00202070284625
:1046100070BD0000500200201CB51C4908780190B4
:10462000FF20087008788DF800009DF80000184AF7
:1046300000F0500010700720906005E09DF80030F9
:104640005B008DF80030401E9DF800301B06F5D44D
:10465000000200F4E0609060019808700D48016865
:1046600041F470010160016841F070410160FFF7A1
:1046700033FC00205060FBF7C3FD0748016841F0A0
:1046800040410160FBF7ACFD00201CBD00E400E0F0
:104690006001002020ED00E034EF00E010B5FBF7F2
:1046A000E5FD00F0D9FA18B104494FF080500860D8
:1046B000BDE810400020FBF7E0BD000004ED00E085
:1046C0002DE9F04117460E46050019D05420FFF79A
:1046D0005BF9040014D005FB06F0401CFFF754F909
:1046E000206050B1C4E90F560121204600F0A3F824
:1046F00084F850702046BDE8F0812046FFF7C8FBE3
:10470000FBF7B4FDFEE700002DE9FF41002582B074
:1047100098460E46040001D01EB107E0FBF7A6FD47
:10472000FEE7206C10B1FBF7A1FDFEE700F07AFA7E
:10473000002720B9049810B1FBF798FDFEE7FFF7BA
:104740007BFBA06B50B331462046E568FEF7C6FE02
:10475000B8F1000F10D0E560606A38B104F12400B0
:1047600000F01CFB10B100BFFFF7E6FBFFF77EFB7C
:10477000012006B0BDE8F081A06B401EA063206858
:1047800010B9FFF763F9606020690028EED004F1EA
:10479000100000F003FB0128E6D0E7E7049808B119
:1047A0001DB106E0FFF762FB1DE06846FFF7BEFCA7
:1047B0000125FFF75BFBFFF7F1FCFFF73DFB606CAA
:1047C000401C00D16764A06C401C00D1A764FFF7B7
:1047D0004DFB04A9684600F037F930B12046FFF7D9
:1047E00047F800F011FB0020C3E7FFF725FBA06BA3
:1047F00038B1FFF73BFB2046FFF73AF800F004FB27
:104800009DE7FFF733FB206830B9FFF715FB6068C1
:10481000FFF74AFCFFF72AFB04F124000499FFF795
:10482000F5FB2046FFF724F800F0EEFA002886D1C9
:10483000FFF782FB83E770B50D46040023D0FFF736
:10484000FBFAD4E90F20216802FB0011616000210E
:10485000A1632168A1600A46D4E90F01401E00FB54
:1048600001214FF0FF30E1606064A06404F11000AA
:1048700065B1FFF77CFA04F12400FFF778FAFFF73F
:10488000F5FA012070BDFBF7F1FCFEE72169002974
:10489000F5D000F083FA0128F1D1FFF74DFBEEE7E8
:1048A0002DE9FF41002682B01D468846040003D052
:1048B000B8F1000F03D007E0FBF7D8FCFEE7206C4F
:1048C00010B1FBF7D3FCFEE7022D05D1E06B012808
:1048D00002D0FBF7CBFCFEE700F0A4F9002720B9DB
:1048E000049810B1FBF7C2FCFEE7FFF7A5FAA06B36
:1048F000E16B884205D3022D03D00498C0B1D6B134
:104900001DE02A4641462046FEF7FBFD616A31B1B3
:1049100004F1240000F042FA012801D002E008B1BD
:10492000FFF70AFBFFF7A2FA012006B0BDE8F0810D
:10493000FFF79CFA1DE06846FFF7F8FB0126FFF73A
:1049400095FAFFF72BFCFFF777FA606C401C00D15B
:104950006764A06C401C00D1A764FFF787FA04A924
:10496000684600F071F830B12046FEF781FF00F094
:104970004BFA0020D9E7FFF75FFAA06BE16B8842A2
:1049800010D1FFF773FA04F110000499FFF73EFB12
:104990002046FEF76DFF00F037FA0028A5D1FFF79B
:1049A000CBFAA2E7FFF762FA2046FEF761FF00F0BC
:1049B0002BFA9AE72DE9F0411E4615460F460400F2
:1049C00001D01FB107E0FBF751FCFEE7206C10B1EE
:1049D000FBF74CFCFEE7022E05D1E06B012802D06C
:1049E000FBF744FCFEE7FFF787FAFBF73FFC804646
:1049F000A06BE16B884208D3022E06D0002440460B
:104A0000FBF73BFC2046BDE8F081324639462046A4
:104A1000FEF777FD012608B105B12E60A06C401CA1
:104A200004D0A06C401CA0640124E8E7606A002860
:104A3000FAD004F1240000F0B1F90028F4D0002DE0
:104A4000F2D02E60F0E7000070B50D46040019D0DA
:104A5000DDB1FFF7F1F9114AD1682868431C0FD086
:104A60002368126A934202D062688A4210D962684F
:104A7000891A81420CD2401A28602046FFF756FB63
:104A8000002406E0FBF7F2FBFEE7FBF7EFFBFEE797
:104A90000124FFF7EBF9204670BD00006C010020F7
:104AA0002DE9FF5F1546DDE90E68109F8A465FEA33
:104AB000000B04D0072E05D3FBF7D8FBFEE7FBF76E
:104AC000D5FBFEE75420FEF75FFF04001CD0A800D2
:104AD00081469FB13846206398B1A5224946FBF72D
:104AE000F7FB6FF00301206B01EB8501084420F018
:104AF000070778070BD0FBF7B9FBFEE7FEF744FF8B
:104B0000E9E72046FFF7C4F94FF0FF3482E0514651
:104B10003546002022180B5C82F834300A5C12B152
:104B2000401C1028F6D3002084F84300072D00D342
:104B30000625E562C4E91350201DFFF723F904F1AF
:104B40001800FFF71FF92461C5F107016462A16134
:104B500059463846039AFEF785FF2060B8F1000FEA
:104B600001D0C8F80040FFF767F92C4DA868401C39
:104B7000A8602868DFF8A88010B1686948B32DE004
:104B80002C60A868012829D15FF0000707EB870196
:104B900008EB8100FFF7EBF87F1C072FF6D32048C6
:104BA0008C30FFF7E4F81E48A030FFF7E0F81C480F
:104BB000B430FFF7DCF81A48C830FFF7D8F81848C7
:104BC000DC30FFF7D4F816488C3028631430686363
:104BD00004E02868C06AB04200D82C60686A401CB3
:104BE00068626064E16A01202A6988401043286194
:104BF00001EB810108EB8100211DFFF7DEF80124A4
:104C0000FFF734F9686928B12868C06AB04201D258
:104C1000FFF792F904B02046BDE8F09F6C01002038
:104C2000288700200548416919B1C06A18B10020E1
:104C30007047012070470220704700006C0100207F
:104C400010B5FFF7F9F80348C468FFF70FF92046DD
:104C500010BD00006C0100202DE9F0412F4C002612
:104C6000E06A18B1A069401CA0614EE0E068401CF9
:104C7000E060E76877B9206B006810B1FBF7F6FADF
:104C8000FEE7206B616B21636063206A401C206239
:104C9000FEF77CFDA06ADFF88880874209D3206B8D
:104CA000006890B1206BC068C568686887420FD201
:104CB000A0622068C06A00EB800158F8210001283A
:104CC00000D90126A06900B321E04FF0FF30EFE7E3
:104CD000281DFFF737F8A86A18B105F11800FFF78B
:104CE00031F8E86A0121226981401143216100EB1A
:104CF000800108EB8100291DFFF75FF8E86A216851
:104D0000C96A8842CBD30126C9E7FFF72FF8E069CB
:104D100000B101263046BDE8F08100006C010020A2
:104D20002887002070B504004FF0000130D0206DBE
:104D300038B1401E2065E36CE26A9A4228D018B16F
:104D400026E0FBF793FAFEE7201DFEF7FBFF114B71
:104D5000114A012150B9E06A00EB800553F8255053
:104D600025B9156901FA00F085431561E06CE06230
:104D7000C0F10700A061E06A156981402943116113
:104D800000EB800003EB8000211DFFF716F80121E6
:104D9000084670BD288700206C0100202DE9F041F5
:104DA000C068C468ACB104F118000746FEF7CAFF3A
:104DB000134DE86A012678B139461248FEF7FDFF27
:104DC000E06A2968C96A884217D90120EE61BDE806
:104DD000F081FBF74BFAFEE7201DFEF7B3FFE16A17
:104DE0002A6906FA01F01043286101EB81000549A8
:104DF000B43901EB8000211DE0E70020E7E7000067
:104E00006C010020DC8700202DE9F047274C0026AC
:104E1000E06A38B1FFF710F8E06A401EE062E06A2D
:104E200018B13DE0FBF722FAFEE7A168204D012012
:104E300079B3A5F1B40980462868E8B1E868C76885
:104E400007F11800FEF77EFF381DFEF77BFFF96AB9
:104E5000226908FA01F01043206101EB810109EB9E
:104E60008100391DFEF7A9FFF86A2168C96A8842E6
:104E7000E2D3C4F81C80DFE7A06958B14546A069B9
:104E800040B1FFF7E9FE00B1E561A069401EA061F5
:104E9000F5E705E0E069012802D10126FFF74CF8AB
:104EA000FEF7E4FF3046BDE8F08700006C0100200B
:104EB000DC8700202DE9F0471E46DDF820901746DC
:104EC0000D00804612D02C20FEF75EFD04000AD0B3
:104ED000FEF7B0FAC4F80080C4E90657C4E90869CF
:104EE000201DFEF74FFF2046BDE8F087FBF7BEF917
:104EF000FEE700001FB5FEF79DFA0B48006868B199
:104F000000200221CDE9001002900346CA0103905F
:104F100006A10848FFF7C4FD002802D1FBF7A6F957
:104F2000FEE704B010BD000038010020546D72206F
:104F3000537663004D380008FEB5104C1F460346FB
:104F400026680020089D002E0ED08DE80E00062950
:104F50000DDAFFF767FE02284FF0000305D00022AC
:104F600069462068FFF79CFCFEBD2A46F8E700234F
:104F70003A4669463046FFF71DFDFEBD3801002068
:104F800094520008B5200008000000000000000056
:104F900080000000A9040008BC520008712100082C
:104FA000020000000000000080000000EC52000839
:104FB00089210008000000000000000080000000BF
:104FC000DC520008F9210008000000000000000089
:104FD00080000000CC520008B5210008000000004D
:104FE0000000000080000000B052000865210008A9
:104FF000020000000000000080000000A052000835
:10500000F92000080100000000000000000100007D
:1050100040000000010000008000000001000000CE
:1050200040000000010000008000000001000000BE
:1050300040000000010000008000000001000000AE
:10504000400000000100000080000000010000009E
:10505000400000000100000080000000010000008E
:10506000400000000100000080000000010000007E
:1050700000000000010203040102030406070809FE
:10508000A5A5A5A5A5A5A5A5A5A5A5A5A5A5A5A5D0
:10509000A5A5A5A500C1814001C0804101C08041F6
:1050A00000C1814001C0804100C1814000C18140F8
:1050B00001C0804101C0804100C1814000C18140E8
:1050C00001C0804100C1814001C0804101C08041D8
:1050D00000C1814001C0804100C1814000C18140C8
:1050E00001C0804100C1814001C0804101C08041B8
:1050F00000C1814000C1814001C0804101C08041A8
:1051000000C1814001C0804100C1814000C1814097
:1051100001C0804101C0804100C1814000C1814087
:1051200001C0804100C1814001C0804101C0804177
:1051300000C1814000C1814001C0804101C0804167
:1051400000C1814001C0804100C1814000C1814057
:1051500001C0804100C1814001C0804101C0804147
:1051600000C1814001C0804100C1814000C1814037
:1051700001C0804101C0804100C1814000C1814027
:1051800001C0804100C1814001C0804101C0804117
:1051900000C1814000C0C101C30302C2C60607C7E7
:1051A00005C5C404CC0C0DCD0FCFCE0E0ACACB0B57
:1051B000C90908C8D81819D91BDBDA1A1EDEDF1F87
:1051C000DD1D1CDC14D4D515D71716D6D21213D377
:1051D00011D1D010F03031F133F3F23236F6F73727
:1051E000F53534F43CFCFD3DFF3F3EFEFA3A3BFB17
:1051F00039F9F83828E8E929EB2B2AEAEE2E2FEFC7
:105200002DEDEC2CE42425E527E7E62622E2E32336
:10521000E12120E0A06061A163A3A26266A6A76766
:10522000A56564A46CACAD6DAF6F6EAEAA6A6BABD6
:1052300069A9A86878B8B979BB7B7ABABE7E7FBF06
:105240007DBDBC7CB47475B577B7B67672B2B373F6
:10525000B17170B0509091519353529296565797A6
:10526000559594549C5C5D9D5F9F9E5E5A9A9B5B96
:1052700099595898884849894B8B8A4A4E8E8F4F46
:105280008D4D4C8C448485458747468682424383B6
:105290004181804064656661756C745461736B0014
:1052A0006D795461736B4D4F4442555300000000BB
:1052B0006D795461736B53494D5278006D79546127
:1052C000736B54726D6C5278000000006D795461FC
:1052D000736B556172743554780000006D795461B8
:1052E000736B556172743654780000006D795461A7
:1052F000736B54726D6C5478000000001C530008EE
:10530000000000207C02000034030008A4530008C1
:105310007C020020BC8A0000A0270008015C14E881
:10532000030112111222123312441266023577223F
:10533000381B2040041A480401341A3C381A44042B
:105340000A353440519324F400092C010203040669
:105350000708091AAA01012C1AFF01C1022B023207
:105360001113B12B33080413B32A3308031A550859
:10537000321013B92D3308061A230832171A1528CC
:10538000320113712933080513CD2C2B080F301966
:105390002029741AE31832641AD52801401318889A
:0453A00002102000D7
:04000005080001AD41
:00000001FF
