:020000040800F2
:10000000509C00207D02000811560008870200085D
:10001000115300087F0300087D5D00080000000008
:10002000000000000000000000000000C101000806
:100030005909000800000000150200086D5600086C
:10004000970200089702000897020008970200082C
:10005000970200089702000897020008970200081C
:10006000970200089702000897020008C9080008D4
:10007000D5080008E1080008ED080008F9080008A4
:1000800005090008110900089702000897020008F6
:10009000550400089702000897020008970200081C
:1000A00097020008970200089702000897020008CC
:1000B0006957000897020008970200089702000895
:1000C00097020008970200089702000897020008AC
:1000D00097020008E15C0008155D0008215D00083A
:1000E000970200089702000897020008970200088C
:1000F0009702000897020008970200081D090008EF
:10010000970200089702000897020008970200086B
:10011000815900088D590008755700088D5700084F
:10012000970200082909000835090008970200080D
:10013000970200089702000897020008970200083B
:10014000970200089702000897020008970200082B
:1001500097020008410900084D0900082D5D0008BC
:10016000970200089702000897020008970200080B
:10017000970200089702000897020008000000009C
:1001800097020008970200089702000897020008EB
:1001900097020008970200089702000897020008DB
:1001A000970200089702000897020008DFF80CD0B9
:1001B00000F0A8F800480047D9690008509C0020CA
:1001C0002B4B19680868B0E8F04F80F30988BFF33B
:1001D0006F8F4FF0000080F311887047000000001F
:1001E00006480068006880F3088862B661B6BFF30D
:1001F0004F8FBFF36F8F00DF00BF00BF08ED00E03F
:10020000DFF80C00016841F470010160704700BF25
:1002100088ED00E0EFF30980BFF36F8F144B1A688D
:100220001EF0100F08BF20ED108A20E9F04F10607B
:1002300008B44FF0500080F31188BFF34F8FBFF325
:100240006F8F07F045FD4FF0000080F3118808BC68
:1002500019680868B0E8F04F1EF0100F08BFB0EC46
:10026000108A80F30988BFF36F8F704700BF00BF0B
:10027000D0010020EFF3058070470000064880475A
:1002800006480047FEE7FEE7FEE7FEE7FEE7FEE77B
:10029000FEE7FEE7FEE7FEE711570008AD010008A4
:1002A00040EA01039B0703D009E008C9121F08C0F8
:1002B000042AFAD203E011F8013B00F8013B521E78
:1002C000F9D27047D2B201E000F8012B491EFBD2EF
:1002D00070470022F6E710B513460A460446194651
:1002E000FFF7F0FF204610BD30B50446002003465E
:1002F00000E05B1C934203D2E05CCD5C401BF8D075
:1003000030BD0000064C074D06E0E06840F00103F8
:1003100094E8070098471034AC42F6D3FFF74AFF41
:10032000349200085492000870B58C1810F8015BE4
:1003300015F0070301D110F8013B2A1106D110F87E
:10034000012B03E010F8016B01F8016B5B1EF9D182
:100350002B0705D40023521E0DD401F8013BFAE708
:1003600010F8013BCB1A921C03E013F8015B01F873
:10037000015B521EF9D5A142D8D3002070BDFEE723
:10038000324C334D8AB04FF6E96600235A1E694657
:10039000286908F0A1F8012854D10198C0F30F2171
:1003A000A1F57E40E938B14204BF0698C4F81E00AA
:1003B00040D01DDCA1F57040033804BF9DF8160045
:1003C000607737D0012804BFBDF81700A4F82300D8
:1003D00030D0A0F56060BD3804BFBDF81500A4F8AA
:1003E000390027D0252804BF0598C4F8350021E03E
:1003F000012814D0082804BFBDF81500A4F81B007C
:1004000018D0092804BFBDF81400A4F83B0011D08F
:10041000132804BF9DF8150084F822000AE09DF817
:100420001400411E072905D804EB4000BDF8151043
:10043000A0F8251000235A1E6946286908F04CF8D8
:100440000128AAD0642007F0B7FA9EE7BC1200206A
:1004500070010020014801F061B80000F40900209B
:1004600088B008F0BFFB1D49079040F22130C1F869
:1004700030D000904FF48070019000200390042051
:100480000290012004903A208DF81400FF20AA2148
:100490008DF818108DF815008DF819008DF81610CC
:1004A0008DF81A100E4C0F4D8DF817008DF81B00AB
:1004B0000A210A48019401F067FB4FF4C87107A8AC
:1004C00007F0B0FA0A210548019501F05DFB4FF4F1
:1004D000C87107A807F0A6FAEAE70000340A00206E
:1004E0001000FA181000FB182DE9F0438FB040F20D
:1004F000F7784FF478470024CDF81080CDE90774E1
:1005000001254FF4084040F2FF760994CDE90A45F1
:10051000CDE905060E20CDE90C5004A95D4800F098
:10052000FFFE4FF4F069CDF810904FF4C0500797DC
:10053000CDE90845CDE90A45CDE905060F20CDE90D
:100540000C5004A9534800F0EBFE4FF49040CDF856
:1005500010800797CDE905060220CDE9084010205C
:10056000CDE90C50CDE90A4504A94A4800F0D8FE6F
:100570004FF46040CDF810800797CDE905060320C1
:10058000CDE908401120CDE90C50CDE90A4504A978
:10059000404800F0C5FE6803CDF810900797CDE9FC
:1005A00005060420CDE908401220CDE90C50CDE924
:1005B0000A4504A9374800F0B3FE4FF00509CDF80D
:1005C0002490CDF81080CDE907744FF4A040CDE918
:1005D0000A45CDE905061320CDE90C5004A92D48A4
:1005E00000F09EFE4FF42050CDF810800797CDE923
:1005F00005060620CDE908401420CDE90C50CDE9D0
:100600000A4504A9234800F08BFE04A940F2F670C5
:1006100081E8D1000820CDE908401620CDE90C5032
:10062000CDE90A451B4800F07BFE4FF41040CDF8A1
:1006300010800797CDE905060720CDE90840152071
:10064000CDE90C50CDE90A4504A9124800F068FE36
:1006500010491148002248632421202007F009FF97
:100660000E49002380220861CDE9005402940CA1B8
:100670000F48039408F0B6F9CDE9009402940023E2
:1006800080220CA10F48039408F0ACF90FB0BDE82C
:10069000F0830000F4090020B8130020700100204E
:1006A00043414E31204C697374656E696E6700007A
:1006B0008103000843414E322053656E64696E67C2
:1006C000000000006104000810B54FF4D872036800
:1006D00002EB01129B5813F0040C436BC3F808C0E3
:1006E000D0F800C0436B5CF802C007BF4FEA5C5C07
:1006F000C3F800C04FEADC0CC3F804C003689A5882
:10070000436B02F00202DA604FF4DA72036802EB24
:1007100001129B58D0F834C003F00F03CCF810300E
:1007200003689A58436BC2F30722DA614FF4DC7214
:10073000036802EB01129B58D0F834C08CF81430D7
:1007400003689B58D0F834C01B0A8CF81530036836
:100750009B58D0F834C01B0C8CF8163003689A589C
:10076000436B120EDA754FF4DE72036802EB01126E
:100770009B58D0F834C08CF8183003689B58D0F8D8
:1007800034C01B0A8CF8193003689B58D0F834C069
:100790001B0C8CF81A3003689A58436B120E002910
:1007A000DA7601680DD00A6942F020020A61016818
:1007B0004A6922F010024A6190F83810222922D1A9
:1007C00008E0CA6842F02002CA6001684A6922F063
:1007D0000202F0E701684A6922F480724A61016806
:1007E0004A6922F400724A6101684A6922F480620F
:1007F0004A6101684A6922F400624A6101684A69F3
:1008000022F400424A6190F8381032290CBF1221BC
:10081000012180F8381001F093F9002010BD7047D5
:10082000054A06485115C0E9002100210172C26045
:10083000D214026101757047001002401C1500209F
:100840002DE9F041154F164E002404EB440007EB50
:100850008005697AA972A98857F8200089B201F049
:1008600065FF6872297A31B1012902BF0028A87A90
:10087000012805D00BE0012804BFA87A002806D182
:1008800006EB8400D0F8A110491CC0F8A110601C30
:10089000C4B2022CD9D3BDE8F08100001C150020A1
:1008A000BC120020074A002101EB410C00F00303B9
:1008B00002EB8C0C491C8008C9B28CF80830022964
:1008C000F2D370471C150020014801F0B9BA0000AE
:1008D00084060020014801F0B3BA0000940800200B
:1008E000014801F0ADBA0000D4050020014801F034
:1008F000A7BA0000EC080020014801F0A1BA0000EE
:100900002C060020014801F09BBA0000E4070020FB
:10091000014801F095BA00003C080020014801F0B0
:100920008FBA0000DC060020014801F089BA0000FF
:1009300044090020014801F083BA00003407002078
:10094000014801F07DBA00009C090020014801F037
:1009500077BA00008C070020FEE7000070B5244D38
:1009600004462888844208BF70BD04F00102214E6D
:100970004FF40061304601F005FF04F00202B114AB
:10098000304601F0FFFE1C4E04F004028021304688
:1009900001F0F8FE04F00802B115304601F0F2FE55
:1009A00004F01002B114304601F0ECFE04F0200215
:1009B0004FF40051304601F0E5FE04F040024FF4E0
:1009C0008041304601F0DEFE04F080024FF4004129
:1009D000304601F0D7FE00220121084801F0D2FE86
:1009E00000220421064801F0CDFE2C8070BD0000DD
:1009F0008401002000140240001002400004024064
:100A00000018024000B585B000200121CDE900109A
:100A1000029003460390802202A1074807F0E2FFFC
:100A200005B000BD446973637220696E70757420EF
:100A3000706F6C6C696E67003D0A0008DFF82081FA
:100A4000484E494F494C642006F0B6FF0821304615
:100A500001F06CFE0546012006F0AEFF082130468D
:100A600001F064FEA84206D1B4F89F0020F0010016
:100A70002843A4F89F004021404601F057FE054658
:100A8000012006F099FF4021404601F04FFEA842A8
:100A900007D1B4F89F0020F0020040EA4500A4F816
:100AA0009F004FF48041304601F040FE0546012092
:100AB00006F082FF4FF48041304601F037FEA84235
:100AC00007D1B4F89F0020F0040040EA8500A4F8A4
:100AD0009F000221384601F029FE0546012006F05C
:100AE0006BFF0221384601F021FEA84207D1B4F87D
:100AF0009F0020F0080040EAC500A4F89F004FF4D2
:100B00000051304601F012FE0546012006F054FF68
:100B10004FF40051304601F009FEA84207D1B4F865
:100B20009F0020F0100040EA0510A4F89F0001216A
:100B3000384601F0FBFD0546012006F03DFF01218E
:100B4000384601F0F3FDA8427FF47DAFB4F89F0072
:100B500020F0200040EA4510A4F89F0073E7000051
:100B6000001002400014024000180240BC12002095
:100B7000F8B50026054600960868694F0C4612280D
:100B800006D9B84204D040F2244166A005F006F927
:100B90006068401E0F2804D940F2254161A005F08D
:100BA000FDF8A068002818BF012810D0022818BF3F
:100BB00003280CD0042818BF052808D0062818BF21
:100BC000072804D040F2264156A005F0E7F895F832
:100BD0003C00012804BF0220F8BD012085F83C003C
:100BE000206807222968092813D9CB680A3800EB46
:100BF000400002FA00F023EA0000C8602078A168F3
:100C00000A3800EB400081402868C2681143C16087
:100C100010E00B6900EB400002FA00F023EA00004C
:100C200008612078A16800EB4000814028680269D3
:100C30001143016160681F22072815D229684B6B98
:100C4000401E00EB800002FA00F023EA0000486337
:100C5000208881B22079401E00EB80008140286806
:100C6000426B114341632BE029680D2814D20B6BB2
:100C7000C01F00EB800002FA00F023EA00000863C6
:100C8000208881B22079C01F00EB80008140286855
:100C9000026B1143016313E0CB6A0D3800EB800057
:100CA00002FA00F023EA0000C862208881B22079AD
:100CB0000D3800EB800081402868C26A1143C16290
:100CC00026492868884204BF2068122805D1D1F837
:100CD000040340F48000C1F80403286888421AD154
:100CE0002068B84218BF112815D1D1F8040340F488
:100CF0000000C1F804032068B8420CD11848194913
:100D00000068B0FBF1F000EB80004000009002D0E2
:100D1000401E0090FCD185F83C600020F8BD00002A
:100D2000120000102E2E5C447269766572735C535B
:100D3000544D3332463478785F48414C5F44726991
:100D40007665725C5372635C73746D3332663478AB
:100D5000785F68616C5F6164632E6300002001400E
:100D60009801002040420F0090F83D007047006855
:100D7000C06C7047002804BF012070472DE9F04186
:100D800004460068B84DA8421FBFB8498842A0F188
:100D90008041B1F5913104D040F20B11B4A004F0C0
:100DA000FDFF6068002818BFB0F5803F0AD0B0F59D
:100DB000003F18BFB0F5403F04D04FF48671ACA09F
:100DC00004F0ECFFA068002818BFB0F1807F0AD0C3
:100DD000B0F1007F18BFB0F1407F04D040F20D1198
:100DE000A3A004F0DBFF2069002818BF012804D06D
:100DF0004FF487719EA004F0D1FFA069002818BFAE
:100E0000012804D040F20F1199A004F0C7FFE06A56
:100E1000A54E002818BFB0F1807F2FD0B0F1007F21
:100E200018BFB0F1407F29D0B0F1806F18BFB0F18A
:100E3000A06F23D0B0F1C06F18BFB0F1E06F1DD02C
:100E4000B0F1006F18BFB0F1106F17D0B0F1206F84
:100E500018BFB0F1306F11D0B0F1406F18BFB0F1D2
:100E6000506F0BD0B0F1606F1CBFB0F1706FB0422B
:100E700004D04FF488717EA004F090FFE068002851
:100E800018BFB0F5006F04D040F2111178A004F043
:100E900085FF206A401E0F2804D94FF4897174A081
:100EA00004F07CFFE069002818BF012804D040F25C
:100EB00013116FA004F072FF606901281CBF0028A5
:100EC000022804D04FF48A7169A004F067FF606AB9
:100ED000002818BF012804D040F2151164A004F0C6
:100EE0005DFFE06AB0421CBF206B00280CD0B0F15F
:100EF000805F1CBFB0F1005FB0F1405F04D040F2F2
:100F000019115BA004F04AFF94F83D00002720B9B6
:100F100084F83C70204600F0E7F8022084F83D0099
:100F2000D5F8040320F44030C5F80403D5F80403D1
:100F300061680843C5F804032068416821F48071A2
:100F4000416020684168226941EA022141602068CD
:100F5000416821F04071416020684168A2681143F6
:100F600041602068816821F40061816020688168A7
:100F7000E26811438160E06AB0422068816821F034
:100F8000706181602068816808BF21F040510BD0FA
:100F9000E26A114381602068816821F040518160DC
:100FA00020688168226B114381602068816821F08C
:100FB0000201816020688168A26941EA4201816082
:100FC000606AF8B1A06A401E072804D940F2225195
:100FD00036A004F0E3FE2068416841F400614160FE
:100FE0002068416821F460414160206841684FF405
:100FF0006043A26A93FAA3F3B3FA83F3521E9A40B2
:10100000114303E02068416821F4006141602068D9
:10101000C16A21F47001C1622068C16A228C314B1F
:1010200003EB02521143C1622068816821F4007110
:10103000816020688168E26941EA4221816020681C
:10104000816821F48061816020688168626941EA79
:10105000822181602764012084F83D0084F83C707F
:101060000020BDE8F0810000002001400021014087
:101070002E2E5C447269766572735C53544D333224
:10108000463478785F48414C5F4472697665725C9B
:101090005372635C73746D3332663478785F686161
:1010A0006C5F6164632E63000100000F2E2E5C44B0
:1010B0007269766572735C53544D33324634787876
:1010C0005F48414C5F4472697665725C5372635C41
:1010D00073746D3332663478785F68616C5F616415
:1010E000632E63000000F0FF70B501682148002402
:1010F000214A0325214E86B0814211D1106840F467
:10110000007010601068694600F400700590F020CF
:10111000CDE900050294304601F04CF906B070BDEF
:10112000A1F18040B0F591301CBF06B070BD1068D1
:1011300040F4806010601068694600F4806005909B
:101140004FF47C70CDE9000502940D4801F032F9AE
:101150000C20CDE90005694602940A4801F02AF9FD
:101160000F20CDE9000569460294304601F022F9CE
:1011700006B070BD0021014044380240000002402A
:1011800000140240000802402DE9F04104460068C6
:101190000D4681684FF0000711F4806F1CBF806816
:1011A00010F4807F07D0042084F83D0084F83C7060
:1011B0000120BDE8F08101F01BFB064620680068B5
:1011C00010F0020F14D1B5F1FF3F0CD025B101F0A2
:1011D0000FFB801BA84206D9032084F83D0084F849
:1011E0003C70BDE8F0812068006810F0020FEAD082
:1011F00094F83D0025280CBF3520152084F83D00CB
:101200000020BDE8F081000038B5002504460095B7
:101210008069002818BF012804D040F295112AA047
:1012200004F0BCFD206B002818BFB0F1805F0AD02D
:10123000B0F1005F18BFB0F1405F04D04FF4CB7144
:1012400021A004F0ABFD94F83C00012804BF02206B
:1012500038BD012084F83C0094F83D0022280CBFE2
:101260003220122084F83D002068816811F0010FBF
:101270000FD1816841F00101816021482149006856
:10128000B0FBF1F010EB4000009002D0401E009047
:10129000FCD11D4984F83C50D1F8040310F01F0F15
:1012A000206806D0884204BF816811F0405F04D0F6
:1012B00007E0816811F0405F03D1816841F080410F
:1012C0008160002038BD00002E2E5C447269766576
:1012D00072735C53544D3332463478785F48414CD6
:1012E0005F4472697665725C5372635C73746D33CC
:1012F00032663478785F68616C5F6164632E630086
:101300009801002040420F000020014001688A68D7
:1013100022F001028A60012180F83D100020704710
:1013200070B548690C461B2804D94FF4B67164A007
:1013300004F034FDA069002818BF012804D040F251
:101340006D115FA004F02AFDE069002818BF012894
:1013500004D04FF4B7715AA004F020FD2069002892
:1013600018BF012804D040F26F1155A004F016FDFB
:10137000206A002818BF012804D04FF4B87150A08B
:1013800004F00CFD606A1C2804D940F271114CA0D5
:1013900004F004FD207D012101FA00F056490A689D
:1013A00042F001020A600A6822F47C520A600A686C
:1013B000636A42EA03220A60504B1A6882431A6049
:1013C000D4F81CC04E4ABCF1000F1FD1D2F800C0A7
:1013D0002CEA000CC2F800C0A589D4F804C065F35B
:1013E0001F4C6569ED0005F1804505F5C045C5F860
:1013F00040C62589D4F800C065F31F4C6569ED002F
:1014000005F1804505F5C045C5F844C6D4F81CC0B3
:10141000BCF1010F23D1D2F800C04CEA000CC2F895
:1014200000C0B4F800C062686CF31F42D4F814C066
:101430004FEACC0C0CF1804C0CF5C04CCCF840269B
:10144000B4F808C0E2686CF31F42D4F814C04FEA45
:10145000CC0C0CF1804C0CF5C04CCCF84426294A3D
:10146000D4F818C0BCF1000FD2F800C00CBF2CEAB1
:10147000000C4CEA000CC2F800C0D4F810C0224A9C
:10148000BCF1000F05D1D2F800C02CEA000CC2F864
:1014900000C0D4F810C0BCF1010F05D1D2F800C0D3
:1014A0004CEA000CC2F800C0226A012A02D11A6874
:1014B00010431860086820F001000860002070BD2B
:1014C0002E2E5C447269766572735C53544D3332D0
:1014D000463478785F48414C5F4472697665725C47
:1014E0005372635C73746D3332663478785F68610D
:1014F0006C5F63616E2E6300006600401C660040F6
:101500000C66004004660040146600400248C16852
:10151000491CC160704700007001002070B501686F
:10152000044648694FF0010510F0010F45D0886866
:10153000754A32EA00000CBF012000208A68734B14
:1015400033EA02020CBF012200228B68DFF8C0C11F
:101550003CEA03030CBF01230023104318432CD0A3
:101560004A69204622F001024A6194F83810122993
:1015700018D101684A6922F480724A6101684A6997
:1015800022F400724A6101684A6922F480624A6169
:1015900001684A6922F400624A6101684A6922F4DA
:1015A00000424A6190F83810322906BF222180F8A3
:1015B000381080F8385000F00DFC2068C168406990
:1015C00011F0030FC0F3400018BF002803D0002122
:1015D0002046FFF779F820680169406911F0030F90
:1015E000C0F3001018BF002803D001212046FFF7E8
:1015F0006BF82068816911F0010F41694369C1F3FB
:101600000021C3F3C0331CBF0029002B06D0E16BBF
:1016100041F00101E1636FF001018161206881699E
:101620004269C1F340014369C2F34022C3F3C033AE
:1016300000291CBF002A002B06D0E16B41F00201FB
:10164000E1636FF002018161206881694269C1F341
:1016500080014369C2F38022C3F3C03300291CBF59
:10166000002A002B06D0E16B41F00401E1636FF02A
:10167000040181612168886910F0700F0CBF01209E
:1016800000204A694B69C2F3C022C3F3C03388BB50
:10169000002A18BF002B2DD0886900F07000402868
:1016A00004BFE06B40F040001FD012DC102804BFE4
:1016B000E06B40F0080018D0202804BFE06B40F039
:1016C000100012D0302804BFE06B40F020000CD096
:1016D0000CE0502804BFE06B40F0800005D060288B
:1016E00004BFE06B40F4807000D1E063886920F0B3
:1016F00070008861E06B002808BF70BD84F8385026
:101700002046FFF703FF70BD03000004000300083C
:1017100000000310002804BF012070472DE9F041AC
:1017200004460068A0F18041B1F5C8411CBFA0F19A
:101730008041B1F5D04103D0B4218CA004F02EFB40
:10174000A069002818BF012803D0B52187A004F0A4
:1017500025FBE069002818BF012803D0B62183A02B
:1017600004F01CFB206A002818BF012803D0B72111
:101770007EA004F013FB606A002818BF012803D084
:10178000B8217AA004F00AFBA06A002818BF01283B
:1017900003D0B92175A004F001FBE06A002818BF4E
:1017A000012803D0BA2171A004F0F8FAA06800283B
:1017B00018BFB0F1804F09D0B0F1004F18BFB0F1A1
:1017C000404F03D0BB2169A004F0E8FAE06800288C
:1017D00018BFB0F1807F09D0B0F1007F18BFB0F121
:1017E000407F03D0BC2161A004F0D8FA2069B0F595
:1017F000702F03D9BD215DA004F0D0FA6069B0F567
:10180000E00F03D9BE2159A004F0C8FA6068401E59
:10181000B0F5806F03D3BF2154A004F0BFFA94F851
:101820003800002620B984F83960204600F0BAF864
:10183000022084F838002068016821F0020101606C
:101840002068016841F00101016000F0D1FF054608
:10185000206840684FF0030710F0010F09D100F035
:10186000C7FF401B0A2862D82068406810F0010FAB
:10187000F5D02068416811F0010F69D0A1690129F4
:1018800001680CBF41F0800121F080010160E06936
:101890000128206801680CBF41F0400121F040019F
:1018A0000160206A0128206801680CBF41F0200116
:1018B00021F020010160606A0128206801680CBFE6
:1018C00041F0100121F010010160A06A0128206898
:1018D00001680CBF41F0080121F008010160E06AD5
:1018E0000128206801680CBF41F0040121F00401C7
:1018F0000160D4E902010843D4E90412114308430A
:101900006168491E08432168C8612068016821F0A8
:101910000101016000F06CFF05462068406810F08E
:10192000010F10D000F064FF401B0A2806D984F88C
:10193000387084F839600320BDE8F0812068406881
:1019400010F0010FEED12068406810F0010F05D0B3
:10195000042084F838000120BDE8F081E66301200E
:1019600084F838000020BDE8F08100002E2E5C4491
:101970007269766572735C53544D333246347878AD
:101980005F48414C5F4472697665725C5372635C78
:1019900073746D3332663478785F68616C5F63614D
:1019A0006E2E6300F0B52E4E0168032330680224CA
:1019B00009252C4A401CA1F1804787B04FF0000C4C
:1019C000B7F5C84710D0B7F580671CBF07B0F0BDAA
:1019D000116841F0806111601168012801F0806197
:1019E000059130602DD124E03060012807D11068C6
:1019F00040F000701060106800F000700590CDE9B4
:101A00000034CDF808C0CDE903356946164800F02A
:101A1000D1FC00220A21142001F0A0F8142001F0CA
:101A20006BF812480068416941F00201416107B05A
:101A3000F0BD106840F000701060106800F0007099
:101A4000059042F22000CDE90004CDF808C0CDE9B0
:101A500003356946064800F0ADFC07B0F0BD000054
:101A60000000002040380240000C0240F409002031
:101A70000004024070B50D00044618BF012D04D0CB
:101A80004FF4637120A004F089F994F8380001281C
:101A900018BF122836D194F83900012832D001201D
:101AA00084F8390094F8380012280CBF3220222024
:101AB00084F838000021E1632068426942F48072B2
:101AC00042612068426942F40072426120684269C2
:101AD00042F4806242612068426942F400624261DD
:101AE0002068426942F40042426184F8391020685B
:101AF000002D41690CBF41F0020141F0100141612C
:101B0000002070BD022070BD2E2E5C447269766587
:101B100072735C53544D3332463478785F48414C8D
:101B20005F4472697665725C5372635C73746D3383
:101B300032663478785F68616C5F63616E2E630033
:101B400010B5416B0D4C087D207000200346A0604D
:101B500004F10802206906F0AFFEA068012806D152
:101B6000074900070860BFF34F8FBFF36F8FBDE8D1
:101B7000104000210348FFF77DBF000070010020E6
:101B800004ED00E0F40900202DE9F05F0446006B4D
:101B90000F468068002818BF042804D040F2232193
:101BA0007BA004F0FBF8206BC068002818BF022857
:101BB00004D04FF4097176A004F0F0F8206B0069AE
:101BC000082804D940F2252171A004F0E7F894F820
:101BD0003900012804BF0220BDE8F09F012084F8ED
:101BE000390094F8380022280CBF3220122084F8E3
:101BF0003800206881684FF0000811F0806F18BF2E
:101C0000002574D04FF4C07101EB0516815901F025
:101C100001018151206B816800297DD04068B0F1BD
:101C2000005F04D340F2532159A004F0B7F82168B3
:101C30008A59206B83681A43C368406843EAC0002E
:101C400010438851206B017C01F00F0101614FF4BA
:101C5000C270216800EB05100A5822F00F020A50EA
:101C600021680A58236B1B691A430A50206B4FF4F2
:101C7000C47202EB0512017DD0F8150041EA002084
:101C800021688850206B4FF4C67202EB0512017E6A
:101C9000D0F8190041EA0020216888502068815955
:101CA00041F00101815100F0A3FDDFF81C91DFF844
:101CB0001CA1DFF81CB10646002D40D02068012D84
:101CC000806842D03BEA00004BD0B7F1FF3F40D0E4
:101CD00027B100F08DFD801BB8423AD9032084F86B
:101CE000380084F83980BDE8F09F00E014E0816896
:101CF00011F0006F18BF012584D1816811F0805F59
:101D000018BF02257FF47EAF042084F8380084F8E1
:101D100039800120BDE8F09F0068B0F5006F04D362
:101D200040F24D211AA004F039F820688259216B45
:101D3000CB6809881A4342EA4151815182E7206801
:101D4000806839EA0000C0D10BE03AEA0000BCD15B
:101D500007E09DB12068012D806815D03BEA0000A6
:101D6000B3D194F8380032280CBF2220012084F827
:101D7000380084F839800020BDE8F09F2068806832
:101D800039EA0000A1D1ECE73AEA00009DD1E8E78A
:101D90002E2E5C447269766572735C53544D3332F7
:101DA000463478785F48414C5F4472697665725C6E
:101DB0005372635C73746D3332663478785F686134
:101DC0006C5F63616E2E6300030000040003000873
:101DD0000000031002484168491C41607047000040
:101DE0007001002070B504460068016821F001010F
:101DF000016000F0FDFC0546206800684FF0000619
:101E000010F0010F14D000F0F3FC401BB0F57A7F06
:101E100009D9E06C40F02000E06484F834600320CD
:101E200084F8350070BD2068006810F0010FEAD119
:101E300084F83460012084F83500002070BD000073
:101E40002DE9F041056D0446286894F854200821D6
:101E500001FA02F210424FF004074FF000061AD0C8
:101E60002068026812F0040F15D0026822F0040204
:101E7000026094F8540001FA00F0A860E06C40F0B1
:101E80000100E06484F8357084F83460A16C0029A6
:101E90001CBF20468847286894F854205F4901FAFF
:101EA00002F210421AD02068426912F0800F15D059
:101EB000426922F08002426194F8540001FA00F075
:101EC000A860E06C40F00200E06484F8357084F8AB
:101ED0003460A16C00291CBF20468847286894F80C
:101EE00054204F4901FA02F210421AD020680268C9
:101EF00012F0020F15D0026822F00202026094F87C
:101F0000540001FA00F0A860E06C40F00400E064C6
:101F100084F8357084F83460A16C00291CBF204619
:101F20008847286894F85410102202FA01F10842F8
:101F30002FD02068036813F0080F2AD0036813F429
:101F4000802F4FF0310310D0A9602068016811F490
:101F5000002F08BF84F8353016D0006810F4002F29
:101F60001CBF412084F835000EE0016811F4807F29
:101F700003D1016821F00801016094F8540002FACD
:101F800000F0A86084F83530216C00291CBF204681
:101F90008847286894F85410202202FA01F1084278
:101FA00008BFBDE8F0812068036813F0100F08BF78
:101FB000BDE8F081036813F4802F12D0A960206877
:101FC000016811F4002F08D0006810F4002F1ABF28
:101FD000E16B0029BDE8F0811CE0616CD1B9BDE87E
:101FE000F081016811F4807F03D1016821F01001B4
:101FF000016094F8540002FA00F0A860E06CE0641C
:10200000112084F8350084F83460E16B002908BFA2
:10201000BDE8F0812046BDE8F0410847010080009E
:1020200004008000002804BF0120704710B504465A
:1020300000688E4988421CBF8D4988422DD08D4949
:1020400088421CBF8C49884227D08C4988421CBFDB
:102050008B49884221D08B4988421CBF8A498842DB
:102060001BD08A4988421CBF8949884215D08949BA
:1020700088421CBF884988420FD0884988421CBFCB
:102080008749884209D0874988421CBF86498842CF
:1020900003D0C92185A003F081FE6068002818BF25
:1020A000B0F1007F15D0B0F1806F18BFB0F1C06FF4
:1020B0000FD0B0F1006F18BFB0F1206F09D0B0F1B0
:1020C000406F18BFB0F1606F03D0CA2177A003F052
:1020D00065FEA06800281CBF4028802803D0CB21C3
:1020E00072A003F05BFEE068B0F5007F18BF002827
:1020F00003D0CC216DA003F051FE2069B0F5806FB4
:1021000018BF002803D0CD2168A003F047FE606906
:1021100000281CBFB0F5006FB0F5805F03D0CE2162
:1021200062A003F03BFEA06900281CBFB0F5005F71
:10213000B0F5804F03D0CF215CA003F02FFEE06903
:1021400000281CBFB0F5807F202803D0D02157A0E5
:1021500003F024FE206A002818BFB0F5803F09D0A4
:10216000B0F5003F18BFB0F5403F03D0D1214FA0DC
:1021700003F014FE606A002835D0042806D0D2216E
:102180004AA003F00BFE606A00282CD0A06A002849
:1021900018BF012807D0022818BF032803D0D72171
:1021A00042A003F0FBFDE06A002818BFB0F5000F65
:1021B00009D0B0F1807F18BFB0F1C07F03D0D82123
:1021C0003AA003F0EBFD206B002818BFB0F5001F0C
:1021D00009D0B0F5800F18BFB0F5C00F03D0D921DA
:1021E00032A003F0DBFD022084F835002168086886
:1021F0003C4A1040D4E901231A43D4E9033C43EAA2
:102200000C031A4363691A43A3691A43E3691A4327
:10221000236A1A431043626A042A03D1D4E90B23C8
:102220001A431043086022685069616A20F0070071
:102230000843042904BFA16A0843506120682A4A60
:10224000C1B21039A2FB0121284A09090329525CB5
:1022500062656FF3090088BF001D20650020E064FF
:10226000012084F83500002010BD000010600240FD
:1022700028600240406002405860024070600240A6
:1022800088600240A0600240B860024010640240D2
:102290002864024040640240586402407064024076
:1022A00088640240A0640240B86402402E2E5C4460
:1022B0007269766572735C53544D33324634787864
:1022C0005F48414C5F4472697665725C5372635C2F
:1022D00073746D3332663478785F68616C5F646DF7
:1022E000612E63003F8010F0ABAAAAAAFC8F000801
:1022F0002DE9F041044690F834001F4615460E467D
:10230000012804BF0220BDE8F081012084F83400D8
:10231000022084F83500781E4FF6FF71884204D3FE
:1023200040F29D1115A003F039FD2068016821F0ED
:10233000010101602068016821F4802101602068AA
:102340004760A068402820680CBF856086602068D0
:102350000CBFC660C5602068016841F01E010160C5
:102360002068416941F0800141612068016841F0C5
:10237000010101600020BDE8F08100002E2E5C44C8
:102380007269766572735C53544D33324634787893
:102390005F48414C5F4472697665725C5372635C5E
:1023A00073746D3332663478785F68616C5F646D26
:1023B000612E63002DE9F84FC44FDFF81493DFF866
:1023C00014A3DFF814B3A0F180480D460446B8F515
:1023D000003818BFBC4226D04C4518BF544522D007
:1023E0005C451CBFA4F18040B0F505301BD0A4F1C2
:1023F0008040B0F506301CBFA4F18040B0F5073036
:1024000011D0A4F18040B0F508301FBFA4F1804086
:10241000B0F50930A4F18040B0F50A3003D0C521F1
:10242000AEA003F0BBFC28880004000C03D1C62139
:10243000AAA003F0B3FC6868002818BF012829D0BF
:10244000112818BF022825D012281CBFA0F18051E6
:10245000B1F588111ED0A0F18051B1F504111CBF57
:10246000A0F18051B1F5441114D0A0F18051B1F523
:1024700090111CBFA0F18051B1F508110AD0A0F154
:102480008051B1F5481118BF032803D0C72193A08C
:1024900003F084FCA86800281CBF0128022803D090
:1024A000C8218EA003F07AFC00264FF00F0801200F
:1024B00000FA06FA286800EA0A07574540F0FF804C
:1024C0006868022818BF122832D12869002818BF6E
:1024D00009281FD0012818BF02281BD0032818BFC5
:1024E000042817D0052818BF062813D0072818BFBE
:1024F00008280FD00A2818BF0B280BD00C2818BFAB
:102500000D2807D00F2818BF0E2803D0D92173A09B
:1025100003F044FCF00804EB8000026A7107C90E66
:1025200008FA01F39A432B6903FA01F1114301629E
:1025300020684FEA4609032101FA09FB297920EABC
:102540000B0001F0030101FA09F1084320606868FB
:10255000012818BF022803D0112818BF12281DD146
:10256000E868002818BF012807D0022818BF0328F0
:1025700003D0EC2159A003F011FCA068E96820EA1F
:102580000B0001FA09F10843A0606068297920EA8C
:102590000A00C1F30011B14008436060E068A96817
:1025A00020EA0B0001FA09F10843E060686810F0C6
:1025B000805F7DD05848016841F480410160006827
:1025C00000F48040009026F0030000F1804202F504
:1025D0009832D2F80808B107090F08FA01F320EA87
:1025E0000303A4F18040B0F500303ED0A4F1804058
:1025F000B0F5013008BF012037D0A4F18040B0F51C
:10260000023008BF022030D0A4F18040B0F5033082
:1026100008BF032029D0A4F18040B0F5043008BFE2
:10262000042022D0A4F18040B0F5053008BF052079
:102630001BD0A4F18040B0F5063008BF062014D0AE
:10264000A4F18040B0F5073008BF07200DD0A4F1F9
:102650008040B0F5083008BF082006D0A4F18040C3
:10266000B0F509300CBF09200A2088401843C2F891
:1026700008082A4908686A68B84312F4803F18BFFE
:1026800038430860264908686A68B84312F4003F76
:1026900018BF38430860234908686A68B84312F4D1
:1026A000801F18BF384308601F490868B84300E01E
:1026B00005E06A6812F4001F18BF38430860761CF2
:1026C000102EFFF4F4AEBDE8F88F000000040240C5
:1026D00000080240000C0240001002402E2E5C4414
:1026E0007269766572735C53544D33324634787830
:1026F0005F48414C5F4472697665725C5372635CFB
:1027000073746D3332663478785F68616C5F6770BC
:10271000696F2E630000000044380240003C014015
:10272000043C0140083C01400C3C014070B50C00E9
:10273000054604D14FF4C87103A003F02FFB2869AC
:10274000204018BF012070BD2E2E5C447269766552
:1027500072735C53544D3332463478785F48414C41
:102760005F4472697665725C5372635C73746D3337
:1027700032663478785F68616C5F6770696F2E636A
:102780000000000070B515460C00064604D140F26A
:10279000B11108A003F002FB002D02BF2004B061BC
:1027A00070BD012D04D04FF4D97102A003F0F6FAE8
:1027B000B46170BD2E2E5C447269766572735C5391
:1027C000544D3332463478785F48414C5F447269E7
:1027D0007665725C5372635C73746D333266347801
:1027E000785F68616C5F6770696F2E63000000003E
:1027F000014800687047000094010020002804BFD1
:102800000120704770B504460068A0F18041B1F521
:10281000A8411FBFA0F18041B1F5B041A0F18041B6
:10282000B1F5B84104D040F22D1164A003F0B6FA1E
:1028300060687049401E884204D94FF497715FA0C8
:1028400003F0ACFAA068002818BFB0F5804F04D0A0
:1028500040F22F1159A003F0A1FAE068800A04D0D9
:102860004FF4987155A003F099FA2069B0F5804FA4
:1028700018BFB0F5404F04D040F231114FA003F023
:102880008DFA6069002818BF012804D04FF49971AF
:102890004AA003F083FAA06930F0FE0004D040F2B1
:1028A000331146A003F07AFAE069002818BF4028E7
:1028B00004D04FF49A7141A003F070FA206A002806
:1028C00018BF802804D040F235113CA003F066FA0E
:1028D00094F83500002520B984F83450204600F0E3
:1028E0008FF8022084F835002068016821F001018A
:1028F000016000F0E7FB40492268B0FBF1F1516054
:102900003E4A6368934298BF491C07D94FF49673B7
:1029100059434FF47A73B1FBF3F1491C23681962F0
:1029200061688A420AD34900B0FBF1F2C2F30B029C
:10293000042A34BF0420B0FBF1F023E0A268002A8F
:102940000EBF01EB410301EBC10303EB0113B0FB2D
:10295000F3F318BF43F480431B051B0D08BF012090
:1029600010D0002A04BF01EB4101B0FBF1F007D009
:1029700001EBC10202EB0111B0FBF1F040F4804029
:1029800040F400402168C861D4E907010843216888
:102990000860D4E90310084321688860D4E9050180
:1029A00008432168C8602068016841F001010160A6
:1029B000A563012084F83500002070BD2E2E5C44F4
:1029C0007269766572735C53544D3332463478784D
:1029D0005F48414C5F4472697665725C5372635C18
:1029E00073746D3332663478785F68616C5F693216
:1029F000632E63007F1A060040420F00A08601008C
:102A000000B5016887B0A1F18040B0F5B0401CBFAF
:102A100007B000BD03201221CDE900010121CDE95D
:102A200002100420049069460648FFF7C3FC0648DC
:102A3000016841F480010160006800F480000590A5
:102A400007B000BD0014024040380240024801684F
:102A5000491C016070470000940100200B4810B52C
:102A6000016841F400710160016841F48061016016
:102A7000016841F480710160032000F0CBF80F2061
:102A800000F006F800F015F8002010BD003C0240F0
:102A900010B5044600F0FCFA4FF47A72B0FBF2F085
:102AA00000F070FE00222146501E00F057F8002072
:102AB00010BD10B5032000F0ADF8002211466FF0F4
:102AC0000B0000F04BF8002211466FF00A0000F0F6
:102AD00045F8002211466FF0090000F03FF800228F
:102AE0001146101F00F03AF800220F21BDE81040F7
:102AF000501E00F033B8000010B5040003D5D021FB
:102B000007A003F04BF904F01F00012101FA00F0C7
:102B10006109890001F1E021C1F8000110BD000048
:102B20002E2E5C447269766572735C53544D333259
:102B3000463478785F48414C5F4472697665725CD0
:102B40005372635C73746D3332663478785F686196
:102B50006C5F636F727465782E63000070B5154604
:102B60000E460446102A03D3BC211AA003F016F91E
:102B7000102E03D3BD2117A003F010F924480068DC
:102B8000C0F30223C3F1070CBCF1040F88BF4FF060
:102B9000040C181D072834BF0020D81E012101FA9B
:102BA0000CF2521E3240824001FA00F0401E2840D2
:102BB0001043002C4FEA0010A2BF04F1E02181F87D
:102BC000000470BD04F00F0101F1E02181F8140D43
:102BD00070BD00002E2E5C447269766572735C5382
:102BE000544D3332463478785F48414C5F447269C3
:102BF0007665725C5372635C73746D3332663478DD
:102C0000785F68616C5F636F727465782E63000033
:102C10000CED00E010B50446072818BF062C08D0BC
:102C2000052C1CBF042C032C03D0A42108A003F006
:102C3000B5F8164A04F0070011684FF6FF03194073
:102C400041EA002040F0FD7040F08060106010BD4F
:102C50002E2E5C447269766572735C53544D333228
:102C6000463478785F48414C5F4472697665725C9F
:102C70005372635C73746D3332663478785F686165
:102C80006C5F636F727465782E6300000CED00E07A
:102C9000704700002DE9F047044600680D46401ECD
:102CA0000E2804D94FF41871E8A003F077F8002D2E
:102CB00018BF012D20D0022D18BF032D1CD0042DCC
:102CC00018BF052D18D0062D18BF072D14D0082DBC
:102CD00018BF092D10D00A2D18BF0B2D0CD00C2DAC
:102CE00018BF0D2D08D00E2D18BF0F2D04D040F2A7
:102CF0006121D6A003F052F8DFF888A3DAF80000CB
:102D0000DFF8849300F00F00DFF88083EFB241F228
:102D10008836A84273D28AF80070DAF8000000F012
:102D20000F00A84240F04A81207810F0020F1ED018
:102D3000A068002818BF802811D0902818BFA028AC
:102D40000DD0B02818BFC02809D0D0281CBFE0285B
:102D5000F02804D040F27721BCA003F01FF8D8F887
:102D60000000A16820F0F0000843C8F800002078B7
:102D700010F0010F00F02581606888B1012838D07B
:102D8000022818BF03283BD040F27E21AFA003F0F9
:102D900005F8606801282CD0022818BF03282FD01E
:102DA000D9F8000010F0020F00F00881D8F80000F8
:102DB000616820F003000843C8F80000FFF718FD21
:102DC00005466068012821D0022831D0032841D06F
:102DD000D8F8000010F00C0F00F0F380FFF708FDAA
:102DE000401BB0427ED8D8F8000010F00C0FF5D18F
:102DF000E7E0D9F8000010F4003F74D0D6E731E0E6
:102E0000D9F8000010F0007F6DD0CFE7D8F80000AF
:102E100000F00C00042867D0FFF7EAFC401BB0422A
:102E200060D8D8F8000000F00C000428F4D1C8E005
:102E3000D8F8000000F00C00082855D0FFF7D8FCA7
:102E4000401BB0426FD8D8F8000000F00C000828F2
:102E5000F4D1B6E0D8F80000FFF7CAFC401BB0423E
:102E6000F8D960E0207810F0020F1ED0A06800288A
:102E700018BF802811D0902818BFA0280DD0B028E6
:102E800018BFC02809D0D0281CBFE028F02804D0E3
:102E900040F2D1216DA002F081FFD8F80000A168B6
:102EA00020F0F0000843C8F80000207810F0010F6F
:102EB0007CD0606888B1012838D0022818BF032868
:102EC0003AD04FF4367161A002F068FF60680128C3
:102ED0002CD0022818BF03282ED0D9F8000010F0FB
:102EE000020F02E01FE069E06BE067D0D8F8000055
:102EF000616820F003000843C8F80000FFF778FC81
:102F00008146606801281DD002282ED003283FD0BA
:102F1000D8F8000010F00C0F48D0FFF769FCA0EBC8
:102F20000900B0423DD90320BDE8F087D9F8000080
:102F300010F4003F42D0D9E7D9F8000010F0007F2C
:102F40003CD0D3E7D8F8000000F00C0004282DD0C6
:102F5000FFF74EFCA0EB0900B042E4D8D8F800001F
:102F600000F00C000428F3D120E0D8F8000000F0B5
:102F70000C0008281AD0FFF73BFCA0EB0900B04278
:102F8000D1D8D8F8000000F00C000828F3D10DE0EB
:102F9000D8F80000FFF72CFCA0EB0900B042F7D9ED
:102FA000C1E7D8F8000010F00C0FB6D18AF8007015
:102FB000DAF8000000F00F00A84202D00120BDE8BE
:102FC000F087207810F0040F1AD0E068002818BFAE
:102FD000B0F5805F0CD0B0F5A05F1CBFB0F5C05F4E
:102FE000B0F5E05F04D040F2323118A002F0D6FE16
:102FF000D8F80000E16820F4E0500843C8F8000069
:10300000207810F0080F1BD02069002818BFB0F5F9
:10301000805F0CD0B0F5A05F1CBFB0F5C05FB0F50D
:10302000E05F04D040F2393108A002F0B7FED8F8D2
:103030000000216920F4604040EAC100C8F80000A7
:103040000F20FFF725FD0020BDE8F0872E2E5C4401
:103050007269766572735C53544D333246347878B6
:103060005F48414C5F4472697665725C5372635C81
:1030700073746D3332663478785F68616C5F726345
:10308000632E6300003C02400038024008380240D2
:1030900010B500F063F808490968F02292FAA2F22C
:1030A00001F0F001B2FA82F2D140044A515CC8400A
:1030B0000349086010BD000008380240EC8F00088A
:1030C0009801002010B500F049F80E4A1168F0236D
:1030D00093FAA3F301F0F001B3FA83F321FA03F3B7
:1030E0000949CB5CD840094B186012684FF4E05393
:1030F00093FAA3F302F4E052B3FA83F3DA40895C63
:10310000C84010BD08380240EC8F0008980100202C
:1031100010B500F023F80E4A1168F02393FAA3F3D8
:1031200001F0F001B3FA83F321FA03F30949CB5C10
:10313000D840094B186012684FF4604393FAA3F328
:1031400002F46042B3FA83F3DA40895CC84010BDF0
:1031500008380240EC8F0008980100201F480068E2
:1031600010F00C011E4808BF7047DFF878C0042932
:1031700004BF60467047082918BF704710B41A4A48
:103180001168136801F03F0113F4800F47F6C07314
:103190000AD0BCFBF1F01168194093FAA3F3B3FA1B
:1031A00083F3D940484309E0B0FBF1F011681940BE
:1031B00093FAA3F3B3FA83F3D940484311684FF469
:1031C000403292FAA2F201F44031B2FA82F2D140D6
:1031D000491C4900B0FBF1F010BC704708380240B0
:1031E0000024F400001BB7000438024006480068C1
:1031F00010F0800F08BF704710B5FFF749FD034975
:103200008020087010BD00000C3802400E380240CB
:103210002DE9F84F044600680F2804D94FF4807157
:10322000F5A002F0BBFD2078DFF804B410F0010F28
:103230004FF0000741F28836FE4D64D060680028E8
:103240001CBF0128052804D040F20511EAA002F0B5
:10325000A5FDDBF8000000F00C0004280AD0DBF824
:10326000000000F00C0008280DD1F348006810F4AD
:10327000800F08D0286810F4003F44D06068002810
:1032800000F048823FE0DFF8B49389F80070FFF760
:10329000AFFA8046286810F4003F0AD0FFF7A8FA7A
:1032A000A0EB0800B04200F27681286810F4003FDD
:1032B000F4D1207989F80000606890B1FFF798FA9E
:1032C0008046286810F4003F1DD1FFF791FAA0EB6B
:1032D0000800B04200F25F81286810F4003FF4D08B
:1032E00011E0FFF785FA8046286810F4003F0AD005
:1032F000FFF77EFAA0EB0800B04200F24C8128688C
:1033000010F4003FF4D12078DFF8348310F0020F7E
:1033100064D0E068002818BF012804D04FF4A371DE
:10332000B5A002F03BFD20691F2804D940F24711E7
:10333000B1A002F033FDDBF800004FF0F80A10F006
:103340000C0F17D0DBF8000000F00C00082804D1A7
:10335000B948006810F4800F0CD0E06850B3012029
:10336000C8F80000FFF744FA8146286810F0020F01
:1033700009D013E0286810F0020F1CBFE068012894
:103380000CD000F0C7B9FFF733FAA0EB09006428AE
:1033900000F20181286810F0020FF4D028689AFA30
:1033A000AAF22169B2FA82F220F0F80091400843B3
:1033B000286013E0C8F80070FFF71AFA8146286801
:1033C00010F0020F0AD0FFF713FAA0EB09006428EF
:1033D00000F2E180286810F0020FF4D1207810F09C
:1033E000080F3AD0DFF85C92DFF85CA26069F8B1B0
:1033F000012806D040F287117FA002F0CFFC60695F
:10340000B0B10120C9F80000FFF7F2F98146DAF8FF
:10341000000010F0020F20D1FFF7EAF9A0EB09003D
:1034200064287DD8DAF8000010F0020FF4D014E020
:10343000C9F80070FFF7DCF98146DAF8000010F0F7
:10344000020F0AD0FFF7D4F9A0EB0900642867D86F
:10345000DAF8000010F0020FF4D1207810F0040F19
:1034600072D0A06800281CBF0128052804D040F2B3
:10347000B11161A002F092FC7448016841F08051E2
:1034800001600068DFF8C8A100F080500090DAF811
:10349000000040F48070CAF80000FFF7A9F98146E7
:1034A000DAF8000010F4807F0AD1FFF7A1F9A0EB51
:1034B000090064286FD8DAF8000010F4807FF4D097
:1034C000DFF890A18AF80070FFF792F98146DAF8E8
:1034D000000010F0020F0AD0FFF78AF9A0EB0900F4
:1034E000B04258D8DAF8000010F0020FF4D1207A78
:1034F0008AF80000A068A0B1FFF77AF98146DAF8EF
:10350000000010F0020F1FD1FFF772F9A0EB0900C5
:10351000B04240D8DAF8000010F0020FF4D013E007
:1035200039E0FFF765F98146DAF8000010F0020F84
:103530000AD0FFF75DF9A0EB0900B0422BD8DAF80A
:10354000000010F0020FF4D1A069002800F0DF8025
:10355000012818BF022807D040F2F51126A002F07A
:103560001DFCA069002877D0DBF8000000F00C00FB
:10357000082872D0A069022810D0C8F86070FFF740
:1035800037F90446286810F0007F65D0FFF730F95E
:10359000001B64287ED90320BDE8F88FE06900286D
:1035A00018BFB0F5800F04D04FF4FF7112A002F0E5
:1035B000F5FB206A3F2804D940F2FF110EA002F06B
:1035C000EDFB606AC038F02804D94FF400710AA0FE
:1035D00002F0E4FBA06A022818BF042808D00628DD
:1035E00018BF082804D040F2012103A002F0D6FB46
:1035F000E06A001F0B2831E02E2E5C44726976656C
:1036000072735C53544D3332463478785F48414C82
:103610005F4472697665725C5372635C73746D3378
:1036200032663478785F68616C5F7263632E630022
:103630000838024000380240043802400238024094
:1036400000004742800E4742743802404038024032
:10365000007000407038024059E05BE005D940F24C
:103660000221AFF26C0002F099FBC8F86070FFF71E
:10367000BFF80646286810F0007F08D0FFF7B8F8BA
:10368000801B642887D8286810F0007FF6D1D4E921
:10369000070100E036E0084347F6C07292FAA2F252
:1036A000616AB2FA82F29140A26A4FF0FF3303EBF3
:1036B00052024FF4403393FAA3F3B3FA83F39A40E0
:1036C000114308434FF0706292FAA2F2E16AB2FA33
:1036D00082F291400143114801600120C8F8600066
:1036E000FFF786F80446286810F0007F0FD1FFF737
:1036F0007FF8001B64283FF64EAF286810F0007F6B
:10370000F5D004E0286810F0007F7FF43FAF002080
:10371000BDE8F88F0120BDE8F88F000004380240B2
:1037200010B54FF0E024042804BF206940F00400E5
:1037300008D020B140F2B31103A002F02FFB2069A2
:1037400020F00400206110BD2E2E5C447269766565
:1037500072735C53544D3332463478785F48414C31
:103760005F4472697665725C5372635C73746D3327
:1037700032663478785F68616C5F636F7274657805
:103780002E630000401EB0F1807F24BF01207047EF
:103790004FF0E0214861054AF02082F8140D002026
:1037A0008861072008610020704700000FE000E0FA
:1037B0007047704770B5044600680D46A0F180411F
:1037C000B1F5803118BFB0F1804F2CD0A0F180410D
:1037D000B1F580611CBFA0F18041B1F5006122D03C
:1037E000A0F18041B1F540611CBFA0F18041B1F56D
:1037F000805118D0A0F18041B1F5A0511CBFA0F1BB
:103800008041B1F582310ED0A0F18041B1F5A031F7
:103810001CBFA0F18041B1F5C05104D040F2546109
:1038200024A002F0BBFA2868002818BF102810D086
:10383000202818BF30280CD0402818BF502808D0A6
:10384000602818BF702804D040F2556119A002F01A
:10385000A5FA6868802818BF002804D040F2566195
:1038600014A002F09BFA94F83800012804BF02204B
:1038700070BD012184F83810022084F839002068D6
:10388000426822F070024260206842682B681A4346
:1038900042602068826822F080028260206882682C
:1038A0006B681A43826084F83910002084F838006D
:1038B00070BD00002E2E5C447269766572735C5395
:1038C000544D3332463478785F48414C5F447269D6
:1038D0007665725C5372635C73746D3332663478F0
:1038E000785F68616C5F74696D5F65782E63000056
:1038F000002804BF0120704710B501680446A1F1FB
:103900008040B0F5803018BFB1F1804F3FD0A1F1B9
:103910008040B0F580601CBFA1F18040B0F5006030
:1039200035D0A1F18040B0F540601CBFA1F18040CE
:10393000B0F580502BD0A1F18040B0F5A0501CBF55
:10394000A1F18040B0F5823021D0A1F18040B0F5E6
:10395000A0301CBFA1F18040B0F5A23017D0A1F17A
:103960008040B0F5A4301CBFA1F18040B0F5C0503C
:103970000DD0A1F18040B0F5E0501CBFA1F1804016
:10398000B0F5005003D0D92118A002F007FAA068C2
:10399000002818BF102808D020281CBF4028602805
:1039A00003D0DA2111A002F0F9F9206900281CBF28
:1039B000B0F5807FB0F5007F03D0DB210BA002F0D3
:1039C000EDF994F8390028B9002084F83800204631
:1039D00000F028F8022084F83900211D206801F049
:1039E0006DFF012084F83900002010BD2E2E5C44AC
:1039F0007269766572735C53544D3332463478780D
:103A00005F48414C5F4472697665725C5372635CD7
:103A100073746D3332663478785F68616C5F746993
:103A20006D2E630008B500682149B0F1804F2CD09D
:103A3000A0F18042B2F5805215D0B2F5806218BF75
:103A400008BD086840F0200008600868002200F007
:103A50002000009005213720FFF780F8BDE80840DE
:103A60003720FFF749B8086840F010000860086880
:103A7000002200F0100000900A213620FFF76EF8B7
:103A8000BDE808403620FFF737B8086840F001006D
:103A900008600868002200F00100009007211C2047
:103AA000FFF75CF8BDE808401C20FFF725B80000D0
:103AB0004038024010B501680446A1F18040B0F5DD
:103AC000803018BFB1F1804F40D0A1F18040B0F5F7
:103AD00080601CBFA1F18040B0F5006036D0A1F13C
:103AE0008040B0F540601CBFA1F18040B0F580502F
:103AF0002CD0A1F18040B0F5A0501CBFA1F18040B6
:103B0000B0F5823022D0A1F18040B0F5A0301CBFCA
:103B1000A1F18040B0F5A23018D0A1F18040B0F5FD
:103B2000A4301CBFA1F18040B0F5C0500ED0A1F16F
:103B30008040B0F5E0501CBFA1F18040B0F50050CE
:103B400004D04FF4B07107A002F028F92068C168D2
:103B500041F00101C1602068016841F0010101608C
:103B6000002010BD2E2E5C447269766572735C5322
:103B7000544D3332463478785F48414C5F44726923
:103B80007665725C5372635C73746D33326634783D
:103B9000785F68616C5F74696D2E630010B50168B1
:103BA0000446A1F18040B0F5803018BFB1F1804FDC
:103BB00040D0A1F18040B0F580601CBFA1F18040F1
:103BC000B0F5006036D0A1F18040B0F540601CBF78
:103BD000A1F18040B0F580502CD0A1F18040B0F52B
:103BE000A0501CBFA1F18040B0F5823022D0A1F1DD
:103BF0008040B0F5A0301CBFA1F18040B0F5A230EC
:103C000018D0A1F18040B0F5A4301CBFA1F18040D4
:103C1000B0F5C0500ED0A1F18040B0F5E0501CBF0F
:103C2000A1F18040B0F5005004D04FF4A4710CA075
:103C300002F0B4F8022084F839002068016A41F2E9
:103C40001112114207D1016A9210114203D1016889
:103C500021F001010160012084F83900002010BD2D
:103C60002E2E5C447269766572735C53544D333208
:103C7000463478785F48414C5F4472697665725C7F
:103C80005372635C73746D3332663478785F686145
:103C90006C5F74696D2E630010B501680446A1F174
:103CA0008040B0F5803018BFB1F1804F40D0A1F115
:103CB0008040B0F580601CBFA1F18040B0F500608D
:103CC00036D0A1F18040B0F540601CBFA1F180402A
:103CD000B0F580502CD0A1F18040B0F5A0501CBFB1
:103CE000A1F18040B0F5823022D0A1F18040B0F542
:103CF000A0301CBFA1F18040B0F5A23018D0A1F1D6
:103D00008040B0F5A4301CBFA1F18040B0F5C05098
:103D10000ED0A1F18040B0F5E0501CBFA1F1804071
:103D2000B0F5005004D040F275110CA002F036F846
:103D30002068C16821F00101C1602068016A41F278
:103D40001112114207D1016A9210114203D1016888
:103D500021F001010160002010BD00002E2E5C4406
:103D60007269766572735C53544D33324634787899
:103D70005F48414C5F4472697665725C5372635C64
:103D800073746D3332663478785F68616C5F746920
:103D90006D2E63002DE9F05F044690F838000D4663
:103DA000012804BF0220BDE8F09F012084F83800FC
:103DB000022084F839002868B0F5805F18BFB0F59C
:103DC000005F14D0002818BF102810D0202818BF7A
:103DD00030280CD0402818BF502808D0602818BFC1
:103DE000702804D040F65B71FEA001F0D7FF686830
:103DF000B0F5004F18BF002808D0022818BF0A28C5
:103E000004D040F65C71F7A001F0C8FFA868002854
:103E100018BFB0F5805F0AD0B0F5005F18BFB0F5ED
:103E2000405F04D040F65D71EEA001F0B7FFE86896
:103E30000F2804D940F65E71EAA001F0AFFF2068B8
:103E4000816821F0770121F47F4181602868F3497E
:103E5000F34AF44BDFF8D0C3F44EF54FDFF8D493B8
:103E6000DFF8D4A3DFF8D483DFF8D4B3DFF8D4E3EA
:103E7000502800F09C8013DC202800F0838107DCB0
:103E8000002800F04181102800F05D8100F0ECB9BD
:103E9000302800F09681402800F0FA8000F0E4B964
:103EA000602800F0C180702835D0B0F5805F04D064
:103EB000B0F5005F55D000F0D7B92068884218BF30
:103EC000B0F1804F22D0904218BF98421ED060457A
:103ED0001CBFA0F18041B1F5805117D0A0F1804105
:103EE000B1F5A05118BFB04210D0B84218BF484534
:103EF0000CD0504518BF404508D0584518BF7045F4
:103F000004D040F66A71B7A001F048FF20688168CC
:103F100021F0070185E02068884218BFB0F1804F8A
:103F20000CD0904218BF984208D0604518BFB042EC
:103F300004D040F67271ABA001F030FF2068D5E9E3
:103F40000121EB68D0F808C042EA03222CF47F4C30
:103F5000114341EA0C0181602068816841F07701DA
:103F60005FE02068884218BFB0F1804F0CD09042CB
:103F700018BF984208D0604518BFB04204D040F640
:103F8000857198A001F00AFF2068D5E90112EB685D
:103F9000D0F808C041EA03212CF47F4C114341EAD8
:103FA0000C0181602068816841F4804139E020681B
:103FB000884218BFB0F1804F18D0904218BF984285
:103FC00014D0604518BFB04210D0B84218BF484561
:103FD0000CD0504518BF404508D0584518BF704513
:103FE00004D040F692717FA001F0D8FE2068EB6803
:103FF0006A68016AD0F820C02CF0010CC0F820C01B
:10400000D0F818C021F00A012CF0F00C4CEA031390
:104010001143836101622068816821F0700141F0E1
:104020005701816000F020B92068884218BFB0F1C4
:10403000804F10D0904218BF98420CD0604518BFF6
:10404000B04208D0B84218BF404504D040F69B713A
:1040500064A001F0A3FE2068EB686968026A22F0A0
:1040600010020262D0F818C0026A2CF4704C4CEABC
:10407000033322F0A00242EA011183610162206849
:10408000816821F0700141F06701816000F0ECB8B7
:104090002068884218BFB0F1804F18D0904218BFF6
:1040A000984214D0604518BFB04210D0B84218BF33
:1040B00048450CD0504518BF404508D0584518BF5A
:1040C000704504D040F6A47146A001F067FE206858
:1040D000EB686A68016AD0F820C02CF0010CC0F8C7
:1040E00020C0D0F818C021F00A012CF0F00C4CEAE6
:1040F00003131143836101622068816821F070011C
:1041000041F047018160AFE02068884218BFB0F1FC
:10411000804F10D0904218BF98420CD0604518BF15
:10412000B04208D0B84218BF404504D040F6AD7147
:104130002CA001F033FE2068816821F0700141F06D
:104140000701816090E02068884218BFB0F1804F7D
:1041500010D0904218BF98420CD0604518BFB042B2
:1041600008D0B84218BF404504D040F6B3711DA036
:1041700001F014FE2068816821F0700141F0170100
:10418000816071E02068884218BFB0F1804F10D084
:10419000904218BF98420CD0604518BFB04208D07A
:1041A000B84218BF404504D040F6B9710DA001F0E7
:1041B000F5FD2068816821F0700141F027018160E0
:1041C00052E02068884218BFB0F1804F45D090423D
:1041D00018BF984241D0604518BFB0423DD0B842A8
:1041E00032E000002E2E5C447269766572735C5377
:1041F000544D3332463478785F48414C5F4472699D
:104200007665725C5372635C73746D3332663478B6
:10421000785F68616C5F74696D2E63000000014017
:104220000004004000080040000C00400004014071
:104230000040014000440140004801400018004097
:10424000001C00400020004018BF404505D040F64B
:10425000BF71AFF2700001F0A1FD2068816821F00C
:10426000700141F037018160012084F8390000209D
:1042700084F83800BDE8F09F704770B504460068C8
:1042800001694FF0000511F0020F1CBFC16811F069
:10429000020F13D06FF00201016101202076206827
:1042A000806910F0030F204602D0FFF7E5FF04E01D
:1042B00000F099F8204600F097F82576206801690B
:1042C00011F0040F1CBFC16811F0040F13D06FF080
:1042D00004010161022020762068806910F4407F8B
:1042E000204602D0FFF7C8FF04E000F07CF820462B
:1042F00000F07AF825762068016911F0080F1CBFDC
:10430000C16811F0080F13D06FF00801016104209B
:1043100020762068C06910F0030F204602D0FFF716
:10432000ABFF04E000F05FF8204600F05DF8257672
:104330002068016911F0100F1CBFC16811F0100F47
:1043400013D06FF010010161082020762068C06949
:1043500010F4407F204602D0FFF78EFF04E000F00B
:1043600042F8204600F040F825762068016911F0F7
:10437000010F1CBFC16811F0010F05D06FF00101E2
:104380000161204600F032F82068016911F0800FC9
:104390001CBFC16811F0800F05D06FF08001016172
:1043A0002046FFF705FA2068016911F0400F1CBF95
:1043B000C16811F0400F05D06FF040010161204647
:1043C00000F034F82068016911F0200F1ABFC168AD
:1043D00011F0200F70BD6FF0200101612046BDE893
:1043E0007040FFF7E6B970477047000010B50068ED
:1043F000B0F1804F18BF10BD012003F0FBF9094850
:10440000006880470446002003F0F4F9002C08BF40
:1044100010BD4FF0805004490860BFF34F8FBFF3C9
:104420006F8F10BD3002002004ED00E0704710B522
:1044300004460068416921F08001416120684169BA
:1044400021F040014161206B002818BFFDF7CAFC34
:10445000606B002818BFFDF7C5FC012084F8390007
:10446000002010BD02F03EBF90F83900704738B50B
:10447000016804460868CA6810F0010F02F48072EF
:1044800018BF002A06D0086848680090E06B40F02A
:104490000100E06308684A69C0F3400002F00102CD
:1044A000002818BF002A06D0086848680090E06B12
:1044B00040F00400E0630868C0F380024869002A05
:1044C00000F0010018BF002806D008684868009076
:1044D000E06B40F00200E06308684A69C0F3C00086
:1044E00002F00102002818BF002A06D008684868B8
:1044F0000090E06B40F00800E0630868C0F34012F1
:10450000C868012500F02000002A18BF00284AD002
:1045100094F839202046222A18BF322A43D18268D3
:10452000B2F5805F0FD00269E2B1496801F07F0205
:10453000816A4B1C83620A70C18D491E0904090CF3
:10454000C18515D02FE00369826A4968002B14BF2A
:10455000C9B2C1F308011180816A14BF491C891CCA
:104560008162E9E74A68816A4B1C83620A70E3E76B
:104570000168CA6822F02002CA6090F83910322916
:1045800004BF122180F839100BD00168CA6822F4E8
:104590008072CA6001684A6922F001024A6180F8AB
:1045A000395000F057FB20680168C268C1F3C011A0
:1045B00002F08002002918BF002A2DD094F839108B
:1045C000122918BF322927D1A168B1F5805F0CD01C
:1045D000206A421C2262017820684160E08C401E03
:1045E0000004000CE08417D10CE0216A0988C1F3B3
:1045F0000801416020690028206A14BF411C811C09
:104600002162EBE72068C16821F08001C160206869
:10461000C16841F04001C16021680868CA68C0F300
:10462000801002F04002002818BF002A1AD0CA6881
:10463000204622F04002CA6094F83910322904BFA3
:10464000222180F839100BD00168CA6822F48072E8
:10465000CA6001684A6922F001024A6180F8395053
:1046600000F046FBE06B002808BF38BD84F83950E5
:104670002046FFF7F7FE38BD002804BF0120704731
:1046800070B504468069424A00284249424BDFF82F
:104690000CC120681CD0904218BF88420AD09842B2
:1046A00018BF604506D0FC213DA001F077FBA06952
:1046B00000282ED0A069B0F5807F1CBFB0F5007F28
:1046C000B0F5407F25D0FD2135A001F067FB20E04B
:1046D000904218BF88421CD098421CBFA0F1804174
:1046E000B1F5984115D0A0F18041B1F5A04118BFB6
:1046F00060450ED0A0F18041B1F5F0411CBFA0F1A2
:104700008041B1F5F84104D040F2011124A001F03C
:1047100045FBA068002818BFB0F5805F04D040F2C8
:1047200003111FA001F03AFBE069002818BFB0F5A3
:10473000004F04D04FF4827119A001F02FFB94F8C0
:104740003900002520B984F83850204600F046F89A
:10475000022084F839002068C16821F40051C1604A
:10476000204601F065F92068016921F4904101615A
:104770002068416921F02A0141612068C16841F443
:104780000051C160E563012084F83900002070BD4C
:104790000010014000440040004800400014014067
:1047A0002E2E5C447269766572735C53544D3332BD
:1047B000463478785F48414C5F4472697665725C34
:1047C0005372635C73746D3332663478785F6861FA
:1047D0006C5F756172742E63000000002DE9F04F6C
:1047E0000446006802210025DFF880E30122032748
:1047F000DF4B4E02A0F1804B87B04FF0080C4FF01A
:1048000000694FF4807A4FF04008BBF5984B59D0BF
:10481000BBF5806B7DD0A0F180434FF0070BB3F563
:10482000883300F0DF8013F54C4300F01881B3F5B6
:10483000806300F05D81B3F54C431CBF07B0BDE859
:10484000F08FCC48036843F020030360006800F059
:10485000200005904FF484408DE887106946C648D3
:10486000FDF7A8FDC64FC5484FF020693860C7E97D
:104870000195C7E903567D61C7E9065A3D6238468E
:104880007D62FDF7CFFB6763BC635837BD48C7F84F
:104890000880C7E903567D61BD61FD613D627D62AF
:1048A000C7E900093846FDF7BDFB276300220A214E
:1048B0004720BC63FEF752F94720FEF71DF907B009
:1048C000BDE8F08FDEF8000040F40020CEF80000D4
:1048D000DEF8000000F4002005904FF440608DE801
:1048E000871069461846FDF765FDA84FA648386051
:1048F000C7E90195C7E903567D61C7E9065A3D62DC
:1049000038467D62FDF78EFB6763BC63A04858376D
:1049100000E016E0C7F80880C7E903567D61BD6175
:10492000FD613D627D62C7E900093846FDF77AFB0B
:10493000276300220A213420BC63FEF70FF93420DC
:10494000BBE7DEF8000040F48010CEF80000DEF88F
:104950000000BB4600F4801005904FF4805000909A
:10496000022001900120CDE9020B67466946CDF88F
:1049700010C01846FDF71EFD042000900220019093
:104980000120CDE9020B694604978248FDF712FD2C
:10499000824F81483860C7E90195C7E903567D61B8
:1049A000C7E9065A3D6238467D62FDF73BFB676307
:1049B000BC6358377A48C7F80880C7E903567D6159
:1049C000BD61FD613D627D62C7E900093846FDF7C2
:1049D00029FB276300220A213520BC63FEF7BEF8BD
:1049E00035206AE76348036843F0100303600068FA
:1049F00000F0100005904FF4C0608DE8870869460C
:104A00006848FDF7D7FC694F67484FF4803A386033
:104A1000C7E90195C7E903567D61BD61C7E9075A3A
:104A200038467D62FDF7FEFA6763BC63583760481D
:104A3000C7F80880C7E903567D61BD61C7E9075A19
:104A40007D62C7E900093846FDF7ECFA27630022CA
:104A50000A212520BC63FEF781F825202DE7DEF82A
:104A6000000040F40030CEF80000DEF8000001AB9A
:104A700000F40030059060200090022083E8850853
:104A800069464448FDF796FC8020009001AB022067
:104A900083E8A10869463F48FDF78CFC464F45482E
:104AA0003860C7E90195C7E903567D61C7E9065A31
:104AB0003D6238467D62FDF7B5FA6763BC635837DF
:104AC0003E48C7F80880C7E903567D61BD61FD61B6
:104AD0003D627D62C7E900093846FDF7A3FA276306
:104AE00000220A212620BC63FEF738F82620E4E6DF
:104AF000DEF8000040F48020CEF80000DEF8000070
:104B000000F4802005904FF440708DE887086946D6
:104B10002048FDF74FFC2B4F29483860C7E9019525
:104B2000C7E903567D61C7E9065A3D6238467D6292
:104B3000FDF778FA6763BC6358372348C7F80880E5
:104B4000C7E903567D61BD61FD613D627D62C7E9D4
:104B500000093846FDF766FA276300220A2127205C
:104B6000BC63FDF7FBFF2720A7E6000040380240AA
:104B70000008024044380240001802402864024005
:104B800044090020A064024040600240D405002097
:104B900070600240000C0240106002408406002059
:104BA000B860024000000240406402403407002028
:104BB000B864024088600240E4070020A060024020
:104BC00028600240940800205860024037B504462F
:104BD00090F839001346012818BF122831D1019AE4
:104BE000002A11BF002B012003B030BD94F838001B
:104BF000012826D0012084F83800A262A385002570
:104C0000E56394F8390012280CBF3220222084F882
:104C10003900616B0C48C863616B0C480864616BB8
:104C20000B4888642068011D606BFDF761FB2068FC
:104C3000416941F04001416184F8385003B00020DF
:104C400030BD03B0022030BDB7590008ED5900084F
:104C5000995900087047704737B5044690F83900F5
:104C6000012818BF222839D10199002911BF002A33
:104C7000012003B030BD94F8380001282ED0012067
:104C800084F838002162A284E2840025E56394F868
:104C9000390022280CBF3220122084F83900236BFF
:104CA0001048D863236B10481864236B0F4898642E
:104CB00020681346D4F830C0021D6046FDF718FB8B
:104CC00021686FF0400008602068416941F0800170
:104CD000416184F8385003B0002030BD03B0022099
:104CE00030BD0000F7590008275A000899590008FC
:104CF0000068144A811A904221D00EDCA0F5884049
:104D0000B0F1804015D0B0F5806F15D0B0F5006FD0
:104D100018BF70470C4802F077BBB1F5404F06D082
:104D2000B1F5444F18BF7047084802F06DBB02F060
:104D300095B9074802F068BB064802F065BB064813
:104D400002F062BB00500040D00D00202011002076
:104D5000800A0020280C0020780F002070470000F7
:104D600010B5064C002204212046FDF70BFD20461D
:104D70000022BDE810400821FDF704BD00100240EC
:104D800010B5104884B00E4901604FF440314160C5
:104D90000021816001618161416201630124C16080
:104DA000C0E907144461FBF7E5FF0420CDE90004E6
:104DB0000720029069460348FBF7DAFE04B010BDF5
:104DC000002101401803002010B5104884B00E499E
:104DD00001604FF4403141600021816001618161D7
:104DE000416201630124C160C0E907144461FBF71B
:104DF000C1FF0420CDE90004072002906946034862
:104E0000FBF7B6FE04B010BD002201405C03002099
:104E10000B480A494FF4202201600C214160002117
:104E20008160C0E903124FF48012C0E90521C1611D
:104E3000016241628162C162FCF76CBC00640040A7
:104E4000F40900200C480B494FF4202201600C218A
:104E5000416000218160C0E903124FF48012C0E973
:104E600005210122C161C0E908128162C162FCF71B
:104E700051BC000000680040340A0020394808B5E1
:104E8000016841F480010160016801F48001009132
:104E9000016841F4001101600068002200F4001074
:104EA000009005210B20FDF759FE0B20FDF724FE95
:104EB000002205210C20FDF751FE0C20FDF71CFE01
:104EC000002205210D20FDF749FE0D20FDF714FEFF
:104ED000002205210E20FDF741FE0E20FDF70CFEFD
:104EE000002205210F20FDF739FE0F20FDF704FEFB
:104EF000002205211020FDF731FE1020FDF7FCFDFA
:104F0000002205211120FDF729FE1120FDF7F4FDF7
:104F1000002205212F20FDF721FE2F20FDF7ECFDBB
:104F2000002205213920FDF719FE3920FDF7E4FDA7
:104F3000002205213A20FDF711FE3A20FDF7DCFDA5
:104F4000002205214520FDF709FE4520FDF7D4FD8F
:104F5000002205214620FDF701FEBDE8084046205D
:104F6000FDF7CABD3038024000B5084885B090E86A
:104F70000F108DE80F100021684601F092FD0449E2
:104F8000086002F0FFF905B000BD0000C08F000806
:104F9000040000202DE9F047634886B0016841F025
:104FA00010010160016801F010010591016841F0F4
:104FB00004010160016801F004010591016841F0FC
:104FC00020010160016801F020010591016841F0B4
:104FD00080010160016801F080010591016841F0E4
:104FE00001010160016801F001010591016841F0D2
:104FF00002010160016801F002010591016841F0C0
:1050000040010160016801F040010591016841F033
:10501000080101600068012500F0080005904FF2CA
:105020008C1000900024CDE90154DFF8008169461E
:1050300040460394FDF7BEF94020CDE900046946DF
:1050400040460294FDF7B6F946F20800CDE90004A7
:10505000374F694638460294FDF7ACF9CDE9005464
:10506000DFF8D090694648460294FDF7A3F902267E
:105070000096CDE90154694648460394FDF79AF934
:1050800041F201000090CDE90154DFF8AC9069468F
:1050900048460394FDF78EF94FF4C0500090CDE9D7
:1050A0000154694638460394FDF784F90327CDE996
:1050B0000074DFF888A0694650460294FDF77AF93B
:1050C0004FF42060CDE90004694602954046FDF7A3
:1050D00071F9A802CDE9000602940520CDE903701C
:1050E00069464846FDF766F940F204400090CDE974
:1050F0000154694650460394FDF75CF9280200907C
:10510000CDE9015469460E480394FDF753F9182080
:105110000090CDE9015469460A480394FDF74AF925
:1051200006B0BDE8F08700003038024000100240B1
:10513000001402400008024000040240001802402F
:1051400000000240000C0240094808494FF4804228
:1051500001600849416000218160C0E9031241619A
:105160008161C1610162FDF749BB00000058004048
:10517000DC020020A086010010B50E4886B04FF07A
:1051800080410024C0E900144FF46161C0E902418C
:105190000461FEF7ADFB4FF480500090694605486E
:1051A000FEF7F8FD049404A902480594FEF702FBFB
:1051B00006B010BDA003002010B50B4882B009490D
:1051C000016054210024C0E9011442F21071C16051
:1051D000FEF78EFB0094694603480194FEF7EAFA55
:1051E00002B010BD00100040DC03002010B50A48DA
:1051F00082B00849016054210024C0E90114C46050
:10520000FEF776FB0094694603480194FEF7D2FA54
:1052100002B010BD001400401804002008480749DF
:1052200001604FF496414160002181600C22C16011
:10523000C0E904128161C161FFF71EBA004C004051
:10524000540400200848074901604FF4964141602A
:10525000002181600C22C160C0E904128161C1613A
:10526000FFF70ABA0050004094040020084807499C
:10527000016008494160002181600C22C160C0E9E1
:1052800004128161C161FFF7F7B90000001001400D
:10529000D4040020C0C62D000848074901604FF41F
:1052A00096414160002181600C22C160C0E9041276
:1052B0008161C161FFF7E0B900440040140500209E
:1052C0000848074901604FF4964141600021816020
:1052D0000C22C160C0E904128161C161FFF7CCB941
:1052E00000480040540500200848074901604FF479
:1052F000E1314160002181600C22C160C0E90412EB
:105300008161C161FFF7B8B9001401409405002024
:10531000FEE700002DE9F04F544885B05249402681
:10532000C0E9001652494FF0040CC0E9021C0022EB
:1053300002744D4A4FF0800EC0E9052E0527C0E9E2
:105340000717002280F82420474A82624FF006089F
:105350009215C0F83480C0E90B21002280F8382073
:10536000414AC2634FF007095215C0F84890C0E99E
:105370001021002280F84C203F4B0024C0E9163455
:105380003C4A0125C0E9142580F860400224C0E9A8
:105390001924C0E91B354FF0000A80F874A0C0E959
:1053A0002034C0E91E2C80F888A00324C0E92534ED
:1053B0004FF0080AC0E9232A002480F89C404FF0EF
:1053C000100BC0E9282BC0E92A3C80F8B040C0E9A6
:1053D0002F372024C0E92D24002780F8C470C0E9AD
:1053E0003226C0E9343880F8D870C0E9372EC0E9D9
:1053F000393980F8EC700C23C0E93E131F4AC0E92C
:105400003C2C80F80071C0E9412A0D22C0E943120A
:10541000002280F81421144AC0E9462B0E22C0E96C
:105420004812002280F828210F4AC0F82C21C0E938
:105430004C410F21C0F83811002180F83C111806AA
:1054400000F02AF80E48FEF735FB00200095039087
:10545000CDE90100034680220AA10E4803F0C2FAFA
:1054600005B0BDE8F08F000000140240DC130020FE
:105470005C030020000002401803002000080240E6
:10548000DC0300204D66756E6320706F6C6C696E76
:1054900067000000015500082DE9F0430024DFF803
:1054A0005C8085B00546264603274FF0010904EBD2
:1054B000840008EB800105F003020B7C93420BD0C3
:1054C0000A74496882B1CDE90016CDE9029758F80F
:1054D00020006946FCF76EFF601CAD08C4B2102CBA
:1054E000E5D305B0BDE8F083CDE90017029658F882
:1054F00020006946FCF75EFFEEE70000DC130020A9
:1055000086B0012001900720029069461A48FBF7F7
:105510002FFB03F067FB194F194E0490002505EB94
:10552000850006EB8004207CE0B9E06800906946C5
:10553000A068FBF71DFBA068FBF766FE0A21A068C8
:10554000FBF722FE58B9A068FBF70EFC152806D120
:10555000A068FBF70CFC07EB4501A1F83F00A06831
:10556000FBF7D4FE681CC5B2102DD8D34FF47A7166
:1055700004A802F057FAD1E75C030020BC12002017
:10558000DC1300202DE9F0410024DFF87C801F4E61
:10559000012704EB840008EB8005297C00292DD02D
:1055A000697CA974A98858F8200089B2FDF7BEF873
:1055B0006874002803BFB6F83D1007FA04F291435F
:1055C000B6F83D201CBF07FA04F11143A6F83D10C0
:1055D000297C022906D0032902BF0028A87C0128C3
:1055E00005D00BE0012804BFA87C002806D106EBFB
:1055F0008400D0F85F10491CC0F85F10601CC4B272
:10560000102CC6D3BDE8F081DC130020BC120020B2
:10561000FDF7ECBD012001F02DFAFBE71CB511A050
:105620000068019000BF00200F4B01220A2100906A
:1056300000F01AFF88B9032301AA0121342001F0E8
:105640001DF930B900F0AEFC18B900BF00F070FFD2
:10565000FCE700F095FC00F081FC322002F0ACF990
:10566000E1E70000AABBCC00C0C62D0010B5FDF7D5
:10567000EDF9BDE8104001F00ABA0000224810B56B
:10568000016892B041F080510160006800F08050E4
:1056900011901E48016841F44041016000680224F5
:1056A00000F4404011900120009001908005CDE968
:1056B0000640062008909020CDE9090404200B90B4
:1056C0006846FDF7A5FD0D20CDE90C0400200E90E5
:1056D0004FF4A0500F90E002109004210CA8FDF7A9
:1056E000D9FAFDF7D5FC4FF47A71B0FBF1F0FEF773
:1056F00049F80420FEF714F800220F21501EFDF790
:105700002DFA12B010BD0000403802400070004079
:105710000F48016841F4700101600E48016841F0D2
:10572000010101600C4A00211160026822F410227C
:1057300022F080720260031D084A1A60026822F497
:1057400080220260064801600649580608607047DA
:1057500088ED00E000380240083802401030002494
:105760000C38024008ED00E00148FEF786BD00005D
:10577000A003002010B50448FEF77FFDFFF702FFED
:10578000BDE81040FBF75CB8DC0300202DE9F041D8
:1057900086B04548FEF780FA43496FF0010009687A
:1057A0000861424800250560414C05270121237806
:1057B00011224048404E4FF02D08062B24BF06B062
:1057C000BDE8F081DFE803F020032C394660029544
:1057D000CDE9001269460546FCF7ECFD00220121E7
:1057E0002846FCF7CFFF0F2030602F48FEF762F904
:1057F0006078002804BF06B0BDE8F081012806D01B
:10580000022804BF0420207006B0BDE8F081A07813
:10581000002814BF03200220207006B0BDE8F081EC
:1058200000220121FCF7AEFFC6F800801E48FEF7FB
:1058300041F9277006B0BDE8F08101221146FCF75E
:10584000A1FFC6F800801848FEF734F9277006B0AB
:10585000BDE8F081CDE90015029569460546FCF7E3
:10586000A9FD012211462846FCF78CFF012128469C
:10587000FCF75CFFA070C6F800800B48FEF71AF931
:10588000277006B0BDE8F081CDE9001202956946A7
:105890000646FCF78FFD012211463046FCF772FFE9
:1058A000257006B0BDE8F0811804002024140040E3
:1058B00086010020000802402C140040F0B4026869
:1058C0002A4BDFF8ACC02B4D2B4E2C4C984218BF06
:1058D000B0F1804F07D0604518BFA84203D0B04256
:1058E00018BFA04203D14F6822F070023A43984299
:1058F00018BFB0F1804F25D0604518BFA84221D015
:10590000B04218BFA0421DD0A0F1804CBCF5A03C15
:105910001CBFA0F1804CBCF5A23C13D0A0F1804C80
:10592000BCF5A43C1CBFA0F1804CBCF5C05C09D008
:10593000A0F1804CBCF5E05C1CBFA0F1804CBCF534
:10594000005C05D1D1F80CC022F440724CEA02028E
:1059500002608A68C2620A688262984212BFA042EC
:105960000969016301214161F0BC704700000140F9
:105970000004004000080040000C0040000401400A
:105980000148FEF774BD0000540400200148FEF7F2
:105990006EBD00009404002010B5806B0021C1850D
:1059A000C184012180F83910C16B41F01001C1633D
:1059B000FEF758FD10BD10B50146806B09680968F7
:1059C00011F4807F02D0FFF745F910BD0021C18599
:1059D00001684A6922F040024A6190F83910322980
:1059E00014BF0121122180F83910ECE710B5806B4B
:1059F000FFF731F910BD10B50146806B09680968E1
:105A000011F4807F02D0FFF773F910BD0021C1842B
:105A100001684A6922F080024A610068C16841F069
:105A20004001C16010BD10B5806BFFF797F910BD44
:105A30002DE9F041044640689649884204D340F27B
:105A4000367195A000F0AAF9E068002818BFB0F5FB
:105A5000005F04D040F237718FA000F09FF92069F9
:105A600000281CBFB0F5806FB0F5C06F04D04FF4B4
:105A7000E76189A000F092F960694FF6F37108427E
:105A800000D120B940F2397183A000F087F9206875
:105A90000169E26821F44051114301612068C16845
:105AA0002369A268D4F81CC01A43636921F4037106
:105AB00043EA0C0321F414411A431143C1602068E6
:105AC0004169A26921F4407111434161E0693226C4
:105AD000B0F5004F7F4A8049804D206837D088421A
