:020000040800F2
:10000000289000208902000891020008930200084D
:1000100095020008970200089902000800000000FD
:10002000000000000000000000000000C101000806
:100030009D0200080000000015020008953F00081E
:10004000A3020008A3020008A3020008A3020008FC
:10005000A3020008A3020008A3020008A3020008EC
:10006000A3020008A3020008A3020008A3020008DC
:10007000A3020008A3020008A3020008A3020008CC
:10008000A3020008A3020008A3020008A3020008BC
:1000900001060008A3020008A3020008A30200084A
:1000A000A3020008A3020008A3020008A30200089C
:1000B000B1400008A3020008A3020008A302000840
:1000C000A3020008A3020008A3020008A30200087C
:1000D000A3020008E1460008F146000801470008B5
:1000E000A3020008A3020008A3020008A30200085C
:1000F000A3020008A3020008A3020008A30200084C
:10010000A3020008A3020008A3020008A30200083B
:100110004142000851420008C1400008A302000803
:10012000A3020008A3020008A3020008A30200081B
:10013000A3020008A3020008A3020008A30200080B
:10014000A3020008A3020008A3020008A3020008FB
:10015000A3020008A3020008A30200081147000838
:10016000A3020008A3020008A3020008A3020008DB
:10017000A3020008A3020008A30200080000000078
:10018000A3020008A3020008A3020008A3020008BB
:10019000A3020008A3020008A3020008A3020008AB
:1001A000A3020008A3020008A3020008DFF80CD095
:1001B00000F0AEF800480047D9550008289000200C
:1001C000294B19680868B0E8F04F80F30988BFF33D
:1001D0006F8F4FF0000080F311887047000000001F
:1001E00006480068006880F3088862B661B6BFF30D
:1001F0004F8FBFF36F8F00DF00BF00BF08ED00E03F
:10020000DFF80C00016841F470010160704700BF25
:1002100088ED00E0EFF30980BFF36F8F124B1A688F
:100220001EF0100F08BF20ED108A20E9F04F10607B
:1002300008B44FF0500080F3118806F05FFC4FF0D7
:10024000000080F3118808BC19680868B0E8F04F16
:100250001EF0100F08BFB0EC108A80F30988BFF3BE
:100260006F8F704700BF00BF10020020EFF31180B6
:100270004FF0500181F31188704780F31188704767
:10028000EFF30580704700000648804706480047A6
:10029000FEE7FEE7FEE7FEE7FEE7FEE7FEE7FEE736
:1002A000FEE7FEE74D400008AD01000840EA01030B
:1002B0009B0703D009E008C9121F08C0042AFAD21C
:1002C00003E011F8013B00F8013B521EF9D27047E0
:1002D000D2B201E000F8012B491EFBD27047002288
:1002E000F6E710B513460A4604461946FFF7F0FF35
:1002F000204610BD30B504460020034600E05B1CDC
:10030000934203D2E05CCD5C401BF8D030BD0000CE
:10031000064C074D06E0E06840F0010394E8070052
:1003200098471034AC42F6D3FFF744FFA87F00088B
:10033000C87F000870B58C1810F8015B15F0070332
:1003400001D110F8013B2A1106D110F8012B03E06E
:1003500010F8016B01F8016B5B1EF9D12B0705D476
:100360000023521E0DD401F8013BFAE710F8013BBF
:10037000CB1A921C03E013F8015B01F8015B521EDB
:10038000F9D5A142D8D3002070BD00005A490968B0
:1003900021F44031594AC2F804131146D1F804132C
:1003A00042681143544A11600168496821F4807120
:1003B0000268516001684A68016942EA01210268E5
:1003C00051600168496821F040710268516001681C
:1003D000496882681143026851600168896821F4A4
:1003E00000610268916001688968C268114302680F
:1003F0009160434AC16A914218D00168896821F02E
:1004000070610268916001688968C26A114302687C
:1004100091600168896821F040510268916001682B
:100420008968026B1143026891600BE0016889687A
:1004300021F07061026891600168896821F0405183
:10044000026891600168896821F002010268916088
:1004500001688A68816942EA410102689160416AE3
:10046000D1B10168496841F40061026851600168D6
:10047000496821F460410268516001684A68816AF4
:10048000491E4FF4604393FAA3F3B3FA83F3994000
:100490000A4301684A6005E00168496821F4006187
:1004A000026851600168C96A21F470010268D16272
:1004B0000168CA6A018C491E42EA01510268D16290
:1004C0000168896821F400710268916001688A6896
:1004D000C16942EA4121026891600168896821F49A
:1004E00080610268916001688A68416942EA8121FD
:1004F0000268916070470000042301400020014021
:100500000100000F70B504466068C0F30F25002697
:1005100000235A1E19463048006806F078FE284627
:100520004FF6E962A91A954220D00CDCA0F5704084
:10053000A0F10300A8B1012821D0A0F6BD6088B3C6
:1005400025283FD12FE001291ED0082904D00929F0
:1005500033D0132936D10DE0B4F815001F490884B3
:1005600031E0A17D1D4880F822102CE01B48A169D4
:10057000416228E0617D194880F8281023E0B4F832
:100580001710164841851EE0207D002809DD207DDA
:10059000082806DCB4F81510227D10482C3020F80D
:1005A000121010E003E00D486169C1630BE0B4F87C
:1005B00015100A48A0F8401005E0A18A0748A0F8E5
:1005C000421000E000BF00BF00231A46194602484F
:1005D000006806F005FF70BDB0010020C0060020D5
:1005E0008AB009E000235A1E01A90448006806F0F9
:1005F0000EFE01A8FFF786FFF4E70000B801002017
:1006000010B5024800F0F4FD10BD000040060020C7
:1006100088B007F0C3F807901F49C1F830D040F206
:10062000213000904FF4807001900020039004204E
:100630000290012004903A208DF81400FF218DF8DB
:100640001510AA218DF81610FF218DF81710AA2178
:100650008DF81810FF218DF81910AA218DF81A10A5
:10066000FF218DF81B1015E00C4801900A210A4863
:1006700001F08EF84FF4C87107A806F0D3F80848C7
:1006800001900A21044801F083F84FF4C87107A8CB
:1006900006F0C8F8E8E70000800600201000FA180D
:1006A0001000FB1800B58FB0002005900690079051
:1006B000089009900A900B9001200C900D900E204C
:1006C0000E9005A9134800F0F5FC13481149486342
:1006D000002224210A2006F062FD10490860002053
:1006E0000123CDE900300290034680220CA1039043
:1006F0000F4806F0A7FF00200523CDE90030029047
:10070000034680220BA103900E4806F09BFF0FB01A
:1007100000BD000040060020BC070020B8010020FA
:1007200043414E31204C697374656E696E670000F9
:10073000E105000843414E322053656E64696E67DF
:10074000000000001106000870B504460D46206840
:1007500000F5D87000EB0510006800F00400616B34
:100760008860606B806860B9206800F5D87000EB25
:100770000510006840F2FF7101EA5050616B08609B
:100780000BE0206800F5D87000EB051000686FF0F2
:10079000604101EAD000616B4860206800F5D870C4
:1007A00000EB0510006800F00200616BC860206873
:1007B00000F5D87000EB0510406800F00F00616B89
:1007C0000861206800F5D87000EB05104068C0F3A0
:1007D0000720616BC861206800F5D87000EB051038
:1007E0008068616B0875206800F5D87000EB051013
:1007F0008068010A606B4175206800F5D87000EBD5
:1008000005108068010C606B8175206800F5D87058
:1008100000EB05108068000E616BC875206800F55C
:10082000D87000EB0510C068C1B2606B017620681B
:1008300000F5D87000EB0510C068010A606B4176C6
:10084000206800F5D87000EB0510C068010C606BE3
:100850008176206800F5D87000EB0510C068000EA6
:10086000616BC87665B92068C06840F020002168D7
:10087000C8602068406920F00200216848610BE0F0
:100880002068006940F02000216808612068406904
:1008900020F010002168486194F8380022281DD10A
:1008A0002068406920F480702168486120684069B0
:1008B00020F40070216848612068406920F480605D
:1008C000216848612068406920F40060216848611F
:1008D0002068406920F400402168486194F838009D
:1008E000322803D1122084F8380002E0012084F875
:1008F0003800204600F028FF002070BD10B50446E7
:100900002068406920F001002168486194F83800AF
:1009100012281DD12068406920F480702168486148
:100920002068406920F400702168486120684069AF
:1009300020F48060216848612068406920F40060EC
:10094000216848612068406920F4004021684861BE
:1009500094F83800322803D1222084F8380002E0CD
:10096000012084F83800204601F042F8002010BD34
:10097000704700000748084908604015486000209B
:1009800008720448C860C114034801610021017560
:100990007047000000100240F808002010B5002445
:1009A00057E004EB44002C4901EB8000407A04EB53
:1009B0004401294A02EB8101887204EB4402264B70
:1009C00003EB8202928891B204EB440253F82200B6
:1009D00001F022F904EB44011F4A02EB8101487245
:1009E00004EB4400114601EB8000007AA0B904EB4F
:1009F000440001EB8000407A012828D104EB440038
:100A000001EB8000807A10BB144850F82400401C91
:100A1000124941F824001AE004EB44000E4901EBAE
:100A20008000007A98B904EB440001EB8000407A22
:100A300068B904EB440001EB8000807A012806D1FC
:100A4000064850F82400401C044941F82400601C6A
:100A5000C4B2022CA5DB10BDF808002060070020FE
:100A600010B500210AE000F0030201EB4103054C40
:100A700004EB83031A7280104A1CD1B20229F2DB04
:100A800010BD0000F808002010B5044604F0010273
:100A90004FF40061174801F0CBF804F002024FF464
:100AA0008051144801F0C4F804F004028021124877
:100AB00001F0BEF804F008024FF480710E4801F016
:100AC000B7F804F0100201210C4801F0B1F804F06D
:100AD000200204210A4801F0ABF804F04002012191
:100AE000074801F0A5F804F080020221044801F053
:100AF0009FF810BD001402400010024000040240A4
:100B0000001802401FB500200123CDE900300290FB
:100B10000346802202A10390064806F093FD1FBD04
:100B2000446973637220696E70757420706F6C6CA9
:100B3000696E6700390B0008ADE0642005F03AFEED
:100B40000821554801F068F80446012005F032FEFE
:100B50000821514801F060F8A0421BD100235A1E21
:100B600019464E48006806F052FB4D48B0F89C000C
:100B700020F001004A49A1F89C000846B0F89C000A
:100B80002043A1F89C0000231A46194643480068F8
:100B900006F026FC4021434801F03EF804460120BF
:100BA00005F008FE40213F4801F036F8A0421CD174
:100BB00000235A1E19463948006806F028FB3848B9
:100BC000B0F89C0020F002003549A1F89C000846CE
:100BD000B0F89C0040EA4400A1F89C0000231A46AB
:100BE00019462E48006806F0FBFB01212E4801F053
:100BF00013F80446012005F0DDFD01212A4801F02B
:100C00000BF8A0421CD100235A1E19462348006845
:100C100006F0FDFA2248B0F89C0020F004002049BC
:100C2000A1F89C000846B0F89C0040EA8400A1F8B6
:100C30009C0000231A4619461848006806F0D0FBAD
:100C40000221194800F0E8FF0446012005F0B2FD3A
:100C50000221154800F0E0FFA0421CD100235A1EDB
:100C600019460E48006806F0D2FA0D48B0F89C000C
:100C700020F008000A49A1F89C000846B0F89C0042
:100C800040EAC400A1F89C0000231A461946034814
:100C9000006806F0A5FB50E700140240B4010020F4
:100CA000C0060020001002400018024018B502469D
:100CB0000020009000BF92F83C00012801D10220E2
:100CC00018BD012082F83C0000BF0868092816D929
:100CD0001068C0680B780A3B03EB43040723A3406A
:100CE00098431368D8600B780A3B03EB430388688A
:100CF00098401368DB6818431368D86013E01068E5
:100D000000690B7803EB43040723A340984313685F
:100D100018610B7803EB43038868984013681B69DC
:100D20001843136818614868072817D21068406B89
:100D30000B795B1E03EB83041F23A34098431368C6
:100D40005863088880B20B795B1E03EB83039840DD
:100D500013685B6B18431368586331E048680D28CB
:100D600017D21068006B0B79DB1F03EB83041F2382
:100D7000A340984313681863088880B20B79DB1F7F
:100D800003EB8303984013681B6B184313681863C5
:100D900016E01068C06A0B790D3B03EB83041F2338
:100DA000A34098431368D862088880B20B790D3B42
:100DB00003EB830398401368DB6A18431368D86217
:100DC0001C4B1068984208D10868122805D11A48AF
:100DD000006840F48000C3F80403164B1068984282
:100DE00020D1164B0868984202D00868112819D102
:100DF0001148006840F400000F4B18600F4B086862
:100E000098420FD10E4800680E4BB0FBF3F000EB98
:100E100080004000009002E00098401E0090009882
:100E20000028F9D100BF002082F83C0000BF00BFBD
:100E300046E700000020014004230140120000109A
:100E4000D801002040420F00014691F83D00704754
:100E500001460868C06C704710B504460CB9012003
:100E600010BD1049E06A884200D000BF94F83D00F0
:100E700028B9002084F83C00204600F015F8022034
:100E800084F83D002046FFF781FA0020206401200D
:100E900084F83D0000BF002084F83C0000BF00BF84
:100EA000DEE700000100000F10B586B004462349BC
:100EB0002068884218D100BF2148006840F40070C3
:100EC0001F4908600846006800F40070009000BFE9
:100ED00000BFF0200190032002900020039001A9A0
:100EE000184800F08DFD26E017492068884222D17D
:100EF00000BF1348006840F480601149086008464C
:100F0000006800F48060009000BF00BF4FF47C7068
:100F10000190032002900020039001A90B4800F0EB
:100F20006FFD0F200190032002900020039001A983
:100F3000044800F065FD06B010BD0000002101402E
:100F400044380240000002400022014000140240E8
:100F500070B504460D4600262068806800F4806065
:100F600070B12068806800F4807048B1042084F873
:100F70003D0000BF002084F83C0000BF012070BD90
:100F800000F05CFE064611E0681C78B125B100F067
:100F900055FE801BA84209D9032084F83D0000BFFC
:100FA000002084F83C0000BF0320E8E720680068C8
:100FB00000F002000228E7D194F83D00252803D173
:100FC000352084F83D0002E0152084F83D00002023
:100FD000D5E7000008B501460020009000BF91F859
:100FE0003C00012801D1022008BD012081F83C000D
:100FF00000BF91F83D00222803D1322081F83D0046
:1010000002E0122081F83D000868806800F00100CD
:10101000A0B90868806840F001000A6890601B4829
:1010200000681B4AB0FBF2F000EB4000009002E0C9
:101030000098401E009000980028F9D100BF0020C1
:1010400081F83C0000BF1348006800F01F0058B949
:101050000868806800F04050A8B90868806840F0CF
:1010600080400A6890600EE00B4A086890420AD1FE
:101070000868806800F0405028B90868806840F02F
:1010800080400A6890600020AEE70000D801002090
:1010900040420F000423014000200140014608683F
:1010A000806820F001000A689060012081F83D000E
:1010B0000020704730B5034600220C7D012000FA65
:1010C00004F24648006840F00100444C206020468D
:1010D000006820F47C502060204600684C6A40EA9A
:1010E00004203E4C20603D481C30006890433B4C3F
:1010F0001C342060C869D8B938480C300068904367
:10110000364C0C342060888880B28C8940EA0444D4
:10111000324840304D6940F83540088880B20C892B
:1011200040EA04442D4840304D6900EBC50044605E
:10113000C86901281BD129480C3000681043274C8E
:101140000C342060888880B20C8840EA044423482C
:1011500040304D6940F83540888980B20C8940EABA
:1011600004441E4840304D6900EBC5004460886966
:1011700038B91A48001D00689043184C241D20609F
:1011800006E01648001D00681043144C241D206022
:10119000086930B911481430006890430F4C14347A
:1011A00020600869012806D10C48143000681043FB
:1011B0000A4C14342060086A012806D107481C3004
:1011C00000681043054C1C3420600448006820F07F
:1011D0000100024C2060002030BD0000006600408D
:1011E00002490968491C014A11607047CC0100207E
:1011F0002DE9F041044600250026002720684069BB
:1012000000F0010018B3206880686D4908408842EA
:1012100001D1012000E0002005462068806869496E
:101220000840884201D1012000E0002006462068E5
:10123000806865490840884201D1012000E0002013
:1012400007460DB906B917B12046FFF757FB2068CE
:10125000C06800F0030520684069C0F3400625B16E
:101260001EB100212046FFF76FFA2068006900F0E8
:10127000030520684069C0F3001625B11EB10121A5
:101280002046FFF761FA2068806900F001052068B8
:101290004069C0F3002620684069C0F3C0374DB1F3
:1012A00046B13FB1E06B40F00100E0636FF0010038
:1012B0002168886120688069C0F340052068406922
:1012C000C0F3402620684069C0F3C0374DB146B135
:1012D0003FB1E06B40F00200E0636FF00200216874
:1012E000886120688069C0F3800520684069C0F388
:1012F000802620684069C0F3C0374DB146B13FB188
:10130000E06B40F00400E0636FF004002168886146
:101310002068806900F0700008B9012000E000201A
:10132000054620684069C0F3C02620684069C0F3C4
:10133000C03795BB8EB387B32068806900F0700515
:10134000402D1BD006DC102D09D0202D0CD0302DC7
:1013500024D10EE0502D16D0602D1FD118E0E06B87
:1013600040F00800E0631AE0E06B40F01000E0633A
:1013700015E0E06B40F02000E06310E0E06B40F02F
:101380004000E0630BE0E06B40F08000E06306E0CB
:10139000E06B40F48070E06301E007E000BF00BF55
:1013A0002068806920F0700021688861E06B28B1B6
:1013B000012084F838002046FFF712FFBDE8F081D5
:1013C00003000004000300080000031070B5044689
:1013D000032600250CB9012070BD94F8380028B907
:1013E000002084F83900204600F0D0F8022084F86C
:1013F00038002068006820F002002168086020683A
:10140000006840F001002168086000F017FC054604
:101410000EE000F013FC401B0A2809D9032084F8D1
:10142000380000BF002084F8390000BF0320D3E754
:101430002068406800F001000028EAD02068406879
:1014400000F0010008B9002692E0A069012806D149
:101450002068006840F080002168086005E020688E
:10146000006820F0800021680860E069012806D14A
:101470002068006840F040002168086005E02068AE
:10148000006820F0400021680860206A012806D129
:101490002068006840F020002168086005E02068AE
:1014A000006820F0200021680860606A012806D1E9
:1014B0002068006840F010002168086005E020689E
:1014C000006820F0100021680860A06A012806D199
:1014D0002068006840F008002168086005E0206886
:1014E000006820F0080021680860E06A012806D141
:1014F0002068006840F004002168086005E020686A
:10150000006820F0040021680860D4E90201084363
:1015100021690843616908436168491E08432168DD
:10152000C8612068006820F001002168086000F0B0
:1015300085FB05460EE000F081FB401B0A2809D917
:10154000032084F8380000BF002084F8390000BF71
:10155000032041E72068406800F001000028EAD13C
:101560002068406800F0010008B1002600E0012674
:10157000012E06D10020E063012084F8380000200D
:101580002AE7042084F83800012025E710B586B04A
:1015900004463A492068884235D139480068401CE1
:1015A000374908600846006801280DD100BF35485A
:1015B000006840F00070334908600846006800F099
:1015C0000070009000BF00BF032001900220029035
:1015D00000200390032004900920059001A92A48C7
:1015E00000F00EFA00220A21142000F038FC14202A
:1015F00000F028FC25480068406940F002002349BB
:101600000968486137E022492068884233D100BF29
:101610001C48006840F080601A490860084600686D
:1016200000F08060009000BF00BF15480068401CBB
:10163000134908600846006801280DD100BF114811
:10164000006840F000700F4908600846006800F02C
:101650000070009000BF00BF42F220000190022005
:10166000029000200390032004900920059001A916
:10167000084800F0C5F906B010BD00000064004045
:101680000000002040380240000C024040060020CC
:10169000006800400004024010B50246002392F8A2
:1016A0003830012B01D0122B49D100BF92F83900FC
:1016B000012801D1022010BD012082F8390000BFAD
:1016C00092F83800122803D1322082F8380002E064
:1016D000222082F838000020D0631068406940F46E
:1016E0008070146860611068406940F4007014688C
:1016F00060611068406940F480601468606110683F
:10170000406940F40060146860611068406940F40A
:1017100000401468606100BF002082F8390000BFFB
:1017200031B91068406940F002001468606108E057
:101730001068406940F010001468606101E0022008
:10174000B9E70020B7E7000010B50446606B007DE4
:101750000B49087000200B4908600023094A0A4819
:10176000616B006805F0DDFE06480068012801D1C4
:1017700004F0E0FF00210548FFF78EFF10BD0000D8
:10178000C4010020C8010020B8010020400600204C
:101790002DE9F04104460E460525002700BF94F8C8
:1017A0003900012802D10220BDE8F081012084F82F
:1017B000390000BF94F83800222803D1322084F881
:1017C000380002E0122084F838002068806800F0B9
:1017D0008060B0F1806F01D1002512E02068806840
:1017E00000F00060B0F1006F01D1012509E0206830
:1017F000806800F08050B0F1805F01D1022500E0E8
:101800000425042D7ED0206800F5C07000EB051083
:10181000006800F00101206800F5C07000EB0510C1
:101820000160206B806898B9206800F5C07000EBFB
:1018300005100068216BC968226B128841EA425189
:101840000843216801F5C07101EB0511086015E03E
:10185000206800F5C07000EB05100068216B8968F6
:10186000226B526841EAC201226BD26811430843DD
:10187000216801F5C07101EB05110860206B007C47
:1018800000F00F00216B0861206800F5C07000EBCC
:101890000510406820F00F01206800F5C07000EBD3
:1018A00005104160206800F5C07000EB051040682D
:1018B000216B09690843216801F5C07101EB05112D
:1018C0004860206BC07D0106206B807D41EA0041AD
:1018D000206B407D41EA0021206B007D01432068A0
:1018E00000F5C07000EB05108160206BC07E010622
:1018F000206B807E41EA0041206B407E41EA00205F
:10190000216B00E063E0097E0843216801F5C071A6
:1019100001EB0511C860206800F5C07000EB0510F0
:10192000006840F00101206800F5C07000EB051070
:10193000016000F083F9074611E0701C78B126B110
:1019400000F07CF9C01BB04209D9032084F83800AC
:1019500000BF002084F8390000BF032024E74DB900
:10196000206880681F490840884201D1012016E0A4
:10197000002014E0012D09D1206880681A49084030
:10198000884201D101200AE0002008E02068806838
:1019900016490840884201D1012000E000200028BB
:1019A000CBD094F83800322807D1222084F83800B0
:1019B00000BF002084F8390007E0012084F83800D7
:1019C00000BF002084F8390000BF0020ECE60420AE
:1019D00084F8380000BF002084F8390000BF0120DF
:1019E000E2E600000300000400030008000003100A
:1019F00002490968491C014A11607047C001002072
:101A0000F8B502460B460025002400200021E4E042
:101A1000012606FA01F51E6806EA0504AC4271D1FA
:101A20005E68022E02D05E68122E13D1CF0802F13A
:101A3000200656F827004E07F70E0F26BE40B0438B
:101A40004F07FF0E1E69BE403043CF0802F120064B
:101A500046F8270010684F000326BE40B0431E79A9
:101A600006F003064F00BE40304310605E68012E52
:101A700008D05E68022E05D05E68112E02D05E6826
:101A8000122E13D190684F000326BE40B0434F0082
:101A9000DE68BE4030439060506801268E40B043FF
:101AA0001E79C6F300168E4030435060D0684F0058
:101AB0000326BE40B0434F009E68BE403043D06016
:101AC0005E6806F08056B6F1805FA8D100BF454E33
:101AD000366846F48046434F3E603E46366806F41C
:101AE0008046009600BF00BF3F4E8F0856F8270083
:101AF0008E07370F0F26BE40B0433C4EB24202D194
:101B000000262EE068E03A4EB24201D1012628E0DC
:101B1000384EB24201D1022623E0374EB24201D103
:101B200003261EE0354EB24201D1042619E0344EA0
:101B3000B24201D1052614E0324EB24201D106264E
:101B40000FE0314EB24201D107260AE02F4EB242D9
:101B500001D1082605E02E4EB24201D1092600E04F
:101B60000A268F073F0FBE4030431F4E8F0846F8AE
:101B70002700284E3068A0435E6806F48036B6F52C
:101B8000803F00D12043234E3060361D3068A04393
:101B90005E6806F40036B6F5003F00D120431D4EC6
:101BA000361D3060361D3068A0435E6806F480162E
:101BB000B6F5801F00D12043164E08363060361D22
:101BC0003068A0435E6806F40016B6F5001F00D129
:101BD0002043104E0C363060491C1029FFF418AF1A
:101BE000F8BD0000443802400838014000000240BF
:101BF0000004024000080240000C024000100240B5
:101C00000014024000180240001C02400020024064
:101C100000240240003C0140024613690B400BB116
:101C2000012000E00020704742694A40426170474D
:101C30000AB1816101E00B048361704701480068CB
:101C400070470000D401002070B50446002600252E
:101C50000CB9012070BD94F8350028B9002084F833
:101C60003400204600F080F8022084F83500206817
:101C7000006820F001002168086000F0B7FA05460E
:101C80003748B5FBF0F62068466036496068884200
:101C900001D8701C07E04FF4967070434FF47A71CE
:101CA000B0FBF1F0401C216808622E496068884250
:101CB0000ED860684000B5FBF0F0C0F30B000428BC
:101CC00001D204202DE060684000B5FBF0F028E070
:101CD000A06828B9606800EB4000B5FBF0F008E0B0
:101CE000606800EBC00101EB0010B5FBF0F040F4C0
:101CF0008040C0F30B0008B9012012E0A06828B9A9
:101D0000606800EB4000B5FBF0F008E0606800EBB5
:101D1000C00101EB0010B5FBF0F040F4804040F44E
:101D200000402168C861D4E90701084321680860C0
:101D3000D4E90310084321688860D4E90501084309
:101D40002168C8602068006840F0010021680860D0
:101D50000020A063012084F8350000207AE700000D
:101D600040420F00A086010010B586B0044611491C
:101D7000206888421BD1032001901220029001208C
:101D80000390032004900420059001A90A48FFF75E
:101D900037FE00BF0948006840F48000074908602A
:101DA0000846006800F48000009000BF00BF06B045
:101DB00010BD0000005800400014024040380240AE
:101DC00002480068401C014908607047D4010020A7
:101DD00010B50D48006840F400700B4908600846D3
:101DE000006840F4806008600846006840F4807035
:101DF0000860032000F072F8002000F007F800F0FF
:101E000017F8002010BD0000003C024070B50446E9
:101E100000F0D0F94FF47A71B0FBF1F5284600F0EC
:101E200001FD00222146501E00F019F8002070BD6F
:101E300010B5032000F052F800221146501E00F0A9
:101E40000EF810BD00BF00F01F02012191404209B1
:101E5000920002F1E022C2F8001100BF70472DE9A4
:101E6000F05F80460D461646002701F0C3FF074687
:101E700039462A46334601F00700C0F1070ABAF195
:101E8000040F02D94FF0040A01E0C0F1070AD1465D
:101E900000F1040ABAF1070F02D24FF0000A01E084
:101EA000A0F1030AD4464FF0010A0AFA09FAAAF18E
:101EB000010A0AEA020A0AFA0CFA4FF0010B0BFABD
:101EC0000CFBABF1010B0BEA030B4AEA0B042146B6
:101ED000404601F097FFBDE8F09F000000BF00F012
:101EE0000702064B19684FF6FF031940044B0B43DA
:101EF00043EA0221014B196000BF70470CED00E07E
:101F00000000FA0570B504460E460025A748006893
:101F100000F00F00B0426FD2A4490E70084600686E
:101F200000F00F00B04201D0012070BD207800F019
:101F30000200022807D19E48006820F0F000A16846
:101F400008439B490860207800F0010000283ED03B
:101F50006068012807D1964808380068C0F34040FF
:101F6000B8B90120E1E76068022802D06068032860
:101F700007D18F4808380068C0F3406048B9012095
:101F8000D3E78B4808380068C0F3400008B9012047
:101F9000CBE78748006820F0030061680843844964
:101FA0000860FFF74BFE05466068012810D108E085
:101FB000FFF744FE401B41F28831884201D90320DB
:101FC000B3E77B48006800F00C000428F0D1CDE0B6
:101FD0006068022811D108E0FFF730FE401B41F293
:101FE0008831884201D903209FE77148006800F0DA
:101FF0000C000828F0D1B9E024E06068032810D173
:1020000008E0FFF71BFE401B41F28831884201D9EE
:1020100003208AE76648006800F00C000328F0D12E
:10202000A4E008E0FFF70AFE401B41F28831884235
:1020300001D9032079E75E48006800F00C00002811
:10204000F0D193E0207800F00200022807D1584830
:10205000006820F0F000A168084355490860207826
:1020600000F00100002877D06068012807D15048AF
:1020700008380068C0F34040B8B9012055E76068EF
:10208000022802D06068032807D149480838006850
:10209000C0F3406048B9012047E745480838006868
:1020A000C0F3400008B901203FE74148006820F034
:1020B0000300616808433E490860FFF7BFFD05461D
:1020C0006068012810D108E0FFF7B8FD401B41F21D
:1020D0008831884201D9032027E73548006800F09D
:1020E0000C000428F0D137E06068022810D108E025
:1020F000FFF7A4FD401B41F28831884201D903203B
:1021000013E72B48006800F00C000828F0D123E00A
:102110006068032810D108E0FFF790FD401B41F2F2
:102120008831884201D90320FFE62148006800F089
:102130000C000328F0D10FE008E0FFF77FFD401B03
:1021400041F28831884201D90320EEE61848006840
:1021500000F00C000028F0D114490E700846006809
:1021600000F00F00B04201D00120DEE6207800F040
:102170000400042807D10E48006820F4E050E1680C
:1021800008430B490860207800F00800082808D1AF
:102190000748006820F46040216940EAC100044912
:1021A00008600020FFF732FE0020BEE6003C02403F
:1021B0000838024010B500F045F80949096801F0F7
:1021C000F001F02292FAA2F2B2FA82F2D140054A6C
:1021D000515CC840044908600846006810BD000012
:1021E00008380240187D0008D801002010B5FFF71C
:1021F000E1FF0749096801F4E0514FF4E05292FA17
:10220000A2F2B2FA82F2D140024A515CC84010BD3B
:1022100008380240187D000810B5FFF7CBFF0749CA
:10222000096801F460414FF4604292FAA2F2B2FAF6
:1022300082F2D140024A515CC84010BD08380240C9
:10224000187D000870B50021002200230020274CD3
:10225000246804F00C0424B1042C04D0082C41D1CF
:1022600003E0234840E023483EE0204C241F24683C
:1022700004F03F011D4C241F246804F4800484B141
:102280001C4CB4FBF1F5194C241F246847F6C076AA
:10229000344096FAA6F6B6FA86F6F44005FB04F248
:1022A0000FE0134CB4FBF1F5104C241F246847F6E3
:1022B000C076344096FAA6F6B6FA86F6F44005FBE8
:1022C00004F20A4C241F246804F440344FF44035CF
:1022D00095FAA5F5B5FA85F5EC40641C6300B2FBF0
:1022E000F3F001E0024800BF00BF70BD08380240B3
:1022F0000024F400001BB70038B504460025207800
:1023000000F00100002866D0F648006800F00C00DC
:1023100004280DD0F348006800F00C00082813D101
:10232000F048001F006800F48000B0F5800F0BD16A
:10233000EC4808380068C0F3404000284BD0606883
:10234000002848D1012038BD0020E649891F0870C7
:10235000FFF774FC054608E0FFF770FC401B41F2F4
:102360008831884201D90320EDE7DE48083800684B
:10237000C0F340400028EFD12079DA49891F087066
:102380006068A0B1FFF75AFC054608E0FFF756FC6D
:10239000401B41F28831884201D90320D3E7D1485C
:1023A00008380068C0F340400028EFD013E0FFF782
:1023B00045FC054608E0FFF741FC401B41F288312F
:1023C000884201D90320BEE7C64808380068C0F338
:1023D00040400028EFD1207800F00200022869D1A7
:1023E000C048006800F00C0058B1BE48006800F01A
:1023F0000C00082821D1BB48001F006800F48000B1
:10240000D8B9B84808380068C0F3400020B1E06887
:10241000012801D0012096E7B2480838006820F072
:10242000F800F82292FAA2F2B2FA82F221699140FF
:102430000843AC49083908603CE0E06828B3012053
:10244000A9490860FFF7FAFB054606E0FFF7F6FB2F
:10245000401B642801D9032075E7A24808380068AA
:10246000C0F340000028F1D09E480838006820F0F2
:10247000F800F82292FAA2F2B2FA82F221699140AF
:10248000084398490839086014E00020964908601C
:10249000FFF7D4FB054606E0FFF7D0FB401B64289E
:1024A00001D903204FE78F4808380068C0F3400087
:1024B0000028F1D1207800F0080008282CD16069AC
:1024C000A8B1012089490860FFF7B8FB054606E07E
:1024D000FFF7B4FB401B642801D9032033E7814890
:1024E0006C300068C0F340000028F1D014E00020F8
:1024F0007E490860FFF7A2FB054606E0FFF79EFB5A
:10250000401B642801D903201DE776486C30006821
:10251000C0F340000028F1D1207800F00400042826
:102520006DD100BF6F483830006840F080506D4971
:10253000383108600846006800F08050009000BF05
:1025400000BF6B48006840F4807069490860FFF77D
:1025500075FB054606E0FFF771FB401B642801D9B7
:102560000320F0E66248006800F480700028F2D092
:1025700000205C4968310870FFF760FB054608E001
:10258000FFF75CFB401B41F28831884201D90320F0
:10259000D9E6544868300068C0F340000028EFD105
:1025A000207A504968310870A068A0B1FFF746FB57
:1025B000054608E0FFF742FB401B41F288318842A4
:1025C00001D90320BFE6474868300068C0F34000E7
:1025D0000028EFD013E0FFF731FB054608E0FFF7D6
:1025E0002DFB401B41F28831884201D90320AAE625
:1025F0003C4868300068C0F340000028EFD1A06973
:10260000F0B33848006800F00C00082872D0A069C8
:10261000022850D1002034490866FFF70FFB054619
:1026200006E0FFF70BFB401B642801D903208AE674
:102630002C4808380068C0F340600028F1D1D4E984
:102640000701084347F6C07292FAA2F2B2FA82F288
:10265000616A914008430122A16AC2EB51014FF423
:10266000403292FAA2F2B2FA82F2914008434FF05D
:10267000706292FAA2F2B2FA82F2E16A914000E04C
:102680003AE008431749091F086001201649086607
:10269000FFF7D4FA054606E0FFF7D0FA401B64289E
:1026A00001D903204FE60F4808380068C0F34060A6
:1026B0000028F1D020E000200B490866FFF7BEFAA1
:1026C000054606E0FFF7BAFA401B642801D903204B
:1026D00039E6044808380068C0F340600028F1D1AA
:1026E0000AE007E00838024000004742800E4742F7
:1026F00000700040012026E6002024E610B50446C4
:102700000CB9012010BD94F8510028B9002084F8BC
:102710005000204600F036F8022084F8510020686E
:10272000006820F0400021680860D4E901010843F6
:10273000E16808432169084361690843218B01F47A
:1027400000710843E1690843216A0843A16A08430C
:10275000216808600421A06901EA1040616A084309
:10276000216848602168E06A08612068C06920F437
:1027700000602168C86100206065012084F8510074
:102780000020BFE710B586B004461849206888428B
:102790002AD100BF1648006840F480401449086000
:1027A0000846006800F48040009000BF00BF0C2085
:1027B0000190022002900020039003200490052045
:1027C000059001A90B48FFF71BF94FF480600190B9
:1027D0000220029000200390032004900520059021
:1027E00001A90548FFF70CF906B010BD00380040FC
:1027F000403802400008024000040240042808D18A
:102800004FF0E021096941F004014FF0E02211612D
:1028100007E04FF0E021096921F004014FF0E022C8
:102820001161704770B504462546681EB0F1807F7F
:1028300001D301200FE0681E4FF0E02148610F2115
:102840004FF0FF3001F0DEFA00204FF0E021886108
:1028500007200861002070BD70477047024600BF26
:1028600092F83800012801D102207047012082F837
:10287000380000BF022082F839001068406820F05C
:10288000700013685860106840680B68184313683C
:1028900058601068806820F08000136898601068A5
:1028A00080684B68184313689860012082F83900EB
:1028B00000BF002082F8380000BF00BFD5E710B588
:1028C00004460CB9012010BD94F8390028B9002045
:1028D00084F83800204600F00DF8022084F8390012
:1028E000211D206801F0F8FB012084F83900002048
:1028F000E9E7000038B504462068B0F1804F16D1F2
:1029000000BF1848006840F00100164908600846FA
:10291000006800F00100009000BF00BF0022072106
:102920001C20FFF79CFA1C20FFF78CFA19E00E49D7
:102930002068884215D100BF0A48006840F01000A6
:10294000084908600846006800F01000009000BFC9
:1029500000BF00220A213620FFF781FA3620FFF758
:1029600071FA38BD40380240001000400146086846
:10297000C06840F001000A68D0600868006840F054
:1029800001000A681060002070470146022081F8AB
:10299000390000BF0868006A41F21112104050B9B6
:1029A0000868006A9210104028B90868006820F092
:1029B00001000A68106000BF012081F83900002082
:1029C00070472DE9F04104460D46002600BF94F8FB
:1029D0003800012802D10220BDE8F081012084F8EE
:1029E000380000BF022084F839002068866826F08D
:1029F000770626F47F4620688660286850283BD0FA
:102A00000CDC202860D004DC002853D0102865D1CD
:102A100055E030285DD0402860D141E0602835D0B5
:102A200070280DD0B0F5805F03D0B0F5005F55D1B0
:102A300015E02068806820F00700216888604EE07B
:102A4000D5E902136A68206801F0B8FB206886683F
:102A500026F0770646F07706206886603FE0D5E9E5
:102A600002136A68206801F0A9FB2068806840F4BE
:102A700080402168886032E0EA686968206801F077
:102A8000B3FB5021206801F0A5FB28E0EA686968E3
:102A9000206801F0BEFB6021206801F09BFB1EE076
:102AA000EA686968206801F09FFB4021206801F016
:102AB00091FB14E00021206801F08CFB0FE0102155
:102AC000206801F087FB0AE02021206801F082FBEA
:102AD00005E03021206801F07DFB00E000BF00BF71
:102AE000012084F8390000BF002084F8380000BFBE
:102AF00000BF71E7704710B5044620680069C0F355
:102B00004000D8B12068C068C0F34000B0B16FF099
:102B1000020021680861012020762068806900F0A9
:102B2000030018B12046FFF7E5FF05E0204600F05E
:102B3000ADF8204600F0ABF8002020762068006950
:102B4000C0F38000D8B12068C068C0F38000B0B185
:102B50006FF00400216808610220207620688069F7
:102B600000F4407018B12046FFF7C4FF05E020468E
:102B700000F08CF8204600F08AF8002020762068CB
:102B80000069C0F3C000D8B12068C068C0F3C000BD
:102B9000B0B16FF008002168086104202076206839
:102BA000C06900F0030018B12046FFF7A3FF05E05D
:102BB000204600F06BF8204600F069F800202076EF
:102BC00020680069C0F30010D8B12068C068C0F365
:102BD0000010B0B16FF01000216808610820207665
:102BE0002068C06900F4407018B12046FFF782FFEA
:102BF00005E0204600F04AF8204600F048F80020A2
:102C000020762068006900F0010058B12068C06893
:102C100000F0010030B16FF001002168086120462A
:102C200000F036F820680069C0F3C01058B1206881
:102C3000C068C0F3C01030B16FF080002168086137
:102C40002046FFF709FE20680069C0F3801058B1E4
:102C50002068C068C0F3801030B16FF04000216878
:102C60000861204600F026F820680069C0F3401093
:102C700058B12068C068C0F3401030B16FF0200038
:102C8000216808612046FFF7E8FD10BD70477047D6
:102C900010B504462068B0F1804F07D103F078F9F1
:102CA0004FF400710248FEF7BFFF00BF00BF10BD28
:102CB00000100240704710B50446204603F070FA39
:102CC00010BDF8B50446002500262068006800F015
:102CD00001052068C06800F480766DB166B100BF60
:102CE00020680068009020684068009000BF00BF26
:102CF000E06B40F00100E06320680068C0F340052D
:102D00002068406900F001066DB166B100BF20681F
:102D10000068009020684068009000BF00BFE06B32
:102D200040F00400E06320680068C0F3800520687C
:102D3000406900F001066DB166B100BF206800680F
:102D4000009020684068009000BF00BFE06B40F03A
:102D50000200E06320680068C0F3C0052068406995
:102D600000F001066DB166B100BF206800680090F8
:102D700020684068009000BF00BFE06B40F0080092
:102D8000E06320680068C0F340152068C06800F068
:102D900020061DB116B1204601F086FA20680068B1
:102DA000C0F3C0152068C06800F080061DB116B1E0
:102DB000204601F0DFFB20680068C0F38015206822
:102DC000C06800F040061DB116B1204601F048FA77
:102DD000E06B28B1012084F839002046FFF76BFF33
:102DE000F8BD10B504460CB9012010BDA06900B1B2
:102DF00000E000BF94F8390010B9204600F026F832
:102E0000022084F839002068C06820F4005021684E
:102E1000C860204601F09CFA2068006920F49040C8
:102E2000216808612068406920F02A002168486113
:102E30002068C06840F400502168C8600020E0634A
:102E4000012084F839000020CFE7000010B586B0DB
:102E500004468D492068884225D100BF8B48006810
:102E600040F40020894908600846006800F400200A
:102E7000009000BF00BF4FF440600190022002901C
:102E800001200390032004900820059001A98048A8
:102E9000FEF7B6FD00220A213420FEF7E0FF3420C1
:102EA000FEF7D0FFEEE07B492068884232D100BFB8
:102EB0007648006840F4801074490860084600684D
:102EC00000F48010009000BF00BF88140190022021
:102ED000029001200390032004900820059001A98E
:102EE0006B48FEF78DFD0420019002200290012026
:102EF0000390032004900820059001A96648FEF77E
:102F00007FFD00220A213520FEF7A9FF3520FEF7BC
:102F100099FFB7E061492068884227D100BF5B482C
:102F2000001D006840F010005849091D086008465F
:102F3000006800F01000009000BF00BF4FF4C060B8
:102F400001900220029001200390032004900720AA
:102F5000059001A95248FEF753FD00220A212520C1
:102F6000FEF77DFF2520FEF76DFF8BE04D492068C1
:102F7000884232D100BF4548006840F400304349E0
:102F800008600846006800F40030009000BF00BFF1
:102F90006020019002200290012003900320049001
:102FA0000720059001A93C48FEF72AFD80200190EA
:102FB0000220029000200390032004900720059037
:102FC00001A93548FEF71CFD00220A212620FEF744
:102FD00046FF2620FEF736FF54E03349206888423A
:102FE00025D100BF2948006840F4802027490860A7
:102FF0000846006800F48020009000BF00BF4FF436
:103000004070019002200290012003900320049060
:103010000720059001A92048FEF7F2FC00220A21B2
:103020002720FEF71CFF2720FEF70CFF2AE01F4990
:103030002068884226D100BF1448001D006840F077
:1030400020001249091D08600846006800F02000B1
:10305000009000BF00BF4FF4844001900220029016
:1030600001200390032004900820059001A9104836
:10307000FEF7C6FC00220A214720FEF7F0FE47209B
:10308000FEF7E0FE06B010BD004C004040380240A4
:103090000008024000500040000C024000100140B7
:1030A000000002400044004000480040001401407D
:1030B0000018024030B50346002493F83940012C33
:1030C00001D0122C37D101B10AB9012030BD00BFA7
:1030D00093F83800012801D10220F7E7012083F896
:1030E000380000BF99629A85DA850020D86393F88A
:1030F0003900122803D1322083F8390002E022205F
:1031000083F839001868C06840F480701D68E86072
:103110001868406940F001001D68686100BF002028
:1031200083F8380000BF1868C06840F020001D68B0
:10313000E8600020CAE70220C8E7000010B5044696
:10314000214A2068811A90422CD009DC1F4908448A
:1031500080B1B0F5806F15D0B0F5006F32D119E0B5
:10316000B1F5404F03D0B1F5444F2BD122E002F02E
:1031700029FF27E000231A461548A16A006804F0D9
:10318000D0F91FE000231A461248A16A006804F033
:10319000C8F917E000231A460F48A16A006804F036
:1031A000C0F90FE000231A460C48A16A006804F039
:1031B000B8F907E000231A460948A16A006804F03C
:1031C000B0F900BF00BF10BD0050004000BCFFBF01
:1031D000280000203000002038000020400000209F
:1031E000480000202DE9F04704460D461646994652
:1031F0004FF0000894F83980B8F1010F02D0B8F10F
:10320000220F65D105B116B90120BDE8F08700BFD6
:1032100094F83800012801D10220F6E7012084F853
:10322000380000BF0020E06394F83900222803D161
:10323000322084F8390002E0122084F83900A68494
:10324000E68428E0E08C401EE084A068B0F5805F52
:1032500014D14B4600228021204601F0C3F908B169
:103260000320D2E72F463888C0F308002168486061
:10327000206908B9AD1C0EE06D1C0CE04B46002225
:103280008021204601F0AEF908B10320BDE715F812
:10329000010B21684860E08C0028D3DC4B460022FB
:1032A0004021204601F09EF908B10320ADE794F8D3
:1032B0003900322803D1222084F8390002E00120AD
:1032C00084F8390000BF002084F8380000BF9CE774
:1032D00002209AE730B50346002493F83940012CC8
:1032E00001D0222C37D101B10AB9012030BD00BF75
:1032F00093F83800012801D10220F7E7012083F874
:10330000380000BF19629A84DA840020D86393F8E9
:103310003900222803D1322083F8390002E012203C
:1033200083F839001868C06840F480701D68E86050
:103330001868406940F001001D68686100BF002006
:1033400083F8380000BF1868C06840F080001D682E
:10335000E8600020CAE70220C8E7000010B5044674
:1033600004492068084410B902F046FE00BF00BFBF
:1033700010BD000000F0FEBF00B587B000BF2748B9
:10338000006840F01000254908600846006800F019
:103390001000019000BF00BF00BF0846006840F069
:1033A000100008600846006800F01000019000BF9F
:1033B00000BF881502900120039000200490059022
:1033C00002A91748FEF71CFB4FF40070029002A9F7
:1033D0001348FEF715FB4FF48070029002A91148C4
:1033E000FEF70EFB4FF40060029002A90E48FEF7B4
:1033F00007FB1020029002A90B48FEF701FB0820F2
:10340000029002A90848FEF7FBFA4FF48060029090
:1034100002A90648FEF7F4FA07B000BD30380240B2
:103420000010024000000240000C02400018024060
:103430001FB51048104908604FF440304860002123
:103440000D4881600161816141620163C1600121B8
:1034500001620021C16101214161FDF7FDFC0420F1
:103460000090012001900720029069460248FDF774
:103470001DFC1FBD00210140680300201FB510483E
:10348000104908604FF44030486000210D488160C9
:103490000161816141620163C1600121016200211A
:1034A000C16101214161FDF7D7FC0420009001209A
:1034B00001900720029069460248FDF7F7FB1FBD07
:1034C00000220140AC03002010B50C480C490860F4
:1034D0000C20486000210A488160C1604FF420211F
:1034E00001614FF48011416100218161C16101627C
:1034F00041628162C162FDF769FF10BD0064004056
:103500004006002010B50D480D4908600C204860A9
:1035100000210B488160C1604FF4202101614FF40C
:103520008011416100218161C1610162012141621B
:1035300000218162C162FDF749FF10BD00680040B3
:103540008006002010B502F087FE10BD00B587B0E0
:1035500000BF7648006840F01000744908600846D3
:10356000006800F01000019000BF00BF00BF0846D7
:10357000006840F0040008600846006800F004009D
:10358000019000BF00BF00BF0846006840F0200067
:1035900008600846006800F02000019000BF00BFEE
:1035A00000BF0846006840F08000086008460068D8
:1035B00000F08000019000BF00BF00BF0846006817
:1035C00040F0010008600846006800F0010001902A
:1035D00000BF00BF00BF0846006840F04000086020
:1035E0000846006800F04000019000BF00BF00BF27
:1035F0000846006840F0020008600846006800F0D5
:103600000200019000BF00BF00BF0846006840F004
:10361000080008600846006800F00800019000BF3C
:1036200000BF4FF4C6700290012003900020049068
:10363000059002A93E48FEF7E3F9402002900020E1
:103640000390049002A93A48FEF7DAF946F208001E
:10365000029000200390049002A93648FEF7D0F9AA
:103660000120029000200390049002A93248FEF746
:10367000C7F90220029001200390002004900590D9
:1036800002A92D48FEF7BCF94FF4C050029001206A
:10369000039000200490059002A92648FEF7B0F997
:1036A00040F2074002900120039000200490059012
:1036B00002A92248FEF7A4F94FF4206002900020EE
:1036C00003900120049002A91948FEF799F94FF4DC
:1036D000805002900120039000200490059002A9E0
:1036E0001748FEF78DF94FF4807002900120039087
:1036F00000200490059002A91248FEF781F91820D5
:1037000002900120039000200490059002A90E4829
:10371000FEF776F9002204210548FEF789FA002217
:1037200008210348FEF784FA07B000BD3038024094
:10373000001002400014024000080240001802403D
:103740000004024000000240000C024010B50A488C
:103750000A4908600A484860002108488160C16041
:103760004FF480410161002141618161C1610162C9
:10377000FEF76AFA10BD0000005800402C0300203C
:10378000A086010010B50C480C4908604FF4827007
:103790004860002109488160C160016141614FF4C6
:1037A000007181610021C1610162416281620A216F
:1037B000C162FEF7A3FF10BD00380040F0030020F7
:1037C00000B587B04FF080400E4908600020486087
:1037D00000210C4881604FF46161C16000210161EA
:1037E000FFF76DF84FF48050039003A90548FFF7E9
:1037F000E8F800200190029001A90248FFF72EF896
:1038000007B000BD480400201CB50A480A490860FA
:103810005420486000210848816042F21071C16064
:10382000FFF74DF800200090019069460248FFF72D
:1038300015F81CBD001000408404002010B5094894
:10384000094908604FF496404860002106488160AD
:10385000C16001610C21416100218161C161FFF7FB
:10386000C0FA10BD004C0040C004002010B509484B
:10387000094908604FF4964048600021064881607D
:10388000C16001610C21416100218161C161FFF7CB
:10389000A8FA10BD005000400005002010B50948EE
:1038A000094908604FF4E130486000210648816012
:1038B000C16001610C21416100218161C161FFF79B
:1038C00090FA10BD001001404005002010B50948D5
:1038D000094908604FF4964048600021064881601D
:1038E000C16001610C21416100218161C161FFF76B
:1038F00078FA10BD004400408005002010B509484A
:10390000094908604FF496404860002106488160EC
:10391000C16001610C21416100218161C161FFF73A
:1039200060FA10BD00480040C005002010B50948ED
:10393000094908604FF496404860002106488160BC
:10394000C16001610C21416100218161C161FFF70A
:1039500048FA10BD00140140000600201FB572484F
:103960007249086010204860714888600E20C86065
:10397000002008746C48486120216C4881616C49C2
:10398000C1610F210162002180F824106648674957
:10399000886240216548C162654901630421416331
:1039A000002180F8381060486049C86380215F4872
:1039B00001645F49416405218164002180F84C1055
:1039C00059485A49086581155848416558498165E3
:1039D0000621C165002180F86010534853494866AC
:1039E0004115524881665249C1660721016700218D
:1039F00080F874104F484D49886701214B48C167D2
:103A00004B49C0F880100021C0F8841080F888105D
:103A100048484649C1F88C0002214448C0F890103B
:103A20004349C0F894100121C0F89810002180F893
:103A30009C1040483D49C1F8A00004213B48C0F813
:103A4000A4103B49C0F8A8100221C0F8AC10002116
:103A500080F8B01037483549C1F8B4000821334820
:103A6000C0F8B8103249C0F8BC100321C0F8C0102B
:103A7000002180F8C4102F482C49C1F8C80010213B
:103A80002A48C0F8CC102C49C0F8D0100421C0F846
:103A9000D410002180F8D81026482449C1F8DC0051
:103AA00020212248C0F8E0102349C0F8E410052185
:103AB000C0F8E810002180F8EC101E481B49C1F83E
:103AC000F00040211948C0F8F4101B49C0F8F81064
:103AD0000621C0F8FC10002180F800111548134998
:103AE000C1F8040180211148C0F808111249C0F83A
:103AF0000C110721C0F81011002180F814114FF0AB
:103B0000406000F027F80D48FEF730FF0020012349
:103B1000CDE9003002900346802209A103900C48B1
:103B200003F090FD1FBD000000140240E0070020DC
:103B3000AC03002000000240680300208404002041
:103B40004D66756E6320706F6C6C696E6700000067
:103B5000F13B000830B585B00546002442E004EB97
:103B60008400224901EB8000007C05F003018842BB
:103B700035D005F0030004EB84011C4A02EB8101FF
:103B8000087404EB8400114601EB8000007C88B9C6
:103B900004EB840001EB800040680090032001905A
:103BA0000020029004EB840152F821006946FDF7E1
:103BB00027FF14E004EB84000C4901EB800040680F
:103BC000009000200190012002900320039004EB5C
:103BD0008401064A52F821006946FDF711FFAD083D
:103BE000601CC4B20E2CBADB05B030BDE00700206B
:103BF00086B00024012002900720039001A93448D8
:103C0000FDF754F803F0CAFD05905FE0002456E08C
:103C100004EB84002F4901EB8000007C00284CD18C
:103C200004EB840001EB8000C068019004EB840188
:103C3000284A02EB8101886801A9FDF737F804EBF7
:103C40008401244A02EB81018868FDF7C3F904EB83
:103C50008401204A02EB810188680A21FDF778F986
:103C600018BB04EB84011B4A02EB81018868FDF755
:103C7000EBF8152819D100235A1E1946164800687A
:103C800003F0C5FA04EB8401124A02EB8101886853
:103C9000FDF7DEF881B2114820F8141000231A460F
:103CA00019460D48006803F09BFB04EB8401094AA8
:103CB00002EB81018868FDF7F1F9601CC4B20E2C9B
:103CC000A6DB4FF47A7105A802F0ACFD9EE7000078
:103CD000AC030020E0070020B00100200607002010
:103CE00010B500247DE004EB8400404901EB800026
:103CF000007C002873D004EB840001EB8000407C42
:103D000004EB8401394A02EB8101887404EB8402DC
:103D1000364B03EB8202928891B204EB840253F893
:103D20002200FDF779FF04EB8401304A02EB8101A8
:103D3000487404EB8400114601EB8000407C50B1D4
:103D40002B48B0F844000121A14089B2084328491A
:103D5000A1F8440008E02648B0F844000121A14041
:103D600088432349A1F8440004EB84001F4901EB78
:103D70008000007C022816D104EB840001EB800057
:103D8000407C01282BD104EB840001EB8000807C77
:103D900040B91748643050F82400401C144964317D
:103DA00041F824001BE004EB8400104901EB800083
:103DB000007C032813D104EB840001EB8000407CDD
:103DC00068B904EB840001EB8000807C012806D1F7
:103DD0000748643050F82410491C40F82410601C37
:103DE000C4B20E2CFFF67FAF10BD0000E00700202C
:103DF000C006002002480068C0F30220704700009F
:103E00000CED00E010B5002807DA0A07140E054A89
:103E100000F00F031B1FD45403E00A07130E024ADD
:103E2000135410BD18ED00E000E400E01CB511A033
:103E30000068019000BF00204FF4612301220A2195
:103E4000009001F0AFF888B9032301AA01213420C2
:103E500001F016FB30B900F085FD18B900BF01F084
:103E600043F9FCE700F064FD00F04EFD322002F063
:103E7000A1FCE0E7AABBCC0000BF4FF47A7001F0D0
:103E800002FCFAE708B500BF00235A1E6946024843
:103E9000006803F0BCF9F7E72800002008B500BF70
:103EA00000235A1E69460648006803F0B0F94FF631
:103EB000FF73012269460348FFF794F9F0E7000019
:103EC0002C0000208005002008B500BF00235A1EEA
:103ED00069460B48006803F09AF90122102109484D
:103EE000FDF7A6FE4FF6FF73012269460648FFF76D
:103EF00079F9002210210348FDF79AFEE6E7000059
:103F00003C000020000C0240C004002008B500BFA7
:103F100000235A1E69460B48006803F078F9012215
:103F200008210948FDF784FE4FF6FF730122694618
:103F30000648FFF757F9002208210348FDF778FEED
:103F4000E6E7000044000020000C024000050020CD
:103F500008B500BF00235A1E69460B48006803F0ED
:103F600056F9012291020948FDF762FE4FF6FF73F0
:103F7000012269460648FFF735F900224FF48061B7
:103F80000248FDF755FEE5E7340000200018024026
:103F90000006002010B5FDF713FF01F08EFB10BDE9
:103FA00010B592B000BF2748006840F08050254906
:103FB00008600846006800F08050009000BF00BF15
:103FC00000BF2148006840F440401F49086008468F
:103FD000006800F44040009000BF00BF0120069040
:103FE000079002200C9041050D9106210E91A82109
:103FF0000F91022110910421119106A8FEF77CF97E
:104000000D20019002200290002003904FF4A05058
:1040100004900590052101A8FDF774FFFEF7CAF88A
:104020004FF47A71B0FBF1F42046FEF7FBFB04205D
:10403000FEF7E4FB00221146501EFDF710FF12B000
:1040400010BD000040380240007000401448006875
:1040500040F47000124908601248006840F0010006
:104060001049086000200F49083108600D480068B9
:104070000D4908400B4908600C48091D0860081FDD
:10408000006820F48020091F0860002005490C31D9
:1040900008604FF0006002498039086070470000F6
:1040A00088ED00E000380240FFFFF6FE10300024EB
:1040B00010B50248FEF71FFD10BD000048040020A7
:1040C00010B50448FEF717FDFFF70AFEFCF766FC83
:1040D00010BD000084040020002202682C4B98428E
:1040E0000ED0B0F1804F0BD02A4B984208D02A4B0B
:1040F000984205D0294B984202D0294B984201D1D1
:10410000012300E000231BB122F070024B681A4328
:104110001F4B984220D0B0F1804F1DD01D4B9842CC
:104120001AD01D4B984217D01C4B984214D01C4BF0
:10413000984211D01B4B98420ED01B4B98420BD08B
:104140001A4B984208D01A4B984205D0194B984206
:1041500002D0194B984201D1012300E000231BB18A
:1041600022F44072CB681A4302608B68C3620B680A
:104170008362074B984202D0094B984201D1012338
:1041800000E000230BB10B69036301234361704717
:10419000000001400004004000080040000C004006
:1041A000000401400040014000440140004801403B
:1041B00000180040001C00400020004030B50C46B4
:1041C0000021816821F47F4142EA032525432943E8
:1041D000816030BD0A460021816821F0700142F003
:1041E000070319438160704730B50B461446002120
:1041F0000022026A056A25F001050562816921F045
:10420000F00141EA041122F00A021A4381610262BC
:1042100030BD30B50B46144600210022056A25F05A
:10422000100505628169026A21F4704141EA043196
:1042300022F0A00242EA03128161026230BD000056
:1042400010B50248FEF73DFD10BD0000C00400207F
:1042500010B50248FEF735FD10BD00000005002036
:1042600010B504462068C06820F040002168C8608E
:1042700094F83900322803D1222084F839000EE066
:104280002068C06820F480702168C8602068406998
:1042900020F0010021684861012084F8390020469F
:1042A000FFF75CF8002010BD70B50446002694F8B6
:1042B0003960222E01D0322E47D1A068B0F5805F40
:1042C0000DD1A56A206928B920684068C0F30800AC
:1042D000288011E020684068C0B228800CE0206986
:1042E00020B920684068A16A087005E0206840682D
:1042F00000F07F00A16A0870E08D08BB2068C068EC
:1043000020F020002168C86094F83900322803D1D9
:10431000122084F839000EE02068C06820F4807014
:104320002168C8602068406920F001002168486168
:10433000012084F839002046FEF700FF002070BD00
:104340002046FEF7FBFE0020F9E70220F7E7000019
:104350002DE9F041044600252068056925F4405503
:10436000E0680543206805612068C56849F20C6073
:1043700085432169A068084361690843E1690843EE
:1043800005432068C5602068456925F44075A0692B
:10439000054320684561E069B0F5004F72D173496B
:1043A0002068884203D072492068884234D1FDF7E2
:1043B00033FF00EBC00101EB001061684900B0FB66
:1043C000F1F06421B0FBF1F6FDF726FF00EBC00130
:1043D00001EB001061684900B0FBF1F7FDF71CFF2D
:1043E00000EBC00101EB001061684900B0FBF1F087
:1043F0006421B0FBF1F000EBC00101EB0010A7EB72
:104400008000322101EB00106421B0FBF1F066F373
:104410001F1021688860A6E0FDF7E8FE00EBC001F0
:1044200001EB001061684900B0FBF1F06421B0FBC2
:10443000F1F6FDF7DBFE00EBC00101EB0010616857
:104440004900B0FBF1F7FDF7D1FE00EBC00101EB35
:10445000001061684900B0FBF1F06421B0FBF1F09D
:1044600000EBC00101EB0010A7EB8000322101EB53
:1044700000106421B0FBF1F066F31F102168886022
:1044800071E0FFE739492068884203D03849206845
:10449000884234D1FDF7C0FE00EBC00101EB0010F3
:1044A00061688900B0FBF1F06421B0FBF1F6FDF723
:1044B000B3FE00EBC00101EB001061688900B0FBA6
:1044C000F1F7FDF7A9FE00EBC00101EB00106168F8
:1044D0008900B0FBF1F06421B0FBF1F000EBC0010A
:1044E00001EB0010A7EB8000322101EB00106421EA
:1044F000B0FBF1F066F31F102168886033E0FDF730
:1045000075FE00EBC00101EB001061688900B0FB93
:10451000F1F06421B0FBF1F6FDF768FE00EBC0019D
:1045200001EB001061688900B0FBF1F7FDF75EFE5A
:1045300000EBC00101EB001061688900B0FBF1F0F5
:104540006421B0FBF1F000EBC00101EB0010A7EB20
:104550008000322101EB00106421B0FBF1F066F322
:104560001F1021688860BDE8F08100000010014044
:104570000014014010B50146002391F83930122B88
:1045800001D0322B2CD18868B0F5805F0FD10A6A38
:104590001088C0F308000C686060086918B9086AE0
:1045A000801C086209E0086A401C086205E00C6A89
:1045B000601C086220780C686060C88C401E80B265
:1045C000C88458B90868C06820F080000C68E060B2
:1045D0000868C06840F040000C68E060002010BD32
:1045E0000220FCE72DE9F04104460E4617461D4621
:1045F0004FF00008FDF722FB80469FBB2BE0681CB4
:1046000048B32DB1FDF71AFBA0EB0800A84222D950
:104610002068C06820F080002168C8602068C068F9
:1046200020F020002168C8602068C06820F48070F5
:104630002168C8602068406920F001002168486155
:10464000012084F8390000BF002084F8380000BF42
:104650000320BDE8F081206800683040B04202D1FC
:10466000012001E003E000200028C8D035E02AE066
:10467000681C40B32DB1FDF7E1FAA0EB0800A84299
:1046800021D92068C06820F080002168C8602068B7
:10469000C06820F020002168C8602068C06820F44D
:1046A00080702168C8602068406920F0010021689E
:1046B0004861012084F8390000BF002084F83800E8
:1046C00000BF0320C5E7206800683040B04201D138
:1046D000012000E000200028CAD10020B9E7000036
:1046E00010B50248FEF7EDFA10BD000040050020AD
:1046F00010B50248FEF7E5FA10BD00008005002065
:1047000010B50248FEF7DDFA10BD0000C00500201C
:1047100010B50248FEF7D5FA10BD000000060020D3
:1047200070B50546002400BF25E0144850F8240069
:10473000406855F82410884215D055F82400B0F58B
:10474000966F10D355F82400B0F5E13F0BD855F81B
:1047500024000A4951F824104860084951F82400FF
:10476000FEF73FFB05E0054850F82400406845F897
:104770002400601CC4B2052CD7DB70BD5C00002097
:1047800002E008C8121F08C1002AFAD1704770471A
:10479000002001E001C1121F002AFBD17047000078
:1047A0000148007870470000290300202DE9F041FE
:1047B00080460C4615461E46002701F0D2FE0A2010
:1047C0000B490870334607222946204602F058FB61
:1047D000012801D0032706E044F6206002F084FBA4
:1047E000012800D0032701F0C0FE3846BDE8F08163
:1047F000230300202DE9F04104460D46164600270C
:1048000001F0AFFE0E480088032813DB0C48018836
:104810000C48006801F0ACFB60B90A4800680078F9
:10482000207007480088801E308006480068401CC1
:10483000286000E0052701F098FE3846BDE8F081C9
:1048400018030020140300202DE9F04104460D4612
:1048500016464FF0000801F084FE1748007818BB98
:10486000681E164908600120154908801348006831
:1048700004700846008830440880084601880F48C4
:10488000006801F075FB07460D490888411C0C4A79
:1048900011800C4909680F5401200B49087001214F
:1048A000002001F067FE01E04FF0050801F05DFE19
:1048B0004046BDE8F0810000110300201C030020E9
:1048C00020030020140300201003002010B501F085
:1048D00048FE0021012001F04DFE00200349087030
:1048E00001F043FE002002F0ABFA10BD11030020DE
:1048F00010B501F036FE0021084601F03BFE01F044
:104900004FFE01F032FE10BD10B5002406480078BD
:10491000012806D10548006820B104480068804796
:1049200000E00624204610BD4A0200205C02002060
:1049300010B50A48007838B9094800688047012056
:1049400006490870002406E004480078012801D1D7
:10495000002400E00624204610BD00004A0200208A
:104960005402002010B5002406480078012806D122
:1049700005480068804700200249087000E00624CE
:10498000204610BD4A020020500200202DE9F05FB1
:1049900006460D464FF0000B2888052848D1707850
:1049A0004FEA0029B07840EA090909F101001FFA2D
:1049B00080F9F078040230790443012C35DBB4F53A
:1049C000FA6F32DA374600202880012007F8010B01
:1049D0002888401C288004F0070040B12046E117D9
:1049E00004EB5171C910491C01F0FF0805E0204695
:1049F000E11704EB5171C1F3C70807F8018B288850
:104A0000401C2880002322464946384600F0BEFC60
:104A10008246BAF1000F04D0504601F073FA834683
:104A200008E028884044288004E04FF0030B01E0B0
:104A30004FF0030B5846BDE8F09F2DE9F05F0646A6
:104A40000D464FF0000B2888052847D170784FEAB3
:104A50000029B07840EA090909F101001FFA80F93C
:104A6000F078040230790443012C34DBB4F5FA6F9A
:104A700031DA374600202880022007F8010B288809
:104A8000401C288004F0070040B12046E11704EBE9
:104A90005171C910491C01F0FF0805E02046E117DB
:104AA00004EB5171C1F3C70807F8018B2888401C3B
:104AB000288022464946384600F06CFC8246BAF10E
:104AC000000F04D0504601F01DFA834608E0288804
:104AD0004044288004E04FF0030B01E04FF0030B4B
:104AE0005846BDE8F09F2DE9F04705460C464FF0CB
:104AF000000A2088052837D168784FEA0028A8786E
:104B000040EA080808F101001FFA80F8E878060278
:104B10002E79012E25DB7D2E23DC2F4600202080E0
:104B2000032007F8010B2088401C20807006000E2F
:104B300007F8010B2088401C2080002332464146A4
:104B4000384600F02BFC8146B9F1000F04D04846EE
:104B500001F0D8F9824609E0208800EB4600208069
:104B600004E04FF0030A01E04FF0030A5046BDE8AD
:104B7000F0872DE9F04705460C464FF0000A2088E3
:104B8000052837D168784FEA0028A87840EA080855
:104B900008F101001FFA80F8E87806022879064338
:104BA000012E24DB7D2E22DA2F46002020800420D7
:104BB00007F8010B2088401C20807006000E07F8C3
:104BC000010B2088401C208032464146384600F0C8
:104BD0003DFC8146B9F1000F04D0484601F092F93E
:104BE000824609E0208800EB4600208004E04FF078
:104BF000030A01E04FF0030A5046BDE8F0872DE9B3
:104C0000FC5F04460D460020009028880A285DDBE2
:104C100060784FEA002AA07840EA0A0A0AF1010007
:104C20001FFA80FAE07806022079064360794FEA9D
:104C3000002BA07940EA0B0B0BF101001FFA80FB5F
:104C4000E0790702207A0743607A0190012E3BDB6E
:104C50007D2E39DC012F37DB792F35DC7900019887
:104C6000814231D101233A46594604F10A0000F04D
:104C700095FB8146B9F1000F1ED1A0460020288087
:104C8000172008F8010B2888401C28807006000EA9
:104C900008F8010B2888401C288000233246514622
:104CA000404600F07BFB8146B9F1000F04D1288813
:104CB000022101FB06002880B9F1000F06D048460A
:104CC00001F020F9009001E0032000900098BDE879
:104CD000FC9F000070B505460C4606480288064950
:104CE000681CFBF7E3FA03480088401C2080002082
:104CF00070BD00000C030020088C00202DE9FC5F33
:104D000005460C464FF0000B00200090208802283A
:104D10006CDB6878012836D102272078C01B00F0B0
:104D2000FF08002001901EE0E85D00F00F09781CEC
:104D3000C7B2A8F1010000F0FF089DF80400401C74
:104D4000C0B20190C14502DD4FF0010B11E007EB4D
:104D50000900C7B29DF804004844C0B20190A8EB16
:104D6000090000F0FF08B8F1000F02D0BBF1000FFE
:104D7000DAD000BFBBF1000F04D0032000900098F0
:104D8000BDE8FC9F03E0032000900098F8E700BF17
:104D9000012201A9A81C00F0AFFB8246BAF1000F66
:104DA0001CD12E4600202080642006F8010B2088AC
:104DB000401C2080012006F8010B2088401C208028
:104DC000002201A9304600F097FB8246BAF1000F9D
:104DD00004D120889DF8041008442080BAF1000F07
:104DE00006D0504601F08EF8009001E003200090BC
:104DF0000098C5E72DE9F84304460F464FF0000838
:104E00003888052829D160780502A0780543681CF8
:104E100085B22079F0B9E078FF2801D0E078C8B9F0
:104E200000208DF80100E078FF2803D101208DF8E3
:104E3000000002E000208DF8000001231A462946F8
:104E4000684600F0A3FA06464EB1304601F05AF823
:104E5000804604E04FF0030801E04FF003084046AD
:104E6000BDE8F8832DE9F04104460F464FF00008F5
:104E70003888052812D160780502A0780543681C9F
:104E800085B201231A462946E01C00F087FA06463F
:104E900036B1304601F036F8804601E04FF00308A5
:104EA0004046BDE8F0812DE9F05F05460E464FF023
:104EB000000B3088052839DD68780702A878074399
:104EC000781C87B2E87804022879044395F805A095
:104ED00004F0070040B12046E11704EB5171C910FE
:104EE000491C01F0FF0805E02046E11704EB517171
:104EF000C1F3C708012C16DBB4F5F66F13DCD045FF
:104F000011D1012322463946A81D00F03FFA8146FF
:104F1000B9F1000F04D0484600F0F4FF834607E0E3
:104F20000520308004E04FF0030B01E04FF0030B4D
:104F30005846BDE8F09F2DE9F04704460E464FF075
:104F4000000A3088062828DB60780702A07807432B
:104F5000781C87B2E07805022079054394F8059023
:104F6000012D17DB782D15DC6806000E484511D1A0
:104F700001232A463946A01D00F010FA8046B8F1F8
:104F8000000F04D0404600F0BDFF824607E0052038
:104F9000308004E04FF0030A01E04FF0030A50466E
:104FA000BDE8F0872DE9F04705460C4616461F463A
:104FB000DDF820904FF000081CB1012C01DBF72C2C
:104FC00002DD4FF0020859E02E48047015B1012DA2
:104FD00042D120E02C482D4908602D482D49086019
:104FE0002D482E4908602E482E49086000202E4981
:104FF00008602E482E4908602E482F4908602F4827
:105000002F4908604B463A4631461E48007800F06A
:1050100007F9804623E02B481C4908602A481D49AF
:1050200008602A481D49086029481E490860002078
:105030001D49086027481E49086027481E49086026
:1050400026481F4908604B463A4631460D480078CD
:10505000FFF7ACFB804602E04FF0020800BF00BF44
:10506000B8F1000F0AD101F0DBFE10B94FF00308D0
:1050700004E01B48057001201A4908704046BDE84D
:10508000F087000048020020515300085002002021
:105090007553000854020020C15200084C02002041
:1050A00075520008580200205C020020416F000881
:1050B000600200200970000864020020C96F000827
:1050C00068020020CD480008F1480008494800085F
:1050D000F5470008B96B00080D6D0008E16C000889
:1050E000490200204A02002038B5002541480078D6
:1050F00008B1062038BD684601F080FE012877D14E
:105100009DF8000030B1012805D0022818D00328EE
:105110006DD16BE06BE0384A38493948394B1B6830
:10512000984705465DB9364800783749097888427E
:1051300002D03348007810B9022001F081FE56E019
:105140002E48006800783149087001203049087005
:10515000002417E02F4810F8340000B914E02D485F
:1051600010F834002949097888420AD1294800EB0F
:10517000C4002149426821480068904724490870CA
:1051800002E0641C102CE5DB00BF1D48007858B31A
:105190001F480078C8B10020174908801B480078D4
:1051A00040F08001144802880088401C124B18808F
:1051B0001248006881541648027818460188008811
:1051C000401C18800D48006842541348007801289C
:1051D00000D100BF08480288084801680A480078E2
:1051E0000E4B1B689847054601E001E000BF00BF79
:1051F00000207FE74A020020FA020020F40200208B
:10520000F80200205802002048020020F902002085
:10521000FC02002074020020490200204C02002001
:105220002DE9F04781460E4614461F464FF0000810
:1052300001F097F93B4608222146304601F020FE56
:10524000012802D04FF003080CE060000849B1FBD0
:10525000F0F505B90125A8B201F046FE012801D0FC
:105260004FF0030801F081F94046BDE8F0870000E7
:10527000A07F17002DE9F04104460D4616464FF079
:105280000008002701F06DF90B48008804280CDBAA
:105290000A480078207008480088C01E30800748FF
:1052A000401C28604FF0010800E0052701F05DF97F
:1052B0003846BDE8F08100000A030020088B00207A
:1052C0002DE9F04105460E4617464FF0000801F063
:1052D00048F91A480078012829D1701E1849086039
:1052E00001201849088016480068057008460088A3
:1052F00038440880084601881148006801F0C8F861
:10530000044610490888411C0E4B19800E490C5464
:10531000221219460888411C19800B490A540120A1
:105320000A4908700121002001F024F901E04FF042
:10533000050801F01AF94046BDE8F081010300209C
:105340000403002008030020088B00200003002035
:1053500010B501F006F90020054908700021012070
:1053600001F008F901F028F901F0FFF810BD000084
:105370000103002010B501F0F4F80021084601F007
:10538000F9F801F00DF901F0F0F810BD10B5044680
:10539000012010BD03460120704700002DE9F047B1
:1053A00004460F46164698464FF00009012F43DB8E
:1053B000B8197E2840DC234800883D1AB8F1000F58
:1053C00003D0B8F1010F36D111E00DE01E4830F8DE
:1053D0001500001204F8010B1B4810F8150004F822
:1053E000010B6D1C701E86B2002EEFDC23E010E076
:1053F00014F8011B0802144921F8150014F8010BD8
:1054000031F815100843104921F815006D1C701E65
:1054100086B2002EECDC0C48FFF782F90A49087DC1
:10542000FBF732FB08498869FEF794FB0649087FC1
:10543000FBF716FB00BF01E04FF001094846BDE84D
:10544000F087000072000020C006002070B50446FE
:105450000020B1F57A7F0EDB8D1840F26546B5422B
:1054600009DC064D2D884B1B02E05B1C551EAAB2C1
:10547000002AFADC00E0012070BD0000700000206E
:105480002DE9F04105460E4617461C464FF0000830
:10549000A01C202826DA002015490880084601882B
:1054A0000088401C124A1080124845540EB1FF2259
:1054B00000E000220E4801880088401C0C4B188038
:1054C0000C484254002C0FDD01461A4612888818F9
:1054D00022463946FAF7EAFE054800882044044986
:1054E000088001E04FF004084046BDE8F08100006C
:1054F0000C030020088C00202DE9F74F84B00646ED
:105500008A4600200390069810B101285AD12FE056
:105510000024002527E02E4850F825700FB3019491
:105520004FF0000908E0601CC4B209F1010000F06E
:10553000FF099DF808003055B9F11F0F07DA002365
:105540001A4602A9386801F062FE0128EBD0B9F1D1
:10555000000F06D049EA4510C1B201983154601CD1
:10556000C4B2681CC5B2082DD5DB8AF8004029E01A
:1055700000249AF8008022E0305D4511154850F86B
:105580002570305D00F01F0B601CC4B2A8F1010053
:105590000FFA80F810E02FB1311900231A4638684D
:1055A00001F01EFF601CC4B2A8F101000FFA80F8E0
:1055B000ABF1010000F0FF0BBBF1000FEBD1B8F134
:1055C000000FD9DC00BF039807B0BDE8F08F0000E2
:1055D0007001002090010020FCF7FAFBFEF7E0FCD0
:1055E000FDF7B4FFFDF724FFFDF748FFFDF76CFF63
:1055F000FDF788FFFEF7AAF8FEF7C4F8FEF7E0F81B
:10560000FEF702F9FEF71AF9FEF730F9FEF746F950
:10561000FEF75CF9FEF772F9FEF788F9FDF7ACFECC
:105620000F4800F0BDFD0F4800F0BAFD0E4800F035
:10563000B7FD0E4800F0B4FD0D4800F0B1FD0D4877
:1056400000F0AEFDFBF72EF8FEF788F9FBF75AFAEB
:10565000FBF790F9FDF776FF00F021F800BFFEE7B9
:105660004005002080050020C0050020C004002067
:10567000000500200006002001460020842901D0FA
:10568000CA1C1044704770B5044625460DB1294622
:1056900000E00121084601F08DF8002070BD10B532
:1056A00001F0F4F9002010BD70B504460D4600224B
:1056B000D4E9000101F073FD70BD10B502F05EF891
:1056C000012801D001F030FD10BD70B586B0044650
:1056D0000D46B4F90800FFF7CFFF0646002005AAE3
:1056E000CDE9012000960390238A9AB22B46D4E993
:1056F000001001F0A7FF012802D0002006B070BD05
:105700000598FBE7F8B504460D461646206800905C
:10571000012D01D1012000E0002002463346012185
:1057200001A002F0FDF9F8BD0000000010B504462C
:105730000E48006844600E480068844207D20B4857
:105740000168091D0B48006800F0E5FE0CE0074801
:105750000168091D0848006800F0DDFE0748006880
:10576000844201D20548046010BD000010020020F0
:105770002402002018020020140200204002002011
:105780002DE9F04105460F461FB9A80000F056FC70
:1057900000E03846064656B15C2000F04FFC044657
:1057A0000CB1266304E0304600F04AFF00E000241C
:1057B00024B1A900A522206BFAF78AFD2046BDE896
:1057C000F081000010B500F003FF1448006808BB2A
:1057D000134800F090FE134800F08DFE1048124967
:1057E000086010481149086000220C210A2001F0CD
:1057F000D6FC0A4908600846006818B9FAF736FD71
:1058000000BFFEE70548006820B109A10348006811
:1058100000F09CFF00F0FEFE10BD0000E40100203F
:105820001009002024090020DC010020E0010020F4
:10583000546D72510000000070B523E001F056F97C
:105840001348006808B9012000E00020054602F076
:10585000F3F8BDB900F0BCFE0D48C068C468201D57
:1058600000F032FE0B480068401E0A4908600A48F2
:105870000068401E0849086000F0CCFE204600F099
:1058800062F800BF044800680028D7D170BD00004E
:10589000E08A0020200200201C02002070B504468F
:1058A0000D46206C70B1216CE0680844E0606168CE
:1058B000E068884201D32068E0602846226CE168F5
:1058C000FAF7F4FC70BD2DE9F04104460E4615468A
:1058D0000027206C40B9206878BB606802F010F89F
:1058E00007460020606028E07DB93146226CA06840
:1058F000FAF7DCFC216CA0680844A060D4E9011030
:1059000088421AD32068A06017E03146226CE06814
:10591000FAF7CCFC216CE068401AE0602168E0688E
:10592000884203D2216C6068401AE060022D04D1E5
:10593000A06B10B1A06B401EA063A06B401CA063C5
:105940003846BDE8F08110B50446206B00F078FEC3
:10595000204600F075FE10BD0146084A1268126824
:105960000AB9012200E000220A600A6822B9034A4B
:105970001268D268106800E000207047DC01002047
:1059800030B54FF40043174800F007042CB1C01D98
:1059900020F00700134C041B1B1B0246124C226014
:1059A0000024114D6C60D018083820F007000F4C0F
:1059B000206000240D4D2D686C600C4D2D682C600E
:1059C0001146441A4C60094C24680C60084D4C6820
:1059D0002C60084D4C682C604FF00044064D2C6044
:1059E00030BD000038090020EC010020F401002047
:1059F000FC010020F80100200002002000BFFFF79A
:105A00001BFF034800680128F9D900F093FEF6E770
:105A1000788900202DE9F04704460F46154699463F
:105A2000DDF82080002607E0B95D04F134008155DF
:105A3000B85D00B902E0761C102EF5D300BF00213E
:105A4000432001550F2D00D30E25E562E5640020AB
:105A50002065201D00F05CFD04F1180000F058FDE9
:105A60002461C5F10F00A06164620020606584F8C4
:105A70005800BDE8F087000010B5002407E004EBF3
:105A800084010F4A02EB810000F035FD641C0F2CED
:105A9000F5D30C4800F02FFD0B4800F02CFD0B480F
:105AA00000F029FD0A4800F026FD0A4800F023FD19
:105AB00004480949086004480849086010BD00000E
:105AC00078890020A48A0020B88A0020CC8A00208F
:105AD000E08A0020F48A002014020020180200202E
