:020000040800F2
:10000000A08D0020890200089102000893020008D8
:1000100095020008970200089902000800000000FD
:10002000000000000000000000000000C101000806
:100030009D0200080000000015020008F92B0008CE
:10004000A3020008A3020008A3020008A3020008FC
:10005000A3020008A3020008A3020008A3020008EC
:10006000A3020008A3020008A3020008A3020008DC
:10007000A3020008A3020008A3020008A3020008CC
:10008000A3020008A3020008A3020008A3020008BC
:10009000BD050008A3020008A3020008A30200088F
:1000A000A3020008A3020008A3020008A30200089C
:1000B000C12C0008A3020008A3020008A302000844
:1000C000A3020008A3020008A3020008A30200087C
:1000D000A302000805310008113100081D31000895
:1000E000A3020008A3020008A3020008A30200085C
:1000F000A3020008A3020008A3020008A30200084C
:10010000A3020008A3020008A3020008A30200083B
:10011000F92D0008052E0008A3020008A30200081C
:10012000A3020008A3020008A3020008A30200081B
:10013000A3020008A3020008A3020008A30200080B
:10014000A3020008A3020008A3020008A3020008FB
:10015000A3020008A3020008A30200082931000836
:10016000A3020008A3020008A3020008A3020008DB
:10017000A3020008A3020008A30200080000000078
:10018000A3020008A3020008A3020008A3020008BB
:10019000A3020008A3020008A3020008A3020008AB
:1001A000A3020008A3020008A3020008DFF80CD095
:1001B00000F0AEF800480047D13C0008A08D0020B8
:1001C000294B19680868B0E8F04F80F30988BFF33D
:1001D0006F8F4FF0000080F311887047000000001F
:1001E00006480068006880F3088862B661B6BFF30D
:1001F0004F8FBFF36F8F00DF00BF00BF08ED00E03F
:10020000DFF80C00016841F470010160704700BF25
:1002100088ED00E0EFF30980BFF36F8F124B1A688F
:100220001EF0100F08BF20ED108A20E9F04F10607B
:1002300008B44FF0500080F3118804F0F9FC4FF03F
:10024000000080F3118808BC19680868B0E8F04F16
:100250001EF0100F08BFB0EC108A80F30988BFF3BE
:100260006F8F704700BF00BF98010020EFF311802F
:100270004FF0500181F31188704780F31188704767
:10028000EFF30580704700000648804706480047A6
:10029000FEE7FEE7FEE7FEE7FEE7FEE7FEE7FEE736
:1002A000FEE7FEE76D2C0008AD01000840EA0103FF
:1002B0009B0703D009E008C9121F08C0042AFAD21C
:1002C00003E011F8013B00F8013B521EF9D27047E0
:1002D000D2B201E000F8012B491EFBD27047002288
:1002E000F6E710B513460A4604461946FFF7F0FF35
:1002F000204610BD30B504460020034600E05B1CDC
:10030000934203D2E05CCD5C401BF8D030BD0000CE
:10031000064C074D06E0E06840F0010394E8070052
:1003200098471034AC42F6D3FFF744FFD45D000881
:10033000F45D000870B58C1810F8015B15F0070328
:1003400001D110F8013B2A1106D110F8012B03E06E
:1003500010F8016B01F8016B5B1EF9D12B0705D476
:100360000023521E0DD401F8013BFAE710F8013BBF
:10037000CB1A921C03E013F8015B01F8015B521EDB
:10038000F9D5A142D8D3002070BD00001FB50120CF
:1003900004F0D8FE07498022086000200121CDE941
:1003A000001002900346039003A1064805F0E2F80E
:1003B0001FBD00004001002041444320706F6C6C61
:1003C000696E6700E5040008434910B5D1F80423BD
:1003D00022F44032C1F80423D1F8042343681A43BD
:1003E000C1F8042301684A6822F480724A600168F7
:1003F0004A68036942EA03224A6001684A6822F0B7
:1004000040724A6001684A6883681A434A6001681A
:100410008A6822F400628A6001688A68C3681A43A5
:100420008A6001688A6822F070628A6001688A685E
:10043000036B1A438A6001688A6822F040528A601E
:1004400001688A68C36A1A438A6001688A6822F070
:1004500002028A6001688A68836942EA43028A600C
:10046000416A002901684A680FD042F400624A607C
:1004700001684A6822F460424A6001684A68174C81
:10048000836A04EB43331A4301E022F400624A60BA
:100490000168CA6A22F47002CA620168CA6A038CDF
:1004A0000F4C04EB03531A43CA6201688A6822F4B2
:1004B00000728A6001688A68C36942EA43228A60DE
:1004C00001688A6822F480628A6001688A684069EB
:1004D00042EA8020886010BD0020014000E0FFFF5C
:1004E0000000F0FF86B00820009001200190072056
:1004F000029069461D4800F0B7F905F00BF91C4E53
:1005000004901C4D00244FF0FF382F1D305D0090EB
:100510006946164800F0A8F9144800F09BFA0A2131
:10052000124800F071FAA8B9104800F02FFA152807
:1005300010D1002342461946286804F04FFE0B48AC
:1005400000F027FA002327F814001A4619462868F5
:1005500004F010FF054800F0BBFA641CE4B2032C61
:10056000D4D3642104A804F04FFACAE7E4020020BF
:10057000445B00084001002070B5074C00235A1E60
:100580001946606904F02AFE6069BDE870400023E6
:100590001A46194604F0EEBE20010020064D90B028
:1005A0004FF0FF34002322466946286904F016FE06
:1005B0006846FFF7E1FFF5E720010020014800F061
:1005C0000BBB0000EC0500208EB005F0A3F812492B
:1005D0000D9040F22130C1F830D000904FF480707F
:1005E00001900020039004200290082004903A20FB
:1005F0000590FF20AA21CDE90601CDE90801CDE94A
:100600000A010C900A21044800F0E0FC0A210DA820
:1006100004F0FAF9F6E700002C06002070B58EB061
:1006200000244FF40060CDE904404FF6F870CDE9A6
:100630000640012508940E20CDE90C500994CDE91F
:100640000A4504A9134800F04DFA12491248002245
:1006500048633C210A2004F09DFD104E30610120CA
:1006600004F070FD7061CDE90054029400238022F3
:100670000BA10F48039404F07DFF0520CDE9000491
:100680000294002380220BA10E48039404F072FF11
:100690000EB070BDEC050020EC060020200100200B
:1006A00043414E31204C697374656E696E6700007A
:1006B0009D05000843414E322053656E64696E67A4
:1006C00000000000C905000810B54FF4D872036897
:1006D00002EB01129B5813F00404436B9C60046806
:1006E000436BA4585CD0E4085C6003689A58436B81
:1006F00002F00202DA604FF4DA72036802EB0112D0
:100700009B58446B03F00F03236103689A58436BB3
:10071000C2F307225A634FF4DC72036802EB011242
:100720009B58446BDBB2636103689B58446BC3F313
:100730000723A36103689B58446BC3F30743E3613A
:1007400003689A58436B120E1A624FF4DE72036804
:1007500002EB01129B58446BDBB2636203689B5847
:10076000446BC3F30723A36203689B58446BC3F332
:100770000743E36203689A58436B120E00291A6319
:10078000016810D00A6942F020020A6101684A69D2
:1007900022F010024A6190F8381022290CD024E08F
:1007A000640D1C60A1E7CA6842F02002CA600168BB
:1007B0004A6922F00202EDE701684A6922F4807278
:1007C0004A6101684A6922F400724A6101684A6913
:1007D00022F480624A6101684A6922F400624A6137
:1007E00001684A6922F400424A6190F838103229BF
:1007F00006D0012180F8381000F0CCFB002010BD9D
:100800001221F7E710B501684A6922F001024A6136
:1008100090F83810122918D101684A6922F48072C0
:100820004A6101684A6922F400724A6101684A69B2
:1008300022F480624A6101684A6922F400624A61D6
:1008400001684A6922F400424A6190F8381032295E
:1008500006D0012180F8381000F086FC002010BD81
:100860002221F7E77047000030B590F83C20012ABC
:1008700019D0012280F83C200A6807230468092A5D
:1008800013D9E5680A3A02EB420293409D43E560C2
:100890000B788A680A3B03EB43039A400368DC68E1
:1008A0002243DA6010E0022030BD256902EB4202EB
:1008B00093409D4325610B788A6803EB43039A407C
:1008C00003681C6922431A614A681F23072A13D24E
:1008D0000468656B521E02EB820293409D43656380
:1008E0000B790A885B1E92B203EB83039A4003687C
:1008F0005C6B22435A6327E004680D2A12D2256BF1
:10090000D21F02EB820293409D4325630B790A8834
:10091000DB1F92B203EB83039A4003681C6B2243F4
:100920001A6311E0E56A0D3A02EB820293409D439F
:10093000E5620B790A880D3B92B203EB83039A4080
:100940000368DC6A2243DA620F4A0368934208D1E3
:100950000B68122B05D1D2F8043343F48003C2F89C
:100960000433036893420AD10968102901D0112980
:1009700005D1D2F8041341F40001C2F80413002198
:1009800080F83C10084630BD0020014090F83D0042
:1009900070470068C06C704710B5040003D094F82D
:1009A0003D0010B104E0012010BD204600F00EF81B
:1009B000022084F83D002046FFF706FD0020206459
:1009C000012184F83D1084F83C0010BD00B500689A
:1009D0000A4985B088420FD10948016841F4806115
:1009E00001604FF486600090032001900020029087
:1009F0006946044800F0C0FB05B000BD002201407C
:100A0000443802400014024070B50D46044600F020
:100A100099FC06460FE0681C0DD025B100F092FC51
:100A2000801BA84207D9032084F83D00002084F8E9
:100A30003C00032070BD206800688007EBD594F867
:100A40003D00252804D0152084F83D00002070BD0D
:100A50003520F9E790F83C200021012A0FD001222F
:100A600080F83C2090F83D20222A0AD05FF0120244
:100A700080F83D2002689368DB0704D00EE0022076
:100A800070473222F4E7936843F0010393604FF418
:100A9000077200BF491C89B29142FAD90B4AD2F8B9
:100AA0000413C90605D00168914209D1C26A1AB17E
:100AB00006E0C16A21B901688A6842F080428A6012
:100AC000002180F83C1008467047000000200140DB
:100AD00001688A6822F001028A60012180F83D10D5
:100AE00000207047F0B50A7D01209040344A136819
:100AF00043F001031360136823F47C5313601368FD
:100B00004C6A43EA042313602D4B1C331C68844356
:100B10001C602B4D2B4CCE690C35A6B92E68864334
:100B20002E608F894E6867F31F464F6904EBC70735
:100B3000C7F840660F890E6867F31F464F6904EBDC
:100B4000C707C7F84466CE69012E14D12E68064344
:100B50002E600E884D6866F31F454E6904EBC6068D
:100B6000C6F840560E89CD6866F31F454E6904EB02
:100B7000C604C4F84456124C8D69241D002D256806
:100B800006D0054325600E4C0D69143415B104E000
:100B90008543F7E72568854325600D69012D02D15E
:100BA000256805432560096A012902D119680143B6
:100BB0001960106820F0010010600020F0BD0000F6
:100BC00000660040006000400248C168491CC160E6
:100BD000704700002001002010B5044600684169FC
:100BE000C943C90714D182685E49914377D0002177
:100BF00083685D4A9A4374D0002283685B489843B7
:100C000071D000201143014302D02046FFF7FAFDC6
:100C10002168C868496910F0030FC1F3400104D08E
:100C200019B100212046FFF74FFD21680869496985
:100C300010F0030FC1F3001104D019B101212046B7
:100C4000FFF742FD20688169426911F0010F436995
:100C5000C2F30022C3F3C03308D03AB133B1E16B21
:100C600041F00101E1636FF0010181612068816958
:100C7000C1F340024169C1F340234169C1F3C0316E
:100C800042B13BB131B1E16B41F00201E1636FF080
:100C900002018161206881694269C1F38001436971
:100CA000C2F38022C3F3C03341B13AB133B1E16B37
:100CB00041F00401E1636FF0040181612068816902
:100CC00011F0700F11D000234169C1F3C0224169B6
:100CD000C1F3C0315BB12AE001E002E003E0012191
:100CE00086E7012289E701208CE70123ECE7F2B1D6
:100CF000E9B1816901F07001402926D006DC102994
:100D000009D020290BD030290DD11AE0502920D04C
:100D1000602908D121E0E16B41F0080102E0E16BBC
:100D200041F01001E163816921F070018161E06BA4
:100D3000002805D0012084F838002046FFF744FF42
:100D400010BDE16B41F02001ECE7E16B41F04001A7
:100D5000E8E7E16B41F08001E4E7E16B41F4807189
:100D6000E0E7000003000004000300080000031097
:100D70002DE9F041040003D094F8380018B105E0E3
:100D80000120BDE8F081204600F094F8022084F8AC
:100D900038002068016821F00201016020680168C4
:100DA00041F00101016000F0CDFA0025074603265D
:100DB00005E000BF00F0C6FAC01B0A2863D820680F
:100DC0004068C007F6D020684168C90768D0A169AB
:100DD000012901683FD021F080010160E06901280C
:100DE000206801683AD021F040010160206A0128A2
:100DF0002068016835D021F020010160606A012877
:100E00002068016830D021F010010160A06A01283B
:100E1000206801682BD021F008010160E06A0128F8
:100E20002068016826D021F004010160D4E90201A4
:100E30000843D4E90412114308436168491E08437A
:100E40002168C8612068016821F00101016000F09B
:100E500079FA07461CE041F08001BEE741F040010D
:100E6000C3E741F02001C8E741F01001CDE741F0B0
:100E70000801D2E741F00401D7E700BF00F062FAB1
:100E8000C01B0A2804D904F8386F0320657078E77E
:100E900020684068C007F1D120684068C00703D0CF
:100EA000042084F838006BE7E563012084F83800FB
:100EB000002066E770B5114E05680021104A022433
:100EC0000923104886B0B54206D1156845F0007573
:100ED00015604FF4407207E00B4EB5420CD1156817
:100EE00045F08065156060220092CDE90141CDE9B1
:100EF0000313694600F040F906B070BD006400407D
:100F000040380240000402400068004010B590F8EC
:100F10003820012A01D0122A39D190F83920012A2B
:100F200035D0012280F8392090F83820122A29D0B3
:100F30005FF0220280F838200022C26303685C69F7
:100F400044F480745C6103685C6944F400745C611F
:100F500003685C6944F480645C6103685C6944F420
:100F600000645C6103685C6944F400445C6180F87F
:100F7000392000680029416906D041F01001416123
:100F8000002010BD3222D5E741F00201F7E7022030
:100F900010BD000010B5416B0A4C087D2070002088
:100FA0000346A06004F10802206904F06DFAA0680D
:100FB000012801D103F0C4FCBDE810400021024823
:100FC000FFF7A4BF20010020EC0500202DE9F05F11
:100FD000044690F839000E46012813D04FF001085E
:100FE00084F8398094F8380022280ED05FF012007F
:100FF00084F83800216888684FF00007400106D562
:1010000000250DE00220BDE8F09F3220F0E788685F
:10101000000101D5012503E08868C00061D50225E3
:101020004FF4C07000EB05100A5802F001020A509C
:10103000216B8A68F2B3D4F800C05CF80030134327
:10104000CA68496842EAC1010B434CF80030216B81
:101050000A7C02F00F020A614FF4C271226801EBB0
:101060000511535823F00F03535022685358D4F8F6
:1010700030C0DCF810C043EA0C035350216B91F8E8
:1010800020304A6942EA03628B8B89691B0443EA78
:1010900001210A434FF4C473216803EB0513CA50BE
:1010A000216B91F830304A6A42EA03628B8D896A7B
:1010B0001B0400E01BE043EA01210A434FF4C6731E
:1010C000216803EB0513CA5021680A5842F0010257
:1010D0000A5000F037F98146DFF880A0DFF880B0D1
:1010E0001EE0042004F8380F012067708BE72268A7
:1010F0001358D1F80CC0098843EA0C0343EA415164
:101100001150A4E7701C0BD02EB100F01BF9A0EB1E
:101110000900B04204D9032004F8380F677072E761
:101120008DB12068012D816812D00E4888430028B7
:10113000E8D194F8380032280DD0404604F8380F32
:10114000002067705FE7206881682AEA0100EEE707
:101150002BEA0100EBE72220F0E700000300000487
:10116000000300080000031002484168491C416068
:1011700070470000200100202DE9F04FDFF880B11A
:1011800000224FF001084FF0030A4FF00F090BF156
:10119000040E00BF0B6808FA02F42340A3426FD18B
:1011A0004D68022D01D0122D0ED1D50800EB850C13
:1011B000DCF820505607F70E09FA07F6B5430E691A
:1011C000BE402E43CCF82060066855000F790AFA1D
:1011D00005FC07F0030726EA0C06AF40374307601B
:1011E0004E68012E05D0022E03D0112E01D0122EF2
:1011F0000ED18668CF6826EA0C06AF403743876079
:101200004668A6430C79C4F3001494403443446008
:10121000C6688C6826EA0C06AC403443C4604C684F
:10122000E40066D5374C256845F480452560364C8A
:1012300022F003052E19D6F8084895072F0F09FA52
:1012400007F5AC43314DA84201D1002529E0304DCE
:10125000A84201D1012524E02E4DA84201D102254A
:101260001FE02D4DA84201D103251AE02B4DA842C5
:1012700001D1042515E02A4DA84202D1052510E030
:1012800037E0284DA84201D106250AE0264DA842A4
:1012900001D1072505E0254DA84201D1082500E030
:1012A0000925BD402543C6F80858DBF800405D46D7
:1012B0004E689C43F60300D51C432C60DEF80040CA
:1012C00075464E689C43B60300D51C432C600C4DFC
:1012D00008352C684E689C43F60200D51C432C60F0
:1012E000074D0C352C684E689C43B60200D51C4354
:1012F0002C60521C102AFFF44DAFBDE8F08F0000A7
:10130000003C0140443802400030014000000240EF
:101310000004024000080240000C0240001002409D
:101320000014024000180240001C0240002002404D
:1013300042694A40426170470AB1816170470904BD
:10134000FBE7000001480068704700004C010020E6
:1013500010B5040003D094F8350010B104E001206A
:1013600010BD204600F074F8022084F83500206893
:10137000016821F00101016000F0FCF932492268A6
:10138000B0FBF1F15160314A6368934206D94FF4E2
:10139000967359434FF47A73B1FBF3F12368491CF8
:1013A0001962616891420BD84900B0FBF1F2C2F3B7
:1013B0000B02042A01D204201AE0B0FBF1F017E07E
:1013C000A36893B301EBC10202EB0112B0FBF2F28E
:1013D00042F4804212052FD043B301EBC10202EB6D
:1013E0000111B0FBF1F040F4804000BF40F4004038
:1013F0002168C861D4E90701084321680860D4E97D
:101400000310084321688860D4E905010843216876
:10141000C8602068016841F0010101600020A063FC
:10142000012084F83500002010BD00E006E001EB4B
:101430004102B0FBF2F2CDE70120D9E701EB410117
:10144000B0FBF1F0D2E7000040420F00A08601009F
:1014500000B500680B4985B0884211D103201221E4
:10146000CDE900010121CDE9021004200490694674
:101470000548FFF781FE0548016841F480010160DD
:1014800005B000BD00580040001402404038024042
:1014900002480168491C0160704700004C010020AF
:1014A0000B4810B5016841F400710160016841F416
:1014B00080610160016841F480710160032000F0E7
:1014C00051F8002000F006F800F015F8002010BDDB
:1014D000003C024010B5044600F032F94FF47A7136
:1014E000B0FBF1F000F0D2FB00222146501E00F0CC
:1014F00019F8002010BD10B5032000F033F80022C9
:10150000BDE810401146501E00F00CB800F01F025C
:10151000012191404009800000F1E020C0F8001155
:1015200070470000F0B40E4B1B680C46C3F3022357
:10153000C3F10705042D00D90425191D072901D27F
:10154000002300E0DB1E012606FA05F1491E2140BA
:1015500099409E40761E16403143F0BC01F078BAA7
:101560000CED00E0064900F0070208684FF6FF03A3
:10157000184040EA0220034A104308607047000008
:101580000CED00E00000FA052DE9F047DFF8A8A116
:1015900005460E46DAF80000684C00F00F01674877
:1015A000083406F0FF0941F28838B14254D28AF873
:1015B0000090DAF8001001F00F01B1426FD12978E4
:1015C000890705D52168AA6821F0F001114321603F
:1015D0002978C90728D06968012914D00068022930
:1015E00014D0800700285ADA206820F0030008434E
:1015F0002060FFF7A7FE0646686801280ED0022883
:10160000474618D023E000688003EBE78001E9E754
:10161000FFF798FE801BB84201D964E04746206876
:10162000C0F381000128F3D16EE000BFFFF78AFE0E
:10163000801BB84257D82068C0F381000228F5D13A
:1016400062E000BFFFF77EFE801BB8424BD82068E7
:1016500010F00C0FF6D157E02978890705D52168DD
:10166000AA6821F0F001114321602978C90741D00F
:101670006968012914D00068022914D08007002865
:1016800040DA206820F0030008432060FFF75AFE8C
:101690000746686801280ED0022818D026E031E0FD
:1016A00000688003EBE78001E9E700BFFFF74AFE2F
:1016B000C11B414517D82068C0F381000128F5D12E
:1016C00018E000BFFFF73EFEC11B41450BD8206864
:1016D000C0F381000228F5D10CE000BFFFF732FE15
:1016E000C11B414502D90320BDE8F087206810F0F6
:1016F0000C0FF3D18AF80090DAF8000000F00F0028
:10170000B04201D00120EFE72878400705D52068D6
:10171000E96820F4E050084320602878000706D5E7
:101720002068296920F4604040EAC1002060002060
:10173000FFF7D0FE0020D7E7003C0240003802400F
:1017400000B500F043F808490968F02292FAA2F2C5
:1017500001F0F001B2FA82F2D140044A515CC84073
:101760000349086000BD000008380240475B0008DC
:101770005001002000B5FFF7E3FF074909684FF467
:10178000E05292FAA2F201F4E051B2FA82F2D140B0
:10179000024A515CC84000BD08380240475B00085F
:1017A00000B5FFF7CDFF074909684FF4604292FA90
:1017B000A2F201F46041B2FA82F2D140024A515CD5
:1017C000C84000BD08380240475B000830B51948E2
:1017D000006810F00C01184812D0184C04290ED0E3
:1017E00008290DD11349091F0A6802F03F030A684E
:1017F000550247F6C07204D5B4FBF3F003E020466F
:1018000030BDB0FBF3F00B680968134092FAA2F206
:10181000B2FA82F2D34058434FF4403292FAA2F225
:1018200001F44031B2FA82F2D140491C4900B0FBC8
:10183000F1F030BD083802400024F400001BB7006E
:101840002DE9F84F04460078DFF814A3C54DC00712
:101850004FF000064BD0DAF800105046C1F381017A
:10186000012908D00068C0F3810002280AD1281D90
:101870000068400206D52868800338D560680028D3
:1018800071D034E0DFF8DC9209F1020989F80060D8
:10189000FFF758FD804641F2883705E0FFF752FD1B
:1018A000A0EB0800B8427DD828688003F6D42079E0
:1018B00089F80000606868B1FFF744FD804605E0E4
:1018C000FFF740FDA0EB0800B842ECD82868800381
:1018D000F6D50CE0FFF736FD804605E0FFF732FD58
:1018E000A0EB0800B842DED828688003F6D4207840
:1018F0009D4F80074FF0010B45D5DAF80010504698
:1019000011F00C0F4FF0F80909D00068C0F3810006
:1019100002280BD19248001F0068400206D42868B4
:10192000800714D5E06801281DD110E0E068D8B127
:10193000C7F800B0FFF706FD804605E0FFF702FD9F
:10194000A0EB08006428AED828688007F6D5286880
:1019500099FAA9F22169B2FA82F220F0F8009140D6
:10196000084328600FE0F8E03E60FFF7EBFC80469C
:1019700006E000BFFFF7E6FCA0EB0800642811D8E2
:1019800028688007F6D42078000729D5DFF8D091A1
:101990007648616909F16C0999B1C0F800B0FFF7A8
:1019A000D1FC00E085E0804606E000BFFFF7CAFCFE
:1019B000A0EB080064287CD8D9F800008007F5D592
:1019C0000EE00660FFF7BEFC804605E0FFF7BAFCBC
:1019D000A0EB080064286CD8D9F800008007F5D483
:1019E0002078400756D55E483830016841F0805174
:1019F0000160DFF87C91D9F8001041F48071C9F8DA
:101A00000010FFF79FFC804606E000BFFFF79AFC3E
:101A1000A0EB080064284CD8D9F80000C005F5D523
:101A2000DFF83C8108F1680888F80060FFF78AFC5D
:101A300041F28839009005E0FFF784FC0099411AD3
:101A4000494536D8D8F800008007F5D4207A88F8C0
:101A50000000A068012803D0FFF774FC009015E097
:101A6000FFF770FC009005E0FFF76CFC0099411A4D
:101A700049456AD8D8F800008007F5D50AE000BFCC
:101A8000FFF760FC0099411A49455ED8D8F800007C
:101A90008007F5D4A069E0B3DAF80010C1F3810142
:101AA00002295AD002283E6604D0FFF74BFC0446B8
:101AB0004EE04AE0FFF746FC064604E0FFF742FC32
:101AC000801B642841D828688001F7D4D4E9071026
:101AD000084347F6C07292FAA2F2616AB2FA82F241
:101AE0009140A26A4FF0FF3303EB52024FF44033B0
:101AF00093FAA3F3B3FA83F39A40114308434FF0E8
:101B0000706292FAA2F2E16AB2FA82F2914008435C
:101B100000E020E040F000511148001F0160C7F8CC
:101B200060B0FFF70FFC044605E000BFFFF70AFCBA
:101B3000001B642809D828688001F7D50BE000BF96
:101B4000FFF700FC001B642802D90320BDE8F88FD2
:101B500028688001F4D40020F8E70120F6E70000AF
:101B6000083802400038024000004742800E4742D9
:101B70000070004010B5040003D094F8510010B17B
:101B800004E0012010BD204600F034F8022084F863
:101B900051002068016821F040010160D4E9010191
:101BA0000843D4E903121143084361690843218BB8
:101BB00001F400710843E1690843216A0843A16AFE
:101BC000084321680860A069042101EA1040616AA5
:101BD0000843216848602168E06A08612068C1699B
:101BE00021F40061C16100206065012084F851008A
:101BF000002010BDF0B502681D4800250224032610
:101C0000052785B082420AD11A48016841F4805103
:101C10000160E0208DE8F1006946174815E015499C
:101C2000164B091F16489A4213D10A6842F48042A3
:101C30000A600C218DE8F2006946FFF79DFA4FF427
:101C400080608DE8F10069460E48FFF795FA05B00F
:101C5000F0BD0D4B9A42FAD10A6842F400420A6084
:101C60004FF440618DE87200062104916946ECE76B
:101C7000003001404438024000000240003800407B
:101C80000008024000040240003C004010B5401E25
:101C9000B0F1807F01D3012010BD4FF0E0246061DE
:101CA0000F21601700F0D4FE0020A0610720206102
:101CB000002010BD7047704730B590F83820012AD9
:101CC00020D0012280F83820022380F839300368C0
:101CD0005C6824F070045C6003685C680D682C43E9
:101CE0005C6003689C6824F080049C6003689C68C6
:101CF00049680C439C6080F83920002180F8381036
:101D0000084630BD022030BD10B5040003D094F861
:101D1000390010B104E0012010BD204600F00CF89D
:101D2000022084F83900211D206800F0CFFF012037
:101D300084F83900002010BD10B50068B0F1804F64
:101D40000ED10848016841F001010160002205211F
:101D50001C20FFF7E7FBBDE810401C20FFF7D6BBB7
:101D600010BD0000403802400168CA6842F001021C
:101D7000CA600068016841F00101016000207047FD
:101D8000022180F8391001680A6A41F211131A42DF
:101D900007D10A6A9B101A4203D10A6822F0010295
:101DA0000A60012180F839100020704770B50446A0
:101DB00090F83800012817D0012584F83850022007
:101DC00084F839002068826822F0770222F47F428A
:101DD00082600868502837D00DDC202859D005DCF7
:101DE00088B3102841D151E0022070BD302853D073
:101DF00040283AD13FE060282ED070280BD0B0F5B3
:101E0000805F03D0B0F5005F2FD110E020688168BB
:101E100021F0070115E0CB68D1E90121206800F02D
:101E2000B5FF2168886840F0770088601DE0CB68C6
:101E3000D1E90121206800F0A9FF2068816841F400
:101E40008041816011E01EE0CA684968206800F0A6
:101E5000AFFF5021206806E0CA684968206800F09A
:101E6000B8FF6021206800F09BFF84F83950002003
:101E700084F8380070BDCA684968206800F098FF8F
:101E800040212068EFE700212068ECE7102120685E
:101E9000E9E720212068E6E730212068E3E7704782
:101EA00070B50446006801694FF00005C943890711
:101EB00015D4C168C943890711D4E91E0161012005
:101EC0002076206880698007204602D0FFF7E7FF70
:101ED00004E000F098F8204600F096F82576206897
:101EE0000169C943490717D4C168C943490713D4D5
:101EF0006FF004010161022020762068806910F4EF
:101F0000407F204602D0FFF7CAFF04E000F07BF8D4
:101F1000204600F079F8257620680169C943090751
:101F200016D4C168C943090712D46FF008010161D2
:101F3000042020762068C0698007204602D0FFF781
:101F4000AEFF04E000F05FF8204600F05DF8257673
:101F500020680169C943C90617D4C168C943C906C5
:101F600013D46FF010010161082020762068C06949
:101F700010F4407F204602D0FFF791FF04E000F00C
:101F800042F8204600F040F8257620680169C943F0
:101F9000C90708D1C168C943C90704D1891E0161B5
:101FA000204600F033F820680169C943090609D4C6
:101FB000C168C943090605D46FF08001016120465C
:101FC000FFF778FE20680169C943490609D4C16852
:101FD000C943490605D46FF040010161204600F075
:101FE00037F820680169C94389060BD4C168C94321
:101FF000890607D46FF0200101612046BDE87040DA
:10200000FFF759BE70BD70477047000010B50068FB
:10201000B0F1804F15D1012002F0F6FB09480068AD
:1020200080470446002002F0EFFB1CB106494FF048
:1020300080500860BDE810404FF400710348FFF77E
:1020400077B910BDF801002004ED00E00010024057
:10205000704702F01FBA000038B5016804460868EE
:1020600010F0010FC86800F4807007D030B1086824
:1020700048680090E06B40F00100E06308684A693E
:10208000C0F3400002F0010238B132B1086848687C
:102090000090E06B40F00400E0630868C0F3800249
:1020A000486900F001003AB130B108684868009012
:1020B000E06B40F00200E0630868C0F3C0024869CA
:1020C00000F001003AB130B1086848680090E06B58
:1020D00040F00800E0630868C968C0F3401001F0F0
:1020E000200118B111B1204600F092FE2168086865
:1020F000C968C0F3C01001F0800118B111B12046C9
:1021000000F084FF21680868CA68C0F3801002F0FC
:1021100040020125C0B1BAB1CA68204622F040028F
:10212000CA6094F83910322917D00168CA6822F4BD
:102130008072CA6001684A6922F001024A6180F82F
:10214000395000BF00F018FAE06B002804D084F882
:1021500039502046FFF77DFF38BD222180F8391025
:10216000F0E710B5040003D094F8390010B104E092
:10217000012010BD204600F021F8022084F839002B
:102180002068C16821F40051C160204600F082FE41
:102190002068016921F4904101612068416921F0C2
:1021A0002A0141612068C16841F40051C1600020EA
:1021B000E063012084F83900002010BD2DE9F043D0
:1021C000584B02685849032402250126082757481E
:1021D00085B09A4211D10A6842F400220A608DE863
:1021E0007000CDE903476946FEF7C6FF00220521CE
:1021F0003420FFF797F9342020E04D4BDFF834917D
:102200009A4220D1086840F48010086090148DE84C
:102210006100CDE9034769464748FEF7ADFF04205A
:102220008DE86100CDE9034769464846FEF7A4FF03
:10223000002205213520FFF775F93520FFF766F9F3
:1022400005B0BDE8F083384BDFF8F0C01B1D4FF040
:102250000708624513D1196841F0100119604FF465
:10226000C0618DE86200CDE903486946FEF784FF4E
:10227000002205212520FFF755F92520DEE730480B
:1022800082421FD1086840F40030086060208DE869
:102290006100CDE9034869464E464846FEF76CFFAB
:1022A0008020CDE9000502AA002082E811016946DC
:1022B0003046FEF761FF002205212620FFF732F9A4
:1022C0002620BBE71F48824214D1086840F48020D2
:1022D00008604FF440708DE86100CDE9034869461D
:1022E0004846FEF749FF002205212720FFF71AF98B
:1022F0002720A3E714488242A2D1186840F02000AA
:1023000018604FF484408DE86100CDE903476946C9
:102310000E48FEF731FF002205214720FFF702F9A2
:1023200047208BE7004C004040380240000002404C
:1023300000500040000C0240000802400010014024
:1023400000440040004800400014014000180240D2
:1023500090F83930012B01D0122B2CD139B332B384
:1023600090F83830012B26D0012380F83830816274
:102370008285C2850021C16390F83920122A18D0C5
:102380005FF0220280F839200268D36843F480733A
:10239000D3600268536943F00103536180F8381039
:1023A0000068C16841F02001C16000207047012031
:1023B00070473222E6E7022070470000194B01689F
:1023C000CA1A994227D00DDC174A891819D0B1F5DD
:1023D000806F1BD0B1F5006F22D10023816A1A46AD
:1023E000124809E0B2F5404F09D0B2F5444F17D179
:1023F000816A00230E481A46006803F045B801F0D0
:1024000093BF0023816A1A460A48F5E70023816AD0
:102410001A460948F0E70023816A1A460748EBE7A5
:10242000704700000050004000BCFFBF3800002093
:10243000480000202800002030000020400000203C
:102440002DE9F047044690F8390099460D460128D9
:1024500001D0222858D12DB322B394F83800012896
:1024600052D0012684F838600027E76394F83900D9
:1024700022281AD05FF0120084F83900A284E28486
:102480004FF48058E08C4B46401EE084A0684FF02B
:10249000000240454FF08001204613D100F0E9FDD5
:1024A00008BB04E00120BDE8F0873220E4E728887B
:1024B0002168C0F308004860206908B16D1C08E07D
:1024C000AD1C06E000F0D5FD68B9216815F8010BD8
:1024D0004860E08C0028D5D14B46002240212046A0
:1024E00000F0C7FD08B10320DDE794F83900322879
:1024F00006D084F8396000BF84F838700020D2E735
:10250000222084F83900F7E70220CCE790F8393030
:10251000012B01D0222B2CD139B332B390F83830B3
:10252000012B26D0012380F8383001628284C284D6
:102530000021C16390F83920222A18D05FF01202DE
:1025400080F839200268D36843F48073D36002684E
:10255000536943F00103536180F838100068C16883
:1025600041F08001C1600020704701207047322295
:10257000E6E702207047000000680349C84201D125
:1025800001F0E8BE7047000000F0FEBF30B51E4805
:1025900085B0016841F010010160016841F010014F
:1025A000016084150120CDE900400020174D029004
:1025B000039069462846FEF7DFFD600000906946FB
:1025C0002846FEF7D9FD694611480094FEF7D4FD70
:1025D000E000104C009069462046FEF7CDFD10202B
:1025E000009069462046FEF7C7FD08200090694626
:1025F0002046FEF7C1FD2015009069460648FEF70B
:10260000BBFD05B030BD0000303802400010024074
:1026100000000240000C0240001802401FB51048A4
:102620000E490124016000214160816001618161E6
:102630004162C162C160C0E907144461FEF7ACF9B0
:102640000820CDE900040720029069460448FEF7FF
:102650000BF90348FEF7BAF91FBD00000022014044
:10266000E402002010B5144C12484FF400312060F1
:10267000102060600020A060C4E903010901C4E9E2
:102680000510E06120626062A062E0622046FEF711
:102690006FFB2046FEF70EFC002208211420FEF7F7
:1026A00041FF1420FEF732FF2068416941F002012A
:1026B000416110BD00640040EC0500200E4810B5DB
:1026C0000C4901601021416000214FF4003281600B
:1026D000C0E903121201C0E905210122C161C0E96C
:1026E00008128162C162FEF743FBBDE81040024858
:1026F000FEF7E0BB006800402C06002000B585B066
:10270000142207496846FDF7D1FD0021684601F013
:102710004CFB0449086001F003FF05B000BD000058
:10272000545A00080000002070B5414886B0016886
:1027300041F010010160016841F00401016001688D
:1027400041F020010160016841F0800101600168F1
:1027500041F001010160016841F00201016001687E
:1027600041F008010160016841F0400101604FF44F
:102770008670009001250024CDE901542D4E694654
:1027800030460394FEF7F8FC6020CDE9000469466A
:1027900030460294FEF7F0FC46F20800CDE9000452
:1027A000254E694630460294FEF7E6FC4FF4707001
:1027B0000090CDE90154694630460394FEF7DCFCF5
:1027C000CDE900541D4E694630460294FEF7D4FC14
:1027D00002200090CDE90154694630460394FEF78B
:1027E000CBFC4FF484700090CDE901546946144845
:1027F0000394FEF7C1FC28030090CDE9015469461B
:1028000010480394FEF7B8FC18200090CDE901545D
:1028100069460D480394FEF7AFFCA8020090CDE98D
:102820000154694609480394FEF7A6FC06B070BD42
:1028300030380240001002400014024000080240FC
:102840000000024000040240000C02400018024058
:10285000094808494FF4804201600849416000215D
:102860008160C0E9031241618161C1610162FEF7CB
:102870006FBD000000580040A8020020A0860100A3
:102880000B480A494FF4007201604FF482714160B5
:1028900000218160C1600161C0E90512C16101626E
:1028A000416281620A21C162FFF764B900300140D0
:1028B000280300200B480A494FF4007201604FF4CE
:1028C0008271416000218160C1600161C0E905122F
:1028D000C1610162416281620A21C162FFF74AB9A6
:1028E00000380040800300200C480B494FF4007270
:1028F00001604FF4827141604FF48061816000217A
:10290000C1600161C0E90512C16101624162816279
:102910000A21C162FFF72EB9003C0040D803002015
:1029200010B50E4886B04FF080410024C0E9001475
:102930004FF46161C0E902410461FFF7E5F94FF42A
:102940008050009069460548FFF730FA049404A9C6
:1029500002480594FFF7B0F906B010BD300400201E
:102960000848074901604FF49641416000218160A9
:102970000C22C160C0E904128161C161FFF7F1BBA3
:10298000004C00406C0400200848074901604FF4E7
:1029900096414160002181600C22C160C0E90412AF
:1029A0008161C161FFF7DDBB00500040AC04002035
:1029B0000848074901604FF4E1314160002181601E
:1029C0000C22C160C0E904128161C161FFF7C9BB7B
:1029D00000100140EC0400200848074901604FF452
:1029E00096414160002181600C22C160C0E904125F
:1029F0008161C161FFF7B5BB004400402C05002098
:102A00000848074901604FF4964141600021816008
:102A10000C22C160C0E904128161C161FFF7A1BB52
:102A2000004800406C0500200848074901604FF449
:102A3000E1314160002181600C22C160C0E90412D3
:102A40008161C161FFF78DBB00140140AC0500201E
:102A50000907090E002806DA00F00F0000F1E02057
:102A600080F8141D704700F1E02080F800147047D2
:102A700007A000F05FFB0E4D4FF480744FF4FA7620
:102A800021462846FEF754FC304601F073F9F7E77B
:102A9000474C4F5341565F4D6F6E69746F72696E4C
:102AA00067205374617274696E672E2E2E0A0000BF
:102AB000001002401CB517A00068019000BF002064
:102AC0004FF4612301220A21009000F077FEE0B963
:102AD000032301AA0121342001F038F888B900F05D
:102AE00011FC70B901200C49088000BF00F0CAFE3B
:102AF0000A480088401C09490880074800880028C7
:102B0000F4D100F0EFFB00F0DDFB322001F054FFC8
:102B1000D5E70000AABBCC00600000206C060020B6
:102B200000BF4FF47A7001F025F9FAE708B500BF4D
:102B300000235A1E69460248006802F04FFBF7E77F
:102B40002800002008B500BF00235A1E6946064829
:102B5000006802F043FB4FF6FF7301226946034809
:102B6000FFF76EFCF0E700002C0000202C05002091
:102B700008B500BF00235A1E69460B48006802F0E2
:102B80002DFB012208210948FEF7D6FB4FF6FF7303
:102B9000012269460648FFF753FC0022082103483A
:102BA000FEF7CAFBE6E7000044000020000C0240EC
:102BB000AC04002008B500BF00235A1E69460B482C
:102BC000006802F00BFB012291020948FEF7B4FBFA
:102BD0004FF6FF73012269460648FFF731FC0022D9
:102BE0004FF480610248FEF7A7FBE5E734000020C0
:102BF00000180240AC05002010B5FEF749FCBDE806
:102C0000104001F0C8B80000164810B5016892B035
:102C100041F0805101601448016821F4404141F4C1
:102C20008041016001200090019002248005CDE9DF
:102C300006400C2008904FF49070099004200A90F0
:102C40000B906846FEF7FCFD0D20CDE90C0400203A
:102C50000E90E0020F90109002210CA8FEF794FC59
:102C600012B010BD403802400070004010480168AA
:102C700041F4700101600F48016841F001010160F9
:102C80000C4A00210832116002680B4B1A400260A6
:102C9000031D0A4A1A60026822F480220260054875
:102CA0000C30016002495806803908607047000006
:102CB00088ED00E000380240FFFFF6FE10300024EF
:102CC0000148FFF7EDB8000030040020F0B50268BD
:102CD000234B244D244E254F254C4FF0804C9842D9
:102CE00009D0604507D0A84205D0B04203D0B84211
:102CF00001D0A04204D122F0700E4A6842EA0E02CE
:102D000098421BD0604519D0A84217D0B04215D0C8
:102D1000B84213D0A04211D0164DA8420ED0164D85
:102D2000A8420BD0154DA84208D0154DA84205D099
:102D3000144DA84202D0144DA84203D122F440758C
:102D4000CA682A4302608A68C2620A68826298423C
:102D500001D0A04201D10969016301214161F0BDA7
:102D6000000001400004004000080040000C00404A
:102D7000000401400040014000440140004801407F
:102D800000180040001C00400020004010B584687E
:102D900042EA032224F47F440A432243826010BDA6
:102DA000826822F070020A4342F007018160704796
:102DB00010B5036A046A24F001040462846924F0F3
:102DC000F00444EA021423F00A020A438461026216
:102DD00010BD10B5036A23F0100303628369046A0F
:102DE00023F4704343EA023224F0A00343EA0111C2
:102DF0008261016210BD00000148FFF72DB900009B
:102E00006C0400200148FFF727B90000AC04002043
:102E100010B590F83910222903D0322901D00220B0
:102E200010BD8168B1F5805F0BD001690029016890
:102E3000496801D001F07F01826A1170C18D61B1D2
:102E400022E00269816A002A0268526802D0D2B286
:102E50000A80F3E7C2F30802FAE70168CA6822F0C1
:102E60002002CA6090F83910322911D00168CA686E
:102E700022F48072CA6001684A6922F001024A6144
:102E80005FF0010180F83910FFF798FA002010BDBB
:102E90001221F7E72DE9F04101680446086920F4A2
:102EA0004052E068104308612268D06849F20C6122
:102EB00088432369A168E569194363692B43194372
:102EC0000143D1602168486920F44072A069104331
:102ED0004861E26964263225B2F5004F49494A4803
:102EE00022681DD0824201D08A426AD1FEF758FC86
:102EF00000EBC00101EB00106168B0468900B0FB37
:102F0000F1F1B1FBF8F6FEF74BFC00EBC00101EB71
:102F1000001061688900B0FBF1F7FEF741FC69E041
:102F2000824201D08A4219D1FEF73AFC00EBC0017F
:102F300001EB00106168B0464900B0FBF1F1B1FB54
:102F4000F8F6FEF72DFC00EBC00101EB0010616804
:102F50004900B0FBF1F7FEF723FC18E0FEF70AFC8E
:102F600000EBC00101EB00106168B0464900B0FB06
:102F7000F1F1B1FBF8F6FEF7FDFB00EBC00101EB50
:102F8000001061684900B0FBF1F7FEF7F3FB00EBBE
:102F9000C00101EB001061685FEA4101B0FBF1F193
:102FA000B1FBF8F06FF01801484307EB800005EB28
:102FB0000011B1FBF8F0216866F31F108860BDE8CE
:102FC000F081FEF7D7FB00EBC00101EB0010616858
:102FD000B0468900B0FBF1F1B1FBF8F6FEF7CAFB91
:102FE00000EBC00101EB001061688900B0FBF1F754
:102FF000FEF7C0FB00EBC00101EB00106168890027
:10300000CCE70000001401400010014090F8391096
:10301000122903D0322901D0022070478168B1F50E
:10302000805F016A0BD04A1C026202680978516015
:10303000C18C491E0904090CC1840ED017E009880F
:103040000268C1F30801516001690029016A02D0D8
:10305000491C0162ECE7891CFBE70168CA6822F0A1
:103060008002CA600068C16841F04001C160002070
:1030700070472DE9F0471D4690460E460446FEF780
:1030800061F907465FEA08004FF000094FF00108B8
:1030900008D030E0681C05D095B1FEF753F9C01B8D
:1030A000A8420DD82068006836EA0000F2D127E077
:1030B000681C20D025B1FEF745F9C01BA8421AD9DB
:1030C0002068C16821F08001C1602068C16821F0DA
:1030D0002001C1602068C16821F48071C16020684E
:1030E000416921F00101416184F8398084F8389008
:1030F0000320BDE8F0872068006836EA0000D7D0DA
:103100000020F6E70148FEF7A7BF0000EC0400200E
:103110000148FEF7A1BF00002C0500200148FEF782
:103120009BBF00006C0500200148FEF795BF000022
:10313000AC050020014A024900F013B8AD3C00087C
:10314000A402002002E008C8121F08C1002AFAD118
:1031500070477047002001E001C1121F002AFBD117
:1031600070472DE9F04116460F460446002503E05E
:103170003946B047641C6D1C20780028F8D12846D9
:10318000BDE8F0810148007870470000A1020020EE
:103190002DE9F0411E4617460D46002401F01DFBA7
:1031A0000B490A20C870334607223946284601F0E9
:1031B0009FFE012805D144F6206001F0C5FE0128DC
:1031C00000D0032401F00BFB2046BDE8F081000095
:1031D0008C0200202DE9F04116468846074600255E
:1031E00001F0FBFA0F4CA088FF2801D9AFF3008053
:1031F000A088032804D3A188A06801F089F830B121
:103200005FF0050501F0EBFA2846BDE8F081A06803
:1032100010F8011B3970A188891E3180C8F80000A0
:10322000F0E700008C0200202DE9F04190460E46A8
:103230000746002501F0D1FA104C607828B1052529
:1032400001F0CDFA2846BDE8F081701E0126E0604D
:10325000E6800770E28802EB0801E180E18801F076
:1032600057F80146E088A2680244401CE0801170D3
:1032700026700121002001F0B5FAE1E78C02002060
:1032800010B501F0AAFA0021012001F0ABFA0549BE
:103290000020487001F0A3FABDE81040002001F0C2
:1032A00009BE00008C02002010B501F096FA002142
:1032B000084601F097FA01F0ADFABDE8104001F0C0
:1032C0008EBA0000064810B501780024012902D00A
:1032D0000624204610BDC0690028FAD08047F8E7D0
:1032E000D001002010B5064C207818B1012805D077
:1032F000062010BD6069804701202070002010BDAD
:10330000D001002070B5064D00242878012802D095
:103310000624204670BD2869804700202870F8E701
:10332000D001002070B50C460988002505292FD151
:10333000417840F2CF760A0281781143C278491C65
:103340001302027989B21A43531EB34220D20023DA
:103350002380012300F8013B2688761C268056072F
:1033600003D003EBD203DEB201E0C2F3C70600F8DC
:10337000016B23885B1C2380002300F07CFB18B1C9
:1033800000F0ACFF054604E020883044208000E0D7
:103390000325284670BD70B50C460988002505290F
:1033A0002FD1417840F2CF760A0281781143C2785A
:1033B000491C1302027989B21A43531EB34220D228
:1033C00000232380022300F8013B23885B1C238019
:1033D000530704D0012303EBD203DEB201E0C2F3B2
:1033E000C70600F8016B23885B1C238000F047FBB5
:1033F00018B100F073FF054604E0208830442080B7
:1034000000E00325284670BD70B50C4609880026EB
:10341000052925D1417805790A0281781143491C93
:103420006A1E89B27C2A1BD800222280032200F85F
:10343000012B22880023521C22806A0000F8012BF5
:103440002288521C22802A4600F01CFB18B100F092
:1034500045FF064605E0208800EB4500208000E09F
:103460000326304670BD70B50C4609880026052934
:1034700027D1417805790A0281781143C278491C25
:1034800045EA02256A1E89B27C2A1AD200222280CD
:10349000042200F8012B2288521C22806A0000F8C6
:1034A000012B2288521C22802A4600F029FB18B1E9
:1034B00000F014FF064605E0208800EB4500208060
:1034C00000E00326304670BD2DE9F041044608882F
:1034D00000270D460A2842D3607826790102A07899
:1034E000227A0843401C1FFA80F8E07846EA00265A
:1034F0006079731E0102A0790843401C81B2E07913
:103500007C2B42EA0022607A28D83AB3792A25D85F
:10351000B0EB420F22D1012304F10A0000F0B2FA0D
:1035200098B900212980172121702988601C491C25
:103530002980710000F8011B29880023491C29807B
:103540003246414600F09EFA18B100F0C7FE074629
:1035500005E0288800EB4600288000E00327384675
:10356000BDE8F08170B5064C0D4606492288401C26
:10357000FCF79CFE2088401C2880002070BD0000C5
:1035800088020020808900202DE9FC5F05460C465A
:103590004FF0000B00200090208802286CDB687838
:1035A000012836D102272078C01B00F0FF08002038
:1035B00001901EE0E85D00F00F09781CC7B2A8F189
:1035C000010000F0FF089DF80400401CC0B201900B
:1035D000C14502DD4FF0010B11E007EB0900C7B256
:1035E0009DF804004844C0B20190A8EB090000F027
:1035F000FF08B8F1000F02D0BBF1000FDAD000BF16
:10360000BBF1000F04D0032000900098BDE8FC9FA0
:1036100003E0032000900098F8E700BF012201A911
:10362000A81C00F0B7FA8246BAF1000F1CD12E4652
:1036300000202080642006F8010B2088401C208098
:10364000012006F8010B2088401C2080002201A9DF
:10365000304600F09FFA8246BAF1000F04D120886C
:103660009DF8041008442080BAF1000F06D050469F
:1036700000F034FE009001E0032000900098C5E7C0
:1036800038B50988002405290BD141780A028178D0
:103690001143491C027989B21AB9C278FF2A03D0B2
:1036A00012B10324204638BD00228DF80120C078D5
:1036B000FF280CD08DF8002001231A46684600F040
:1036C000DAF90028EED000F009FE0446EAE701200E
:1036D0008DF80000F0E710B509880024052902D014
:1036E0000324204610BD417801230A028178C01CC2
:1036F0001143491C89B21A4600F0C4F90028F0D0E1
:1037000000F0ECFD0446ECE72DE9F0410D46098898
:103710000024052926D9417843790A02817811438A
:10372000491C8EB2C178027942EA0122510704D0C5
:10373000012101EBD201C9B201E0C2F3C701571E5A
:10374000B7F5F66F0ED299420CD101233146801D98
:1037500000F091F918B100F0C1FD044603E0052026
:10376000288000E003242046BDE8F08170B50D46B6
:103770000988002406291DD341780A028178114363
:10378000C278491C1302027989B21A434379561E42
:10379000772E0FD85606360E9E420BD10123801D80
:1037A00000F070F918B100F099FD044603E005201F
:1037B000288000E00324204670BD00002DE9F04180
:1037C0001D46069B1746064641B1F72906D81E4CF2
:1037D0000846217100211EB1012E15D002252EE0D0
:1037E0001A4A22611A4A62611A4AE2601A4AC4E914
:1037F00006211A4921621A4961621A49A1622A46C0
:10380000394600F099F812E0174A2261174A6261BE
:10381000174AE260174AC4E906211749216217498D
:1038200061621749A1622A463946FFF7B1FC0500DB
:1038300005D101F02FFB28B16671012020702846C8
:10384000BDE8F0810325FAE7D0010020393A0008ED
:103850005D3A0008CD39000881390008994F000809
:10386000415000080150000881320008A9320008C8
:1038700029320008D5310008B54C0008C94D0008B0
:10388000994D000838B52B4C207808B1062038BD7A
:10389000684601F0EFFA01284AD19DF80000E8B32C
:1038A000012802D0022843D10FE0224AA369921DC9
:1038B000911CC81F984788BB60782179884200D046
:1038C00060BB022001F0F6FA32E0A0680121194B3A
:1038D0000278A270E170002113F12C0313F831502B
:1038E00065B1954207D103EBC1014A681149891DB1
:1038F0009047E07002E0491C1029EFDB607868B166
:10390000E07880B10021E180A17841F08002A168D7
:103910000A70E288521C92B2E28000E008E088540B
:10392000E088401CE080D4E90213E28820799847BF
:10393000002038BDD00100202DE9F0411F4615467A
:103940000E46002400F049FF3B4608222946304637
:1039500001F0CEFA01280AD108496800B1FBF0F065
:1039600000B9012080B201F0EFFA012800D0032451
:1039700000F035FF2046BDE8F0810000A07F170071
:103980002DE9F04115460E460746002400F025FFBC
:103990000C488188FF2901D9AFF300808188042970
:1039A00009D30949097839708088C01E28800648E3
:1039B000401C306000E0052400F011FF2046BDE807
:1039C000F08100007C020020808800202DE9F04179
:1039D00090460E460746002500F0FFFE144C607826
:1039E000012806D05FF0050500F0F9FE2846BDE885
:1039F000F081701E0126A06066800770628802EB6D
:103A000008016180618800F08BFE6188094A5318C3
:103A1000491C61801870010A60880244401C608063
:103A2000117026700121002000F0DCFEDCE70000B0
:103A30007C0200208088002010B500F0CEFE0649F0
:103A4000002048700146012000F0CCFE00F0EEFEA0
:103A5000BDE8104000F0C3BE7C02002010B500F0AD
:103A6000BCFE0021084600F0BDFE00F0D3FEBDE81C
:103A7000104000F0B4BE10B50446012010BD03464E
:103A800001207047F0B504460D460020012D30DBC3
:103A9000AE18212E2DDC184E3688A91B13B1012B30
:103AA00026D111E00DE0154E36F81160361204F8FB
:103AB000016B124E16F8116004F8016B491C561E7A
:103AC000B2B2002AEFDC13E010E014F8017B3E02F2
:103AD0000A4F27F8116014F8016B37F811703E4354
:103AE000064F27F81160491C561EB2B2002AECDCC2
:103AF00000E00120F0BD00005E000020600000201A
:103B000030B503460020B1F57A7F18DB8D18B5F586
:103B1000856F14DC0B4D2D884C1B0DE00A4D35F8DC
:103B200014502D1203F8015B074D15F8145003F8DB
:103B3000015B641C551EAAB2002AEFDC00E00120E4
:103B400030BD00005C0000206C06002070B51D46F2
:103B5000134602460026A81C202813D20C480B4C02
:103B600002700122228001B1FF21417002212180D7
:103B70004DB12A461946801CFCF798FB2088284442
:103B8000208000E00426304670BD0000880200203E
:103B9000808900202DE9F74F84B005468A46002031
:103BA0000390069810B1012873D148E00024002644
:103BB00027E03A4850F826700FB301944FF00009FF
:103BC00008E0601CC4B209F1010000F0FF099DF893
:103BD00008002855B9F10F0F07DA00231A4602A989
:103BE000386801F0FBFA0128EBD0B9F1000F06D0DC
:103BF00049EA0610C1B201982954601CC4B2701C75
:103C0000C6B2102ED5DB062028550023C21F194648
:103C10002348006801F0E2FA601C284421490A6840
:103C200002608988818000231A4619461C48006872
:103C300001F0A0FBE01DC4B28AF8004029E0002496
:103C40009AF8008022E0285D0611174850F8267087
:103C5000285D00F00F0B601CC4B2A8F101000FFA40
:103C600080F810E02FB1291900231A46386801F0B6
:103C700081FB601CC4B2A8F101000FFA80F8ABF11F
:103C8000010000F0FF0BBBF1000FEBD1B8F1000F0A
:103C9000D9DC00BF039807B0BDE8F08FA00000207A
:103CA0003401002038010020E000002013B5064850
:103CB0008068814206D0054800235A1E6946006884
:103CC00001F058FB00981CBD500000202C00002083
:103CD000FDF7E6FBFEF798FFFEF726FDFEF79EFCDC
:103CE000FEF7C0FCFEF7EAFCFEF7B2FDFEF7C8FDEA
:103CF000FEF7E0FDFEF7F8FDFEF712FEFEF730FEE0
:103D0000FEF742FEFEF754FEFEF766FEFEF778FE73
:103D1000FEF78AFEFEF73AFC0D4800F0BBFB0D48AB
:103D200000F0B8FB0C4800F0B5FB0C4800F0B2FB0B
:103D30000B4800F0AFFB0B4800F0ACFBFCF76EFC4F
:103D4000FCF724FBFEF7DAFC00F01BF8FEE70000AE
:103D5000EC0400202C0500206C0500206C040020E1
:103D6000AC040020AC05002001460020842900D0CE
:103D7000C81C704710B500B9012000F01DFE0020DE
:103D800010BD10B500F022FF002010BD0022006819
:103D9000042101F0FFB910B501F0AEFC012803D0F9
:103DA000BDE8104001F0BCB910BD30B5044685B087
:103DB0000D46B0F90800FFF7D7FF002104AA0090D4
:103DC000CDE901210391208A2B4682B2D4E900106B
:103DD00001F0D0FB012802D0002005B030BD0498CE
:103DE000FBE7000008B500680090012907D000201B
:103DF00013460246012103A001F0C6FD08BD0120C3
:103E0000F6E700000000000070B50B4C0546206886
:103E10004560E0682168854205D2606BBDE870406E
:103E2000091D00F0B6BC206B091D00F0B2FCA06AB1
:103E3000854200D2A56270BD9801002010B500F047
:103E4000FFFC0F4C2068A0B90E4800F094FC0D4810
:103E5000143000F090FC0B48A0601430E0600022A9
:103E60000C210A2001F096F9206030B106A100F083
:103E700073FDBDE8104000F0FDBCFCF7F7F9FEE76C
:103E80006401002028070020546D725100000000DA
:103E900070B5124E124C1AE000F0C2FE3068D0B17C
:103EA00001F01CFD00F0CCFCF068C568281D00F096
:103EB0004DFCA068401EA0606068401E606000F07D
:103EC000D9FC286B00F0E8FC284600F0E5FC6068AF
:103ED0000028E1D170BD01F001FDF8E7588800200D
:103EE0009801002030B4026C0B46002A0BD0C16848
:103EF0001144C1604468A14201D30168C16030BC73
:103F00001846FCF7D3B930BC704770B51646026C42
:103F10000446002582B1C6B1E068FCF7C7F9E16844
:103F2000206C091AE1602268914202D26168081A85
:103F3000E060022E16D01AE02068C0B9606801F077
:103F40005BFC05460020606011E0A068FCF7AEF95C
:103F5000216CA0680844A0606168884207D320688B
:103F6000A06004E0A06B10B1A06B401EA063A06B2A
:103F7000401CA063284670BD10484FF40041420722
:103F800006D0C01D0D4920F00700411AC1F50041BF
:103F90000B4A00230144C2E900030839103A21F01A
:103FA000070111604B600B600B1AC0E900139360AE
:103FB0004FF000405360D060704700005007002071
:103FC00084010020044C00BFFFF762FF2068012835
:103FD000FAD900F0B5FCF7E79087002030B5114919
:103FE00000E011460A688242FBD34B685C188442A9
:103FF00003D1406818444860084643681C1894423E
:1040000009D1084C103C2468A24209D052681A44D5
:1040100042600A6812680260814200D0086030BDC8
:104020000460F9E78401002070B5002441600B4D65
:104030000061914206D8D11A8269914206D2011DCF
:10404000E86807E09A4203D2994201D3012403E0D1
:10405000011DA86800F09DFB204670BD6401002092
:1040600030B587B0274D42E0049800283FDB069C1E
:10407000606910B1201D00F069FB02A800F09AF8F9
:10408000024604980A2832D2DFE800F0050505311F
:10409000222E050531220598A169034601442046D8
:1040A000FFF7C2FF012822D1616A20468847E069F4
:1040B00001281CD1002000900598A1690023421816
:1040C0001946204601F0A2FC88B9FCF7CFF8FEE7BC
:1040D0000598A06128B1811813462046FFF7A4FF78
:1040E00005E0FCF7C3F8FEE7204600F0D5FB00230F
:1040F0001A4604A9286801F071F80028B4D107B065
:1041000030BD0000640100202DE9FC410F4605464A
:1041100000F086FD01A800F04DF80446019818B1A2
:1041200001F0DCFBBDE8FC81194E37BBA54224D869
:1041300001F0D4FBB0682746C068C468201D00F0B9
:1041400005FBE069012811D1A0692B4641193A46C7
:104150002046FFF769FF012808D1002003460146E9
:1041600000902A46204601F051FC18B1616A2046B1
:104170008847D7E7FCF77AF8FEE7291B306800F09C
:10418000FFFB01F0ABFB0028CCD100F0D9FBC9E765
:10419000640100200648016B096829B1016BC968F8
:1041A000C9684968816270474FF0FF31FAE7000043
:1041B0009801002070B5054601F0ACFA064E0446A1
:1041C0007068844203D200F009F8012000E000206A
:1041D00028602046746070BD64010020F8B5164D5B
:1041E0001FE0C068C4680668201D00F0AFFA616A6D
:1041F00020468847E069012813D1A0693044B042C5
:1042000006D924616060211DA86800F0C2FA08E0A8
:1042100000200346014600903246204601F0F6FB9E
:1042200038B1A86801680029DBD1E968C5E9021046
:10423000F8BDFCF71BF8FEE7640100200448406865
:10424000401C02D0FCF712F8FEE7FCF70FF8FEE77F
:104250008C010020074CA068016841B1C0680021B2
:10426000D0F80000FFF750FFFFF7FAFEF3E7012157
:104270000020F7E76401002070B5044600F0E0FA82
:1042800004F124050AE0606A58B1284601F0F0FA0A
:1042900008B100F0F7FBA06C401EA064A06C0028E1
:1042A000F1DC4FF0FF36A66400F0E4FA00F0C8FA43
:1042B00004F110050AE0206958B1284601F0D8FA47
:1042C00008B100F0DFFB606C401E6064606C002889
:1042D000F1DC6664BDE8704000F0CCBA002804D080
:1042E000012803D0072803D004207047022070471C
:1042F0000620704710B5092801D8303004E0A0F13D
:104300000A01052902D83730C0B210BDAFF30080D2
:10431000002203E010F8013B1A44D2B2491E89B2D0
:10432000F8D25042C0B2704710B5012000F06CFACC
:104330000648006880470446002000F065FA002C1B
:1043400003D003494FF08050086010BDF0010020F9
:1043500004ED00E010B500224FF480710948FCF72D
:10436000EBFF012000F050FA074800688047044640
:10437000002000F049FA002C03D004494FF080508F
:10438000086010BD00000240F401002004ED00E0D0
:104390002DE9F0410546002700F042FC2C4E306824
:1043A00008B9FFF7E9FDF068054211D185B108357C
:1043B000680709D005F00700C0F108000544680748
:1043C00002D0FBF753FFFEE715B17068854202D9B2
:1043D00001F084FA31E01E48103001460C6801E01B
:1043E00020460C466168A94202D221680029F7D113
:1043F00031688C42ECD0076821680160606808373A
:10440000411B102909D96019420702D0FBF72EFF82
:10441000FEE741606560FFF7E1FD61687068401A82
:104420007060B268904200D2B060F0680143002032
:10443000C4E9000101F052FA0FB900F099F97807C8
:1044400002D0FBF713FFFEE73846BDE8F08100001D
:10445000740100200449086818B10868026D521CF4
:1044600002650868704700009801002010B5031F1E
:104470004FF080741C601B1F1960191F044B0B60E8
:1044800014390A60091F6FF0020244380A6010BD37
:104490003D4200080068194A811A904228D00CDC7D
:1044A000174940181AD0B0F5806F1CD0B0F5006FD6
:1044B00023D101221349144809E0B1F5404F08D037
:1044C000B1F5444F19D10F490122891C0F48FDF75E
:1044D0003FBF0C490122891E0D48F8E70949012216
:1044E000491E0C48F3E707490122C91E0A48EEE7B6
:1044F00004490122491C0948E9E77047005000407F
:1045000000BCFFBF530000206C040020AC0500205D
:10451000EC0400202C0500206C050020AC040020D9
:1045200000B5B7B06B48006836900022012136A86C
:10453000FFF758FC6849086014226649091D31A834
:10454000FBF7B4FE002131A8FFF72FFC6349086098
:104550001422604918312CA8FBF7A8FE00212CA8D2
:10456000FFF723FC5E49086014225A492C3127A822
:10457000FBF79CFE002127A8FFF717FC59490860AC
:1045800014225449403122A8FBF790FE002122A8B2
:10459000FFF70BFC5449086014224E4954311DA802
:1045A000FBF784FE00211DA8FFF7FFFB4F490860C1
:1045B00014224849683118A8FBF778FE002118A892
:1045C000FFF7F3FB4A49086042497C3103C9CDE952
:1045D0001601002116A8FFF7D9FB464908603D499E
:1045E000843103C9CDE91401002114A8FFF7CEFBE3
:1045F0004149086037498C3103C9CDE912010021D6
:1046000012A8FFF7C3FB3D4908603249943103C942
:10461000CDE91001002110A8FFF7B8FB3849086068
:104620002C499C3103C9CDE90E0100210EA8FFF7EA
:10463000ADFB344908602749A43103C9CDE90C0119
:1046400000210CA8FFF7A2FB2F4908602149AC31DB
:1046500003C9CDE90A0100210AA8FFF797FB2B49FE
:1046600008601C49B43103C9CDE90801002108A83C
:10467000FFF78CFB264908601649BC3103C9CDE918
:104680000601002106A8FFF781FB224908601149B5
:10469000C43103C9CDE90401002104A8FFF776FB6A
:1046A0001D4908600B49CC3103C9CDE90201002145
:1046B00002A8FFF76BFB194908600649D43103C90A
:1046C000CDE9000100216846FFF760FB0E49086054
:1046D00037B000BD685A00084C00002004000020DC
:1046E0000C000020140000201C0000200800002006
:1046F00010000020200000202400002028000020BE
:104700002C00002030000020340000203800002061
:104710003C00002040000020440000204800002011
:1047200070B5094DFF231A4605F5807606E000BFF7
:1047300010F8014B54402A5D5A40335D491E89B23E
:10474000F6D242EA032070BD6B5B0008D0E901326B
:1047500001699A60D0E901235A604A68824201D116
:1047600082684A60002202610868401E0860704743
:1047700070477047704700F108014FF0FF32C0E901
:104780000112C160016100210160704700210161D7
:10479000704730B50B685A1C02D000F1080202E0E5
:1047A000026904E02246546825689D42FAD953689C
:1047B0004B6099608A60516008610168491C016022
:1047C00030BD42684A6093688B609368596091601D
:1047D00008610168491C0160704700F031B800F0C1
:1047E00049B8000010B50C4610B10548FFF752FE5D
:1047F000002C04D003480068BDE81040004710BDFD
:10480000EC040020F401002001490870704700000A
:10481000A102002010B50448FDF7B2FA02490020B9
:104820000968486210BD00003004002003490020E0
:10483000096848620148FDF797BA0000300400207B
:1048400010B5FBF713FD09484168491C4160BFF3EF
:104850004F8FBFF36F8F4068012806D1044800686E
:10486000C00602D0FBF702FDFEE710BD8C01002060
:1048700004ED00E0074910B5486830B1401E4860BB
:1048800006D1BDE81040FBF7F8BCFBF7EFFCFEE7F4
:1048900010BD00008C01002070B500281DD00F4D08
:1048A000A0F108046068E968084202D1FBF7DEFC69
:1048B000FEE7226812B1FBF7D9FCFEE7884360608F
:1048C00000F0AEF960686968084468602046FFF748
:1048D00085FBBDE8704001F001B870BD7401002097
:1048E00006484FF47A710068B0FBF1F14FF0E02018
:1048F000491E4161072101617047000050010020FD
:1049000010B5FBF7BDFC0C49102809D300F1E020DD
:1049100090F8F0030A78904202D2FBF7A7FCFEE77A
:1049200006480068896800F4E060884202D9FBF715
:104930009DFCFEE710BD00008C0100200CED00E0A6
:1049400004494FF080500860BFF34F8FBFF36F8F63
:104950007047000004ED00E010B5084B002200BFD6
:1049600053F832401CB1521C082AF9D310BD43F849
:10497000321003EBC201486010BD000050870020D8
:1049800070B50D460446FFF75BFF616C0020491CC3
:1049900000D16064A16C491C00D1A064FFF76AFFDC
:1049A000A06B20B9294604F1240000F09DF82046B0
:1049B000BDE87040FFF760BC70B502001DD0114C1F
:1049C000E06A10B1FBF752FCFEE700F029F9E0685D
:1049D00085182068001DFFF7B9FE38B9206890F8E7
:1049E0002C10012088402169814321612846FFF76E
:1049F0000BFA00F073FF002803D1BDE87040FFF709
:104A00009FBF70BD9801002070B50C46030006D012
:104A100044B11B4DE86A40B1FBF728FCFEE7FBF709
:104A200025FCFEE7FBF722FCFEE700F0F9F8EA6858
:104A300018680444904204D9A0420BD9944202D889
:104A400008E0A042FAD91C602868001DFFF77EFE2E
:104A500010B109E01C600AE0286890F82C100120D1
:104A600088402969814329612046FFF7CDF900F08C
:104A700035FF002803D1BDE87040FFF761BF70BD6E
:104A80009801002001490120C86170479801002069
:104A900070B50D4650B1124C21681831FFF779FE00
:104AA0002068001DFFF752FE18B10AE0FBF7DEFB9D
:104AB000FEE7206890F82C1001208840216981438E
:104AC0002161681C05D0E0682844BDE87040FFF70C
:104AD0009BB92168BDE870400248091DFFF771BE0F
:104AE000980100206C88002070B50D4650B10E4C26
:104AF00021681831FFF765FE2068001DFFF726FECC
:104B000018B10AE0FBF7B2FBFEE7206890F82C1022
:104B100001208840216981432161E0682844BDE883
:104B20007040FFF771B900009801002070B50400D3
:104B300039D01D4DE06A2968C96A884233D2A0691C
:104B4000002804DB2868C06AC0F10700A061E16AA0
:104B5000164E01EB8101606906EB810188421FD18D
:104B6000201DFFF7F3FD012150B9E06A00EB800240
:104B700056F8222022B92A6901FA00F082432A61FC
:104B80002868C06AE0622A6981401143296100EB0C
:104B9000800006EB8000211DBDE87040FFF711BECC
:104BA0002868C06AE06270BD9801002090870020EC
:104BB00010B528B104490A6A0260C968416010BD95
:104BC000FBF754FBFEE70000980100201FB500240E
:104BD000009401940294234680220DA10E48039470
:104BE00000F0C8FC012803D100F0EEFE012804D03B
:104BF00000280CD1FBF73AFBFEE7FBF737FB074831
:104C000001214161C460BDE81F4000F047BA1FBDEB
:104C100049444C4500000000C53F000898010020B1
:104C20000248C16A491CC162704700009801002017
:104C300010B51D4CE06A10B10120E06110BD0020EC
:104C4000E061206821680068096B884204D8216807
:104C500020683431FFF78DFD206814221349006B62
:104C6000FBF748FB20B1216820683431FFF781FD54
:104C700020690F49B0FA80F0C0F11F0000EB8000FE
:104C800051F820206AB101EB800000F10802416870
:104C900049684160914201D149684160C86820601B
:104CA00010BDFBF7E3FAFEE798010020575B000810
:104CB00090870020F8B5374C0027207808B1AFF373
:104CC0000080684600F00CF960780025012670B37A
:104CD000012802D002285AD139E0FFF7A7FD9DF83C
:104CE00000003A2807D00D2808D0A0F1300109298A
:104CF00007D8C8B20DE0A570A58048E0022060701A
:104D000045E0A0F14101052902D83738C0B200E0E2
:104D1000FF20A17811B1012939D10DE0A188FF2927
:104D200006D8A288A16800018854A6702FE025E06B
:104D30006570FFF76FFD2AE0A288A16811440A7828
:104D400002430A70A088401CA080A5701FE09DF857
:104D50000000E178884207D1FFF75CFD6570012013
:104D600000F0A8F8074612E03A2801D065700EE07E
:104D7000A570A5806670FFF759FD08E09DF800005A
:104D80003A2804D1FFF752FDA580A5706670384619
:104D9000F8BD00008C0200200A4810B541780129B6
:104DA00009D0022907D04178012906D0407802288D
:104DB00003D0AFF3008000214170FFF72BFD0020EE
:104DC00010BD00008C02002070B5294C00266078D0
:104DD00008B1AFF3008020780025052846D2DFE82F
:104DE00000F041030A3136003A2000F097F8022023
:104DF0002070A5703AE0E088F0B1A1781C48C06846
:104E000011B1012932D108E000780009FFF772FAE8
:104E100000F084F80120A07028E0007800F00F0076
:104E2000FFF768FA00F07AF8E068401CE060A570CF
:104E3000E088401EE08019E00D2000F06FF80320AC
:104E4000207013E0E07800F069F80420F8E725709E
:104E5000032000F02FF8064600210120FFF7C2FCD6
:104E6000257003E000210120FFF7BCFC304670BD37
:104E70008C02002010B5014605480024234632224A
:104E8000006800F0ABF9012800D10124204610BDD4
:104E90009C02002010B5002401212246084600F0A3
:104EA00079F90349086000B10124204610BD0000D3
:104EB0009C02002031B50124FEF764F90100074887
:104EC0004FF000031A460068694602D000F0DCFA91
:104ED00001E000F04FFA204638BD00009C0200209F
:104EE000024909780170012070470000510000203C
:104EF000094810B5074AC0E9002100218160C0E9D6
:104F000003130C22C0E90521C161FDF72AF9012034
:104F100010BD000000100140EC04002010B5044654
:104F2000012211020548FCF707FA05480122014653
:104F300004700448FDF7EAFA012010BD00000240A9
:104F4000A0020020EC04002030B5054687B01148CF
:104F5000FCF716FF0F494FF080400024C1E9000420
:104F60004FF461604543C1E9024508460C61FCF716
:104F7000CBFE4FF48050009069460648FCF716FFC0
:104F8000049404A903480594FCF796FE07B0012099
:104F900030BD00003004002038B5174C00252078C3
:104FA00008B1AFF300806846FFF79AFF607830B130
:104FB000124A012807D0022810D0032801D1FFF798
:104FC00035FC284638BD0020A0809DF80000A1884F
:104FD0000A44491CA180107002200BE0A088FF2821
:104FE00007D89DF80010A0880244401CA0801170D2
:104FF000E5E703206070E2E77C0200208088002063
:1050000070B50E4D0024687870B102280BD00328CB
:105010000DD0687858B16878022808D068780328DD
:1050200005D0AFF300800120FFF744FF0446FFF7EF
:10503000F1FB01206870204670BD00007C0200205A
:1050400070B5154C00256078012801D0AFF30080C1
:10505000207810B101281CD104E000210120FFF7C5
:10506000C1FB16E0608850B1A0680078FFF756FFDA
:10507000A068401CA0606088401E608009E003209A
:10508000FFF718FF054600210120FFF7ABFB0020CA
:105090002070284670BD00007C0200201CB51C4911
:1050A00008780190FF20087008788DF800009DF8BE
:1050B0000000184A00F0500010700720906005E0D2
:1050C0009DF800305B008DF80030401E9DF80030E8
:1050D0001B06F5D4000200F4E060906001980870AF
:1050E0000D48016841F470010160016841F07041B0
:1050F0000160FFF7F5FB00205060FBF781F80748DF
:10510000016841F040410160FBF76AF800201CBDD6
:1051100000E400E08C01002020ED00E034EF00E02E
:1051200010B5FBF7A3F800F001FB18B104494FF0EC
:1051300080500860BDE810400020FBF79EB80000DA
:1051400004ED00E070B505465420FFF721F9040096
:105150001DD0002161602160A160E160A163012098
:10516000C4E90F01801E6064A06484F8505004F10B
:105170001000FFF700FB04F12400FFF7FCFA002306
:105180001A461946204600F0F5F8204670BDFBF798
:105190006DF8FEE72DE9F04117460E46050019D0DF
:1051A0005420FFF7F5F8040014D005FB06F0401C6E
:1051B000FFF7EEF8206050B1C4E90F5601212046F8
:1051C00000F0A3F884F850702046BDE8F081204636
:1051D000FFF762FBFBF74AF8FEE700002DE9FF410D
:1051E000002582B098460E46040001D01EB107E0AB
:1051F000FBF73CF8FEE7206C10B1FBF737F8FEE751
:1052000000F07AFA002720B9049810B1FBF72EF8C5
:10521000FEE7FFF715FBA06B50B331462046E5686B
:10522000FEF760FEB8F1000F10D0E560606A38B19B
:1052300004F1240000F01CFB10B100BFFFF780FB5D
:10524000FFF718FB012006B0BDE8F081A06B401EFF
:10525000A063206810B9FFF7FDF86060206900289E
:10526000EED004F1100000F003FB0128E6D0E7E7E0
:10527000049808B11DB106E0FFF7FCFA1DE068468E
:10528000FFF796FC0125FFF7F5FAFFF7C9FCFFF7DA
:10529000D7FA606C401C00D16764A06C401C00D140
:1052A000A764FFF7E7FA04A9684600F037F930B1C0
:1052B0002046FEF7E1FF00F011FB0020C3E7FFF7F7
:1052C000BFFAA06B38B1FFF7D5FA2046FEF7D4FF3E
:1052D00000F004FB9DE7FFF7CDFA206830B9FFF737
:1052E000AFFA6068FFF722FCFFF7C4FA04F124006C
:1052F0000499FFF7CDFB2046FEF7BEFF00F0EEFA63
:10530000002886D1FFF71CFB83E770B50D4604002B
:1053100023D0FFF795FAD4E90F20216802FB001192
:1053200061600021A1632168A1600A46D4E90F01F0
:10533000401E00FB01214FF0FF30E1606064A0647B
:1053400004F1100065B1FFF716FA04F12400FFF72D
:1053500012FAFFF78FFA012070BDFAF787FFFEE718
:1053600021690029F5D000F083FA0128F1D1FFF777
:10537000E7FAEEE72DE9FF41002682B01D46884698
:10538000040003D0B8F1000F03D007E0FAF76EFF76
:10539000FEE7206C10B1FAF769FFFEE7022D05D198
:1053A000E06B012802D0FAF761FFFEE700F0A4F9F4
:1053B000002720B9049810B1FAF758FFFEE7FFF76D
:1053C0003FFAA06BE16B884205D3022D03D004980D
:1053D000C0B1D6B11DE02A4641462046FEF795FDF4
:1053E000616A31B104F1240000F042FA012801D0D1
:1053F00002E008B1FFF7A4FAFFF73CFA012006B07B
:10540000BDE8F081FFF736FA1DE06846FFF7D0FBF4
:105410000126FFF72FFAFFF703FCFFF711FA606C84
:10542000401C00D16764A06C401C00D1A764FFF74A
:1054300021FA04A9684600F071F830B12046FEF761
:105440001BFF00F04BFA0020D9E7FFF7F9F9A06B3A
:10545000E16B884210D1FFF70DFA04F110000499B6
:10546000FFF716FB2046FEF707FF00F037FA00288B
:10547000A5D1FFF765FAA2E7FFF7FCF92046FEF792
:10548000FBFE00F02BFA9AE72DE9F0411E46154687
:105490000F46040001D01FB107E0FAF7E7FEFEE770
:1054A000206C10B1FAF7E2FEFEE7022E05D1E06BA8
:1054B000012802D0FAF7DAFEFEE7FFF721FAFAF741
:1054C000D5FE8046A06BE16B884208D3022E06D041
:1054D00000244046FAF7D1FE2046BDE8F08132466E
:1054E00039462046FEF711FD012608B105B12E60B0
:1054F000A06C401C04D0A06C401CA0640124E8E710
:10550000606A0028FAD004F1240000F0B1F9002804
:10551000F4D0002DF2D02E60F0E7000070B50D46FB
:10552000040019D0DDB1FFF78BF9114AD168286862
:10553000431C0FD02368126A934202D062688A42E9
:1055400010D96268891A81420CD2401A286020461C
:10555000FFF72EFB002406E0FAF788FEFEE7FAF7D5
:1055600085FEFEE70124FFF785F9204670BD0000A7
:10557000980100202DE9FF5F1546DDE90E68109FB8
:105580008A465FEA000B04D0072E05D3FAF76EFEB9
:10559000FEE7FAF76BFEFEE75420FEF7F9FE040083
:1055A0001CD0A80081469FB13846206398B1A5223F
:1055B0004946FAF78DFE6FF00301206B01EB850180
:1055C000084420F0070778070BD0FAF74FFEFEE7F4
:1055D000FEF7DEFEE9E72046FFF75EF94FF0FF3405
:1055E00082E051463546002022180B5C82F83430A8
:1055F0000A5C12B1401C1028F6D3002084F8430046
:10560000072D00D30625E562C4E91350201DFFF7DE
:10561000BDF804F11800FFF7B9F82461C5F10701DE
:105620006462A16159463846039AFEF71FFF206065
:10563000B8F1000F01D0C8F80040FFF701F92C4D78
:10564000A868401CA8602868DFF8A88010B16869C5
:1056500048B32DE02C60A868012829D15FF000072D
:1056600007EB870108EB8100FFF785F87F1C072F08
:10567000F6D320488C30FFF77EF81E48A030FFF7A5
:105680007AF81C48B430FFF776F81A48C830FFF7AC
:1056900072F81848DC30FFF76EF816488C30286333
:1056A0001430686304E02868C06AB04200D82C60F7
:1056B000686A401C68626064E16A01202A69884067
:1056C0001043286101EB810108EB8100211DFFF7E8
:1056D00078F80124FFF7CEF8686928B12868C06A15
:1056E000B04201D2FFF72CF904B02046BDE8F09F8C
:1056F00098010020908700200548416919B1C06ACF
:1057000018B1002070470120704702207047000048
:105710009801002010B5FFF793F80348C468FFF71D
:10572000A9F8204610BD0000980100202DE9F041A5
:105730002F4C0026E06A18B1A069401CA0614EE021
:10574000E068401CE060E76877B9206B006810B142
:10575000FAF78CFDFEE7206B616B21636063206AC2
:10576000401C2062FEF716FDA06ADFF888808742A1
:1057700009D3206B006890B1206BC068C568686869
:1057800087420FD2A0622068C06A00EB800158F8FF
:105790002100012800D90126A06900B321E04FF0C3
:1057A000FF30EFE7281DFEF7D1FFA86A18B105F119
:1057B0001800FEF7CBFFE86A0121226981401143FE
:1057C000216100EB800108EB8100291DFEF7F9FF44
:1057D000E86A2168C96A8842CBD30126C9E7FEF787
:1057E000C9FFE06900B101263046BDE8F081000044
:1057F000980100209087002070B504004FF0000150
:1058000030D0206D38B1401E2065E36CE26A9A42C8
:1058100028D018B126E0FAF729FDFEE7201DFEF793
:1058200095FF114B114A012150B9E06A00EB800548
:1058300053F8255025B9156901FA00F08543156123
:10584000E06CE062C0F10700A061E06A1569814088
:105850002943116100EB800003EB8000211DFEF75E
:10586000B0FF0121084670BD9087002098010020FC
:105870002DE9F041C068C468ACB104F118000746D6
:10588000FEF764FF134DE86A012678B139461248E5
:10589000FEF797FFE06A2968C96A884217D9012094
:1058A000EE61BDE8F081FAF7E1FCFEE7201DFEF7AE
:1058B0004DFFE16A2A6906FA01F01043286101EB05
:1058C00081000549B43901EB8000211DE0E700208B
:1058D000E7E7000098010020448800202DE9F04708
:1058E000274C0026E06A38B1FEF7AAFFE06A401EA6
:1058F000E062E06A18B13DE0FAF7B8FCFEE7A168A3
:10590000204D012079B3A5F1B40980462868E8B19B
:10591000E868C76807F11800FEF718FF381DFEF7A2
:1059200015FFF96A226908FA01F01043206101EBC2
:10593000810109EB8100391DFEF743FFF86A2168F8
:10594000C96A8842E2D3C4F81C80DFE7A06958B175
:105950004546A06940B1FFF7E9FE00B1E561A069E5
:10596000401EA061F5E705E0E069012802D10126AB
:10597000FEF7E6FFFEF77EFF3046BDE8F087000049
:1059800098010020448800202DE9F0471E46DDF8EC
:10599000209017460D00804612D02C20FEF7F8FC10
:1059A00004000AD0FEF74AFAC4F80080C4E906579A
:1059B000C4E90869201DFEF7E9FE2046BDE8F0872E
:1059C000FAF754FCFEE700001FB5FEF737FA0B4864
:1059D000006868B100200221CDE900100290034662
:1059E000CA01039006A10848FFF7C4FD002802D1B0
:1059F000FAF73CFCFEE704B010BD00006401002093
:105A0000546D72205376630055420008FEB5104C69
:105A10001F46034626680020089D002E0ED08DE804
:105A20000E0006290DDAFFF767FE02284FF000038B
:105A300005D0002269462068FFF79CFCFEBD2A467F
:105A4000F8E700233A4669463046FFF71DFDFEBDE4
:105A5000640100206C5D0008712A0008000000004D
:105A6000000000008000000065080008945D000848
:105A70002D2B000802000000000000008000000044
:105A8000C45D0008452B0008000000000000000075
:105A900080000000B45D0008B52B00080000000085
:105AA0000000000080000000A45D0008712B0008C9
:105AB000000000000000000080000000885D000879
:105AC000212B000802000000000000008000000000
:105AD000785D0008B52A0008010000000000000001
