:020000040800F2
:10000000B88E0020890200089102000893020008BF
:1000100095020008970200089902000800000000FD
:10002000000000000000000000000000C101000806
:100030009D02000800000000150200080D2A0008BB
:10004000A3020008A3020008A3020008A3020008FC
:10005000A3020008A3020008A3020008A3020008EC
:10006000A3020008A3020008A3020008A3020008DC
:10007000A3020008A3020008A3020008A3020008CC
:10008000A3020008A3020008A3020008A3020008BC
:100090008D030008A3020008A3020008A3020008C1
:1000A000A3020008A3020008A3020008A30200089C
:1000B000292B0008A3020008A3020008A3020008DD
:1000C000A3020008A3020008A3020008A30200087C
:1000D000A30200085931000869310008793100088D
:1000E000A3020008A3020008A3020008A30200085C
:1000F000A3020008A3020008A3020008A30200084C
:10010000A3020008A3020008A3020008A30200083B
:10011000B92C0008C92C0008392B0008A3020008DC
:10012000A3020008A3020008A3020008A30200081B
:10013000A3020008A3020008A3020008A30200080B
:10014000A3020008A3020008A3020008A3020008FB
:10015000A3020008A3020008A302000889310008D6
:10016000A3020008A3020008A3020008A3020008DB
:10017000A3020008A3020008A30200080000000078
:10018000A3020008A3020008A3020008A3020008BB
:10019000A3020008A3020008A3020008A3020008AB
:1001A000A3020008A3020008A3020008DFF80CD095
:1001B00000F0AEF8004800475D400008B88E00200F
:1001C000294B19680868B0E8F04F80F30988BFF33D
:1001D0006F8F4FF0000080F311887047000000001F
:1001E00006480068006880F3088862B661B6BFF30D
:1001F0004F8FBFF36F8F00DF00BF00BF08ED00E03F
:10020000DFF80C00016841F470010160704700BF25
:1002100088ED00E0EFF30980BFF36F8F124B1A688F
:100220001EF0100F08BF20ED108A20E9F04F10607B
:1002300008B44FF0500080F3118805F003F94FF037
:10024000000080F3118808BC19680868B0E8F04F16
:100250001EF0100F08BFB0EC108A80F30988BFF3BE
:100260006F8F704700BF00BFE0010020EFF31180E7
:100270004FF0500181F31188704780F31188704767
:10028000EFF30580704700000648804706480047A6
:10029000FEE7FEE7FEE7FEE7FEE7FEE7FEE7FEE736
:1002A000FEE7FEE7C52A0008AD01000840EA0103A9
:1002B0009B0703D009E008C9121F08C0042AFAD21C
:1002C00003E011F8013B00F8013B521EF9D27047E0
:1002D000D2B201E000F8012B491EFBD27047002288
:1002E000F6E710B513460A4604461946FFF7F0FF35
:1002F000204610BD30B504460020034600E05B1CDC
:10030000934203D2E05CCD5C401BF8D030BD0000CE
:10031000064C074D06E0E06840F0010394E8070052
:1003200098471034AC42F6D3FFF744FFF06800085A
:100330001069000870B58C1810F8015B15F0070300
:1003400001D110F8013B2A1106D110F8012B03E06E
:1003500010F8016B01F8016B5B1EF9D12B0705D476
:100360000023521E0DD401F8013BFAE710F8013BBF
:10037000CB1A921C03E013F8015B01F8015B521EDB
:10038000F9D5A142D8D3002070BD000010B50248B5
:1003900000F0FAF910BD0000F404002070B5044626
:1003A0000D46206800F5D87000EB0510006800F0DD
:1003B0000400616B8860606B806860B9206800F53C
:1003C000D87000EB0510006840F2FF7101EA505050
:1003D000616B08600BE0206800F5D87000EB051039
:1003E00000686FF0604101EAD000616B48602068EE
:1003F00000F5D87000EB0510006800F00200616B9A
:10040000C860206800F5D87000EB0510406800F067
:100410000F00616B0861206800F5D87000EB0510D3
:100420004068C0F30720616BC861206800F5D87090
:1004300000EB05108068616B0875206800F5D870C6
:1004400000EB05108068010A606B4175206800F5BB
:10045000D87000EB05108068010C606B8175206816
:1004600000F5D87000EB05108068000E616BC87550
:10047000206800F5D87000EB0510C068C1B2606B51
:100480000176206800F5D87000EB0510C068010AFD
:10049000606B4176206800F5D87000EB0510C068ED
:1004A000010C606B8176206800F5D87000EB0510B8
:1004B000C068000E616BC87665B92068C06840F0FE
:1004C00020002168C8602068406920F0020021688F
:1004D00048610BE02068006940F020002168086155
:1004E0002068406920F010002168486194F83800C5
:1004F00022281DD12068406920F48070216848615D
:100500002068406920F400702168486120684069D3
:1005100020F48060216848612068406920F4006010
:10052000216848612068406920F4004021684861E2
:1005300094F83800322803D1122084F8380002E001
:10054000012084F83800204600F064FA002070BDD5
:1005500010B504462068406920F001002168486118
:1005600094F8380012281DD12068406920F480706A
:10057000216848612068406920F400702168486162
:100580002068406920F480602168486120684069E3
:1005900020F40060216848612068406920F4004030
:1005A0002168486194F83800322803D1222084F869
:1005B000380002E0012084F83800204600F04EFAAE
:1005C000002010BD7047000010B500245BE004EB74
:1005D00044002E4901EB8000407A04EB44012B4A91
:1005E00002EB8101887204EB4402284B03EB820288
:1005F000928891B204EB440253F8220000F042FBCF
:1006000004EB4401214A02EB8101487204EB4400EF
:10061000114601EB8000007AB0B904EB440001EB15
:100620008000407A01282CD104EB440001EB8000CB
:10063000807A30BB164800EB84000068401C1449E7
:1006400001EB840108601CE004EB44000F4901EB5E
:100650008000007AA8B904EB440001EB8000407AE6
:1006600078B904EB440001EB8000807A012808D1BE
:10067000074800EB84000168491C054800EB840032
:100680000160601CC4B2022CA1DB10BD7C070020FD
:100690001506002010B500210AE000F0030201EB6E
:1006A0004103054C04EB83031A7280104A1CD1B23B
:1006B0000229F2DB10BD00007C070020C0EBC00166
:1006C00001EB401000BF011EA0F10100FBD17047FB
:1006D00010B5044623480088844242D004F0010249
:1006E0004FF40061204800F0D9FA04F002024FF400
:1006F00080511D4800F0D2FA04F0040280211B480A
:1007000000F0CCFA04F008024FF48071174800F0B2
:10071000C5FA04F010024FF48051144800F0BEFAFC
:1007200004F020024FF40051104800F0B7FA04F032
:1007300040024FF480410D4800F0B0FA04F080020E
:100740004FF40041094800F0A9FA002201210848AD
:1007500000F0A4FA00220421064800F09FFA0148A4
:10076000048010BDA00100200014024000100240CF
:10077000000402400018024002490968491C014A6D
:1007800011607047980100202DE9F04104460025D2
:10079000002600272068406900F0010018B3206897
:1007A00080686D490840884201D1012000E00020A6
:1007B00005462068806869490840884201D10120C7
:1007C00000E00020064620688068654908408842AD
:1007D00001D1012000E0002007460DB906B917B18C
:1007E0002046FFF7B5FE2068C06800F003052068CA
:1007F0004069C0F3400625B11EB100212046FFF735
:10080000CDFD2068006900F0030520684069C0F351
:10081000001625B11EB101212046FFF7BFFD20685B
:10082000806900F0010520684069C0F30026206857
:100830004069C0F3C0374DB146B13FB1E06B40F005
:100840000100E0636FF00100216888612068806921
:10085000C0F3400520684069C0F340262068406925
:10086000C0F3C0374DB146B13FB1E06B40F002007C
:10087000E0636FF002002168886120688069C0F33E
:10088000800520684069C0F3802620684069C0F375
:10089000C0374DB146B13FB1E06B40F00400E063BA
:1008A0006FF00400216888612068806900F07000A2
:1008B00008B9012000E00020054620684069C0F327
:1008C000C02620684069C0F3C03795BB8EB387B39C
:1008D0002068806900F07005402D1BD006DC102DCB
:1008E00009D0202D0CD0302D24D10EE0502D16D063
:1008F000602D1FD118E0E06B40F00800E0631AE0C3
:10090000E06B40F01000E06315E0E06B40F0200089
:10091000E06310E0E06B40F04000E0630BE0E06B70
:1009200040F08000E06306E0E06B40F48070E0633C
:1009300001E007E000BF00BF2068806920F0700080
:1009400021688861E06B28B1012084F838002046D6
:10095000FFF712FFBDE8F081030000040003000868
:100960000000031010B50246002392F83830012B26
:1009700001D0122B49D100BF92F83900012801D1D2
:10098000022010BD012082F8390000BF92F8380023
:10099000122803D1322082F8380002E0222082F8A7
:1009A00038000020D0631068406940F480701468FB
:1009B00060611068406940F40070146860611068FC
:1009C000406940F48060146860611068406940F4D8
:1009D0000060146860611068406940F40040146869
:1009E000606100BF002082F8390000BF31B9106893
:1009F000406940F002001468606108E010684069D6
:100A000040F010001468606101E00220B9E70020A6
:100A1000B7E7000010B50446606B007D0B49087015
:100A200000200B4908600023094A0A48616B0068EE
:100A300005F01BFA06480068012801D104F07EFB8E
:100A400000210548FFF78EFF10BD00009001002037
:100A50009401002084010020F40400200249096868
:100A6000491C014A116070478C010020F8B502460C
:100A70000B460025002400200021E4E0012606FAB0
:100A800001F51E6806EA0504AC4271D15E68022ECB
:100A900002D05E68122E13D1CF0802F1200656F85C
:100AA00027004E07F70E0F26BE40B0434F07FF0E3C
:100AB0001E69BE403043CF0802F1200646F82700E9
:100AC00010684F000326BE40B0431E7906F00306AF
:100AD0004F00BE40304310605E68012E08D05E6853
:100AE000022E05D05E68112E02D05E68122E13D140
:100AF00090684F000326BE40B0434F00DE68BE4002
:100B000030439060506801268E40B0431E79C6F392
:100B100000168E4030435060D0684F000326BE4020
:100B2000B0434F009E68BE403043D0605E6806F020
:100B30008056B6F1805FA8D100BF454E366846F4B6
:100B40008046434F3E603E46366806F48046009637
:100B500000BF00BF3F4E8F0856F827008E07370FA3
:100B60000F26BE40B0433C4EB24202D100262EE0DA
:100B700068E03A4EB24201D1012628E0384EB24236
:100B800001D1022623E0374EB24201D103261EE0F6
:100B9000354EB24201D1042619E0344EB24201D1A1
:100BA000052614E0324EB24201D106260FE0314E46
:100BB000B24201D107260AE02F4EB24201D10826E7
:100BC00005E02E4EB24201D1092600E00A268F0729
:100BD0003F0FBE4030431F4E8F0846F82700284E77
:100BE0003068A0435E6806F48036B6F5803F00D1D9
:100BF0002043234E3060361D3068A0435E6806F403
:100C00000036B6F5003F00D120431D4E361D306042
:100C1000361D3068A0435E6806F48016B6F5801F66
:100C200000D12043164E08363060361D3068A04390
:100C30005E6806F40016B6F5001F00D12043104E82
:100C40000C363060491C1029FFF418AFF8BD0000C5
:100C500044380240083801400000024000040240CD
:100C600000080240000C0240001002400014024044
:100C700000180240001C02400020024000240240F4
:100C8000003C0140024613690B400BB1012000E01B
:100C90000020704742694A40426170470AB1816151
:100CA00001E00B0483617047014800687047000051
:100CB000A401002002480068401C014908607047F8
:100CC000A401002010B50D48006840F400700B49E5
:100CD00008600846006840F48060086008460068C4
:100CE00040F480700860032000F072F8002000F0EB
:100CF00007F800F017F8002010BD0000003C02408B
:100D000070B5044600F0D0F94FF47A71B0FBF1F5FC
:100D1000284600F081FC00222146501E00F019F800
:100D2000002070BD10B5032000F052F800221146DB
:100D3000501E00F00EF810BD00BF00F01F02012190
:100D400091404209920002F1E022C2F8001100BF76
:100D500070472DE9F05F80460D461646002701F0EA
:100D60005BFC074639462A46334601F00700C0F1CE
:100D7000070ABAF1040F02D94FF0040A01E0C0F1EA
:100D8000070AD14600F1040ABAF1070F02D24FF068
:100D9000000A01E0A0F1030AD4464FF0010A0AFA62
:100DA00009FAAAF1010A0AEA020A0AFA0CFA4FF051
:100DB000010B0BFA0CFBABF1010B0BEA030B4AEA3C
:100DC0000B042146404601F02FFCBDE8F09F0000D7
:100DD00000BF00F00702064B19684FF6FF031940E9
:100DE000044B0B4343EA0221014B196000BF7047DB
:100DF0000CED00E00000FA0570B504460E46002533
:100E0000A748006800F00F00B0426FD2A4490E70EE
:100E10000846006800F00F00B04201D0012070BD0C
:100E2000207800F00200022807D19E48006820F0D8
:100E3000F000A16808439B490860207800F0010099
:100E400000283ED06068012807D19648083800681D
:100E5000C0F34040B8B90120E1E76068022802D041
:100E60006068032807D18F4808380068C0F34060E5
:100E700048B90120D3E78B4808380068C0F3400028
:100E800008B90120CBE78748006820F003006168BB
:100E9000084384490860FFF707FF0546606801289A
:100EA00010D108E0FFF700FF401B41F28831884273
:100EB00001D90320B3E77B48006800F00C00042848
:100EC000F0D1CDE06068022811D108E0FFF7ECFE18
:100ED000401B41F28831884201D903209FE77148C5
:100EE000006800F00C000828F0D1B9E024E0606848
:100EF000032810D108E0FFF7D7FE401B41F28831EC
:100F0000884201D903208AE76648006800F00C0097
:100F10000328F0D1A4E008E0FFF7C6FE401B41F231
:100F20008831884201D9032079E75E48006800F0E3
:100F30000C000028F0D193E0207800F00200022895
:100F400007D15848006820F0F000A16808435549CF
:100F50000860207800F00100002877D06068012840
:100F600007D1504808380068C0F34040B8B90120A4
:100F700055E76068022802D06068032807D1494815
:100F800008380068C0F3406048B9012047E7454889
:100F900008380068C0F3400008B901203FE7414825
:100FA000006820F00300616808433E490860FFF7CD
:100FB0007BFE05466068012810D108E0FFF774FE4B
:100FC000401B41F28831884201D9032027E7354888
:100FD000006800F00C000428F0D137E060680228B7
:100FE00010D108E0FFF760FE401B41F288318842D3
:100FF00001D9032013E72B48006800F00C000828F3
:10100000F0D123E06068032810D108E0FFF74CFE20
:10101000401B41F28831884201D90320FFE6214874
:10102000006800F00C000328F0D10FE008E0FFF7A3
:101030003BFE401B41F28831884201D90320EEE695
:101040001848006800F00C000028F0D114490E7018
:101050000846006800F00F00B04201D00120DEE633
:10106000207800F00400042807D10E48006820F41E
:10107000E050E16808430B490860207800F0080060
:10108000082808D10748006820F46040216940EA38
:10109000C100044908600020FFF732FE0020BEE6D0
:1010A000003C02400838024010B500F045F80949FC
:1010B000096801F0F001F02292FAA2F2B2FA82F28B
:1010C000D140054A515CC8400449086008460068A0
:1010D00010BD00000838024060660008A80100202A
:1010E00010B5FFF7E1FF0749096801F4E0514FF43B
:1010F000E05292FAA2F2B2FA82F2D140024A515C74
:10110000C84010BD083802406066000810B5FFF7FF
:10111000CBFF0749096801F460414FF4604292FA3D
:10112000A2F2B2FA82F2D140024A515CC84010BD2C
:10113000083802406066000870B5002100220023D4
:101140000020274C246804F00C0424B1042C04D0A3
:10115000082C41D103E0234840E023483EE0204CE6
:10116000241F246804F03F011D4C241F246804F44C
:10117000800484B11C4CB4FBF1F5194C241F246885
:1011800047F6C076344096FAA6F6B6FA86F6F440EC
:1011900005FB04F20FE0134CB4FBF1F5104C241FD7
:1011A000246847F6C076344096FAA6F6B6FA86F674
:1011B000F44005FB04F20A4C241F246804F4403474
:1011C0004FF4403595FAA5F5B5FA85F5EC40641C69
:1011D0006300B2FBF3F001E0024800BF00BF70BD46
:1011E000083802400024F400001BB70038B504465C
:1011F0000025207800F00100002866D0F64800683D
:1012000000F00C0004280DD0F348006800F00C003A
:10121000082813D1F048001F006800F48000B0F5E2
:10122000800F0BD1EC4808380068C0F3404000281C
:101230004BD06068002848D1012038BD0020E64925
:10124000891F0870FFF730FD054608E0FFF72CFD09
:10125000401B41F28831884201D90320EDE7DE4886
:1012600008380068C0F340400028EFD12079DA49FF
:10127000891F08706068A0B1FFF716FD054608E0F9
:10128000FFF712FD401B41F28831884201D903204B
:10129000D3E7D14808380068C0F340400028EFD0B9
:1012A00013E0FFF701FD054608E0FFF7FDFC401BDA
:1012B00041F28831884201D90320BEE7C648083888
:1012C0000068C0F340400028EFD1207800F0020011
:1012D000022869D1C048006800F00C0058B1BE482F
:1012E000006800F00C00082821D1BB48001F0068EE
:1012F00000F48000D8B9B84808380068C0F340004E
:1013000020B1E068012801D0012096E7B2480838F2
:10131000006820F0F800F82292FAA2F2B2FA82F203
:10132000216991400843AC49083908603CE0E06815
:1013300028B30120A9490860FFF7B6FC054606E07E
:10134000FFF7B2FC401B642801D9032075E7A248CF
:1013500008380068C0F340000028F1D09E480838E3
:10136000006820F0F800F82292FAA2F2B2FA82F2B3
:1013700021699140084398490839086014E0002029
:1013800096490860FFF790FC054606E0FFF78CFCE5
:10139000401B642801D903204FE78F4808380068B4
:1013A000C0F340000028F1D1207800F008000828A0
:1013B0002CD16069A8B1012089490860FFF774FC4D
:1013C000054606E0FFF770FC401B642801D90320A6
:1013D00033E781486C300068C0F340000028F1D04A
:1013E00014E000207E490860FFF75EFC054606E039
:1013F000FFF75AFC401B642801D903201DE77648FB
:101400006C300068C0F340000028F1D1207800F073
:10141000040004286DD100BF6F483830006840F0E8
:1014200080506D49383108600846006800F08050EF
:10143000009000BF00BF6B48006840F480706949AD
:101440000860FFF731FC054606E0FFF72DFC401B66
:10145000642801D90320F0E66248006800F4807037
:101460000028F2D000205C4968310870FFF71CFCAE
:10147000054608E0FFF718FC401B41F2883188421E
:1014800001D90320D9E6544868300068C0F3400011
:101490000028EFD1207A504968310870A068A0B1C7
:1014A000FFF702FC054608E0FFF7FEFB401B41F298
:1014B0008831884201D90320BFE647486830006878
:1014C000C0F340000028EFD013E0FFF7EDFB054626
:1014D00008E0FFF7E9FB401B41F28831884201D95F
:1014E0000320AAE63C4868300068C0F340000028AA
:1014F000EFD1A069F0B33848006800F00C0008286C
:1015000072D0A069022850D1002034490866FFF744
:10151000CBFB054606E0FFF7C7FB401B642801D95B
:1015200003208AE62C4808380068C0F34060002891
:10153000F1D1D4E90701084347F6C07292FAA2F24A
:10154000B2FA82F2616A914008430122A16AC2EBB9
:1015500051014FF4403292FAA2F2B2FA82F2914073
:1015600008434FF0706292FAA2F2B2FA82F2E16A94
:10157000914000E03AE008431749091F0860012044
:1015800016490866FFF790FB054606E0FFF78CFB5F
:10159000401B642801D903204FE60F480838006833
:1015A000C0F340600028F1D020E000200B4908661D
:1015B000FFF77AFB054606E0FFF776FB401B642841
:1015C00001D9032039E6044808380068C0F34060B8
:1015D0000028F1D10AE007E0083802400000474245
:1015E000800E474200700040012026E6002024E6DD
:1015F000042808D14FF0E021096941F004014FF0BF
:10160000E022116107E04FF0E021096921F00401B7
:101610004FF0E0221161704770B504462546681E00
:10162000B0F1807F01D301200FE0681E4FF0E02170
:1016300048610F214FF0FF3000F0F6FF00204FF01F
:10164000E021886107200861002070BD7047704765
:10165000024600BF92F83800012801D102207047ED
:10166000012082F8380000BF022082F8390010689B
:10167000406820F0700013685860106840680B687C
:101680001843136858601068806820F08000136861
:101690009860106880684B68184313689860012050
:1016A00082F8390000BF002082F8380000BF00BF78
:1016B000D5E710B504460CB9012010BD94F83900E7
:1016C00028B9002084F83800204600F00DF80220E8
:1016D00084F83900211D206801F03AFA012084F8CD
:1016E00039000020E9E7000038B504462068B0F171
:1016F000804F16D100BF1848006840F0010016491D
:1017000008600846006800F00100009000BF00BFBC
:10171000002207211C20FFF71CFB1C20FFF70CFBFD
:1017200019E00E492068884215D100BF0A480068B8
:1017300040F01000084908600846006800F01000FA
:10174000009000BF00BF00220A213620FFF701FBF6
:101750003620FFF7F1FA38BD403802400010004053
:1017600001460868C06840F001000A68D060086857
:10177000006840F001000A681060002070470146D0
:10178000022081F8390000BF0868006A41F2111296
:10179000104050B90868006A9210104028B90868D3
:1017A000006820F001000A68106000BF012081F885
:1017B0003900002070472DE9F04104460D4600260F
:1017C00000BF94F83800012802D10220BDE8F08162
:1017D000012084F8380000BF022084F83900206816
:1017E000866826F0770626F47F462068866028689B
:1017F00050283BD00CDC202860D004DC002853D0DB
:10180000102865D155E030285DD0402860D141E0F6
:10181000602835D070280DD0B0F5805F03D0B0F5CA
:10182000005F55D115E02068806820F0070021682E
:1018300088604EE0D5E902136A68206801F0FAF981
:101840002068866826F0770646F07706206886606E
:101850003FE0D5E902136A68206801F0EBF92068DF
:10186000806840F480402168886032E0EA686968F6
:10187000206801F0F5F95021206801F0E7F928E02F
:10188000EA686968206801F000FA6021206801F0C8
:10189000DDF91EE0EA686968206801F0E1F940219D
:1018A000206801F0D3F914E00021206801F0CEF99E
:1018B0000FE01021206801F0C9F90AE0202120681A
:1018C00001F0C4F905E03021206801F0BFF900E023
:1018D00000BF00BF012084F8390000BF002084F859
:1018E000380000BF00BF71E7704710B5044620689C
:1018F0000069C0F34000D8B12068C068C0F3400060
:10190000B0B16FF0020021680861012020762068E4
:10191000806900F0030018B12046FFF7E5FF05E0FD
:10192000204600F0ADF8204600F0ABF8002020760D
:1019300020680069C0F38000D8B12068C068C0F397
:101940008000B0B16FF004002168086102202076A9
:101950002068806900F4407018B12046FFF7C4FF8A
:1019600005E0204600F08CF8204600F08AF80020C0
:10197000207620680069C0F3C000D8B12068C06834
:10198000C0F3C000B0B16FF0080021680861042006
:1019900020762068C06900F0030018B12046FFF7E8
:1019A000A3FF05E0204600F06BF8204600F069F840
:1019B0000020207620680069C0F30010D8B12068AC
:1019C000C068C0F30010B0B16FF01000216808616A
:1019D000082020762068C06900F4407018B12046C5
:1019E000FFF782FF05E0204600F04AF8204600F0AD
:1019F00048F8002020762068006900F0010058B106
:101A00002068C06800F0010030B16FF0010021686B
:101A10000861204600F036F820680069C0F3C01065
:101A200058B12068C068C0F3C01030B16FF08000BA
:101A3000216808612046FFF709FE20680069C0F3AD
:101A4000801058B12068C068C0F3801030B16FF0CA
:101A5000400021680861204600F026F820680069EF
:101A6000C0F3401058B12068C068C0F3401030B1D6
:101A70006FF02000216808612046FFF7E8FD10BDE7
:101A80007047704710B504462068B0F1804F07D109
:101A900002F080FF4FF400710248FFF7FBF800BF2F
:101AA00000BF10BD00100240704710B5044620462C
:101AB00003F078F810BDF8B504460025002620682C
:101AC000006800F001052068C06800F480766DB100
:101AD00066B100BF206800680090206840680090F0
:101AE00000BF00BFE06B40F00100E06320680068C9
:101AF000C0F340052068406900F001066DB166B191
:101B000000BF20680068009020684068009000BF17
:101B100000BFE06B40F00400E06320680068C0F3A1
:101B200080052068406900F001066DB166B100BF14
:101B300020680068009020684068009000BF00BFE7
:101B4000E06B40F00200E06320680068C0F3C0056D
:101B50002068406900F001066DB166B100BF2068E1
:101B60000068009020684068009000BF00BFE06BF4
:101B700040F00800E06320680068C0F3401520686A
:101B8000C06800F020061DB116B1204601F0C8F86B
:101B900020680068C0F3C0152068C06800F08006A7
:101BA0001DB116B1204601F021FA20680068C0F38B
:101BB00080152068C06800F040061DB116B12046AF
:101BC00001F08AF8E06B28B1012084F83900204642
:101BD000FFF76BFFF8BD10B504460CB9012010BD2E
:101BE000A06900B100E000BF94F8390010B92046A8
:101BF00000F026F8022084F839002068C06820F43C
:101C000000502168C860204601F0DEF820680069B5
:101C100020F49040216808612068406920F02A0083
:101C2000216848612068C06840F400502168C8609D
:101C30000020E063012084F839000020CFE7000095
:101C400010B586B004468D492068884225D100BF72
:101C50008B48006840F40020894908600846006805
:101C600000F40020009000BF00BF4FF440600190DE
:101C70000220029001200390032004900820059088
:101C800001A98048FEF7F2FE00220A213420FFF766
:101C900060F83420FFF750F8EEE07B492068884276
:101CA00032D100BF7648006840F480107449086063
:101CB0000846006800F48010009000BF00BF881440
:101CC000019002200290012003900320049008203C
:101CD000059001A96B48FEF7C9FE0420019002207F
:101CE000029001200390032004900820059001A990
:101CF0006648FEF7BBFE00220A213520FFF729F8CF
:101D00003520FFF719F8B7E061492068884227D1EC
:101D100000BF5B48001D006840F010005849091DD5
:101D200008600846006800F01000009000BF00BF87
:101D30004FF4C06001900220029001200390032024
:101D400004900720059001A95248FEF78FFE00225B
:101D50000A212520FEF7FDFF2520FEF7EDFF8BE091
:101D60004D492068884232D100BF4548006840F4A0
:101D70000030434908600846006800F400300090D5
:101D800000BF00BF6020019002200290012003905C
:101D9000032004900720059001A93C48FEF766FE49
:101DA00080200190022002900020039003200490E4
:101DB0000720059001A93548FEF758FE00220A21A8
:101DC0002620FEF7C6FF2620FEF7B6FF54E0334973
:101DD0002068884225D100BF2948006840F480204F
:101DE000274908600846006800F48020009000BF82
:101DF00000BF4FF440700190022002900120039038
:101E0000032004900720059001A92048FEF72EFE2C
:101E100000220A212720FEF79CFF2720FEF78CFFD7
:101E20002AE01F492068884226D100BF1448001DBF
:101E3000006840F020001249091D0860084600684B
:101E400000F02000009000BF00BF4FF484400190DC
:101E500002200290012003900320049008200590A6
:101E600001A91048FEF702FE00220A214720FEF7D2
:101E700070FF4720FEF760FF06B010BD004C004029
:101E8000403802400008024000500040000C024070
:101E900000100140000002400044004000480040A3
:101EA000001401400018024030B50346002493F8A6
:101EB0003940012C01D0122C37D101B10AB90120CF
:101EC00030BD00BF93F83800012801D10220F7E7A8
:101ED000012083F8380000BF99629A85DA850020D6
:101EE000D86393F83900122803D1322083F83900DF
:101EF00002E0222083F839001868C06840F480703E
:101F00001D68E8601868406940F001001D6868615C
:101F100000BF002083F8380000BF1868C06840F098
:101F200020001D68E8600020CAE70220C8E7000022
:101F300010B50446214A2068811A90422CD009DC51
:101F40001F49084480B1B0F5806F15D0B0F5006F1F
:101F500032D119E0B1F5404F03D0B1F5444F2BD148
:101F600022E002F031FD27E000231A461548A16A5D
:101F7000006803F07AFF1FE000231A461248A16AA6
:101F8000006803F072FF17E000231A460F48A16AA9
:101F9000006803F06AFF0FE000231A460C48A16AAC
:101FA000006803F062FF07E000231A460948A16AAF
:101FB000006803F05AFF00BF00BF10BD0050004092
:101FC00000BCFFBF240000202C00002034000020B3
:101FD0003C000020440000202DE9F04704460D4657
:101FE000164699464FF0000894F83980B8F1010F71
:101FF00002D0B8F1220F65D105B116B90120BDE8B4
:10200000F08700BF94F83800012801D10220F6E7DC
:10201000012084F8380000BF0020E06394F8390004
:10202000222803D1322084F8390002E0122084F8FB
:102030003900A684E68428E0E08C401EE084A06895
:10204000B0F5805F14D14B4600228021204601F07C
:1020500005F808B10320D2E72F463888C0F30800FE
:1020600021684860206908B9AD1C0EE06D1C0CE0C9
:102070004B4600228021204600F0F0FF08B10320EB
:10208000BDE715F8010B21684860E08C0028D3DC1F
:102090004B4600224021204600F0E0FF08B103201B
:1020A000ADE794F83900322803D1222084F83900B2
:1020B00002E0012084F8390000BF002084F83800D5
:1020C00000BF9CE702209AE730B50346002493F84E
:1020D0003940012C01D0222C37D101B10AB901209D
:1020E00030BD00BF93F83800012801D10220F7E786
:1020F000012083F8380000BF19629A84DA84002036
:10210000D86393F83900222803D1322083F83900AC
:1021100002E0122083F839001868C06840F480702B
:102120001D68E8601868406940F001001D6868613A
:1021300000BF002083F8380000BF1868C06840F076
:1021400080001D68E8600020CAE70220C8E70000A0
:1021500010B5044604492068084410B902F04EFC4A
:1021600000BF00BF10BD000000F0FEBF00B587B08B
:1021700000BF2748006840F0100025490860084665
:10218000006800F01000019000BF00BF00BF0846CB
:10219000006840F0100008600846006800F0100079
:1021A000019000BF00BF881502900120039000201D
:1021B0000490059002A91748FEF758FC4FF40070F0
:1021C000029002A91348FEF751FC4FF48070029070
:1021D00002A91148FEF74AFC4FF40060029002A9E0
:1021E0000E48FEF743FC1020029002A90B48FEF7B0
:1021F0003DFC0820029002A90848FEF737FC4FF486
:102200008060029002A90648FEF730FC07B000BDCE
:10221000303802400010024000000240000C024032
:102220000018024010B502F019FD10BD00B587B0CE
:1022300000BF8248006840F01000804908600846EE
:10224000006800F01000019000BF00BF00BF08460A
:10225000006840F0040008600846006800F00400D0
:10226000019000BF00BF00BF0846006840F020009A
:1022700008600846006800F02000019000BF00BF21
:1022800000BF0846006840F080000860084600680B
:1022900000F08000019000BF00BF00BF084600684A
:1022A00040F0010008600846006800F0010001905D
:1022B00000BF00BF00BF0846006840F00200086091
:1022C0000846006800F00200019000BF00BF00BF98
:1022D0000846006840F0400008600846006800F0CA
:1022E0004000019000BF00BF00BF0846006840F0FA
:1022F000080008600846006800F00800019000BF70
:1023000000BF4FF28C100290012003900020049037
:10231000059002A94A48FEF7A9FB40200290002040
:102320000390049002A94648FEF7A0FB46F208007D
:10233000029000200390049002A94248FEF796FB09
:102340000120029000200390049002A93E48FEF76D
:102350008DFB022002900120039000200490059044
:1023600002A93948FEF782FB41F2010002900120E8
:10237000039000200490059002A93448FEF776FBF4
:102380004FF4C0500290012003900020049005906B
:1023900002A92C48FEF76AFB03200290002003905C
:1023A000049002A92A48FEF761FB4FF420600290D6
:1023B000002003900120049002A92148FEF756FB5B
:1023C0004FF48060029002200390002004900320CC
:1023D00005900520069002A91C48FEF747FB40F235
:1023E000044002900120039000200490059002A96F
:1023F0001748FEF73BFB4FF48070029001200390DA
:1024000000200490059002A91248FEF72FFB182027
:1024100002900120039000200490059002A90E482C
:10242000FEF724FB002204210548FEF737FC0022BA
:1024300008210348FEF732FC07B000BD30380240E7
:102440000010024000140240000802400004024054
:102450000018024000000240000C024030B585B078
:102460000546002442E004EB8400224901EB800091
:10247000007C05F00301884235D005F0030004EB31
:1024800084011C4A02EB8101087404EB84001146AC
:1024900001EB8000007C88B904EB840001EB800034
:1024A00040680090032001900020029004EB84011A
:1024B00052F821006946FEF7D9FA14E004EB8400D3
:1024C0000C4901EB80004068009000200190012041
:1024D00002900320039004EB8401064A52F8210085
:1024E0006946FEF7C3FAAD08601CC4B2102CBADB13
:1024F00005B030BD3C06002010B5002483E004EB9D
:102500008400434901EB8000007C002879D004EB73
:10251000840001EB8000407C04EB84013C4A02EB28
:102520008101887404EB8402394B03EB82029288A8
:1025300091B204EB840253F82200FEF7A3FB04EBF4
:102540008401334A02EB8101487404EB8400114694
:1025500001EB8000407C50B12E48B0F83D000121D5
:10256000A14089B208432B49A1F83D0008E0294861
:10257000B0F83D100120A04081432648A0F83D104E
:1025800004EB8400224901EB8000007C022818D172
:1025900004EB840001EB8000407C012831D104EB86
:1025A000840001EB8000807C50B91A485F3000EB5A
:1025B00084000168491C17485F3000EB840001600B
:1025C0001FE004EB8400124901EB8000007C03282B
:1025D00017D104EB840001EB8000407C88B904EB48
:1025E000840001EB8000807C01280AD109485F301B
:1025F00000EB84000068401C06495F3101EB840158
:102600000860601CC4B2102CFFF679AF10BD00004A
:102610003C0600207405002002480068C0F3022038
:10262000704700000CED00E010B5002807DA0A073B
:10263000140E054A00F00F031B1FD45403E00A07D1
:10264000130E024A135410BD18ED00E000E400E040
:1026500010B50446204600F09DF8CC21204600F03D
:1026600007F94421204600F003F900F0BDF84FF4CB
:102670007A7002F0A3FD00F0ADF8204600F08AF871
:10268000CC21204600F0F4F8BE21204600F0F0F8FE
:10269000204600F06BF804490870204600F066F808
:1026A0000149487010BD0000A20100201FB50022A2
:1026B00002210848FEF7F2FA00200123CDE900309C
:1026C00002900346802204A10390074803F05EFCB9
:1026D0001FBD0000000802404F6E655769726520FB
:1026E0005461736B000000000528000800B585B038
:1026F0000120009000200190029069460248FEF7F8
:10270000B5F905B000BD00000008024000B585B075
:102710000120009001900020029069460248FEF7D7
:10272000A5F905B000BD00000008024070B50546DF
:102730000024002201210C48FEF7B0FAFFF7E6FF63
:102740000320FDF7BBFFFFF7D1FF0A20FDF7B6FF1F
:1027500001210548FEF796FA00B101243220FDF769
:10276000ADFF204670BD00000008024070B5054670
:102770000826002406E064102846FFF7D7FF44EA45
:10278000C010C4B2301EA6F10101CEB2F3D1204672
:1027900070BD000070B50546002201210C48FEF70F
:1027A0007DFAFFF7B3FF4FF41670FDF787FFFFF7D1
:1027B0009DFF4620FDF782FF01210548FEF762FAE2
:1027C00004464FF4CD70FDF779FF204670BD000040
:1027D0000008024010B5002202210248FEF75EFA0E
:1027E00010BD00000008024010B501221146044847
:1027F000FEF754FA012202210148FEF74FFA10BDFC
:102800000008024006E00448FFF722FF4FF4FA7088
:1028100002F0D4FCF7E700009407002070B50546ED
:102820000C468CB1002201211048FEF737FAFFF761
:102830006DFF0A20FDF742FFFFF758FF3720FDF735
:102840003DFFFFF753FF10E0002201210748FEF78C
:1028500025FAFFF75BFF4120FDF730FFFFF746FF4A
:102860000520FDF72BFFFFF741FF70BD0008024078
:1028700070B505460C46082605E004F0010128461F
:10288000FFF7CCFF6410301EA6F10101CEB2F4D1E7
:1028900070BD00001CB511A00068019000BF0020B1
:1028A0004FF4612301220A21009001F0B1F888B9A8
:1028B000032301AA0121342001F024FB30B900F0E8
:1028C0008DFD18B900BF01F045F9FCE700F06CFD83
:1028D00000F056FD322002F071FCE0E7AABBCC000C
:1028E00000BF4FF47A7001F0D0FBFAE708B500BFE3
:1028F00000235A1E69460248006803F02CF9F7E7E6
:102900002400002008B500BF00235A1E694607486E
:10291000006803F020F94FF6FF730122694604486E
:10292000FFF75AFB02F00AFCEEE700002800002047
:102930003404002008B500BF00235A1E69460C4825
:10294000006803F008F9012210210A48FEF7A6F9F1
:102950004FF6FF73012269460748FFF73DFB00224F
:1029600010210448FEF79AF902F0E8FBE4E70000C2
:1029700038000020000C02407403002008B500BF9E
:1029800000235A1E69460C48006803F0E4F801224F
:1029900008210A48FEF782F94FF6FF7301226946C3
:1029A0000748FFF719FB002208210448FEF776F9D3
:1029B00002F0C4FBE4E7000040000020000C0240ED
:1029C000B403002008B500BF00235A1E69460C4816
:1029D000006803F0C0F8012291020A48FEF75EF990
:1029E0004FF6FF73012269460748FFF7F5FA002208
:1029F0004FF480610348FEF751F902F09FFBE3E7D3
:102A00004800002000180240B404002010B5FEF772
:102A100051F901F054FB10BD10B592B000BF27482A
:102A2000006840F08050254908600846006800F0C2
:102A30008050009000BF00BF00BF2148006840F4F4
:102A400040401F4908600846006800F4404000907C
:102A500000BF00BF01200690079002200C904105A6
:102A60000D9106210E91A8210F91022110910421B0
:102A7000119106A8FEF7BAFB0D20019002200290EA
:102A8000002003904FF4A05004900590052101A868
:102A9000FEF7B2F9FEF708FB4FF47A71B0FBF1F4E0
:102AA0002046FEF7B9FD0420FEF7A2FD00221146E4
:102AB000501EFEF74EF912B010BD00004038024023
:102AC000007000401448006840F47000124908602B
:102AD0001248006840F001001049086000200F49CA
:102AE000083108600D4800680D4908400B4908602E
:102AF0000C48091D0860081F006820F48020091F89
:102B00000860002005490C3108604FF00060024960
:102B1000803908607047000088ED00E0003802400E
:102B2000FFFFF6FE1030002410B50248FEF7DDFE70
:102B300010BD0000FC02002010B50448FEF7D5FED1
:102B4000FFF7DAFCFDF740FD10BD00003803002060
:102B5000002202682C4B98420ED0B0F1804F0BD06F
:102B60002A4B984208D02A4B984205D0294B9842CC
:102B700002D0294B984201D1012300E000231BB170
:102B800022F070024B681A431F4B984220D0B0F1DC
:102B9000804F1DD01D4B98421AD01D4B984217D024
:102BA0001C4B984214D01C4B984211D01B4B98429E
:102BB0000ED01B4B98420BD01A4B984208D01A4BA0
:102BC000984205D0194B984202D0194B984201D136
:102BD000012300E000231BB122F44072CB681A43AA
:102BE00002608B68C3620B688362074B984202D015
:102BF000094B984201D1012300E000230BB10B697E
:102C0000036301234361704700000140000400405A
:102C100000080040000C004000040140004001405A
:102C2000004401400048014000180040001C0040E2
:102C30000020004030B50C460021816821F47F411E
:102C400042EA032525432943816030BD0A4600211D
:102C5000816821F0700142F00703194381607047D9
:102C600030B50B46144600210022026A056A25F0A1
:102C700001050562816921F0F00141EA041122F0A9
:102C80000A021A438161026230BD30B50B46144618
:102C900000210022056A25F0100505628169026A9B
:102CA00021F4704141EA043122F0A00242EA031209
:102CB0008161026230BD000010B50248FEF7FBFEE4
:102CC00010BD00007403002010B50248FEF7F3FEAB
:102CD00010BD0000B403002010B504462068C06891
:102CE00020F040002168C86094F83900322803D1F0
:102CF000222084F839000EE02068C06820F480703B
:102D00002168C8602068406920F00100216848619E
:102D1000012084F839002046FFF71AFA002010BD80
:102D200070B50446002694F83960222E01D0322E68
:102D300047D1A068B0F5805F0DD1A56A206928B998
:102D400020684068C0F30800288011E020684068CF
:102D5000C0B228800CE0206920B920684068A16AD0
:102D6000087005E02068406800F07F00A16A0870E4
:102D7000E08D08BB2068C06820F020002168C86092
:102D800094F83900322803D1122084F839000EE07B
:102D90002068C06820F480702168C860206840699D
:102DA00020F0010021684861012084F839002046A4
:102DB000FFF7BEF8002070BD2046FFF7B9F80020ED
:102DC000F9E70220F7E700002DE9F041044600256D
:102DD0002068056925F44055E068054320680561D1
:102DE0002068C56849F20C6085432169A0680843E2
:102DF00061690843E169084305432068C5602068AC
:102E0000456925F44075A069054320684561E0697E
:102E1000B0F5004F72D173492068884203D07249DF
:102E20002068884234D1FEF771F900EBC00101EB54
:102E3000001061684900B0FBF1F06421B0FBF1F6CD
:102E4000FEF764F900EBC00101EB00106168490076
:102E5000B0FBF1F7FEF75AF900EBC00101EB0010EF
:102E600061684900B0FBF1F06421B0FBF1F000EBC8
:102E7000C00101EB0010A7EB8000322101EB001034
:102E80006421B0FBF1F066F31F1021688860A6E0B2
:102E9000FEF726F900EBC00101EB00106168490064
:102EA000B0FBF1F06421B0FBF1F6FEF719F900EB8D
:102EB000C00101EB001061684900B0FBF1F7FEF7BB
:102EC0000FF900EBC00101EB001061684900B0FB95
:102ED000F1F06421B0FBF1F000EBC00101EB001058
:102EE000A7EB8000322101EB00106421B0FBF1F070
:102EF00066F31F102168886071E0FFE73949206898
:102F0000884203D038492068884234D1FEF7FEF861
:102F100000EBC00101EB001061688900B0FBF1F02B
:102F20006421B0FBF1F6FEF7F1F800EBC00101EB14
:102F3000001061688900B0FBF1F7FEF7E7F800EBDD
:102F4000C00101EB001061688900B0FBF1F0642161
:102F5000B0FBF1F000EBC00101EB0010A7EB80002B
:102F6000322101EB00106421B0FBF1F066F31F1079
:102F70002168886033E0FEF7B3F800EBC00101EB95
:102F8000001061688900B0FBF1F06421B0FBF1F63C
:102F9000FEF7A6F800EBC00101EB001061688900A4
:102FA000B0FBF1F7FEF79CF800EBC00101EB00105D
:102FB00061688900B0FBF1F06421B0FBF1F000EB37
:102FC000C00101EB0010A7EB8000322101EB0010E3
:102FD0006421B0FBF1F066F31F1021688860BDE842
:102FE000F0810000001001400014014010B50146BE
:102FF000002391F83930122B01D0322B2CD1886864
:10300000B0F5805F0FD10A6A1088C0F308000C6821
:103010006060086918B9086A801C086209E0086ADB
:10302000401C086205E00C6A601C086220780C688D
:103030006060C88C401E80B2C88458B90868C068F7
:1030400020F080000C68E0600868C06840F0400034
:103050000C68E060002010BD0220FCE72DE9F04183
:1030600004460E4617461D464FF00008FDF71CFEAD
:1030700080469FBB2BE0681C48B32DB1FDF714FEC2
:10308000A0EB0800A84222D92068C06820F0800088
:103090002168C8602068C06820F020002168C860EE
:1030A0002068C06820F480702168C860206840698A
:1030B00020F0010021684861012084F8390000BF38
:1030C000002084F8380000BF0320BDE8F0812068AC
:1030D00000683040B04202D1012001E003E000204E
:1030E0000028C8D035E02AE0681C40B32DB1FDF7B8
:1030F000DBFDA0EB0800A84221D92068C06820F0C1
:1031000080002168C8602068C06820F02000216825
:10311000C8602068C06820F480702168C86020689A
:10312000406920F0010021684861012084F83900DD
:1031300000BF002084F8380000BF0320C5E72068E6
:1031400000683040B04201D1012000E0002000289A
:10315000CAD10020B9E7000010B50248FEF7ABFC69
:1031600010BD0000F403002010B50248FEF7A3FCD8
:1031700010BD00003404002010B50248FEF79BFC8F
:1031800010BD00007404002010B50248FEF793FC47
:1031900010BD0000B404002070B50546002400BF37
:1031A00025E0144850F82400406855F8241088425F
:1031B00015D055F82400B0F5966F10D355F82400BB
:1031C000B0F5E13F0BD855F824000A4951F8241016
:1031D0004860084951F82400FEF7FDFC05E0054869
:1031E00050F82400406845F82400601CC4B2052C47
:1031F000D7DB70BD5C00002002E008C8121F08C1C8
:10320000002AFAD170477047002001E001C1121F67
:10321000002AFBD170470000014800787047000089
:10322000F90200202DE9F04180460C4615461E4665
:10323000002701F09AFE0A200B4908703346072246
:103240002946204602F0C0FA012801D0032706E0F3
:1032500044F6206002F0ECFA012800D0032701F0C8
:1032600088FE3846BDE8F081F30200202DE9F041E8
:1032700004460D461646002701F077FE0E480088EA
:10328000032813DB0C4801880C48006801F072FB2E
:1032900060B90A4800680078207007480088801EDE
:1032A000308006480068401C286000E0052701F0D7
:1032B00060FE3846BDE8F081E8020020E40200200C
:1032C0002DE9F04104460D4616464FF0000801F086
:1032D0004CFE1748007818BB681E1649086001208C
:1032E0001549088013480068047008460088304477
:1032F0000880084601880F48006801F03BFB07463C
:103300000D490888411C0C4A11800C4909680F546A
:1033100001200B4908700121002001F02FFE01E07F
:103320004FF0050801F025FE4046BDE8F0810000A1
:10333000E1020020EC020020F0020020E402002064
:10334000E002002010B501F010FE0021012001F084
:1033500015FE00200349087001F00BFE002002F06A
:1033600013FA10BDE102002010B501F0FEFD0021AE
:10337000084601F003FE01F017FE01F0FAFD10BD52
:1033800010B5002406480078012806D105480068D9
:1033900020B104480068804700E00624204610BDA4
:1033A0001A0200202C02002010B50A48007838B913
:1033B000094800688047012006490870002406E09B
:1033C00004480078012801D1002400E006242046AA
:1033D00010BD00001A0200202402002010B50024B5
:1033E00006480078012806D105480068804700207B
:1033F0000249087000E00624204610BD1A02002091
:10340000200200202DE9F05F06460D464FF0000B2C
:103410002888052848D170784FEA0029B07840EA1A
:10342000090909F101001FFA80F9F07804023079E6
:103430000443012C35DBB4F5FA6F32DA374600204D
:103440002880012007F8010B2888401C288004F000
:10345000070040B12046E11704EB5171C910491C27
:1034600001F0FF0805E02046E11704EB5171C1F3BC
:10347000C70807F8018B2888401C288000232246B3
:103480004946384600F0BEFC8246BAF1000F04D02F
:10349000504601F039FA834608E0288840442880E5
:1034A00004E04FF0030B01E04FF0030B5846BDE87A
:1034B000F09F2DE9F05F06460D464FF0000B28887F
:1034C000052847D170784FEA0029B07840EA090909
:1034D00009F101001FFA80F9F07804023079044301
:1034E000012C34DBB4F5FA6F31DA3746002028803E
:1034F000022007F8010B2888401C288004F00700F0
:1035000040B12046E11704EB5171C910491C01F08C
:10351000FF0805E02046E11704EB5171C1F3C7082D
:1035200007F8018B2888401C2880224649463846E7
:1035300000F06CFC8246BAF1000F04D0504601F056
:10354000E3F9834608E028884044288004E04FF0EF
:10355000030B01E04FF0030B5846BDE8F09F2DE947
:10356000F04705460C464FF0000A2088052837D161
:1035700068784FEA0028A87840EA080808F10100B6
:103580001FFA80F8E87806022E79012E25DB7D2EC1
:1035900023DC2F4600202080032007F8010B208821
:1035A000401C20807006000E07F8010B2088401C8C
:1035B0002080002332464146384600F02BFC8146ED
:1035C000B9F1000F04D0484601F09EF9824609E0A7
:1035D000208800EB4600208004E04FF0030A01E061
:1035E0004FF0030A5046BDE8F0872DE9F047054645
:1035F0000C464FF0000A2088052837D168784FEA3A
:103600000028A87840EA080808F101001FFA80F8AD
:10361000E878060228790643012E24DB7D2E22DA83
:103620002F4600202080042007F8010B2088401C32
:1036300020807006000E07F8010B2088401C2080B7
:1036400032464146384600F043FC8146B9F1000F4E
:1036500004D0484601F058F9824609E0208800EB82
:103660004600208004E04FF0030A01E04FF0030A17
:103670005046BDE8F0872DE9FC5F04460D4600206A
:10368000009028880A285DDB60784FEA002AA0783D
:1036900040EA0A0A0AF101001FFA80FAE0780602FD
:1036A0002079064360794FEA002BA07940EA0B0BA2
:1036B0000BF101001FFA80FBE0790702207A074333
:1036C000607A0190012E3BDB7D2E39DC012F37DB48
:1036D000792F35DC79000198814231D101233A46B6
:1036E000594604F10A0000F095FB8146B9F1000F3C
:1036F0001ED1A04600202880172008F8010B28883A
:10370000401C28807006000E08F8010B2888401C19
:103710002880002332465146404600F07BFB81461C
:10372000B9F1000F04D12888022101FB060028808E
:10373000B9F1000F06D0484601F0E6F8009001E02C
:10374000032000900098BDE8FC9F000070B505467E
:103750000C46064802880649681CFCF7A7FD03488A
:103760000088401C2080002070BD0000DC0200208A
:10377000988A00202DE9FC5F05460C464FF0000BAF
:10378000002000902088022866DB02272078C01BDA
:1037900000F0FF08002001901EE0E85D00F01F0926
:1037A000781CC7B2A8F1010000F0FF089DF80400E2
:1037B000401CC0B20190C14502DD4FF0010B11E089
:1037C00007EB0900C7B29DF804004844C0B201905D
:1037D000A8EB090000F0FF08B8F1000F02D0BBF120
:1037E000000FDAD000BFBBF1000F04D0032000901F
:1037F0000098BDE8FC9F012201A9A81C00F0BEFBB7
:103800008246BAF1000F1FD12E460020208064208E
:1038100006F8010B2088401C2080002006F8010BD0
:103820002088401C2080002201A9304600F0A6FB21
:103830008246BAF1000F07D120889DF80410084491
:1038400020809DF804006870BAF1000F06D0504641
:1038500001F05AF8009001E0032000900098C8E7BA
:103860002DE9F84304460F464FF000083888052834
:1038700029D160780502A0780543681C85B22079BB
:10388000F0B9E078FF2801D0E078C8B900208DF8C1
:103890000100E078FF2803D101208DF8000002E04C
:1038A00000208DF8000001231A462946684600F0E2
:1038B000A9FA06464EB1304601F026F8804604E0EB
:1038C0004FF0030801E04FF003084046BDE8F883DD
:1038D0002DE9F04104460F464FF0000838880528CE
:1038E00012D160780502A0780543681C85B20123D7
:1038F0001A462946E01C00F08DFA064636B13046DD
:1039000001F002F8804601E04FF003084046BDE8B0
:10391000F0812DE9F05F05460E464FF0000B308830
:10392000052839DD68780702A8780743781C87B234
:10393000E87804022879044395F805A004F007000C
:1039400040B12046E11704EB5171C910491C01F048
:10395000FF0805E02046E11704EB5171C1F3C708E9
:10396000012C16DBB4F5F66F13DCD04511D1012321
:1039700022463946A81D00F045FA8146B9F1000FEC
:1039800004D0484600F0C0FF834607E005203080A1
:1039900004E04FF0030B01E04FF0030B5846BDE885
:1039A000F09F2DE9F04704460E464FF0000A30889C
:1039B000062828DB60780702A0780743781C87B2C6
:1039C000E07805022079054394F80590012D17DB76
:1039D000782D15DC6806000E484511D101232A46D2
:1039E0003946A01D00F016FA8046B8F1000F04D049
:1039F000404600F089FF824607E00520308004E061
:103A00004FF0030A01E04FF0030A5046BDE8F0878B
:103A10002DE9F04705460C4616461F46DDF8209076
:103A20004FF000081CB1012C01DBF72C02DD4FF038
:103A3000020859E02E48047015B1012D42D120E052
:103A40002C482D4908602D482D4908602D482E49E5
:103A500008602E482E49086000202E4908602E4834
:103A60002E4908602E482F4908602F482F490860CA
:103A70004B463A4631461E48007800F007F980462A
:103A800023E02B481C4908602A481D4908602A4841
:103A90001D49086029481E49086000201D4908602A
:103AA00027481E49086027481E49086026481F49C4
:103AB00008604B463A4631460D480078FFF7B2FBA6
:103AC000804602E04FF0020800BF00BFB8F1000FCF
:103AD0000AD101F049FE10B94FF0030804E01B4879
:103AE000057001201A4908704046BDE8F0870000C3
:103AF00018020020C93D000820020020ED3D00080A
:103B000024020020393D00081C020020E13C00088E
:103B1000280200202C0200208958000830020020D2
:103B200051590008340200201159000838020020C1
:103B30004533000869330008C13200086D320008BF
:103B400001550008555600082956000819020020A2
:103B50001A02002038B500254148007808B1062037
:103B600038BD684601F0EEFD012877D19DF80000D0
:103B700030B1012805D0022818D003286DD16BE0A0
:103B80006BE0384A38493948394B1B689847054635
:103B90005DB93648007837490978884202D0334801
:103BA000007810B9022001F0EFFD56E02E480068C1
:103BB000007831490870012030490870002417E06E
:103BC0002F4810F8340000B914E02D4810F83400E4
:103BD0002949097888420AD1294800EBC4002149C3
:103BE00042682148006890472449087002E0641C3C
:103BF000102CE5DB00BF1D48007858B31F48007843
:103C0000C8B10020174908801B48007840F08001A7
:103C1000144802880088401C124B18801248006823
:103C2000815416480278184601880088401C188084
:103C30000D480068425413480078012800D100BFA5
:103C400008480288084801680A4800780E4B1B683B
:103C50009847054601E001E000BF00BF00207FE774
:103C60001A020020CA020020C4020020C80200205C
:103C70002802002018020020C9020020CC020020E7
:103C800044020020190200201C0200202DE9F04708
:103C900081460E4614461F464FF0000801F065F9B4
:103CA0003B4608222146304601F08EFD012802D015
:103CB0004FF003080CE060000849B1FBF0F505B9CE
:103CC0000125A8B201F0B4FD012801D04FF003088E
:103CD00001F04FF94046BDE8F0870000A07F1700D3
:103CE0002DE9F04104460D4616464FF00008002726
:103CF00001F03BF90E480088042812DB0C480188CB
:103D00000C4801F0C9F860B90A48007820700848EA
:103D10000088C01E30800748401C28604FF0010812
:103D200000E0052701F025F93846BDE8F0810000E4
:103D3000DA020020988900202DE9F04105460E4660
:103D400017464FF0000801F010F91A4800780128D2
:103D500029D1701E184908600120184908801648AA
:103D600000680570084600883844088008460188C5
:103D70001148006801F090F8044610490888411C79
:103D80000E4B19800E490C54221219460888411C0A
:103D900019800B490A5401200A49087001210020AA
:103DA00001F0ECF801E04FF0050801F0E2F84046C0
:103DB000BDE8F081D1020020D4020020D80200200A
:103DC00098890020D002002010B501F0CEF8002024
:103DD000054908700021012001F0D0F801F0F0F849
:103DE00001F0C7F810BD0000D102002010B501F0AD
:103DF000BCF80021084601F0C1F801F0D5F801F047
:103E0000B8F810BD10B50446012010BD03460120CE
:103E1000704700002DE9F04704460F4616469846C5
:103E20004FF00009012F49DBB819652846DC264808
:103E300000883D1AB8F1000F03D0B8F1010F3CD152
:103E400012E00EE0214800EB45000088001204F863
:103E5000010B1E4810F8150004F8010B6D1C701EB4
:103E600086B2002EEEDC28E014E014F8011B0802F4
:103E7000164901EB4501088014F8010B134901EBC9
:103E8000450109880843114901EB450108806D1C73
:103E9000701E86B2002EE8DC0C48FFF77DF90B4956
:103EA000888AFCF715FC0949D1F81600FEF7D6FA06
:103EB0000649887EFCF7EEFB00BF01E04FF00109E8
:103EC0004846BDE8F087000072000020740500201D
:103ED00070B504460020B1F57A7F0EDB8D1840F2F4
:103EE0006546B54209DC064D2D884B1B02E05B1C84
:103EF000551EAAB2002AFADC00E0012070BD0000C5
:103F0000700000202DE9F04105460E4617461C467C
:103F10004FF00008A01C202826DA00201549088050
:103F2000084601880088401C124A108012484554F7
:103F30000EB1FF2200E000220E4801880088401CDC
:103F40000C4B18800C484254002C0FDD01461A46D9
:103F50001288881822463946FCF7A8F905480088D7
:103F600020440449088001E04FF004084046BDE8C1
:103F7000F0810000DC020020988A00202DE9F74F34
:103F800084B006468A4600200390069810B10128A6
:103F90005AD12FE00024002527E02E4850F8257044
:103FA0000FB301944FF0000908E0601CC4B209F19E
:103FB000010000F0FF099DF808003055B9F11F0F0E
:103FC00007DA00231A4602A9386801F0C4FD012867
:103FD000EBD0B9F1000F06D049EA4510C1B2019803
:103FE0003154601CC4B2681CC5B2082DD5DB8AF8F8
:103FF000004029E000249AF8008022E0305D45115D
:10400000154850F82570305D00F01F0B601CC4B2DD
:10401000A8F101000FFA80F810E02FB13119002348
:104020001A46386801F080FE601CC4B2A8F1010095
:104030000FFA80F8ABF1010000F0FF0BBBF1000FAD
:10404000EBD1B8F1000FD9DC00BF039807B0BDE891
:10405000F08F00003C0100205C010020FCF732FEE4
:10406000FEF7DAFCFEF7E2F8FEF780F8FEF71EFB3B
:10407000FEF7D8F800F015F800BFFEE70146002073
:10408000842901D0CA1C1044704770B504462546E7
:104090000DB1294600E00121084601F08FF800200B
:1040A00070BD10B501F096F9002010BD70B5044642
:1040B0000D460022D4E9000101F015FD70BD10B5D8
:1040C00002F000F8012801D001F0D2FC10BD70B55B
:1040D00086B004460D46B4F90800FFF7CFFF064648
:1040E000002005AACDE9012000960390238A9AB208
:1040F0002B46D4E9001001F049FF012802D000202E
:1041000006B070BD0598FBE7F8B504460D461646A7
:1041100020680090012D01D1012000E0002002461E
:104120003346012101A002F09FF9F8BD0000000014
:1041300010B504460E48006844600E48006884428A
:1041400007D20B480168091D0B48006800F0E7FE24
:104150000CE007480168091D0848006800F0DFFE10
:1041600007480068844201D20548046010BD000081
:10417000E0010020F4010020E8010020E40100201B
:10418000100200202DE9F04105460F461FB9A80096
:1041900000F056FC00E03846064656B15C2000F0C0
:1041A0004FFC04460CB1266304E0304600F04CFF9F
:1041B00000E0002424B1A900A522206BFCF788F8B8
:1041C0002046BDE8F081000010B500F005FF14485E
:1041D000006808BB134800F092FE134800F08FFE01
:1041E00010481249086010481149086000220C214B
:1041F0000A2001F078FC0A4908600846006818B9EE
:10420000FCF734F800BFFEE70548006820B109A1BB
:104210000348006800F09EFF00F000FF10BD0000A2
:10422000B4010020A0070020B4070020AC0100204A
:10423000B0010020546D72510000000070B523E001
:1042400001F0F8F81348006808B9012000E00020E8
:10425000054602F095F8BDB900F0BEFE0D48C068F5
:10426000C468201D00F034FE0B480068401E0A4957
:1042700008600A480068401E0849086000F0CEFE49
:10428000204600F062F800BF044800680028D7D13B
:1042900070BD000070890020F0010020EC010020BA
:1042A00070B504460D46206C70B1216CE06808447E
:1042B000E0606168E068884201D32068E0602846D9
:1042C000226CE168FBF7F2FF70BD2DE9F041044676
:1042D0000E4615460027206C40B9206878BB606800
:1042E00001F0B2FF07460020606028E07DB931464A
:1042F000226CA068FBF7DAFF216CA0680844A0607C
:10430000D4E9011088421AD32068A06017E0314632
:10431000226CE068FBF7CAFF216CE068401AE0609D
:104320002168E068884203D2216C6068401AE0602E
:10433000022D04D1A06B10B1A06B401EA063A06B36
:10434000401CA0633846BDE8F08110B50446206BE0
:1043500000F07AFE204600F077FE10BD0146084AC4
:10436000126812680AB9012200E000220A600A6895
:1043700022B9034A1268D268106800E00020704732
:10438000AC01002030B54FF40043174800F007049B
:104390002CB1C01D20F00700134C041B1B1B024650
:1043A000124C22600024114D6C60D018083820F0A7
:1043B00007000F4C206000240D4D2D686C600C4DE3
:1043C0002D682C601146441A4C60094C24680C601E
:1043D000084D4C682C60084D4C682C604FF0004430
:1043E000064D2C6030BD0000C8070020BC01002035
:1043F000C4010020CC010020C8010020D001002011
:1044000000BFFFF71BFF034800680128F9D900F03F
:1044100095FEF6E7088800202DE9F04704460F4690
:1044200015469946DDF82080002607E0B95D04F1C5
:1044300034008155B85D00B902E0761C102EF5D32A
:1044400000BF0021432001550F2D00D30E25E5624A
:10445000E56400202065201D00F05EFD04F11800D9
:1044600000F05AFD2461C5F10F00A06164620020D4
:10447000606584F85800BDE8F087000010B500249E
:1044800007E004EB84010F4A02EB810000F037FDE6
:10449000641C0F2CF5D30C4800F031FD0B4800F0E4
:1044A0002EFD0B4800F02BFD0A4800F028FD0A48BD
:1044B00000F025FD044809490860044808490860DF
:1044C00010BD0000088800203489002048890020A1
:1044D0005C8900207089002084890020E40100208C
:1044E000E801002010B50146164800E000680368A6
:1044F0008B42FBD30246436813448B4204D143688A
:104500004C682344436001460A464B6813440468E0
:10451000A34211D10C4C03682468A34208D04B6815
:104520000468646823444B6003681B680B6005E003
:10453000054B1B680B6001E003680B60884200D0EC
:10454000016010BDBC010020C40100202DE9F04134
:1045500004460D4616461F464FF00008656024616C
:10456000B5420CD8F01BA169884202D34FF0010874
:1045700011E0211D0948006800F0D1FC0BE0BE42AB
:1045800004D2BD4202D34FF0010804E0211D0448CB
:10459000006800F0C4FC4046BDE8F081B001002096
:1045A000AC01002070B5054600F016FDA86B08B9F7
:1045B000012400E0002400F031FD204670BD70B5FC
:1045C000054600F009FDA86BE96B884201D1012482
:1045D00000E0002400F022FD204670BDF8B505463D
:1045E0000F4613480068C068C468201D00F070FCC6
:1045F000E069012817D1A06941192B463A462046A7
:10460000FFF7A4FF01280ED1002003462A460146E9
:104610000090204601F076FF06461EB9FBF726FE05
:1046200000BFFEE700BF2046616A8847F8BD000072
:10463000AC01002070B586B05DE0039800285ADB1D
:10464000059C606908B9012000E0002010B9201D18
:1046500000F03EFC02A800F09BF8054603980A28EB
:1046600047D2DFE800F00905072B2D4206082C2E63
:1046700000BF00BF00BF00BF0498A26981180346B5
:104680002A462046FFF762FF012816D12046616ABC
:104690008847E069012810D1002000900498A169A2
:1046A000421800231946204601F02CFF06461EB989
:1046B000FBF7DCFD00BFFEE700BF1BE000BF19E019
:1046C00000BF0498A061A06908B1012000E00020AB
:1046D00018B9FBF7CBFD00BFFEE7A06941192B46D7
:1046E0002A462046FFF732FF04E0204600F0ACFCEB
:1046F00000E000BF00BF00231A4603A9034800687A
:1047000001F029FA002898D106B070BDB40100204C
:10471000F8B504460E4600F08DFE684600F038F805
:1047200005460098A0B946B9AC4206D801F028FE6B
:1047300029462046FFF752FF0CE0611B064800683F
:1047400000F01EFD01F01CFE20B900F0F7FC01E0B6
:1047500001F016FEF8BD0000B40100200A49096806
:10476000096809B9012100E0002121B14FF0FF31B2
:10477000064A116006E004490968C968C868034A26
:104780004168116070470000E40100201002002021
:1047900070B5044601F0A6FC05460748006885424E
:1047A00004D200F00BF80120206001E0002020601E
:1047B00001480560284670BDB80100202DE9F84386
:1047C0002BE020480068C06805681E480068C06883
:1047D000C468201D00F07CFB2046616A8847E069C0
:1047E00001281AD1A0694619AE4207D96660246132
:1047F000211D1448006800F092FB0EE000200346E3
:104800002A4601460090204601F07CFE07461FB96B
:10481000FBF72CFD00BFFEE700BF0A4800680068F8
:1048200008B9012000E000200028CAD00548D0F8CF
:10483000008005480068034908600348C0F800800C
:10484000BDE8F883AC010020B001002007480068F3
:10485000401C08B9012000E0002018B9FBF706FD54
:1048600000BFFEE7FBF702FD00BFFEE7D40100201A
:1048700008B500BF6846FFF771FD04462046009961
:10488000FFF746FFFFF7D6FEF4E710B5044600F049
:10489000A3FB11E0606A08B9012000E0002038B9EC
:1048A00004F1240001F026FD18B100F0BFFC00E087
:1048B00005E0A06C401EA064A06C0028EADC00BFEC
:1048C0004FF0FF30A06400F0A9FB00F085FB11E081
:1048D000206908B9012000E0002050B904F110005F
:1048E00001F008FD08B100F0A1FC606C401E60649E
:1048F00000E002E0606C0028EADC00BF4FF0FF300F
:10490000606400F08BFB10BD014621B1012904D089
:10491000072906D103E0002005E0022003E006207D
:1049200001E0042000BF00BF70470146092903DCF5
:1049300001F13000C0B270470A2905DB0F2903DC02
:1049400001F13700C0B2F6E700BF3020F3E70146BF
:10495000302905DB392903DCA1F13000C0B27047F2
:10496000412905DB462903DCA1F13700C0B2F6E797
:10497000FF20F4E710B50246002003E012F8014BD7
:104980002318D8B20B1EA1F10104A1B2F6D1434203
:10499000D8B210BD10B50024012000F0FFFA08487D
:1049A000006880470446002000F0F8FA0CB10120AE
:1049B00000E0002018B14FF080500249086010BD9F
:1049C0003802002004ED00E010B50024012000F0C2
:1049D000E5FA0848006880470446002000F0DEFA47
:1049E0000CB1012000E0002018B14FF080500249C6
:1049F000086010BD3002002004ED00E010B5002476
:104A000000224FF480710B48FCF748F9012000F0B8
:104A1000C5FA0948006880470446002000F0BEFA45
:104A20000CB1012000E0002018B14FF08050034984
:104A3000086010BD000002403402002004ED00E0D8
:104A40002DE9F04104464FF0000800F0F3FC3E4829
:104A5000006808B9FFF796FC3C4800682040002831
:104A60005DD19CB1083404F0070078B104F0070070
:104A7000C0F10800044404F0070008B9012000E078
:104A8000002018B9FBF7F2FB00BFFEE7002C46D070
:104A90002F480068844242D82E4E3046056801E017
:104AA0002E462D686868A04202D228680028F7D1F7
:104AB00025480068854232D0306800F1080828682F
:104AC00030606868001B102812D92F1907F0070002
:104AD00008B9012000E0002018B9FBF7C7FB00BFB0
:104AE000FEE76868001B78606C603846FFF7FAFCE8
:104AF000174968680968081A154908600846006877
:104B000015490968884203D21148006812490860B3
:104B10000E4968680968084368600020286001F051
:104B20002FFCB8F1000F01D100F0E6F908F0070002
:104B300008B9012000E0002018B9FBF797FB00BF7F
:104B4000FEE74046BDE8F081C4010020D00100200E
:104B5000C8010020BC010020CC01002006480068EC
:104B600030B10549096801F15000096D491C016027
:104B70000148006870470000E0010020001F4FF06E
:104B800080730360001F0160001F054B0360143831
:104B90000260001F6FF002030360203870470000BE
:104BA0004D48000810B504461E4A2068811A9042FC
:104BB00029D009DC1C49084498B1B0F5806F16D0A3
:104BC000B0F5006F2BD118E0B1F5404F03D0B1F52F
:104BD000444F24D11DE0012214491548FDF764F922
:104BE0001DE0012213491448FDF75EF917E0012288
:104BF00012491348FDF758F911E0012211491248F2
:104C0000FDF752F90BE0012210491148FDF74CF96C
:104C100005E001220F491048FDF746F900BF00BF2B
:104C200010BD00000050004000BCFFBF5500002038
:104C3000F40300205600002034040020540000201B
:104C40007404002057000020740300205800002046
:104C5000B403002059000020B404002000B5BDB00A
:104C6000012000F015FF75490860012000F010FFD9
:104C700073490860734800683C90002201213CA8F9
:104C8000FFF742FA7049086014226E49091D37A8DF
:104C9000FBF70CFB002137A8FFF719FA6B490860F6
:104CA00014226849183132A8FBF700FB002132A812
:104CB000FFF70DFA66490860142262492C312DA8CD
:104CC000FBF7F4FA00212DA8FFF701FA614908600B
:104CD00014225C49403128A8FBF7E8FA002128A8F3
:104CE000FFF7F5F95C49086014225649543123A8AE
:104CF000FBF7DCFA002123A8FFF7E9F95749086020
:104D00001422504968311EA8FBF7D0FA00211EA8D2
:104D1000FFF7DDF95249086014224A497C3119A88D
:104D2000FBF7C4FA002119A8FFF7D1F94D49086033
:104D30004449903103C9CDE91701002117A8FFF7B5
:104D4000B5F9494908603F49983103C9CDE91501D2
:104D5000002115A8FFF7AAF9444908603949A03194
:104D600003C9CDE91301002113A8FFF79FF94049BA
:104D700008603449A83103C9CDE91101002111A807
:104D8000FFF794F93B4908602E49B03103C9CDE9DA
:104D90000F0100210FA8FFF789F937490860294959
:104DA000B83103C9CDE90D0100210DA8FFF77EF947
:104DB000324908602349C03103C9CDE90B01002104
:104DC0000BA8FFF773F92E4908601E49C83103C9C3
:104DD000CDE90901002109A8FFF768F92949086010
:104DE0001849D03103C9CDE90701002107A8FFF711
:104DF0005DF9254908601349D83103C9CDE905019A
:104E0000002105A8FFF752F9204908600D49E0315B
:104E100003C9CDE90301002103A8FFF747F91C49A5
:104E200008600849E83103C9CDE90101002101A862
:104E3000FFF73CF9174908603DB000BD7C01002038
:104E400080010020706500084C0000200000002058
:104E5000080000201000002014000020180000208E
:104E6000040000200C0000201C0000202000002076
:104E700024000020280000202C000020300000200A
:104E800034000020380000203C00002040000020BA
:104E9000440000204800002070B502460C46FF2563
:104EA000FF2309E012F8010B80EA03010648405C89
:104EB00080EA05030548455C201EA4F10106B4B252
:104EC000F0D143EA052070BD8466000884670008BD
:104ED00001460A69D1E901309860D1E901035860BF
:104EE0005068884201D188685060002008611068CD
:104EF000401E10601068704770477047704700F19F
:104F0000080141604FF0FF31816000F10801C1608C
:104F1000016100210160704700210161704710B5F7
:104F200002460B685C1C0CB9106907E002F108002E
:104F300000E04068446824689C42FAD944684C60A8
:104F40004C68A160886041600A611468641C146048
:104F500010BD42684A6093688B60936859609160A5
:104F6000086103685B1C0360704710B500F034F8FB
:104F700010BD10B500F052F810BD000070B5054628
:104F80000C4615B10348FFF70DFE14B10248006846
:104F9000804770BDF40300203402002001490870EE
:104FA00070470000F902002010B50448FCF7E7FB49
:104FB000002002490968486210BD0000FC02002080
:104FC00010B500200349096848620248FCF7C8FB95
:104FD00010BD0000FC02002010B5FBF747F90D489A
:104FE0000068401C0B490860BFF34F8FBFF36F8F01
:104FF0000846006801280CD10748006800F01F002F
:1050000008B9012000E0002018B9FBF72FF900BF14
:10501000FEE710BDD401002004ED00E010B5094802
:10502000006818B9FBF722F900BFFEE705480068E1
:10503000401E044908600846006810B90020FBF7CC
:105040001CF910BDD401002070B506463546002E6F
:1050500031D0083D2C46184960680968084008B1FD
:10506000012000E0002018B9FBF700F900BFFEE7BF
:10507000206808B9012000E0002018B9FBF7F6F815
:1050800000BFFEE70C4960680968084098B12068D5
:1050900088B90949606809688843606000F0CAF906
:1050A0000649606809680844044908602046FFF71B
:1050B00019FA01F065F970BDD0010020C801002087
:1050C000064800684FF47A71B0FBF1F0401E4FF0D3
:1050D000E02148610720086170470000A801002016
:1050E00070B5FBF7CDF80546102D0FD305F1E02084
:1050F00090F8F0430E480078844201DB012000E084
:10510000002018B9FBF7B2F800BFFEE709480068B5
:1051100000F4E06008490968884201D8012000E0F5
:10512000002018B9FBF7A2F800BFFEE770BD000031
:10513000D80100200CED00E0DC0100204FF0805091
:1051400003490860BFF34F8FBFF36F8F70470000B4
:1051500004ED00E0024600200BE0084B53F830302D
:1051600033B9064B43F8301003EBC0035A6002E03A
:10517000401C0828F1D300BF70470000C8870020FA
:1051800070B505460E462C46FFF726FF606C401CA6
:1051900008B900206064A06C401C08B90020A0641D
:1051A000FFF73CFFA06B20B9314604F1240000F06A
:1051B0007BF82046FFF769FB70BD000070B5044620
:1051C000002634B31548006808B9012000E000202B
:1051D00018B9FBF74BF800BFFEE700F02BF91048B9
:1051E000006805190F480068001DFFF771FE50B9EF
:1051F0000C48006890F82C10012088400A49096882
:105200008143094801602846FEF792FF01F0B8F893
:1052100006460EB9FFF792FF70BD00001402002091
:10522000F4010020E0010020F801002001200149E4
:10523000086070470402002070B505460C461DB991
:10524000FBF714F800BFFEE7134801681831284641
:10525000FFF765FE10480068001DFFF739FE50B9E2
:105260000D48006890F82C10012088400B4909680F
:1052700081430A480160601C30B907480168091D74
:105280000748FFF766FE05E0064800680619304645
:10529000FEF74EFF70BD0000E0010020F801002085
:1052A00084890020F401002070B504460D461CB925
:1052B000FAF7DCFF00BFFEE70E4801681831204610
:1052C000FFF747FE0B480068001DFFF701FE50B9CD
:1052D0000848006890F82C100120884006490968A9
:1052E0008143054801600548006846193046FEF7CD
:1052F0001FFF70BDE0010020F8010020F401002034
:1053000070B505462C46002D4BD02649E06A096849
:10531000C96A884245D2A06900F0004028B92148F6
:105320000068C06AC0F10F00A061E16A01EB810171
:105330001D4A02EB81016069884201D1012000E031
:10534000002050B3201DFFF7C3FD78B9E06A00EBE1
:105350008000154951F8200040B994F82C10012024
:105360008840124909688143104801600D4800686F
:10537000C06AE06294F82C10012088400B4909684B
:1053800008430A490860E16A01EB8101064A02EB21
:105390008100211DFFF7DDFD03E002480068C06ABF
:1053A000E06270BDE001002008880020F8010020C4
:1053B00010B504461CB9FAF759FF00BFFEE70348D1
:1053C0000068206002480068606010BD080200208C
:1053D000F40100201FB500200090019002900346C8
:1053E00080220FA10390104800F0D0FD0446012C4C
:1053F00002D101F061F80446012C0AD1FAF736FF18
:1054000001200A49086000200949086000F0D6FA26
:1054100004E01CB9FAF72AFF00BFFEE71FBD000039
:1054200049444C450000000001440008FC010020F4
:10543000F401002002480068401C014908607047E0
:105440001402002010B52848006818B1012027492F
:10545000086047E00020254908602548006800688A
:1054600023490968096B884205D82148016834310D
:105470000068FFF742FD1E4909681422086B1D49A8
:10548000FAF738FF28B11A48016834310068FFF78D
:1054900034FD19480068B0FA80F0C0F11F0404EB35
:1054A0008400164951F8200008B1012000E00020D6
:1054B00018B9FAF7DBFE00BFFEE704EB84010F4AE0
:1054C00002EB810041684968416000F108014268CF
:1054D0008A4202D14168496841604168C968044A0A
:1054E000116000BF10BD0000140200200402002063
:1054F000E001002070660008F80100200888002004
:1055000038B50025684600F057F942480078002871
:105510006ED0012802D0022879D146E0FFF750FD75
:105520009DF800003A2805D100203B4908703B490E
:10553000088039E09DF800000D2803D1022035498C
:10554000087031E09DF80000FFF701FA0446324888
:10555000007810B1012826D114E030480088FF28D7
:105560000ADC2007000E2E4909682C4A128888544C
:1055700001202949087016E0002026490870FFF72D
:1055800013FD10E026490968244A1288881801781A
:105590002143017021480088401C204908800020D8
:1055A0001D49087000BF00BF31E09DF800001D4993
:1055B0000978884209D1FFF7F7FC002015490870E7
:1055C000012000F0E1F8054611E09DF800003A28BE
:1055D0000AD10020104908701049088001200D49A7
:1055E0000870FFF7EDFC02E000200A4908700EE0A9
:1055F0009DF800003A2809D1FFF7E2FC0020074996
:1056000008800549087001200249087000BF00BFEA
:10561000284638BDE1020020EA020020E80200200E
:10562000E4020020F302002010B5094800780128A8
:1056300002D0022805D100E000BF00200449087014
:1056400000E000BF00BFFFF7AFFC002010BD00006E
:10565000E102002070B5002535480078052864D2A5
:10566000DFE800F05E030E474F003A24204600F0CA
:10567000C9F802202E49087000202E49087054E015
:105680002D48008800282DDD2A48007810B1012817
:1056900027D10DE02949096809780811FFF745F974
:1056A0000446204600F0AEF801202249087018E0B8
:1056B00022490968097801F00F00FFF736F904461E
:1056C000204600F09FF81D480068401C1B490860F8
:1056D00000201849087018480088401E16490880A4
:1056E00000BF05E00D2000F08DF803201049087080
:1056F0001BE01348007800F085F804200C4908707E
:1057000013E000200A490870032000F03DF8054628
:1057100000210120FFF732FC00200549087004E059
:1057200000210120FFF72AFC00BF00BF284670BD02
:10573000E0020020EA020020F0020020EC0200203B
:10574000F302002070B504460025002332222146D2
:105750000448006800F0FFF9012800D1012528461F
:1057600070BD0000F402002010B5002400220121C9
:10577000084600F0B8F90349086000B1012420464A
:1057800010BD0000F402002031B50124FDF744FDF6
:1057900038B100231A4669460648006800F065FBE8
:1057A00006E000231A4669460248006800F0BCFA89
:1057B000204638BDF40200200146024800780870F7
:1057C00001207047550000202DE9F04106460C46A7
:1057D00017461D4609480A490860084644600021EA
:1057E0008160C16005610C21416100218161C1615D
:1057F000FCF7F1F90120BDE8F08100000010014044
:10580000F403002010B50446012211020548FBF7FD
:1058100045FA05480470012201460448FCF754FC8F
:10582000012010BD00000240F8020020F403002017
:1058300010B586B004461348FBF7A1FF4FF0804037
:10584000104908600020486000210E4881604FF434
:10585000616060430B49C86000210A480161FBF7A1
:1058600028FF4FF48050029002A90648FBF7A3FFDF
:1058700000200090019069460248FBF7E9FE0120F4
:1058800006B010BDFC02002038B500246846FFF7C2
:1058900093FF1C48007830B101280AD0022819D0A3
:1058A00003282BD102E0FFF78BFB27E0FFF788FBF3
:1058B00024E00020144908809DF800200888411C3D
:1058C000114B198011490A5402200E490870FFF744
:1058D00077FB13E00C480088FF2809DC9DF80020C6
:1058E00009490888411C084B198008490A5402E0FC
:1058F000032004490870FFF763FB00BF00BF204688
:1059000038BD0000D1020020DA0200209889002072
:1059100010B500240D48007820B1022807D00328D4
:105920000BD109E00020FFF72FFF044606E001201D
:10593000FFF72AFF044601E000E000BF00BFFFF7C9
:1059400033FB012001490870204610BDD102002020
:1059500010B500241648007810B1012824D104E0C5
:1059600000210120FFF70AFB1EE01248008878B1F1
:10597000114909680878FFF745FF0F480068401C87
:105980000D4908600B480088401E0A4908800AE05B
:105990000320FFF7F9FE044600210120FFF7EEFA8D
:1059A00000200349087000BF00BF204610BD000062
:1059B000D0020020D8020020D40200201CB52648C6
:1059C000014609780191FF210246117001460978CC
:1059D00000919DF8001001F05001204A117007213C
:1059E0001F4A116009E01E490968491E1C4A1160DE
:1059F0009DF800104906090E00919DF8001001F075
:105A000080018029EFD0164909680902144A116003
:105A10001146098801F4E06111600F4A0199117083
:105A20001048006840F470000E490860084600689D
:105A300040F070400860FFF743FB00200A4908600F
:105A4000FAF7DEFB0948006840F04040074908606B
:105A5000FAF7C6FB00201CBD00E400E0D8010020DE
:105A6000DC01002020ED00E0D401002034EF00E054
:105A700010B5FAF7FBFB00F041FB18B14FF0805076
:105A8000024908600020FAF7F8FB10BD04ED00E0C1
:105A900070B505465420FEF7D3FF0446E4B100205C
:105AA00060602060A060E060A0630120E0630020EF
:105AB0002064401E6064A06484F8505004F110001B
:105AC000FFF71DFA04F12400FFF719FA00231A4624
:105AD0001946204600F028F91CB9FAF7C7FB00BFA9
